:020000040800F2
:100000000050002075430008911A0008931A000858
:10001000951A0008971A0008991A000800000000B5
:100020000000000000000000000000009B1A000813
:100030009D1A0008000000009F1A0008A11A00087D
:10004000BD430008BD430008BD430008BD43000890
:10005000BD430008BD430008BD430008BD43000880
:10006000BD430008BD430008BD430008BD43000870
:10007000BD430008BD430008BD430008BD43000860
:10008000BD430008BD430008BD430008BD43000850
:10009000BD430008BD430008BD430008BD43000840
:1000A000BD430008BD430008BD430008BD43000830
:1000B000BD430008BD430008BD430008BD43000820
:1000C000BD430008BD430008BD430008BD43000810
:1000D000BD430008BD430008BD430008BD43000800
:1000E000BD430008BD430008BD43000800000000F8
:1000F0000000000000000000000000000000000000
:0C01000000000000000000005FF808F1A3
:1001100010B5054C237833B9044B13B10448AFF341
:1001200000800123237010BDC009002000000000E2
:10013000CCAE000808B5034B1BB103490348AFF32D
:10014000008008BD00000000C4090020CCAE0008FB
:1001500081F0004102E000BF83F0004330B54FEA78
:1001600041044FEA430594EA050F08BF90EA020FE5
:100170001FBF54EA000C55EA020C7FEA645C7FEA78
:10018000655C00F0E2804FEA5454D4EB5555B8BF9B
:100190006D420CDD2C4480EA020281EA030382EA0C
:1001A000000083EA010180EA020281EA0303362D9E
:1001B00088BF30BD11F0004F4FEA01314FF4801C71
:1001C0004CEA113102D0404261EB410113F0004F83
:1001D0004FEA03334CEA133302D0524263EB43033A
:1001E00094EA050F00F0A780A4F10104D5F1200ED8
:1001F0000DDB02FA0EFC22FA05F2801841F1000133
:1002000003FA0EF2801843FA05F359410EE0A5F106
:1002100020050EF1200E012A03FA0EFC28BF4CF037
:10022000020C43FA05F3C01851EBE37101F00045ED
:1002300007D54FF0000EDCF1000C7EEB00006EEBFA
:100240000101B1F5801F1BD3B1F5001F0CD3490884
:100250005FEA30004FEA3C0C04F101044FEA4452DB
:1002600012F5800F80F09A80BCF1004F08BF5FEA62
:10027000500C50F1000041EB045141EA050130BD42
:100280005FEA4C0C404141EB0101013C28BFB1F554
:10029000801FE9D291F0000F04BF01460020B1FA9F
:1002A00081F308BF2033A3F10B03B3F120020CDA72
:1002B0000C3208DD02F1140CC2F10C0201FA0CF050
:1002C00021FA02F10CE002F11402D8BFC2F1200CB5
:1002D00001FA02F120FA0CFCDCBF41EA0C0190406B
:1002E000E41AA2BF01EB0451294330BD6FEA0404B4
:1002F0001F3C1CDA0C340EDC04F11404C4F120029F
:1003000020FA04F001FA02F340EA030021FA04F3B0
:1003100045EA030130BDC4F10C04C4F1200220FA07
:1003200002F001FA04F340EA0300294630BD21FA45
:1003300004F0294630BD94F0000F83F4801306BF0B
:1003400081F480110134013D4EE77FEA645C18BFFF
:100350007FEA655C29D094EA050F08BF90EA020F96
:1003600005D054EA000C04BF1946104630BD91EA8E
:10037000030F1EBF0021002030BD5FEA545C05D191
:100380004000494128BF41F0004130BD14F58004D0
:100390003CBF01F5801130BD01F0004545F0FE4144
:1003A00041F470014FF0000030BD7FEA645C1ABF79
:1003B000194610467FEA655C1CBF0B46024650EAB0
:1003C000013406BF52EA033591EA030F41F40021DC
:1003D00030BD00BF90F0000F04BF0021704730B562
:1003E0004FF4806404F132044FF000054FF0000137
:1003F00050E700BF90F0000F04BF0021704730B5F8
:100400004FF4806404F1320410F0004548BF4042CC
:100410004FF000013EE700BF42004FEAE2014FEA21
:1004200031014FEA02701FBF12F07F4393F07F4FFC
:1004300081F06051704732F07F4208BF704793F0FF
:100440007F4F04BF41F40021704730B54FF4607412
:1004500001F0004521F000411CE700BF50EA010215
:1004600008BF704730B54FF000050AE050EA0102BE
:1004700008BF704730B511F0004502D5404261EB2E
:1004800041014FF4806404F132045FEA915C3FF46F
:10049000D8AE4FF003025FEADC0C18BF03325FEA0C
:1004A000DC0C18BF033202EBDC02C2F1200300FABD
:1004B00003FC20FA02F001FA03FE40EA0E0021FAE2
:1004C00002F11444BDE600BF4FEA410212F50012EA
:1004D00015D211D56FF47873B3EB625212D94FEA8B
:1004E000C12343F0004343EA505311F0004F23FA75
:1004F00002F018BF404270474FF00000704750EACA
:10050000013005D111F0004008BF6FF00040704786
:100510004FF00000704700BF4A0011D212F50012E0
:1005200011D20DD56FF47873B3EB62520ED44FEA4B
:10053000C12343F0004343EA505323FA02F07047CB
:100540004FF00000704750EA013002D14FF0FF3009
:1005500070474FF0000070474FEA4102B2F1E043AC
:1005600024BFB3F5001CDCF1FE5C0DD901F0004C9A
:100570004FEAC0024CEA5070B2F1004F40EB8300EA
:1005800008BF20F00100704711F0804F21D113F116
:100590003872BCBF01F00040704741F480114FEA4F
:1005A0005252C2F11802C2F1200C10FA0CF320FAD8
:1005B00002F018BF40F001004FEAC1234FEAD323F5
:1005C00003FA0CFC40EA0C0023FA02F34FEA43035F
:1005D000CCE77FEA625307D150EA01331EBF4FF0E8
:1005E000FE4040F44000704701F0004040F0FE4003
:1005F00040F40000704700BF80F0004002E000BF00
:1006000081F0004142001FBF5FEA410392EA030FFD
:100610007FEA226C7FEA236C6AD04FEA1262D2EB47
:100620001363C1BFD218414048404140B8BF5B424C
:10063000192B88BF704710F0004F40F4000020F0E5
:100640007F4018BF404211F0004F41F4000121F0FB
:100650007F4118BF494292EA030F3FD0A2F1010245
:1006600041FA03FC10EB0C00C3F1200301FA03F183
:1006700000F0004302D5494260EB4000B0F5000FA6
:1006800013D3B0F1807F06D340084FEA310102F165
:100690000102FE2A51D2B1F1004F40EBC25008BF17
:1006A00020F0010040EA03007047490040EB0000E1
:1006B000013A28BFB0F5000FEDD2B0FA80FCACF1E2
:1006C000080CB2EB0C0200FA0CF0AABF00EBC2500F
:1006D00052421843BCBFD0401843704792F0000FFD
:1006E00081F4000106BF80F400000132013BB5E750
:1006F0004FEA41037FEA226C18BF7FEA236C21D0C6
:1007000092EA030F04D092F0000F08BF084670472A
:1007100090EA010F1CBF0020704712F07F4F04D1F8
:10072000400028BF40F00040704712F100723CBF0B
:1007300000F50000704700F0004343F0FE4040F435
:10074000000070477FEA226216BF08467FEA2363F3
:100750000146420206BF5FEA412390EA010F40F4DE
:10076000800070474FF0000304E000BF10F000432A
:1007700048BF40425FEA000C08BF704743F0964311
:1007800001464FF000001CE050EA010208BF70472C
:100790004FF000030AE000BF50EA010208BF7047B3
:1007A00011F0004302D5404261EB41015FEA010CC8
:1007B00002BF84460146002043F0B64308BFA3F1C0
:1007C0008053A3F50003BCFA8CF2083AA3EBC253A2
:1007D00010DB01FA02FC634400FA02FCC2F12002C1
:1007E000BCF1004F20FA02F243EB020008BF20F0F8
:1007F0000100704702F1200201FA02FCC2F120025E
:1008000050EA4C0021FA02F243EB020008BF20EA52
:10081000DC7070474FF0FF0C1CEAD0521EBF1CEA80
:10082000D15392EA0C0F93EA0C0F6FD01A4480EA6E
:10083000010C400218BF5FEA41211ED04FF0006357
:1008400043EA501043EA5111A0FB01310CF0004083
:10085000B1F5000F3EBF490041EAD3715B0040EAA9
:10086000010062F17F02FD2A1DD8B3F1004F40EB79
:10087000C25008BF20F00100704790F0000F0CF04C
:10088000004C08BF49024CEA502040EA51207F3A10
:10089000C2BFD2F1FF0340EAC250704740F40000EB
:1008A0004FF00003013A5DDC12F1190FDCBF00F0DC
:1008B00000407047C2F10002410021FA02F1C2F18A
:1008C000200200FA02FC5FEA310040F1000053EA26
:1008D0004C0308BF20EADC70704792F0000F00F074
:1008E000004C02BF400010F4000F013AF9D040EA7A
:1008F0000C0093F0000F01F0004C02BF490011F40E
:10090000000F013BF9D041EA0C018FE70CEAD1530B
:1009100092EA0C0F18BF93EA0C0F0AD030F0004C8B
:1009200018BF31F0004CD8D180EA010000F000403F
:10093000704790F0000F17BF90F0004F084691F0FD
:10094000000F91F0004F14D092EA0C0F01D1420237
:100950000FD193EA0C0F03D14B0218BF084608D100
:1009600080EA010000F0004040F0FE4040F400004A
:10097000704740F0FE4040F4400070474FF0FF0CDD
:100980001CEAD0521EBF1CEAD15392EA0C0F93EA24
:100990000C0F69D0A2EB030280EA010C49024FEA76
:1009A000402037D04FF0805343EA111143EA10132F
:1009B0000CF000408B4238BF5B0042F17D024FF4E7
:1009C000000C8B4224BF5B1A40EA0C00B3EB510FC2
:1009D00024BFA3EB510340EA5C00B3EB910F24BFAB
:1009E000A3EB910340EA9C00B3EBD10F24BFA3EB30
:1009F000D10340EADC001B0118BF5FEA1C1CE0D1F8
:100A0000FD2A3FF650AF8B4240EBC25008BF20F0AA
:100A1000010070470CF0004C4CEA50207F32C2BFFE
:100A2000D2F1FF0340EAC250704740F400004FF09B
:100A30000003013A37E792F0000F00F0004C02BFCC
:100A4000400010F4000F013AF9D040EA0C0093F096
:100A5000000F01F0004C02BF490011F4000F013BF0
:100A6000F9D041EA0C0195E70CEAD15392EA0C0F58
:100A700008D142027FF47DAF93EA0C0F7FF470AF90
:100A8000084676E793EA0C0F04D14B023FF44CAFD3
:100A900008466EE730F0004C18BF31F0004CCAD168
:100AA00030F000427FF45CAF31F000437FF43CAFA4
:100AB0005FE700BF4FF0FF3C06E000BF4FF0010CC6
:100AC00002E000BF4FF0010C4DF804CD4FEA4002A8
:100AD0004FEA41037FEA226C18BF7FEA236C11D0F2
:100AE00001B052EA530C18BF90EA010F58BFB2EBA5
:100AF000030088BFC81738BF6FEAE17018BF40F025
:100B0000010070477FEA226C02D15FEA402C05D1D8
:100B10007FEA236CE4D15FEA412CE1D05DF8040B5D
:100B2000704700BF844608466146FFE70FB5FFF7F0
:100B3000C9FF002848BF10F1000F0FBD4DF808EDA8
:100B4000FFF7F4FF0CBF012000205DF808FB00BF99
:100B50004DF808EDFFF7EAFF34BF012000205DF8F3
:100B600008FB00BF4DF808EDFFF7E0FF94BF012040
:100B700000205DF808FB00BF4DF808EDFFF7D2FF3D
:100B800094BF012000205DF808FB00BF4DF808ED80
:100B9000FFF7C8FF34BF012000205DF808FB00BF4D
:100BA0004FEA4002B2F1FE4F0FD34FF09E03B3EB7A
:100BB00012620DD94FEA002343F0004310F0004FBA
:100BC00023FA02F018BF404270474FF00000704710
:100BD00012F1610F01D1420205D110F0004008BFAF
:100BE0006FF0004070474FF000007047844641EAC4
:100BF000000313F0030349D1403A23D30B68036089
:100C00004B6843608B688360CB68C3600B6903618A
:100C10004B6943618B698361CB69C3610B6A036272
:100C20004B6A43628B6A8362CB6AC3620B6B03635A
:100C30004B6B43638B6B8363CB6BC363403040313F
:100C4000403ADBD230320BD30B6803604B68436011
:100C50008B688360CB68C36010301031103AF3D2D8
:100C60000C3205D351F8043B40F8043B043AF9D266
:100C7000043208D0D2071CBF11F8013B00F8013B39
:100C800001D30B8803806046704700BF082A13D346
:100C90008B07B1D010F00303AED0C3F10403D21A16
:100CA000DB071CBF11F8013B00F8013BA4D331F86E
:100CB000023B20F8023B9FE7043AD9D3013A11F8EE
:100CC000013B00F8013BF9D20B7803704B7843707D
:100CD0008B7883706046704770B54FF0FF0C4CF412
:100CE000E06C1CEA11541DBF1CEA135594EA0C0F6A
:100CF00095EA0C0F00F0DEF82C4481EA030621EAA5
:100D00004C5123EA4C5350EA013518BF52EA0335DF
:100D100041F4801143F4801338D0A0FB02CE4FF091
:100D20000005E1FB02E506F00042E0FB03E54FF0C1
:100D30000006E1FB03569CF0000F18BF4EF0010EB9
:100D4000A4F1FF04B6F5007F64F5407404D25FEAB5
:100D50004E0E6D4146EB060642EAC62141EA555168
:100D60004FEAC52040EA5E504FEACE2EB4F1FD0CAA
:100D700088BFBCF5E06F1ED8BEF1004F08BF5FEA28
:100D8000500E50F1000041EB045170BD06F00046DA
:100D900046EA010140EA020081EA0301B4EB5C0487
:100DA000C2BFD4EB0C0541EA045170BD41F480117F
:100DB0004FF0000E013C00F3AB8014F1360FDEBFA4
:100DC000002001F0004170BDC4F10004203C35DA80
:100DD0000C341BDC04F11404C4F1200500FA05F303
:100DE00020FA04F001FA05F240EA020001F00042A4
:100DF00021F0004110EBD37021FA04F642EB06011A
:100E00005EEA430E08BF20EAD37070BDC4F10C0443
:100E1000C4F1200500FA04F320FA05F001FA04F207
:100E200040EA020001F0004110EBD37041F10001F3
:100E30005EEA430E08BF20EAD37070BDC4F12005FE
:100E400000FA05F24EEA020E20FA04F301FA05F266
:100E500043EA020321FA04F001F0004121FA04F20E
:100E600020EA020000EBD3705EEA430E08BF20EADE
:100E7000D37070BD94F0000F0FD101F00046400018
:100E800041EB010111F4801F08BF013CF7D041EA9A
:100E9000060195F0000F18BF704703F0004652009E
:100EA00043EB030313F4801F08BF013DF7D043EA6F
:100EB0000603704794EA0C0F0CEA135518BF95EA25
:100EC0000C0F0CD050EA410618BF52EA4306D1D1AC
:100ED00081EA030101F000414FF0000070BD50EACB
:100EE000410606BF1046194652EA430619D094EA55
:100EF0000C0F02D150EA013613D195EA0C0F05D13F
:100F000052EA03361CBF104619460AD181EA030192
:100F100001F0004141F0FE4141F470014FF000004A
:100F200070BD41F0FE4141F4780170BD70B54FF0E5
:100F3000FF0C4CF4E06C1CEA11541DBF1CEA135565
:100F400094EA0C0F95EA0C0F00F0A7F8A4EB050447
:100F500081EA030E52EA03354FEA013100F088803E
:100F60004FEA03334FF0805545EA131343EA126307
:100F70004FEA022245EA111545EA10654FEA0026BC
:100F80000EF000419D4208BF964244F1FD0404F575
:100F9000407402D25B084FEA3202B61A65EB0305D1
:100FA0005B084FEA32024FF480104FF4002CB6EB8E
:100FB000020E75EB030E22BFB61A754640EA0C000E
:100FC0005B084FEA3202B6EB020E75EB030E22BF4E
:100FD000B61A754640EA5C005B084FEA3202B6EB8F
:100FE000020E75EB030E22BFB61A754640EA9C004E
:100FF0005B084FEA3202B6EB020E75EB030E22BF1E
:10100000B61A754640EADC0055EA060E18D04FEADB
:10101000051545EA16754FEA06164FEAC30343EA7B
:1010200052734FEAC2025FEA1C1CC0D111F4801F48
:101030000BD141EA00014FF000004FF0004CB6E741
:1010400011F4801F04BF01430020B4F1FD0C88BFE0
:10105000BCF5E06F3FF6AFAEB5EB030C04BFB6EBEB
:10106000020C5FEA500C50F1000041EB045170BDDE
:101070000EF0004E4EEA113114EB5C04C2BFD4EB0B
:101080000C0541EA045170BD41F480114FF0000E8F
:10109000013C90E645EA060E8DE60CEA135594EA0B
:1010A0000C0F08BF95EA0C0F3FF43BAF94EA0C0F0E
:1010B0000AD150EA01347FF434AF95EA0C0F7FF483
:1010C00025AF104619462CE795EA0C0F06D152EAD7
:1010D00003353FF4FDAE1046194622E750EA4106BB
:1010E00018BF52EA43067FF4C5AE50EA41047FF4CC
:1010F0000DAF52EA43057FF4EBAE12E74FF0FF3C31
:1011000006E000BF4FF0010C02E000BF4FF0010C01
:101110004DF804CD4FEA410C7FEA6C5C4FEA430C7A
:1011200018BF7FEA6C5C1BD001B050EA410C0CBFC9
:1011300052EA430C91EA030F02BF90EA020F00202B
:10114000704710F1000F91EA030F58BF994208BF92
:1011500090422CBFD8176FEAE37040F0010070474F
:101160004FEA410C7FEA6C5C02D150EA013C07D1A6
:101170004FEA430C7FEA6C5CD6D152EA033CD3D0F1
:101180005DF8040B704700BF8446104662468C46EB
:101190001946634600E000BF01B5FFF7B7FF00281E
:1011A00048BF10F1000F01BD4DF808EDFFF7F4FF47
:1011B0000CBF012000205DF808FB00BF4DF808EDD2
:1011C000FFF7EAFF34BF012000205DF808FB00BFF5
:1011D0004DF808EDFFF7E0FF94BF012000205DF817
:1011E00008FB00BF4DF808EDFFF7CEFF94BF0120CC
:1011F00000205DF808FB00BF4DF808EDFFF7C4FFC5
:1012000034BF012000205DF808FB00BF4FEA410C0D
:101210007FEA6C5C02D150EA013C0AD14FEA430CF0
:101220007FEA6C5C02D152EA033C02D14FF000002D
:1012300070474FF00100704753B94AB9002908BF01
:1012400000281CBF4FF0FF314FF0FF3000F076B99F
:10125000ADF1080C6DE904CE00F006F8DDF804E00D
:10126000DDE9022304B070472DE9F047089E0D46E2
:1012700004468846002B4DD18A42944668D9B2FA7A
:1012800082F252B101FA02F3C2F1200120FA01F117
:101290000CFA02FC41EA030894404FEA1C41B8FBF7
:1012A000F1F71FFA8CFE01FB178807FB0EF0230CE9
:1012B00043EA084398420AD91CEB030307F1FF35C0
:1012C00080F01E81984240F21B81023F63441B1A4A
:1012D000B3FBF1F001FB103300FB0EFEA4B244EAB5
:1012E0000344A6450AD91CEB040400F1FF3380F047
:1012F0000981A64540F20681644402380021A4EB2E
:101300000E0440EA07401EB10023D440C6E9004362
:10131000BDE8F0878B4208D9002E00F0EE80002156
:10132000C6E900050846BDE8F087B3FA83F1002955
:101330004AD1AB4202D3824200F2FC80841A65EBB0
:10134000030301209846002EE2D0C6E90048DFE7FB
:1013500002B9FFDEB2FA82F2002A40F09180A1EBDE
:101360000C0001214FEA1C471FFA8CFEB0FBF7F37B
:1013700007FB1300250C45EA00450EFB03F0A842CD
:1013800008D91CEB050503F1FF3802D2A84200F290
:10139000CE8043462D1AB5FBF7F007FB10550EFB28
:1013A00000FEA4B244EA0544A64508D91CEB040497
:1013B00000F1FF3502D2A64500F2B6802846A4EB24
:1013C0000E0440EA03409EE7C1F120078B4022FA59
:1013D00007FC4CEA030C25FA07FA4FEA1C49BAFB52
:1013E000F9F820FA07F309FB18AA8D401FFA8CFEC2
:1013F0001D4300FA01F308FB0EF02C0C44EA0A44EA
:10140000A04202FA01F20BD91CEB040408F1FF3AE6
:1014100080F08880A04240F28580A8F102086444F0
:10142000241AB4FBF9F009FB104400FB0EFEADB228
:1014300045EA0444A64508D91CEB040400F1FF3535
:101440006CD2A6456AD90238644440EA0840A0FB41
:101450000295A4EB0E04AC42C846AE4656D353D018
:10146000002E69D0B3EB080264EB0E0422FA01F3FC
:1014700004FA07F71F43CC40C6E90074002147E790
:101480000CFA02FCC2F1200125FA01F34FEA1C47D5
:1014900020FA01F195400D43B3FBF7F107FB11333F
:1014A0001FFA8CFE280C40EA034001FB0EF3834236
:1014B00004FA02F408D91CEB000001F1FF382FD226
:1014C00083422DD902396044C01AB0FBF7F307FB01
:1014D0001300ADB245EA004503FB0EF0A84208D95F
:1014E0001CEB050503F1FF3816D2A84214D9023BC4
:1014F0006544281A43EA014138E73146304607E798
:101500002F46E4E61846F9E64B45A9D2B9EB0208A6
:1015100065EB0C0E0138A3E74346EAE7284694E75B
:101520004146D1E7D0467BE76444023847E7023BB7
:1015300065442FE7084606E73146E9E6704700BFF5
:1015400000B585B000230193029303931048114A1C
:1015500002608360037303754FF46022C2614360CD
:101560000123036100F020FD60B901230193029380
:101570000023039301A9064800F048FC28B905B0F0
:101580005DF804FB00F044F9EFE700F041F9F6E7FD
:10159000DC0900200024014000B587B0002302933D
:1015A0000393049305930268114B9A4202D007B04B
:1015B0005DF804FB03F56C439A6942F400729A618A
:1015C0009A6902F400720092009A9A6942F0040249
:1015D0009A619B6903F004030193019B0723029323
:1015E0000323039302A9034800F066FEDFE700BF70
:1015F000002401400008014008B50B480B4B036074
:101600001023436000238360C3600361436103765A
:1016100043768376C3760377437700F049FD00B9BC
:1016200008BD00F0F5F8FBE70C0A0020006400405C
:1016300010B586B0002302930393049305930268C8
:10164000164B9A4201D006B010BD03F5D633DA69C5
:1016500042F00072DA61DA6902F000720092009AD8
:101660009A6942F004029A619B6903F004030193B2
:10167000019B4FF400630293094C02A9204600F03D
:101680001BFE4FF48053029302230393032305931D
:1016900002A9204600F010FED5E700BF006400401C
:1016A000000801402DE9F04188B00024049405941D
:1016B00006940794254B9A6942F020029A619A6930
:1016C00002F020020192019A9A6942F004029A61A2
:1016D0009A6902F004020292029A9A6942F00802A0
:1016E0009A619B6903F008030393039BDFF8608012
:1016F00022465821404600F0F1FE164D01224FF4DB
:101700000041284600F0EAFE58230493012705977C
:1017100006940226079604A9404600F0CDFD4FF43A
:10172000705304930C4B0593069404A9284600F0CB
:10173000C3FD4FF40043049305970694079604A94C
:10174000284600F0B9FD08B0BDE8F0810010024065
:1017500000080140000C01400000211008B50B48B2
:101760000B4B03600B4B436000238360C3604FF45B
:101770008042026143618361C361036200F0B4FE91
:1017800000B908BD00F044F8FBE700BF340A0020B0
:1017900000540040A086010010B586B000230293DB
:1017A0000393049305930268154B9A4201D006B047
:1017B00010BD144CA36943F00803A361A36903F0AF
:1017C00008030093009B4FF440730293122303938A
:1017D0000323059302A90C4800F06EFD0B4A5368E1
:1017E00043F0E06343F002035360E36943F4001302
:1017F000E361E36903F400130193019BD7E700BFA2
:101800000054004000100240000C01400000014064
:1018100072B6FEE700B595B0282200210DEB02005C
:1018200003F0ACF8002305930693079308930993FC
:10183000019302930393049301220A924FF480339D
:101840000B930E920222119212934FF4E013139312
:101850000AA800F03DFFC8B90F23059302210691A5
:10186000002307934FF480620892099305A801F0C2
:101870006FF968B9022301934FF40043039301A861
:1018800001F042FA30B915B05DF804FBFFF7C0FF74
:10189000FFF7BEFFFFF7BCFF70B58AB000F07EFA1D
:1018A000FFF7B8FFFFF7FEFEFFF7A6FEFFF756FFB4
:1018B00000F0F0F900F066F9FFF742FE00F070F872
:1018C0002F4802F04FFB02F020F902F097FC4FF690
:1018D000FF7002F021FD2B4B009350231A4600218C
:1018E000084602F025FD284C002502951F2601968A
:1018F000636800932368254A2946502002F092FC31
:1019000002950196636800932368214A12215020B2
:1019100002F088FC2BE022464FF08041002002F0CC
:10192000F9F82046FEF778FD04460D4602460B46C0
:10193000184803F081F8184B93E803000590ADF8C0
:101940001810090C8DF81A10012000F04BFA0AA3A8
:10195000D3E9002320462946FEF700FCFEF7FCFDF4
:1019600004460E492046FFF7F3F80028D3D100249F
:10197000F7E700BFAFF300809A9999999999A93F29
:101980002C0B002008AF00080C000020E8AE000877
:10199000ECAE0008F4AE000800AF0008DB0FC94051
:1019A00008B50F480F4B03604FF4827343604FF448
:1019B000004383600023C360036143614FF40072FE
:1019C00082610822C2610362436283620A23C362A6
:1019D00001F0A2FA00B908BDFFF71AFFFBE700BF4C
:1019E000880A00200030014000B587B00023029330
:1019F0000393049305930268124B9A4202D007B0F6
:101A00005DF804FB03F560439A6942F480529A61E1
:101A10009A6902F480520092009A9A6942F0040294
:101A20009A619B6903F004030193019BA023029335
:101A3000022303930323059302A9034800F03CFC0F
:101A4000DDE700BF003001400008014082B00E4BCE
:101A50009A6942F001029A619A6902F001020092C9
:101A6000009ADA6942F08052DA61DB6903F0805350
:101A70000193019B054A536823F0E06343F0007330
:101A8000536002B0704700BF0010024000000140E8
:101A9000FEE7FEE7FEE7FEE7FEE7704770477047A8
:101AA00008B500F08DF908BD0120704708B502F0B7
:101AB00087FC162303604FF0FF3008BD08B54FF0D8
:101AC000FF31FFF7F3FFFEE708B503460B4A126844
:101AD00042B10A4A106803446A46934206D8074A4C
:101AE000136008BD054A06491160F2E702F068FC80
:101AF0000C2303604FF0FF30F3E700BFE00A002043
:101B0000C00B0020704700000268094B9A4200D0C9
:101B1000704782B003F564439A6942F400629A61A7
:101B20009B6903F400630193019B02B0704700BFFF
:101B3000002C014000B587B0002302930393049367
:101B4000059302680D4B9A4202D007B05DF804FB82
:101B500003F564439A6942F004029A619B6903F0B9
:101B600004030193019B4FF4E06302930223039368
:101B7000059302A9024800F09FFBE6E7002C014014
:101B80000008014030B597B00024129413941494C7
:101B900015941094119409940A940B940C940D9438
:101BA0000E940F9420252A46214601A802F0E6FE55
:101BB0003648374B03604460856040F6FF73C3606E
:101BC000046144618023836101F0CAFB002844D191
:101BD0004FF48053129312A92C4801F0BFFC002847
:101BE0003ED12A4801F0E8FB00283CD100231093A5
:101BF000119310A9254801F09BFD002836D16023E0
:101C0000099300220A920B920C920D920E920F925F
:101C100009A91E4801F02EFC58BB042209A91B4843
:101C200001F028FC40BB082209A9184801F022FC59
:101C300028BB0023019302930393049305934FF46D
:101C400000520692089301A9104801F0A7FDC8B9F7
:101C50000E48FFF76FFF17B030BDFFF7D9FDB7E7AC
:101C6000FFF7D6FDBDE7FFF7D3FDBFE7FFF7D0FDD8
:101C7000C5E7FFF7CDFDD0E7FFF7CAFDD3E7FFF7D4
:101C8000C7FDD6E7FFF7C4FDE2E700BFE40A002086
:101C9000002C014008B50A480A4B03604FF4E133B9
:101CA000436000238360C36003610C22426183614F
:101CB000C36101F01DFE00B908BDFFF7A9FDFBE7F8
:101CC0002C0B00200038014010B586B00023029391
:101CD00003930493059302681A4B9A4201D006B00D
:101CE00010BD03F558439A6942F480429A619A699B
:101CF00002F480420092009A9A6942F008029A61C6
:101D00009B6903F008030193019B40230293022384
:101D10000393032305930C4C02A9204600F0CCFA50
:101D20008023029300230393049302A9204600F02A
:101D3000C3FA064A536843F0E06343F00403536078
:101D4000CDE700BF00380140000C01400000014019
:101D500010B504460E4B18784FF47A73B3FBF0F3CA
:101D60000C4A1068B0FBF3F000F092FA68B90F2C3F
:101D700001D901200AE0002221464FF0FF3000F097
:101D80004FFA054B1C60002000E0012010BD00BF91
:101D900004000020000000200800002008B5074AC9
:101DA000136843F010031360032000F027FA0020AB
:101DB000FFF7CEFFFFF74AFE002008BD00200240DB
:101DC000034A1168034B1B780B441360704700BF34
:101DD000700B002004000020014B1868704700BF02
:101DE000700B002038B50446FFF7F6FF0546B4F146
:101DF000FF3F02D0044B1B781C44FFF7EDFF401B54
:101E0000A042FAD338BD00BF0400002030B482B035
:101E10000022019290F82420012A00F091800346CC
:101E2000012280F824204A68062A2DD80468606BB5
:101E300002EB8202053A4FF01F0C0CFA02FC20EA7A
:101E40000C000D6805FA02F2024362630A68092A6F
:101E50003AD91C68E06802EB42021E3A4FF0070CC8
:101E60000CFA02FC20EA0C008D6805FA02F202432B
:101E7000E2600A68103A012A36D90020002283F86D
:101E8000242002B030BC70470C2A0ED80568286B9D
:101E900002EB8202233A1F24944020EA04000C68DB
:101EA00004FA02F202432A63D0E70568E86A02EB0B
:101EB0008202413A1F24944020EA04000C6804FA8C
:101EC00002F20243EA62C1E71C68206902EB4202A7
:101ED0004FF0070C0CFA02FC20EA0C008D6805FAA2
:101EE00002F202432261C4E71A681648824205D012
:101EF0009A6A42F020029A620120BFE7906810F4CB
:101F0000000F1BD1906840F4000090600A68102A0E
:101F100001D00020B2E70C4A12680C49A1FB021262
:101F2000920C02EB82025200019202E0019A013A05
:101F30000192019A002AF9D100209FE700209DE735
:101F400002209EE7002401400000002083DE1B43A6
:101F500038B503689A6812F0010F01D1002038BD2E
:101F600004469A6822F001029A60FFF735FF0546A1
:101F700023689B6813F0010F13D0FFF72DFF431B5D
:101F8000022BF5D923689B6813F0010FF0D0A36AE8
:101F900043F01003A362E36A43F00103E36201200C
:101FA000DDE70020DBE7000000287BD070B50446A9
:101FB000836A002B4DD02046FFF7CAFFA36A13F0B7
:101FC000100369D1002867D1A26A22F4885222F056
:101FD000020242F00202A2626268E1690A43217BC6
:101FE00042EA4102A568B5F5807F02D0012D36D0C6
:101FF0001D46267D012E35D02668716821F4694181
:10200000294371602568AE68274931401143A960B2
:10201000A168B1F5807F01D0012902D12369013B7C
:102020001B052568E96A21F470010B43EB62236804
:1020300099681E4B0B409A4225D0A36A23F01203E5
:1020400043F01003A362E36A43F00103E36201205B
:1020500027E0C36280F82430FFF79EFAABE74FF425
:102060008075C6E731B9A169013945EA413141F4CA
:102070000065C1E7A16A41F02001A162E16A41F077
:102080000101E162B8E70023E362A36A23F00303DE
:1020900043F00103A36204E0A36A43F01003A362C8
:1020A000012070BD01207047FDF7E1FFFE0E1FFF0C
:1020B000002800F0A18038B5044690F82030D3B154
:1020C0002268136843F001031360FFF785FE05469D
:1020D00023685A6812F0010F10D1FFF77DFE401BF4
:1020E0000A28F5D9636A43F400336362052384F850
:1020F0002030012038BDFFF79BFAE1E71A6822F093
:1021000002021A60FFF768FE054623685A6812F05B
:10211000020F0DD0FFF760FE401B0A28F5D9636A55
:1021200043F400336362052384F820300120E1E7A3
:10213000227E012A3DD01A6822F080021A60637E56
:10214000012B3BD02268136823F040031360A37E69
:10215000012B39D02268136823F020031360E37E3B
:10216000012B37D02268136843F010031360237FDC
:10217000012B35D02268136823F008031360637FB6
:10218000012B33D02268136823F004031360A36883
:10219000E268134322691343626913436268013A98
:1021A00021681343CB6100206062012384F8203052
:1021B000A0E71A6842F080021A60C0E7226813683C
:1021C00043F040031360C2E72268136843F0200322
:1021D0001360C4E72268136823F010031360C6E796
:1021E0002268136843F008031360C8E72268136885
:1021F00043F004031360CAE701207047074AD3681D
:1022000023F4E0631B041B0C000200F4E0600343B2
:1022100043F0BF6343F40033D360704700ED00E048
:1022200000B5194BDB68C3F30223C3F1070CBCF103
:10223000040F28BF4FF0040C03F1040EBEF1060F8B
:1022400018D9033B4FF0FF3E0EFA0CFC21EA0C01BB
:1022500099400EFA03F322EA0303194300280BDB2B
:102260000901C9B200F1604000F5614080F8001337
:102270005DF804FB0023E5E700F00F000901C9B297
:10228000024B1954F4E700BF00ED00E014ED00E04C
:102290000138B0F1807F0BD24FF0E0235861054A3E
:1022A000F02182F823100020986107221A617047FC
:1022B0000120704700ED00E070B582B00024A44614
:1022C000A6E0804DAA4210D007D97F4DAA420CD07B
:1022D00005F58035AA4208D013E0A5F58015AA427D
:1022E00003D005F57025AA4207D18A68002A58D084
:1022F000012A51D04361082403E0A5F58015AA42C4
:10230000F3D0BEF1FF0F4ED80646BEF1FF0F4CD8FA
:102310004FEA8C0233680F25954023EA050304FA3F
:1023200002F2134333604B6813F0805F6ED0674B4B
:102330009A6942F001029A619B6903F001030193DB
:10234000019B4FEA9C02951C614B53F825600CF0F1
:1023500003039D000F23AB4026EA03065D4B984222
:1023600029D003F58063984200F08E8003F58063E6
:10237000984200F08B8003F58063984219D00423C3
:102380001AE0CC68BDE7CC680434BAE7CC680834FE
:10239000B7E7CC680C34B4E703610824B1E7002444
:1023A000AFE70424ADE7061DAFE7ACF108029200E9
:1023B000B0E7032300E00023AB4033430232444D37
:1023C00045F822304B6813F4803F61D0424A1368CD
:1023D00043EA0E0313604B6813F4003F5ED03E4A9D
:1023E000536843EA0E0353604B6813F4801F5BD0BD
:1023F000394A936843EA0E0393604B6813F4001F55
:1024000058D0354AD36843EA0E03D3600CF1010C6F
:102410000A6832FA0CF353D0012303FA0CF302EAF0
:10242000030E33EA0202F1D14A68122A3FF649AF9D
:10243000122A3FF666AF01A555F822F0EB220008FC
:10244000832300088D2300089F230008032300082E
:1024500003230008032300080323000803230008C4
:1024600003230008032300080323000803230008B4
:1024700003230008032300080323000803230008A4
:102480008723000893230008012395E7022393E79D
:10249000114A136823EA0E0313609CE70E4A53683F
:1024A00023EA0E0353609FE70B4A936823EA0E0367
:1024B0009360A2E7084AD36823EA0E03D360A5E736
:1024C00002B070BD00002210000031100010024068
:1024D0000000014000080140000401400AB1016110
:1024E0007047090401617047002800F0CC8070B586
:1024F000044690F83D30002B77D0242384F83D30FB
:102500002268136823F0010313602268136843F400
:10251000004313602268136823F40043136000F043
:10252000D3FB62685A4B9A4264D85A4B98428CBF8C
:1025300000230123002B40F0A8805749A1FB003164
:102540008B0C25686A6822F03F0242EA91426A6079
:1025500021680A6A22F03F0266684D4DAE424FD8AC
:10256000013313430B622168CA6922F44F4222F0FF
:10257000FF026668464B9E424CD8431E7600B3FB72
:10258000F6F3013340F6FC70034278D0C3F30B033B
:102590001343CB6121680B6823F0C003E269206A12
:1025A000024313430B6021688B6823F4034323F039
:1025B000FF032269E068024313438B602168CB6804
:1025C00023F0FF036269A06902431343CB602268D2
:1025D000136843F00103136000202064202384F873
:1025E0003D30206384F83E0070BD80F83C30FFF73A
:1025F000D3F882E7294B98428CBF0023012399E747
:102600004FF4967505FB03F3254DA5FB03539B097A
:102610000133A6E7A368BBB9451E06EB460CB5FB24
:10262000FCF50135C5F30B05B5FA85F56D0945BB1C
:10263000C3B9013806EB4603B0FBF3F30133C3F330
:102640000B0343F40043A3E7451E06EB860C0CEB9B
:102650008C0CB5FBFCF50135C5F30B05B5FA85F51A
:102660006D09E4E7013806EB860303EB8303B0FB57
:10267000F3F30133C3F30B0343F4404388E704232C
:1026800086E7012384E7012070470120ACE700BF03
:10269000A08601007F841E0083DE1B43FF083D00EF
:1026A000D34D621082B0084B1B68084AA2FB03237B
:1026B0005B0A00FB03F3019300BF019B5A1E0192CA
:1026C000002BF9D102B0704700000020D34D6210FA
:1026D000002800F0F18170B582B00446036813F061
:1026E000010F2CD0994B5B6803F00C03042B1DD019
:1026F000964B5B6803F00C03082B12D06368B3F5AC
:10270000803F41D0002B55D103F1804303F50433C2
:102710001A6822F480321A601A6822F480221A6041
:1027200037E08A4B5B6813F4803FE7D0874B1B6828
:1027300013F4003F03D06368002B00F0BF812368CF
:1027400013F0020F75D0814B5B6813F00C0F5FD054
:102750007E4B5B6803F00C03082B54D02369002BDD
:1027600000F08A807A4B01221A60FFF735FB05469C
:10277000764B1B6813F0020F75D1FFF72DFB401B42
:102780000228F5D903209EE1704A136843F4803390
:102790001360636843B3FFF71FFB05466B4B1B6871
:1027A00013F4003FCBD1FFF717FB401B6428F5D98A
:1027B000032088E1B3F5A02F09D0644B1A6822F4F6
:1027C00080321A601A6822F480221A60E1E703F16D
:1027D0008043A3F53C331A6842F480221A601A68D9
:1027E00042F480321A60D4E7FFF7F6FA0546574BF9
:1027F0001B6813F4003FA2D0FFF7EEFA401B6428D9
:10280000F5D903205FE1514B5B6813F4803FA5D1FC
:102810004E4B1B6813F0020F03D02369012B40F0CD
:102820004F814A4A136823F0F803616943EAC10300
:102830001360236813F0080F33D0A369002B5CD01A
:10284000434B0122C3F88024FFF7C6FA05463F4BED
:102850005B6A13F0020F21D1FFF7BEFA401B02287A
:10286000F5D903202FE1394A136823F0F803616991
:1028700043EAC1031360DCE7354B00221A60FFF71F
:10288000ABFA0546314B1B6813F0020FD1D0FFF7AE
:10289000A3FA401B0228F5D9032014E10120FFF719
:1028A00001FF236813F0040F00F09680274BDB69CB
:1028B00013F0805F34D1254BDA6942F08052DA613F
:1028C000DB6903F080530193019B0125214B1B68B9
:1028D00013F4807F26D0E368012B3DD0002B53D129
:1028E00003F1804303F504331A6A22F001021A62ED
:1028F0001A6A22F004021A6233E0154B0022C3F870
:102900008024FFF769FA0546104B5B6A13F0020F4B
:10291000C7D0FFF761FA401B0228F5D90320D2E0A7
:102920000025D3E70B4A136843F480731360FFF765
:1029300053FA0646074B1B6813F4807FCBD1FFF791
:102940004BFA801B6428F5D90320BCE0001002403C
:1029500000004242007000405F4A136A43F00103E6
:102960001362E36833B3FFF737FA06465A4B1B6A24
:1029700013F0020F2FD1FFF72FFA801B41F288339B
:102980009842F3D903209EE0052B09D0524B1A6AD6
:1029900022F001021A621A6A22F004021A62E0E7C7
:1029A0004D4B1A6A42F004021A621A6A42F001029E
:1029B0001A62D6E7FFF710FA0646474B1B6A13F078
:1029C000020F08D0FFF708FA801B41F288339842C3
:1029D000F3D9032077E0E5B9E369002B72D03E4AD2
:1029E000526802F00C02082A56D0022B17D03B4B3B
:1029F00000221A66FFF7F0F90446374B1B6813F004
:102A0000007F47D0FFF7E8F9001B0228F5D9032023
:102A100059E0314AD36923F08053D361DCE72F4B6F
:102A200000221A66FFF7D8F905462B4B1B6813F0F6
:102A3000007F06D0FFF7D0F9401B0228F5D903200C
:102A400041E0236AB3F5803F1AD023494B6823F451
:102A50007413226A606A024313434B601F4B0122C6
:102A60001A66FFF7B9F904461B4B1B6813F0007F89
:102A70000ED1FFF7B1F9001B0228F5D9032022E09F
:102A8000154A536823F40033A1680B435360DCE715
:102A9000002018E0002016E0012B16D00E4B5B68DA
:102AA00003F48031226A914211D103F47013626AF7
:102AB00093420ED1002006E001207047012002E081
:102AC000012000E0002002B070BD0120FBE70120E2
:102AD000F9E70120F7E700BF001002400000424282
:102AE00086B0174B0FCB0DF1180C0CE90F0040F21C
:102AF0000123ADF80430134B5B6803F00C02082A85
:102B000002D0114806B07047C3F3834218326A44BA
:102B100012F8100C13F4803F0DD00A4B5B68C3F31E
:102B2000404318336B4413F8143C074A02FB00F08F
:102B3000B0FBF3F0E6E7054B03FB00F0E2E700BF74
:102B400020E100080010024000127A0000093D0058
:102B5000002800F0A08070B50D460446524B1B685B
:102B600003F007038B420BD24F4A136823F007038D
:102B70000B431360136803F007038B4240F08D8012
:102B8000236813F0020F17D013F0040F04D0474A44
:102B9000536843F4E0635360236813F0080F04D0D4
:102BA000424A536843F460535360404A536823F0E9
:102BB000F003A1680B435360236813F0010F31D079
:102BC0006368012B20D0022B25D0384A126812F0FE
:102BD000020F64D035494A6822F0030213434B6068
:102BE000FFF7FAF80646314B5B6803F00C036268A6
:102BF000B3EB820F16D0FFF7EFF8801B41F288335A
:102C00009842F0D9032045E0284A126812F4003FA8
:102C1000E0D101203EE0254A126812F0007FD9D1B0
:102C2000012037E0204B1B6803F00703AB420AD9B1
:102C30001D4A136823F007032B431360136803F046
:102C40000703AB422DD1236813F0040F06D0174AB7
:102C5000536823F4E063E1680B435360236813F087
:102C6000080F07D0114A536823F46053216943EADF
:102C7000C1035360FFF734FF0C4B5B68C3F30313CE
:102C80000B4AD35CD8400B4B18600B4B1868FFF70E
:102C90005FF8002070BD012070470120FAE7012095
:102CA000F8E70120F6E700BF0020024000100240D4
:102CB00008E100080000002008000020014B18680F
:102CC000704700BF0000002008B5FFF7F7FF044B76
:102CD0005B68C3F30223034AD35CD84008BD00BF3E
:102CE0000010024018E1000808B5FFF7E7FF044BA9
:102CF0005B68C3F3C223034AD35CD84008BD00BF5E
:102D00000010024018E1000870B582B00446036864
:102D100013F0010F36D03F4BDB6913F0805F49D1D0
:102D20003C4BDA6942F08052DA61DB6903F0805390
:102D30000193019B0125384B1B6813F4807F3BD026
:102D4000344B1B6A13F4407313D0626802F4407270
:102D50009A420ED02F4A136A23F440702F4901265D
:102D6000C1F840640026C1F84064106213F0010FFE
:102D700036D1284A136A23F4407361680B43136207
:102D8000002D3ED1236813F0020F06D0214A53686C
:102D900023F44043A1680B435360236813F0100FE2
:102DA00034D01C4A536823F48003E1680B4353601A
:102DB00000202CE00025BEE7174A136843F4807317
:102DC0001360FFF709F80646134B1B6813F4807F66
:102DD000B6D1FFF701F8801B6428F5D9032016E06F
:102DE000FEF7FAFF06460B4B1B6A13F0020FC0D129
:102DF000FEF7F2FF801B41F288339842F3D903209B
:102E000005E0D36923F08053D361BBE7002002B013
:102E100070BD00BF00100240007000400000424240
:102E20002DE9F04782B00546884617461E46FEF754
:102E3000D3FF0A9B1B1A03EB0609FEF7CDFF824660
:102E40002B4B1B68C3F3CB3309FB03F301932B68B4
:102E50009C6838EA04030CBF4FF0010C4FF0000CE3
:102E6000BC4540D0B6F1FF3FF1D0FEF7B5FFA0EB77
:102E70000A0048450AD2B9F1000F07D0019A02B101
:102E80004A46019B013B01939146E0E72A6853685B
:102E900023F0E00353606B68B3F5827F0BD0AB6A1D
:102EA000B3F5005F14D0012385F85130002385F875
:102EB0005030032018E0AB68B3F5004F02D0B3F5F3
:102EC000806FECD12A68136823F040031360E6E7B3
:102ED0002A68136823F4005313602A68136843F4C4
:102EE00000531360DFE7002002B0BDE8F08700BFA9
:102EF0000000002010B582B004460B46009200226C
:102F00008021FFF78DFF08B902B010BD636D43F05B
:102F1000200363650320F7E7002856D010B5044668
:102F2000436A33B94368B3F5827F05D00023C36198
:102F300002E00023036143610023A36294F851304F
:102F4000002B3CD0022384F851302268136823F010
:102F500040031360636803F48273A26802F40442BE
:102F60001343E26802F400621343226902F0020292
:102F70001343626902F001021343A26902F4007272
:102F80001343E26902F038021343226A02F080021E
:102F90001343A26A02F40052216813430B60638B4F
:102FA000226803F0040353602268D36923F40063AA
:102FB000D36100206065012384F8513010BD84F88E
:102FC00050302046FEF710FDBCE7012070472DE988
:102FD000F04383B01D4690F85030012B00F0D180B3
:102FE000044688469146012380F85030FEF7F4FEEF
:102FF000074694F85160F6B2012E40F0AF80B8F168
:10300000000F00F0AC80B9F1000F00F0A88003239E
:1030100084F8513000236365C4F83080A4F83490FC
:10302000A4F83690A363A387E38763642364A3684B
:10303000B3F5004F1ED023681A6812F0400F03D179
:103040001A6842F040021A60E368B3F5006F1CD0C2
:10305000636813B1B9F1010F52D1226B2368127862
:103060001A73236B01332363E38E9BB2013B9BB244
:10307000E38645E02268136823F04003136022686A
:10308000136843F480431360D5E7636813B1B9F163
:10309000010F16D1226B23681288DA60236B02338A
:1030A0002363E38E9BB2013B9BB2E38609E0FEF70C
:1030B00093FEC01BA84202D3B5F1FF3F59D1002DAA
:1030C00059D0E38E9BB2002B33D023689A6812F05C
:1030D000020FECD0226B1288DA60236B0233236379
:1030E000E38E9BB2013B9BB2E386EAE7FEF774FEF8
:1030F000C01BA84202D3B5F1FF3F3ED1002D3ED008
:10310000E38E9BB2ABB123689A6812F0020FEDD048
:10311000226B12781A73236B01332363B4F836C021
:103120001FFA8CFC0CF1FF3C1FFA8CFCA4F836C093
:10313000E6E73A4629462046FFF7DCFE08B12023A1
:103140006365A36833B901932368DA6801929B68C9
:103150000193019B636D13B9002600E00226012351
:1031600084F85130002384F85030304603B0BDE875
:10317000F0830326F3E70326F1E70326EFE70326B0
:10318000EDE70226F1E7000070B4036A23F00103C3
:103190000362036A4668826922F073020C6844EA9B
:1031A000020523F002028B6813430D4CA04209D0A4
:1031B0000B4CA0420DD0466085614A6842630362B1
:1031C00070BC704723F00803CA68134323F004035C
:1031D000EEE726F440764A6932438E691643EAE701
:1031E000002C014030B4036A23F480730362036A45
:1031F0004568C26922F073020C68224323F400730D
:103200008C6843EA04230F4CA04209D00D4CA04225
:103210000ED04560C2614A68C263036230BC704729
:1032200023F40063CC6843EA042323F48063EDE7CE
:1032300025F440554C6945EA04158C6945EA0415A6
:10324000E7E700BF002C014030B4036A23F4805349
:103250000362036A4468C26922F4E6420D6842EAE6
:10326000052223F400538D6843EA0533074DA84235
:1032700006D04460C2614A680264036230BC704791
:1032800024F480444D6944EA8514F2E7002C01409F
:1032900010B4036A046A24F001040462846924F00F
:1032A000F00C4CEA021223F00A030B438261036222
:1032B00010BC704710B4046A24F0100404628469DE
:1032C000036A24F4704C4CEA023223F0A00343EA70
:1032D00001138261036210BC7047836823F070039E
:1032E0000B4343F0070383607047704703681B4A32
:1032F00090420AD0B0F1804F07D0A2F594329042AC
:1033000003D002F58062904203D123F070034A6833
:103310001343124A90420AD0B0F1804F07D0A2F571
:103320009432904203D002F58062904203D123F49C
:103330004073CA68134323F080034A691343036050
:103340008B68C3620B688362044B984202D00123EE
:10335000436170470B690363F9E700BF002C01402C
:1033600040B310B5044690F83D30F3B1022384F821
:103370003D30214651F8040BFFF7B8FF012384F8D4
:10338000463084F83E3084F83F3084F8403084F88A
:10339000413084F8423084F8433084F8443084F873
:1033A000453084F83D30002010BD80F83C30FEF7F9
:1033B000ABFBDBE70120704740B310B5044690F843
:1033C0003D30F3B1022384F83D30214651F8040B1F
:1033D000FFF78CFF012384F8463084F83E3084F8F0
:1033E0003F3084F8403084F8413084F8423084F82B
:1033F000433084F8443084F8453084F83D30002070
:1034000010BD80F83C30FFF770FFDBE7012070470C
:1034100030B4036A23F010030362036A44688269CC
:1034200022F4E6420D6842EA052223F020038D686B
:1034300043EA05130E4DA84209D00D4DA8420ED007
:10344000446082614A688263036230BC704723F043
:103450008003CD6843EA051323F04003EDE724F42D
:1034600040644D6944EA85048D6944EA8504E7E7D0
:10347000002C014038B590F83C30012B60D0044658
:103480000D46012380F83C300C2A1AD8DFE802F000
:10349000071919191D19191931191919440000684A
:1034A000FFF772FE2268936943F008039361226874
:1034B000936923F0040393612268936929690B439C
:1034C0009361002084F83C0038BD0068FFF7A0FF3E
:1034D0002268936943F4006393612268936923F43B
:1034E0008063936122689369296943EA01239361A8
:1034F000E7E70068FFF776FE2268D36943F0080328
:10350000D3612268D36923F00403D3612268D369AD
:1035100029690B43D361D4E70068FFF795FE226861
:10352000D36943F40063D3612268D36923F48063D1
:10353000D3612268D369296943EA0123D361C0E7D3
:103540000220C1E710B4846824F47F4C42EA0322CD
:103550000A4342EA0C02826010BC704790F83C308B
:10356000012B66D010B50446012380F83C300223BD
:1035700080F83D300268936823F47F4323F077039B
:1035800093600B68602B40D022D8402B47D00BD9DA
:10359000502B0ED1CA6849680068FFF779FE5021A8
:1035A0002068FFF79AFE04E0202B0CD008D9302BBE
:1035B00009D0012384F83D30002084F83C0010BD80
:1035C0000BB1102BF5D119462068FFF786FEF0E706
:1035D000702B0ED0B3F5005FEBD1CB684A688968D9
:1035E0000068FFF7AFFF2268936843F4804393605D
:1035F000DFE7CB684A6889680068FFF7A3FF2268A5
:10360000936843F077039360D3E7CA68496800681A
:10361000FFF750FE60212068FFF75FFEC9E7CA6828
:1036200049680068FFF734FE40212068FFF755FE27
:10363000BFE70220704701F01F01012303FA01FCDC
:10364000036A23EA0C030362036A02FA01F10B43E3
:103650000362704710B50446084651BB94F83E30EB
:10366000DBB2013B18BF0123002B5BD1002839D10D
:10367000022384F83E30012201462068FFF7DBFF79
:1036800023682A4A93423DD02368284A93423ED079
:10369000B3F1804F3BD0A2F59432934237D002F57C
:1036A0008062934233D01A6842F001021A6000200F
:1036B00039E0042908D008290DD094F84130DBB254
:1036C000013B18BF0123CFE794F83F30DBB2013B49
:1036D00018BF0123C8E794F84030DBB2013B18BFA4
:1036E0000123C1E7042805D0082807D0022384F865
:1036F0004130C0E7022384F83F30BCE7022384F85E
:103700004030B8E75A6C42F400425A64BCE79A6809
:1037100002F00702062A07D01A6842F001021A6076
:10372000002000E0012010BD0020FCE7002C01403B
:1037300090F83C30012B2CD010B4012380F83C30A1
:10374000022380F83D3003685A689C6822F0700CB0
:103750000A6842EA0C025A6003680F4A93420AD090
:10376000B3F1804F07D0A2F59432934203D002F513
:103770008062934204D124F080044A6814439C6020
:10378000012380F83D30002380F83C30184610BCFF
:1037900070470220704700BF002C014090F83C3079
:1037A000012B22D0012380F83C30CB6823F44073F6
:1037B0008A68134323F480634A68134323F4006345
:1037C0000A68134323F480530A69134323F4005314
:1037D0004A69134323F48043CA691343026853645C
:1037E000002380F83C3018467047022070470000E4
:1037F00010B504460268136923F44053C1680B43B3
:10380000136183680269134342691A430168CB68F4
:1038100023F4B05323F00C031343CB6002685369C5
:1038200023F4407381690B4353610268134B9A423E
:1038300020D0FFF749FA024602EB820202EB820235
:1038400063689B00B2FBF3F20D48A0FB023149090B
:10385000642303FB11231B013233A0FB03235B0909
:1038600003F0F00202EB011203F00F03216813448E
:103870008B6010BDFFF738FA0246DDE700380140E3
:103880001F85EB512DE9F84305460F46164699462C
:10389000DDF820802C68246837EA04030CBF4FF061
:1038A000010C4FF0000CB4451FD1B8F1FF3FF1D02F
:1038B000B8F1000F05D0FEF78FFAA0EB09004045E4
:1038C000E8D92A68D36823F4D073D3602A6853698F
:1038D00023F001035361202385F83D3085F83E3005
:1038E000002385F83C30032000E00020BDE8F88389
:1038F00058B310B5044690F83D300BB3242384F838
:103900003D302268D36823F40053D3602046FFF78C
:103910006FFF2268136923F490431361226853698F
:1039200023F02A0353612268D36843F40053D36021
:1039300000202064202384F83D3084F83E3010BD00
:1039400080F83C30FEF7C0F9D8E7012070472DE938
:10395000F04182B01E4690F83D30DBB2202B54D1AE
:1039600004460D469046002953D0002A53D090F8C3
:103970003C30012B51D0012380F83C3000230364FC
:10398000212380F83D30FEF727FA0746A4F824806B
:10399000A4F82680A368B3F5805F05D04FF0000837
:1039A000002384F83C3012E0236913B14FF0000883
:1039B000F6E7A8460025F3E738F8023B2268C3F390
:1039C00008035360E28C92B2013A92B2E284E38C33
:1039D0009BB273B100963B46002280212046FFF740
:1039E00051FFE0B9002DE7D015F8012B23685A608C
:1039F000E8E700963B46002240212046FFF742FFC1
:103A000078B9202384F83D3000E0022002B0BDE800
:103A1000F0810120FAE70120F8E70220F6E7032011
:103A2000F4E70320F2E72DE9F04182B01E4690F85A
:103A30003E30DBB2202B5CD104460D469046002977
:103A40005BD0002A5BD090F83C30012B59D0012389
:103A500080F83C3000230364222280F83E20036378
:103A6000FEF7BAF90746A4F82C80A4F82E80A368C4
:103A7000B3F5805F05D04FF00008002384F83C3098
:103A800017E0236913B14FF00008F6E7A8460025B8
:103A9000F3E723685B68C3F3080328F8023B03E0FD
:103AA00023685B682B700135E28D92B2013A92B2C5
:103AB000E285E38D9BB2BBB100963B4600222021FC
:103AC0002046FFF7DFFEF0B9002DE2D0A368B3F582
:103AD000805FE5D013B92369002BE1D023685B68D0
:103AE00003F07F032B70DEE7202384F83E300020B4
:103AF00000E0022002B0BDE8F0810120FAE70120D9
:103B0000F8E70220F6E70320F4E708B500F0E0F953
:103B100008BD00002DE9F8430446884616460846CD
:103B2000FCF778FE054621462046FCF773FE014669
:103B30002846FCF767FD00F0C1F94FF07851FCF71B
:103B400069FE07464046FCF767FC804689462046EA
:103B5000FCF762FC42464B4606F0E2FD04460D4689
:103B60003046FCF759FC22462B46FCF7F7FAFCF7E7
:103B7000F3FC00F085F980466449FCF7FFFEFCF792
:103B80004BFC06F051FD0022614BFCF7E7FAFCF715
:103B90009BFC0546FCF7EAFD04465C49FCF73AFE4F
:103BA0004146FCF72DFD00F0B7F85A49FCF732FE0C
:103BB0003946FCF72FFE06464FF07E512046FCF7B3
:103BC0001FFD5249FCF726FE01464046FCF718FD52
:103BD00000F0A2F84F49FCF71DFE3946FCF71AFE2B
:103BE000044631464FF07E50FCF70AFD2146FCF7B3
:103BF00007FD07466B1E052B00F28380DFE803F00C
:103C0000031F3245586B21463046FCF7FBFC054646
:103C10004FF07C513846FCF7FDFD0746014628462B
:103C2000FCF7F0FC054621463846FCF7EBFC8046E5
:103C30003A464146284600F067F9BDE8F8834FF060
:103C40007C51FCF7E7FD07463146FCF7DBFC0546F7
:103C500021463046FCF7D6FC01463846FCF7D2FC3C
:103C60008046E5E74FF07C51FCF7D4FD0546214640
:103C70003046FCF7C7FC2946FCF7C4FC80462946C1
:103C80002046FCF7BFFC0746D2E74FF07C51FCF71B
:103C9000C1FD054601463046FCF7B4FC804621468E
:103CA0003046FCF7AFFC2946FCF7ACFC0746BFE703
:103CB0004FF07C51FCF7AEFD80462146FCF7A2FC9C
:103CC000054621463046FCF79DFC01464046FCF780
:103CD00099FC0746ACE721463046FCF793FC0446C6
:103CE0004FF07C513846FCF795FD80460146204652
:103CF000FCF788FC054631464046FCF783FC074646
:103D000096E70027B8463D4692E700BF920A863FF5
:103D10000000F03FD7B3DD3F10B504465049FCF733
:103D200017FF38BB4F492046FCF712FF002842D14D
:103D30004D492046FCF70CFF00286BD04B4920462C
:103D4000FCF768FD04460021FCF716FF002857D059
:103D50004FF07C512046FCF755FCFCF721FFA0F505
:103D6000C770434B53F82000FCF700FD4149FCF7B6
:103D700051FD17E03D492046FCF74CFD044600216B
:103D8000FCF7FAFE78B14FF07C512046FCF73AFC84
:103D9000FCF706FF364B53F82000FCF7E7FC3649EA
:103DA000FCF738FD10BD4FF07C512046FCF728FC95
:103DB000FCF7F6FEEEE72D492046FCF72BFD044606
:103DC0000021FCF7D9FE88B14FF07C512046FCF76A
:103DD00019FCFCF7E5FEC0F5C770254B53F8200031
:103DE000FCF7C4FC2449FCF715FDDBE74FF07C51E0
:103DF0002046FCF705FCFCF7D3FEC0F5C770ECE7E6
:103E00004FF07C512046FCF7FBFBFCF7C9FEA0F508
:103E1000C770A6E715492046FCF7FCFC04460021C4
:103E2000FCF7AAFE88B14FF07C512046FCF7EAFB74
:103E3000FCF7B6FEC0F547700D4B53F82000FCF7B9
:103E400095FC0C49FCF7E6FCACE74FF07C512046B2
:103E5000FCF7D6FBFCF7A4FEC0F54770ECE700BF0B
:103E6000DB0FC93FDB0F4940E4CB9640E65FFD42E4
:103E700034E1000817B7D1B817B7D13800000000F7
:103E800010B5FCF7C9FA0AA3D3E9002306F04AFCEF
:103E9000FCF762FB04460021FCF76EFE08B12046E9
:103EA00010BD05492046FCF7ADFB0446F7E700BF0F
:103EB00000000060FB211940DB0FC94008B5014636
:103EC0000248A0EB6100FCF7A5FC08BD865A375FED
:103ED00010B501224FF400410848FEF7FFFA084CE4
:103EE00000212046FFF7B6FB04212046FFF7B2FB76
:103EF00008212046FFF7AEFB10BD00BF000C0140BB
:103F0000E40A00200000000070B50E461546FCF7DC
:103F100083FA11A3D3E90023FCF7DEFE104B1C68E3
:103F2000FCF7FAFA60633046FCF776FA0AA3D3E9A5
:103F30000023FCF7D1FEFCF7EFFAA0632846FCF75C
:103F40006BFA05A3D3E90023FCF7C6FEFCF7E4FAFD
:103F5000E06370BDAFF300800000000000FEAF40E2
:103F6000E40A002008B5054B1860054B18680023CB
:103F700002221946806800F085FD08BD740B002000
:103F800014000020022801D80120704708B500F075
:103F900017FA09230360002008BD000010B501389E
:103FA00001280AD814464FF0FF3392B20748006840
:103FB000FFF7CDFC40B9204610BD00F001FA0923FF
:103FC00003604FF0FF30F7E70520F5E7740B0020A2
:103FD000022801D80020704708B500F0F1F9092344
:103FE00003604FF0FF3008BD08B500F0E9F9092380
:103FF00003604FF0FF3008BD08B548B94FF0FF33FC
:10400000012208480068FFF70EFD40B9012008BDF5
:1040100000F0D6F9092303604FF0FF30F7E70520E1
:10402000F5E700BF740B002008B5022804D84FF450
:1040300000534B60002008BD00F0C2F90923036063
:10404000F8E7000010B5074C002240212046FEF79B
:1040500045FA0520FDF7C6FE012240212046FEF765
:104060003DFA10BD0008014000B583B08DF807008F
:10407000002210210648FEF731FA4FF0FF330122EB
:104080000DF107010348FEF7A2FF03B05DF804FB42
:1040900000080140880A002038B504460D46012278
:1040A00010210548FEF71AFA4FF0FF33AAB2214655
:1040B0000248FEF78CFF38BD00080140880A002046
:1040C000F8B5064616F8012B09E039462046FFF7F9
:1040D000E3FF3C440FE0FDF785FE2A462646531ECB
:1040E000DDB292B1344614F8020BFFF7BDFF7678CB
:1040F00016F07F07E9D116F0800FEED014F8010B0F
:10410000FF28E8D14FF4FA70E5E7F8BDF0B583B0C9
:1041100007460D4616461C462A20FFF7A5FF00233A
:104120008DF8043001378DF805708DF806300136B2
:104130008DF8076004210DEB0100FFF7ADFF2B2088
:10414000FFF792FF1A358DF805501A348DF80740A5
:1041500004210DEB0100FFF79FFF2C20FFF784FFE8
:1041600003B0F0BD82B02DE9F04F83B093460D93BC
:10417000BDF83C80BDF84070C0B2C9B29DF8345063
:104180004219D2B29DF835A001EB0A03DBB2013B24
:10419000013ADBB2D2B2FFF7B9FF4FF000091DE0E0
:1041A0003B0A8DF804308DF80570022101A8FFF755
:1041B00073FF0134A5420FD906FA04F313F4004F3C
:1041C000EED04FEA18238DF804308DF805800221D7
:1041D00001A8FFF761FFECE709F10109CA4508D919
:1041E000ABF120030AFB03930E9A32F8136000240C
:1041F000E0E703B0BDE8F04F02B0704708B5FFF745
:1042000021FF0548FFF75CFF0448FFF759FF04480A
:10421000FFF756FF08BD00BFB0F10008ECF1000841
:10422000FCF1000882B02DE9F04385B006460D464A
:1042300017460D93BDF83C90BDF8408010E0013763
:1042400000260DE0CDF80880CDF804900E9B009379
:104250000D9B29463046FFF785FF3444A6B201374F
:104260003A787AB19DF8344033199F2BEADD9DF8F6
:1042700035301D44ADB22B444F2B03DC202ADED059
:104280000026DFE705B0BDE8F04302B0704700004C
:1042900070B582B0BDF818409F2836D816461D4626
:1042A0004F2932D88318A02B02DDC0F1A006B6B288
:1042B0004B19502B02DDC1F15005ADB2C0B2C9B2ED
:1042C0008219D2B24B19DBB2013B013ADBB2D2B256
:1042D000FFF71CFF230A8DF804308DF805400122FA
:1042E00010210B48FEF7FAF80CE04FF0FF330222E2
:1042F00001A90848FEF76BFE013CA4B2002CF4D1E2
:10430000013DADB20DB13446F8E702B070BD00BF5B
:1043100000080140880A002000B583B000905023B7
:10432000A02200210846FFF7B3FF03B05DF804FBAD
:104330009F281ED838B515461C464F2905D8831826
:10434000A02B02DC0B19502B00DD38BDC0B2C9B266
:104350008218D2B20B19DBB2013B013ADBB2D2B206
:10436000FFF7D4FE04FB05F149000498FFF794FE23
:10437000EBE770470C480D490D4A002302E0D45882
:10438000C4500433C4188C42F9D30A4A0A4C00239F
:1043900001E013600432A242FBD3FDF7B3FB00F04F
:1043A00015F8FDF779FA704700000020C0090020D9
:1043B000BCF60008C0090020C00B0020FEE700008A
:1043C000014B1868704700BF1400002070B50D4EF7
:1043D0000D4D761BB61006D0002455F8043B013471
:1043E0009847A642F9D1094E094D06F06FFD761B9C
:1043F000B61006D0002455F8043B01349847A64275
:10440000F9D170BDB0F60008B0F60008B8F60008A3
:10441000B0F60008024B0146186800F003B800BF70
:10442000140000202DE9F04F01F10B05162D064672
:1044300083B025D8102900F2B88000F0F1FA1025D9
:1044400018224FF0020CB54F3A445368A2F108010C
:104450008B4200F0B7805A68D96822F003021A44F0
:104460009C683046E1608C60516803F1080441F0BB
:104470000101516000F0DAFA204603B0BDE8F08F88
:1044800035F0070500F19180A94200F28E8000F01E
:10449000C7FAB5F5FC7FC0F094816B0A00F08C8000
:1044A000042B00F26A81AB0903F1390C03F13804E3
:1044B0004FEACC00994F384443680838984206D1F7
:1044C0000CE0002980F22681DB68984206D05A6809
:1044D00022F00302511B0F29F3DDA4463C69DFF8EB
:1044E00040E274457AD0626822F00302531B0F2B1E
:1044F00000F37681002BC7E904EE80F26781B2F504
:10450000007F80F019810121D30852090B449140AA
:104510007A6857F833000A4307EBC3010839A060F3
:10452000E1607A6047F83340C46001214FEAAC0390
:104530009940914259D8114206D12CF0030C490000
:1045400011420CF1040CFAD007EBCC094846644642
:10455000D0F80C80404508D11CE1002B80F221816D
:10456000D8F80C80404500F01581D8F8042022F0DE
:104570000302531B0F2BF0DD08EB050145F001058D
:10458000C8F804503046D8E90264F460A66043F0ED
:104590000104C7E904114C60C1E902EE48F8023099
:1045A00000F044FA08F1080402E00C230024336010
:1045B000204603B0BDE8F08F4FF400704FF0400C80
:1045C0003F2477E7D3689A4208BF0CF1020C7FF4CE
:1045D00042AF3C69DFF848E1744584D101217A6833
:1045E0004FEAAC0399409142A5D9BC68636823F0B7
:1045F00003094D4503D8A9EB05030F2B7ADCDFF83F
:1046000024B1494BDBF800201B6801322B4404EB3A
:10461000090A00F02F8103F580530F3323F47F68DC
:1046200028F00F084146304600F01AFA411C0246B5
:1046300000F0EF80824500F2EA803C4B196841446B
:104640000846196000F04981DBF800100193013140
:104650001BBFA2EB0A0A5044CBF80020186012F0EE
:10466000070B00F01181CBF108010A44CBF5805112
:1046700090440831A1EB0801C1F30B0A51463046C2
:10468000009200F0EDF9421CDDE9002300F04B81BF
:10469000801A00EB0A08196848F001005144BC4236
:1046A000BA601960506000F02481B9F10F0F40F238
:1046B00022814FF0050E6068A9F10C0C2CF0070C5C
:1046C00000F0010040EA0C006060BCF10F0F04EB49
:1046D0000C00C0E901EE00F22E8114465068144B24
:1046E0001A688A4238BF1960124B1A688A4238BF6A
:1046F000196090E0621943F0010345F0010565601F
:104700003046BA600834536000F090F9204603B098
:10471000BDE8F08FD9681A44A2E600BF400400202B
:104720004804002048080020A80B0020780B002037
:10473000A00B0020A40B0020B2F5206F4FEA5223FB
:104740005FD3142B00F2B18003F15C01C9005B332D
:10475000781879580838884200F08F804B6823F029
:104760000303934202D989688842F7D1C8687A68FE
:10477000C4E902108460CC60D7E6142B59D9542BBD
:1047800000F29B802B0B03F16F0C03F16E044FEAD8
:10479000CC008FE60134A30700F108007FF4D8AE07
:1047A00053E0444642445368D8F80C1043F00103E8
:1047B000536054F8083F3046D9608B6000F036F9FA
:1047C000F6E64FEAD50C05F108023CE622445368B0
:1047D000304643F00103536000F028F90834E7E65F
:1047E000611945F00105656043F00105C7E9041151
:1047F0003046C1E902EE4D60A35000F017F90834CD
:10480000D6E6930903F13901C9003833A0E7BC4269
:104810005ED0BC68606820F003084545A8EB05033E
:1048200002D80F2B3FF766AF304600F0FFF80024A8
:10483000BEE603F15C0C03F15B044FEACC0039E601
:1048400059F808394B4540F095801CF0030F0CF1E6
:10485000FF3CF5D17B6823EA01037B604900994264
:104860003FF6C3AE11B9C0E6490004341942FBD08B
:10487000A44669E603F11008D4E601229B109A4091
:104880007B681A437A6073E702EB08014942C1F37F
:104890000B0A51463046009200F0E2F8431CDDE975
:1048A00000237FF4F5AEDA46F5E6542B26D8130B39
:1048B00003F16F01C9006E334AE7B3F5AA7F26D82A
:1048C000EB0B03F1780C03F177044FEACC00F1E530
:1048D000294B186840441860B6E6CAF30B0CBCF1CB
:1048E000000F7FF4B1AEBC68C84448F001006060BE
:1048F000F5E61446F3E60123536095E7B3F5AA7F86
:1049000024D8D30B03F17801C900773320E740F2B4
:104910005452934224D8AB0C03F17D0C03F17C0478
:104920004FEACC00C6E5ABF1080BD8444FF0000AC3
:10493000A8EB0208AFE604F108013046009303F04B
:104940009BF9BC68009B60681968C8E640F2545146
:104950008B420BD8930C03F17D01C9007C33F7E641
:104960004FF47E704FF07F0C7E24A3E54FF47E71F0
:104970007E23EDE67B6871E7780B0020830730B576
:1049800048D0541E002A3FD00346CAB201E0013C81
:104990003AD303F8012B9D07F9D1032C2DD9CDB2C1
:1049A00045EA05250F2C45EA054536D9A4F1100244
:1049B00022F00F0C03F1200EE6444FEA121C03F123
:1049C000100242E9045542E9025510327245F8D10D
:1049D0000CF1010214F00C0F03EB021204F00F0CA7
:1049E00013D0ACF1040323F003030433134442F85F
:1049F000045B9342FBD10CF003042CB1CAB21C44FB
:104A000003F8012B9C42FBD130BD64461346002CB9
:104A1000F4D1F9E703461446BFE71A46A446E0E797
:104A2000014803F055BA00BFB00B0020014803F065
:104A300051BA00BFB00B00200FB400B5074A83B0D5
:104A400004AB106853F8042B8168019300F0F2F86E
:104A500003B05DF804EB04B0704700BF1400002001
:104A6000002238B5064D044608462A60FDF72CF8AA
:104A7000431C00D038BD2B68002BFBD0236038BD11
:104A8000BC0B00202DE9F043694C0E46D4F80080A1
:104A9000174604461D4683B0B8F1000F03D0D8F87E
:104AA0003830002B77D0022F05D0012F00F2AC80D8
:104AB000002DC0F2A980636EDA0752D52146404628
:104AC00002F0AEFF216B41B104F14003994202D0E4
:104AD000404603F0D1F8002323630023B4F90CC04F
:104AE000A3611CF0800F636064D12CF44A6C2CF03D
:104AF000030C022FA4F80CC06AD001AB214640463B
:104B00006A4603F059FAA3891843A081002D2FD0DB
:104B1000002E2ED0D8F83830002B38D0009BC4E9B6
:104B20000465AB42B4F90C3026601CBF43F400634B
:104B3000A381012F04BF43F00103A3819AB213F0B4
:104B400008032CD0D1075DD500216D42A561656EAB
:104B5000A16015F0010527D00025284603B0BDE867
:104B6000F083A3899B05A9D4A06D03F0B1F9A5E753
:104B7000009D2846FFF74EFC0646002847D0A38933
:104B800043F08003A381D8F83830002BC6D14046CB
:104B900002F07AFFC2E7404602F076FF83E7A360A7
:104BA000656E15F00105D7D1930524D5284603B0CD
:104BB000BDE8F0834046216903F05EF8B4F90CC00B
:104BC000022F2CF44A6C2CF0030CA4F80CC094D1E6
:104BD00000250021012204F1430323602361636E59
:104BE0004CF0020CD807A4F80CC0A1606261DDD4BF
:104BF0001CF4007FDAD1A06D03F06CF9284603B0F5
:104C0000BDE8F083A560CBE74FF0FF35CEE7DDF8D8
:104C10000090A94504D04846FFF7FCFB064620B9A2
:104C20004FF0FF35B4F90CC0D3E74D46A7E700BFFE
:104C3000140000202DE9F04FD5B01C469146079195
:104C40000546099003F03CF902680E94104617924D
:104C500003F04CFE16901DB1AB6B002B00F01D82D3
:104C6000079A536EDD0740F12D81B2F90C2091B205
:104C70008F0409D4079B42F400529A8191B21A46DC
:104C80005B6E23F4005353660E0740F1C080079B10
:104C90001B69002B00F0BB8001F01A030A2B00F007
:104CA000C48000242BAB224698464D46CDE92944CA
:104CB0002893129400230024CDE914342B78CDE9F5
:104CC0001922CDE91B2218920B92002B00F08F8144
:104CD000AA4604E01AF8013F002B00F0BB80252B08
:104CE000F8D1BAEB050640F0B9809AF80030002BF5
:104CF00000F07D8100234FF0FF324FF02B0920247C
:104D00001F469AF8016008920AF1010A8DF8833073
:104D10000A930AF1010AA6F120035A2B00F2E1805E
:104D2000DFE813F00503DF00DF000003DF00DF0032
:104D3000DF00DE02DF00DF006A006E02DF005502E6
:104D40007802DF0073025B005B005B005B005B00CE
:104D50005B005B005B005B00DF00DF00DF00DF006B
:104D6000DF00DF00DF006C01DF00EA01C4016C013D
:104D70006C016C01DF00DF00DF00DF00D002DF002C
:104D8000DF002302DF00DF00DF00F801DF00920216
:104D9000DF00DF008707DF00DF00DF00DF00DF006C
:104DA000DF00DF00DF006C01DF00EA01C6016C01FB
:104DB0006C016C01B602C601BF01DF00C302DF0057
:104DC0005A022502A402BF01DF00F8017200840725
:104DD000DF00DF006507DF0072000022A6F130036C
:104DE0001AF8016B02EB820203EB4202A6F13003D8
:104DF000092BF5D90A928EE70E9B53F8042B002A53
:104E00000A920E93C0F2E0819AF8006081E7079D54
:104E10000998294601F0FCFC002841F04D83A9893E
:104E200001F01A030A2B7FF43CAF079AB2F90E3057
:104E3000002BFFF636AF536ED80702D4890541F137
:104E4000488123464A460799099855B0BDE8F04F76
:104E500001F09CBCBAEB050600F0C9802A9BC8E9AA
:104E6000005633442A93299B0133072B299305DCF1
:104E700008F108080B9B33440B9336E70799099810
:104E800028AA03F0D1FD80B90DF1AC08F2E707992B
:104E9000099828AA03F0C8FD002800F099800D9B0E
:104EA0001BB11946099802F0E7FE079A536ED9071D
:104EB00040F1E88093895B0601F10A830B9855B0B5
:104EC000BDE8F08F079BB3F90C20900591B23FF538
:104ED000CFAE1D46986D02F0FBFFB5F90C2091B2E4
:104EE000C6E6002E00F08380012300228DF8EC60DE
:104EF00006933BAD8DF883200C930D9208920F9290
:104F00001392109217F0020302D006990231069113
:104F100017F0840B07D10A990698A1EB0009B9F1A3
:104F2000000F00F390832A9C82B10122C8F804206C
:104F3000299A013401320DF18301072A2A9429921A
:104F4000C8F8001000F3D88308F108087BB10223E9
:104F5000C8F80430299B0234013321AA072B2A9474
:104F60002993C8F8002000F3D58308F10808BBF1A5
:104F7000800F00F08882089B0C9AA3EB020BBBF118
:104F8000000F00F3CB82FB0500F11F820C9BC8F8D9
:104F900000501C44C8F80430299B2A940133072B85
:104FA000299300F3448308F10808780705D50A9B84
:104FB000069A9D1A002D00F3B983DDE90A230699AC
:104FC0008A42ACBF9B185B180B93002C7FF45FAF39
:104FD000002329930D9B1BB10D99099802F04CFEFB
:104FE00055460DF1AC082B78002B7FF471AE2A9B4F
:104FF000002B41F010820023299356E70E9B0733C4
:1050000023F00702F2E80234CDE91434DDE9143468
:1050100024F00044994618460E9221464FF0FF3284
:10502000AB4BFCF7F3F8002840F0188548462146C2
:105030004FF0FF32A64BFCF7CBF8002840F00E856E
:10504000DDE9140100220023FCF7B8F8002840F045
:1050500065879DF88320002103209E4D9E4B27F0FD
:1050600080070D910690472EC8BF1D4608910C90F1
:105070000F9113911091002A3FF444AF069B013326
:1050800006933FE7079B9B899A053FF514AF079C62
:10509000A06D02F01FFFA3890DE7099802F0F4FC50
:1050A000DEE59AF8006047F0200732E647F0100787
:1050B000BA060E9B40F16E84073323F007031A46AD
:1050C0005B6852F8084B99460E92002BC0F26F8431
:1050D000089B013300F0FB8254EA090327F0800BA0
:1050E00040F0F682089B002B40F0F7825F460023D9
:1050F00054AD08930C933DE1012000220E9B0690D5
:1051000053F8041B3BAD8DF883208DF8EC100E9303
:105110000C90F2E64FF000090E9C089B54F8045BDB
:105120008DF88390002D00F0A1855A1C00F0A58613
:105130001A464946284602F06FFF0D90002801F0FC
:1051400050810D9B9DF883205B1B0C9323EAE37336
:10515000CDF820900E940693CDF83490CDF83C9085
:10516000CDF84C90CDF8409085E747F0100717F048
:10517000200900F0F2830E9B073323F00703D3F8D6
:10518000049053F8084B0E93002327F4806B002201
:105190008DF88320089A511C00F0D48054EA09014C
:1051A0002BF0800740F0CD80002A40F00486002BD1
:1051B0009DD11BF001030C9300F0308430230DF2DD
:1051C0004F158DF84F31D5E00A9B5B420A939AF850
:1051D000006047F004079CE5BD0600F1FD84FC0675
:1051E00000F1EE85780600F1B286B90540F1E88558
:1051F0000E9B0B9953F8042B554611700E93F2E653
:105200009AF800608DF8839083E59AF8006047F083
:1052100080077EE5524612F8016B2A2E01F08D823E
:10522000A6F13003092B924698BF002201F2E580D7
:105230001AF8016B02EB820203EB4202A6F1300383
:10524000092BF5D9089266E547F0100B1BF02009F1
:1052500000F091830E9B073323F007031A4652F8A0
:10526000084BD3F804900E92012390E73022782661
:105270000E9B8DF8842053F8044B184A0E934FF080
:105280000009022347F0020B8DF8856018927EE733
:105290009AF80060682E03BF9AF8016047F400771F
:1052A0000AF1010A47F0400733E59AF800606C2ED6
:1052B00003BF9AF8016047F020070AF1010A47F09E
:1052C000100726E59AF8006047F0080721E500BFBF
:1052D000FFFFEF7F2CF2000830F200083CF20008DC
:1052E000099E304602F0ECFD436818461B9303F01C
:1052F000FDFA034630461C931E4602F0E1FD83682A
:105300001993002E3FF480AD199B002B3FF47CAD28
:10531000199B1B78002B3FF477AD9AF8006047F497
:105320008067F6E49AF8006047F00107F1E49DF821
:105330008330002B7FF468AD9AF800608DF88340CD
:10534000E7E4BB46012B00F0C381022B54AD1FD113
:10535000189A04F00F03D35C240944EA09744FEA55
:10536000191905F8013D54EA0903F2D15F4654AB1F
:105370005B1B0C93089A0C9900238A42B8BF0A461B
:105380000D9306920F939DF883201393109372E66A
:1053900004F00703E40844EA49744FEAD9093033BA
:1053A00054EA09012A4605F8013DF1D11BF0010F2D
:1053B000DCD0302BDAD03023023A05F8013C54AB74
:1053C0009B1A5F4615460C93D4E7652E40F3E9809F
:1053D000DDE9140100220023FBF7E6FE002800F0BF
:1053E000E1810123C8F80430299BC04A013301340C
:1053F000072B2A942993C8F8002000F3BF8408F1F2
:105400000808229B129A934280F2DC82169B179A1C
:105410001C44C8E90023299B2A940133072B2993B4
:1054200000F3178408F10808129B5D1E002D7FF71A
:10543000BCAD102D41F35D81DFF8B49222464946A0
:105440001026B946299B0F46DDF824B0079C05E0DD
:1054500008F10808103D102D40F39D8401331032EF
:10546000072BC8E90076CDE92932F1DD21465846FF
:1054700028AA03F0D9FA00287FF411ADDDE929321A
:105480000DF1AC08E6E70A9B069AA3EB020BBBF111
:10549000000F7FF770ADBBF1100F41F35280DFF8C2
:1054A000509241462046A8464C461023299A079D13
:1054B000DDF8249006E0ABF1100BBBF1100F01F109
:1054C000080119DD01321030072AC1E90043CDE996
:1054D0002920F0DD2946484628AA03F0A5FA00282D
:1054E0007FF4DDACDDE92920ABF1100BBBF1100F2F
:1054F0004FF010032BA9E5DC4546A146884604463B
:1055000001325C44072ACDE92924C8F80090C8F884
:1055100004B000F3918308F108082CE5BBF1100FEB
:1055200040F3E384DFF8C89141462046A8464C4644
:105530001023299A079DDDF8249006E0ABF1100BAB
:10554000BBF1100F01F1080119DD01321030072AFB
:10555000C1E90043CDE92920F0DD2946484628AAC3
:1055600003F062FA00287FF49AACDDE92920ABF160
:10557000100BBBF1100F4FF010032BA9E5DC4546D3
:10558000A1468846044601325C44072ACDE9292415
:10559000C8F80090C8F804B000F3D28108F10808F8
:1055A000F1E4129B012B40F382810123299E0134F7
:1055B0001E44072EC8F800502A94C8F804302996D3
:1055C00000F36C8308F10808169B0136179A1C44F7
:1055D000072EC8E90023CDE9296400F36C8308F1A4
:1055E00008080022DDE914010023FBF7DDFD002897
:1055F00040F07A81129B0136013B01351C44072E95
:10560000C8F800502996C8F804302A9400F35F8146
:1056100008F108081A9B01361C44C8F80430072E0C
:1056200024ABCDE92964C8F800307FF7BCAC0799FA
:10563000099828AA03F0F8F900287FF430AC2A9CD6
:105640000DF1AC08B1E4B9F1100F40F3C686DDE905
:1056500029214046CDE91D36B84610244F46079E05
:10566000A946099D04E0103F102F00F1080016DD47
:105670000132204B1031072AC0E90034CDE929213D
:10568000F1DD3146284628AA03F0CEF900287FF440
:1056900006ACDDE92921103F102F2BA8E8DC4D4690
:1056A000DDE91D36B9464746804609EB0104013263
:1056B0001049072ACDE92924C8F80490C8F8001039
:1056C00000F340839DF8832008F108082CE4BB46D2
:1056D0000A2C79F1000380F0FB82012330345F460D
:1056E0008DF84F410C930DF24F1543E66CF2000814
:1056F00080F2000870F200080799099828AA1D9303
:1057000003F092F900287FF4CAAB2A9C1D9B0DF18F
:10571000AC081BE40799099828AA03F085F900282A
:105720007FF4BDAB2A9C0DF1AC0820E4102D40F3B2
:10573000BE861026299B099FDDF81C9004E0103DD1
:10574000102D08F1080817DD0133BA4A1034072B71
:10575000C8E90026CDE92934F1DD4946384628AAB2
:1057600003F062F900287FF49AABDDE92934103D9B
:10577000102D0DF1AC08E7DC0133AE4A2C44072BA9
:10578000CDE92934C8F80450C8F800207FF715ACDB
:105790000799099828AA03F047F900287FF47FABFE
:1057A0002A9C0AE42299002940F31081DDF84090F8
:1057B000129B9945A8BF9946B9F1000F0BDD299BB3
:1057C0004C440133072BC8E900592A94299300F36C
:1057D000818508F10808109EB9F1000FA8BFA6EB5B
:1057E0000906002E00F3F582DDF840B07905AB44E0
:1057F00000F1AC84229B129A934202DBFA0740F13B
:105800009283169A17991444C8E90012299A2A9487
:105810000132072A299200F3A88508F10808129A94
:10582000AE18A6EB0B06D51AAE42A8BF2E46002E28
:105830000DDD299B34440133072BC8F800B0C8F8AC
:1058400004602A94299300F3FC8508F10808002ECF
:10585000A8BFAD1B002D7FF7A8AB102D40F34987E3
:10586000DFF8D491224649461026B946299B0F46B7
:10587000DDF824B0079C05E008F10808103D102D64
:1058800040F3898201331032072BC8E90076CDE955
:105890002932F1DD2146584628AA03F0C5F8002830
:1058A0007FF4FDAADDE929320DF1AC08E6E7FE0739
:1058B0003FF57BAE0123299E01341E44072EC8F814
:1058C00000502A94C8F8043029967FF7A1AE0799B2
:1058D000099828AA03F0A8F800287FF4E0AADDE9D7
:1058E00029640DF1AC0895E6129B5D1E002D7FF733
:1058F00091AE102D40F31987224608974FF0100BF8
:10590000DFF83491099C079F05E008F10808103D75
:10591000102D40F3C78201361032072EC8E9009BD4
:10592000CDE92962F1DD3946204628AA03F07CF84A
:1059300000287FF4B4AADDE929620DF1AC08E6E79E
:105940000799099828AA03F06FF800287FF4A7AAFE
:105950002A9C0DF1AC08FFF716BB17F0100377D1A6
:1059600017F0400200F0AC820E9A994652F8044BB0
:105970000E92A4B208E41BF010030E9A54D11BF04F
:1059800040014DD052F8044B99460E920123A4B227
:10599000FFF7FDBB53F8044B0E93FB0653D47D0673
:1059A0004ED544F3C0394B4624B2FFF78EBB2D23AE
:1059B00064428DF88330BB464FF0010369EB49091F
:1059C000FFF7E8BBF8077FF5F0AA1FE50123C8F849
:1059D0000430299B194A01330134072B2A94299357
:1059E000C8F8002000F3688408F10808002940F096
:1059F0002582129A07F0010313433FF4D6AA169B9F
:105A00001799E218C8E90013299B2A920133072B42
:105A1000299300F3508308F1080820E254ADA9E46B
:105A20001BF4007940F0A08252F8044B01230E923F
:105A3000FFF7ADBB70F2000880F200086CF20008BE
:105A4000B80500F179824FEAE4794B46FFF73DBB98
:105A50000E9B53F8044B0E93FFF796BBDDE9140140
:105A600002460B46FBF7D2FB002840F0F785612E7B
:105A700000F06C85412E00F07F82089B013300F01E
:105A8000948526F02003472B069300F07B85DDE903
:105A9000141247F480730F931346002BC0F2F48561
:105AA0000C9300238B461D930D93069B462B00F011
:105AB0002B84452B00F0148508990C9B0191022141
:105AC000009126A9049123A9039122A95A46099875
:105AD000029100F0ADFF069B0546472B40F044863F
:105AE00017F0010FB9460F9F40F0F784269B5B1B10
:105AF0001293069B472B00F0F182069B462B00F089
:105B00004284229B1093109B069A013B412A2293C8
:105B100000F08A850021F2B2002B8DF89020B6BFEC
:105B20002D222B22109B8DF89120B8BFC3F10103C9
:105B3000092B40F381850DF19F0C6246BA4F1C463C
:105B4000104687FB0312D917C1EBA20101EB8102BA
:105B5000A3EB42023032632C00F8012C0B4600F11B
:105B6000FF32ECDC3033811EDBB28C4502F8013CA5
:105B700040F2FF850DF1920101E012F8013B9445DE
:105B800001F8013BF9D10DF1A1030DF192021B1AAD
:105B9000134424AA9B1A1A93129B1A9A012B1A4493
:105BA0000C9240F39E850C9B169A13440C93002391
:105BB0000C9A29F4806722EAE27247F480770F9307
:105BC0000692139310931D9B002B40F0B0829DF81A
:105BD00083200893FFF74FBA0E9B0B9853F8041BD2
:105BE000C2175546C1E900020E93FFF7FCB98F4B6F
:105BF000189317F0200949D00E9B073323F00703B1
:105C0000D3F8049053F8084B0E93F80709D554EADB
:105C1000090306D030238DF8856047F002078DF820
:105C20008430022327F4806BFFF7B1BABB46FFF73D
:105C30000DBB7F4B1893DCE70799099828AA02F05F
:105C4000F3FE00287FF42BA92A9C0DF1AC08FFF786
:105C500092B90799099828AA02F0E6FE00287FF475
:105C60001EA92A9C0DF1AC08FFF7DEBB062B2946C6
:105C700028BF06232A4608950D9506936D4D0E9470
:105C80000C930F9113911091FFF7F5B917F01003D2
:105C900069D00E9B53F8044B0E93B6E70799099809
:105CA00028AA02F0C1FE00287FF4F9A8DDE92964E2
:105CB0000DF1AC0888E40799099828AA02F0B4FE0F
:105CC00000287FF4ECA8DDE929640DF1AC0888E434
:105CD00000230BF48062CDE90CA8069692461E467E
:105CE000DDF8648054AF0CE00023204649460A22C8
:105CF000FBF7A2FA0A2C79F100031BD3044689466C
:105D00002F4620460A2200234946FBF795FA3032F7
:105D10007D1E013607F8012CBAF1000FE4D098F887
:105D200000309E42E0D1FF2EDED00A2C79F1000334
:105D300080F0E080CDF864801296DDE90CA8069E24
:105D4000FFF714BB0799099828AA1D9302F06CFE6F
:105D500000287FF4A4A89DF883202A9C1D9B0DF1A8
:105D6000AC08FFF7E1B817F0400200F0B4800E9ADB
:105D7000994652F8044B0E92A4B246E70799099847
:105D800028AA02F051FE00287FF489A82A9C0DF170
:105D9000AC08FFF736BB14463A464F4691460133EE
:105DA0002C44072BC8F80090C8F80450CDE92934DA
:105DB0007FF7F9A83BE4012BBB467FF4C6AA8CE42D
:105DC0000E9B0B9953F8042B554611600E93FFF769
:105DD0000AB9102E40F3AD84DFF85C904246484685
:105DE0002146A846B9464FF0100B0746299B099C4F
:105DF000079D04E00832103E102E40F34882013324
:105E00001031072BC2E9007BCDE92931F2DD2946AB
:105E1000204628AA02F008FE00287FF440A8DDE909
:105E200029312BAAE7E700BF676666663CF20008E7
:105E300050F2000864F2000880F20008169B1798E0
:105E4000E218C8E90003299B2A920133072B299302
:105E500000F3318108F108080029C0F20283129989
:105E600001338C18072BCDE92934C8F80050C8F845
:105E700004107FF798A8FFF7DABB2846CDF82090EA
:105E80000E9402F033FD20EAE073CDE90C099DF891
:105E90008320CDF83C90CDF84C90CDF840900693FF
:105EA000FFF7E9B81446089F01362C44072ECDE9C8
:105EB0002964C8F80090C8F804507FF7A9AB06E53C
:105EC00017F400790E9B3DD053F8044B91460E9386
:105ED000E4B2FFF759B917F400790E9B40D053F89C
:105EE000044B91460E93E4B28FE6299ADFF84C9268
:105EF000FFF749BB1C9B1B99ED1A1A46284602F076
:105F000023FD98F801300BB108F1010820464946FD
:105F10000A2200230026FBF78FF9EFE62D228DF8E9
:105F20008320FFF798B8129AAE18A6EB0B06D51A85
:105F3000AE42A8BF2E468AE444F3C0194B4664B271
:105F4000FFF7C3B853F8044B0E93FFF71DB90E9B30
:105F50000B9953F8042B554611800E93FFF743B865
:105F600053F8044B0E9350E652F8044B8946012334
:105F70000E92E4B2FFF70BB930238DF8843058232A
:105F80008DF88530089B47F00204632B00F3E38211
:105F900000233BAD0D9347F481730F93DDE9141299
:105FA0001346002B2746C0F240820C9300238B46F9
:105FB0001D9326F020030693612E00F01783412ED7
:105FC0007FF473AD22AA58460C9902F011FC00220E
:105FD0004FF07F53FAF780FE02460B46CDE91023BF
:105FE00000220023FBF7E0F808B101232293544B71
:105FF0000C93089BCDE912A6CDE91E78DDE9106768
:10600000AB46DDF830A003F1FF39109506E0002221
:10601000002309F1FF39FBF7C7F8E8B90022494B23
:1060200030463946FAF758FE0F460646FAF74CFA5C
:106030000446FAF7DFF90B46024639463046FAF7CE
:106040008BF81AF80430B9F1FF3FD8464D460646A2
:106050000F460BF8013BDAD13046394600223A4B65
:10606000A946DDF848A0109DCDF84880CDE9100183
:10607000DDF87C80139E1E9FFBF7BEF8002840F0E1
:106080004482DDE9100100222F4BFBF78DF810B19F
:10609000E10700F13A824B46002B06DB3022013348
:1060A0005B440BF8012B5B45FBD1ABEB0503B94619
:1060B00012930F9F1DE50799099828AA02F0B4FCD6
:1060C00000287EF4ECAEDDE9293222990DF1AC080E
:1060D000C2E6906D01F0FEFEFEF7B3BE229BDA1C15
:1060E000109302DB089A934204DD023E26F020035F
:1060F000069308E5109B129A9342C0F2828119F030
:10610000010F00F0A882169A13440C9319F4806FC3
:1061100000F09082109B6726002B00F346810C9BB9
:1061200023EAE373069300230F9313934BE52D2289
:1061300000238DF883200893FEF7A0BF80F20008AB
:1061400050F20008000030400000E03F129B424641
:10615000DDF84C80EB185E460893CDF830A0109720
:106160002146199FDDF87090DDF824A0DDF81CB001
:106170000F9B1395B8F1000F2ED0002B6CD1013F6F
:1061800008F1FF381B9B4944C2E90039299B2A9139
:106190000133072B299363DC0832089B38789B1B5B
:1061A0008342A8BF0346002B1C460ADD29981944E8
:1061B00001300728C2E900632A9129905BDC387816
:1061C0000832002CB4BF0546051B002D15DC064423
:1061D0000F9BB8F1000FD0D1002B3DD1DDE9123576
:1061E000EB189E42B346199790460C4628BF9B4633
:1061F000DDF830A0109FFFF7FDBA102D40F36F823D
:106200001024299804E0103D102D02F1080216DD3B
:106210000130A84B10310728C2E90034CDE929012B
:10622000F1DD5946504628AA02F0FEFB00287EF414
:1062300036AEDDE92901103D102D2BAAE8DC013036
:106240009C4B29440728CDE92901556013604EDC99
:10625000387808320644BBE70F9B013B0F9391E768
:106260005946504628AA02F0DFFB00287EF417AEFC
:106270002A992BAA91E75946504628AA02F0D4FB46
:1062800000287EF40CAE38782A992BAA99E7454667
:1062900090463A460C464F46914601333444072B0C
:1062A000CDE92934C8F80090C8F8046000F35D8196
:1062B00008F10808FFF798BA0799099828AA02F088
:1062C000B3FB00287EF4EBAD22992A9C0DF1AC08BB
:1062D000FFF78CBB0799099828AA02F0A5FB0028B4
:1062E0007EF4DDAD2A9C0DF1AC08FFF774BA594677
:1062F000504628AA02F098FB00287EF4D0AD3878EA
:106300002A992BAA064463E708990C9B0191032163
:10631000009126A9049123A9039122A95A4609981C
:10632000029100F085FB03780546302B00F0C08118
:10633000229B089AB94613440F9FEC185846002236
:1063400000230C99FAF730FF10B12346FFF7CFBBBB
:10635000269BA342BFF4CBAB30215A1C2692197066
:10636000269B9C42F9D8FFF7C2BB0799099828AA37
:1063700002F05AFB00287EF492AD229B2A9C0DF17C
:10638000AC08FFF74CBA229A002A109240F3B98168
:10639000089909F001030B4340F040816626109BE9
:1063A0000C9319F4806F3FF4BAAE19990B78FF2B58
:1063B00000F0D6810024109A204604E0013001311B
:1063C000FF2B00F06481934280F26181D21A4B78F6
:1063D000002BF3D10B780134F2E7DDE92921FFF737
:1063E00064B9089B9DF883200E9406930C93089043
:1063F0000F9013901090FEF73EBE00230893FEF717
:106400008ABC129B169A9A18109B0C92002B40F390
:106410005D816726C5E70799099828AA02F004FB61
:1064200000283EF4E8ADFEF740BD26F020030693B9
:106430002D22DDE914349B4604F100431D920C9398
:10644000BAE50799099828AA02F0EEFA00287EF426
:1064500026AD229D129B2A9C0DF1AC085D1BFFF717
:10646000F6B94E42103180F2818141461024A8468F
:10647000DFF84090DDF824B0079D04E00831103EBD
:10648000102E40F3998001331032072BC1E900949C
:10649000CDE92932F2DD2946584628AA02F0C4FA8D
:1064A00000287EF4FCACDDE929322BA9E7E7299B23
:1064B000FFF762B980F20008079B5B6EDD0707D427
:1064C000079B9B899C0503D4079B986D01F002FDF7
:1064D0004FF0FF330B93FEF7F1BC089BEC182DE750
:1064E0000221009108995A464C1C26A9049123A91F
:1064F000039122A90C9B09980194029100F098FA4B
:106500000546B9462C440F9F18E7129B26930C9B17
:106510001BF8012CD97B5B468A4209D1302003F855
:10652000010C269B5A1E269213F8012C9142F6D09C
:10653000392A0BBF0C9A0132927AD2B203F8012C9D
:10654000B3E5299ADFF83492FEF7DABF30238DF8ED
:106550008430782314E50998591CFDF763FF05463C
:10656000002800F0F6800D9015E50799099828AAF3
:1065700002F05AFA00287EF492AC2A9C0DF1AC0885
:10658000FFF732B9089B002B08BF0123089347F49B
:1065900080730F93159B002BC0F2A980DDF850B0DB
:1065A0001D900C930D90FFF787BA0623089326F0F1
:1065B00020030693FFF76BBA454688460133324401
:1065C000072BCDE92932C8F80090C8F804607FF79E
:1065D00022AA0799099828AA02F026FA00287EF430
:1065E0005EACDDE929320DF1AC0838E422AA584648
:1065F0000C9902F0FDF800224FF07F53FAF76CFB84
:1066000002460B46CDE9102300220023FAF7CCFD09
:1066100008B1012322935A4B0C93EAE4169B662699
:10662000D31819440C91BCE606F10F020121D2B235
:10663000FFF772BA672672E500295FD130228DF824
:1066400092200DF19302303302F8013B24ABD31AB0
:106650001A93FFF7A1BA109B0C9357E5159B0320E3
:10666000002BB8BF2D224FF00003A8BF9DF8832058
:1066700019460D93434D444BB8BF8DF8832027F046
:1066800080070690FEF7EFBC00230D93D0E619912A
:10669000109213900F940F9A139B1C9913440C9A09
:1066A00001FB03230C9323EAE3730693FFF78BBAF2
:1066B0005846002200230C99FAF776FD00287FF453
:1066C00037AE089BC3F10103229332E6C3F1010305
:1066D0001A4422EAE27367260C92069323E529986E
:1066E000ADE519F0010F3FF462AAFFF75CBA0D9017
:1066F0009EE6299BDFF88490FFF751BB0DF19202D3
:10670000A1E7089A09F0010959EA020304D101231B
:10671000662606930C9306E5169B662601331A44FB
:1067200022EAE2730C920693FDE4DFF85090FFF743
:10673000BBBB299BDFF84490AFE50E9B9AF8016044
:10674000924653F8042B0E9342EAE2730893FEF745
:10675000E0BA079A938943F040039381FEF7A5BB03
:1067600000230F93139396E7089CCAE6DFF80C907A
:1067700024E702231A93FFF70FBA00BF80F2000844
:106780003CF2000834F2000838F20008F0B54FF48B
:10679000806C1546002406461F46ADF26C4D1AABC0
:1067A000009304938B8916A823F00203ADF80C30F4
:1067B0004B6E06941993CB890C46ADF80E30CB691D
:1067C000CDF808C007934B6ACDF814C0099301F0C7
:1067D0007BFB2A463B4669463046FEF72BFA051EF0
:1067E00007DB6946304601F01BF9002818BF4FF05F
:1067F000FF35BDF80C305B0603D5A38943F0400399
:10680000A381169801F062FB28460DF26C4DF0BD95
:1068100038B5334B05461B680C460BB19A6B12B367
:10682000B4F90C3018079AB225D5216900292DD06A
:1068300012F0010007D000256069A5604042A06108
:1068400039B1002038BD950758BF6069A0600029A4
:10685000F7D1120658BF0846F4D543F040034FF075
:10686000FF30A38138BD184601F00EF9B4F90C30A1
:1068700018079AB2D9D4D1062AD5520714D421695F
:1068800043F00803A3819AB20029D1D102F4207009
:10689000B0F5007FCCD02146284601F01DFBB4F9AD
:1068A0000C3021699AB2C3E7216B51B104F1400267
:1068B000914204D0284601F0DFF9B4F90C300022EF
:1068C00022630022216923F02403C4E90012D7E7E0
:1068D000092243F040032A604FF0FF30A38138BD06
:1068E00014000020024B13B1024800F005B87047B5
:1068F00000000000AD7B0008002301461A46184640
:1069000002F0C0BF2DE9F04F03690C6985B0A342C6
:10691000C0F28980013C01F11405A30000F11408C4
:10692000019355F8243058F8242001338A469A42BE
:1069300008EB84018146B2FBF3F605EB8407029174
:106940003AD30021AE4640460A46A34603955EF878
:10695000045B0468ABB206FB03132D0C190C06FB99
:1069600005119BB2D21A1FFA84FC94448AB2C2EB7E
:10697000144202EB2C421FFA8CFC4CEA024377458E
:1069800040F8043B4FEA11414FEA2242DFD2019B1B
:106990005C4658F80330039D73B9029B043B98454D
:1069A00004D307E0984504F1FF3403D253F80429D7
:1069B000002AF7D0C9F810405146484601F0F0FDD2
:1069C00000282CDB40460023013655F8041BD0F884
:1069D00000C08AB29A1A1FFA8CFE0B0C7244C3EBE9
:1069E0001C4303EB224392B242EA0342AF4240F817
:1069F000042B4FEA2343E8D258F8242008EB840301
:106A00006AB9043B984504D307E0984504F1FF3484
:106A100003D253F80429002AF7D0C9F810403046B1
:106A200005B0BDE8F08F002005B0BDE8F08F00BFD5
:106A30002DE9F04F90469946016C99B00446CDE996
:106A40000489259D41B10123426C93408B604A60CB
:106A500001F050FB00232364B9F1000AB4BF012305
:106A600000232B60764BBCBF2AF0004ACDF814A05F
:106A700033EA0A0300F0AA80DDE904231046194630
:106A800000220023CDE90A01FAF78EFB074670B118
:106A90000123249A1360269B002B00F0E6826948AC
:106AA0001860431E0393039819B0BDE8F08F16AB2E
:106AB000019317AB00932046DDE90A2301F036FE6F
:106AC0005FEA1A56054640F09780DDE916763E44A7
:106AD00006F23240202840F3B783C0F140000AFAA2
:106AE00000FA06F2124028FA00F04AEA0000F9F72C
:106AF00071FC0123013E0F93A1F1F8710022524B6A
:106B0000F9F72AFB48A3D3E90023FAF7E5F848A3ED
:106B1000D3E90023F9F722FB804630468946F9F78E
:106B200069FC45A3D3E90023FAF7D6F802460B46E1
:106B300040464946F9F712FB80468946F9F7C4FCFE
:106B400000228346002340464946FAF737FB0028D7
:106B500040F07E82BBF1160F00F26D82DDE90A0182
:106B60003A4B03EBCB03D3E90023FAF727FB0028CA
:106B700072D00023BE1B0E93731E0BF1FF3B0693D6
:106B800000F1608200230993BBF1000F6BDA099BCF
:106B9000CDF81CB0A3EB0B030993CBF100030D93CD
:106BA000229B4FF0000B092B66D8052B40F34A833C
:106BB0000026043B2293229B023B032B00F26C86AF
:106BC000DFE813F061045E045504380442F20F73E9
:106BD000249ACAF3130A13605AEA08031AD1269BAF
:106BE000002B00F068861A4B03930833269A03980B
:106BF000136019B0BDE8F08FDDE90A12C2F3130388
:106C0000084643F07F510F97A6F2FF36169F41F4D6
:106C1000401173E7269B002B40F0EF830D4B03934D
:106C200041E700BFAFF3008061436F63A787D23FA6
:106C3000B3C8608B288AC63FFB799F501344D33F6B
:106C40000000F07F6DF200080000F83FE0F300085C
:106C500094F2000890F20008BE1B731E069300F128
:106C60008A840E900990069B5B44CDE9063B002385
:106C70000D93229B092B98D9002322934FF0FF33C9
:106C80000126089300230C9623930021089B61643E
:106C90001293204601F008FA0390002800F00486C1
:106CA000039B2364089B0E2B00F21481002E00F03E
:106CB00011810799002940F36084AF4B01F00F0266
:106CC00003EBC2030A46D3E900674FEA2118D10556
:106CD00040F11784DDE90A01A84B4FF0030AD3E91C
:106CE0000823FAF723F9CDE9100108F00F08B8F1ED
:106CF000000F13D0DFF8849218F0010F09D0D9E902
:106D0000002330463946F9F7E7FF06460F460AF1F9
:106D1000010A5FEA680809F10809EDD1DDE910010F
:106D200032463B46FAF702F9804689460E9B43B14C
:106D3000002240464946924BFAF740FA002840F0BC
:106D400035855046F9F756FB42464B46F9F7C4FFE6
:106D50008C4B0022F9F702FAA1F15073CDE9100132
:106D60001193089B002B00F09780079B1493089BBE
:106D700013930C9B002B00F0A984139A7E4B0020E8
:106D800003EBC20353E902237F49FAF7CFF8DDE9A9
:106D90001023F9F7E1F9CDE9100149464046F9F72A
:106DA00093FB0746F9F726FB02460B464046494649
:106DB000F9F7D2F9DDE91023039E303706F8017B9D
:106DC00080468946FAF7FAF9002840F02E85CDF87A
:106DD00054B00027DDE910AB1095139D13942AE001
:106DE0000137AF4280F22E85504659460022674B4C
:106DF000F9F772FF0022654B82468B4640464946B2
:106E0000F9F76AFF89468046F9F75EFB0446F9F711
:106E1000F1FA02460B4640464946F9F79DF93034EF
:106E200052465B4606F8014B80468946FAF7C6F99A
:106E3000002840F0F88442464B4600205049F9F7BC
:106E40008BF952465B46FAF7B9F90028C8D0DDE95C
:106E50001343109D039A079302E0964200F0CD84FD
:106E6000B24616F8013D392BF7D00133DBB233704F
:106E7000079B01330793C8E15046F9F7BBFA424636
:106E80004B46F9F729FF3F4B0022F9F767F9A1F1CB
:106E90005073CDE9100111934046494600223C4B06
:106EA000F9F75AF9DDE910894B46424606460F4686
:106EB000FAF7A2F98146002840F0AF84DDE910011D
:106EC000024601F1004330463946FAF777F90028C7
:106ED00040F04883179B002BC0F28C80079A0E2A43
:106EE00000F38880244B03EBC203D3E900AB239B60
:106EF000002B1BDA089B002B18DC40F031830022AA
:106F0000234B50465946F9F7E7FE02460B46DDE9AA
:106F10000A01FAF75DF9DDF820904E46002800F0EE
:106F2000CA82239BDDF80C80DF43CCE25246DDE9C8
:106F30000A785B4638464146F9F7F8FFF9F7C4FA94
:106F400081460990F9F756FA52465B46F9F7C4FEB6
:106F5000039E0B46024641463846F9F7FDF809F113
:106F6000300306F8013B089B012B00F05F83069479
:106F700001271C4604952AE0E0F30008B8F3000856
:106F80000000F03F00001C400000E03F00002440F3
:106F90000000144052465B4640464946F9F7C6FF9A
:106FA000F9F792FA0546F9F725FA52465B46F9F7E2
:106FB00093FE01370B46024649464046F9F7CCF8A6
:106FC00005F13003A74206F8013B00F02C830022B4
:106FD000AB4BF9F781FE0022002380468946FAF781
:106FE000E3F80028D6D0049D069C079BB2460133E7
:106FF00007930AE10C9A002A3DD0229A012A40F315
:107000009F82089B03F1FF380D9B4345C0F27082BD
:10701000A3EB0808089B002BC0F24083069A1A4491
:107020000692099A17461A4409920121204601F056
:1070300009F9064623E00123BE1B0E93731E069337
:107040007FF5A0ADC6F101030993002306939BE5EC
:107050005846F9F7CFF942464B46FAF7A5F800280B
:107060007FF478AD0BF1FF3B74E5864B03930398F7
:1070700019B0BDE8F08FDDF83480099F0C9E002F19
:107080000CDD069900290B4608DDB942A8BF3B4636
:10709000099AFF1AD21ACB1A099206930D9BE3B1F3
:1070A0000C9B002B00F06082B8F1000F10DD314620
:1070B0004246204601F0A2F906462A4631462046BD
:1070C00001F0EEF80346294620461D4601F012F86D
:1070D0000D9BB3EB080240F0DB820121204601F05A
:1070E000B1F8BBF1000F814600F3B380229B012B66
:1070F00040F388814FF0000A0120BBF1000F40F0FF
:10710000B480069A104410F01F0000F09280C0F185
:107110002003042B40F3D383099BC0F11C000344DC
:107120000244099307440692099B002B05DD29467A
:107130001A46204601F0BEF90546069B002B05DDE8
:1071400049461A46204601F0B5F981460E9B002BB0
:1071500040F03881089B002B40F31E810C9B002BD4
:1071600040F09F80079B013307930127DDF80C80D7
:10717000DDF820A007E0294600230A22204600F07F
:10718000C3FF0546013749462846FFF7BBFB574575
:1071900000F1300308F8013BEDDB089A0027002AD4
:1071A000CCBF93464FF0010B039A9344294601222A
:1071B0002046049301F07EF94946054601F0F0F9B6
:1071C000002840F3AB811BF8013C039A0BF1FF3B15
:1071D00004E05A4500F0AD811BF8013D392B0BF15D
:1071E000010AF6D001338BF800304946204600F002
:1071F00081FF56B12FB1B74203D03946204600F087
:1072000079FF3146204600F075FF2946204600F000
:1072100071FF0023079A8AF80030249B1A60269B8E
:10722000002B3FF440AC0398C3F800A019B0BDE8B0
:10723000F08F1C20099B074403440993069B0344D9
:10724000069371E70126B6E4C0F1200008FA00F0C9
:107250004DE401465A46204601F0D0F8229B814673
:10726000012B40F3B6814FF0000AD9F8103009EB3A
:107270008303186900F09AFFC0F1200041E700BFC6
:10728000000024406CF20008314600230A22204608
:1072900000F03AFF129B0646002B40F3E982CDE94D
:1072A0000783002F00F31D81BAF1000F40F0D98150
:1072B000B046049B089903F00102039B0A921F4603
:1072C000013B1944229B08911343099349462846E0
:1072D000FFF718FB31468346284601F061F9424624
:1072E00049468246204601F07BF9C26801460BF10F
:1072F0003003002A43D104902846069301F050F948
:10730000024604992046049200F0F4FE049A069B7B
:107310001AB90999002900F09B82BAF1000FC0F256
:10732000648122994AEA010A0A9951EA0A0100F0A5
:107330005C81002A00F3B681089A07F1010A97429E
:10734000D3463B7000F0B481294600230A22204630
:1073500000F0DAFE4645054631464FF000034FF097
:107360000A02204612D000F0CFFE41460646002316
:107370000A22204600F0C8FE57468046A6E720466F
:10738000049300F0B7FE0122049BC6E700F0BCFEA8
:1073900057460646804699E7229B022B7ADC0C9BD7
:1073A000002B7FF47EAF079B4946013328460793A5
:1073B000FFF7A8FADDF80CB000F1300300270BF856
:1073C000013BF3E64946284601F0EAF80028BFF6FB
:1073D000C1AE294600230A22204600F095FE079BF5
:1073E000054603F1FF380C9B002B7FF44DAF129B39
:1073F000002B40F334820893B7E6B04B039303337A
:10740000FFF7F4BBDDE9041200297FF473AEC2F389
:107410001303002B7FF46EAEA94B1340002B00F03A
:107420000082099B4FF0010A01330993069B013347
:10743000069361E601230C93239B079A134412934E
:107440000133012B1F46B8BF012708930021172FD6
:1074500061647FF71EAC012204235B0003F114007A
:10746000B842114602F10102F7D9616411E4012327
:107470000C93239B002B4CDD1F4612930893E5E7EA
:1074800000230C93D8E700230C93F2E7129BCDF86E
:107490001C800893089B002B7FF443AD49460522CE
:1074A000204600F031FE81462846494601F078F832
:1074B00000287FF736AD31230398079F804600F8F8
:1074C000013B013703904946204600F013FE7B1C28
:1074D000DDF80CA00793CDF80C80002E7FF491AE60
:1074E00093E631463A46204600F0E4FF0646DBE6E6
:1074F0000D9BCDF83480A8EB03039B444FF00008AC
:1075000088E5DDE90A234FF0020ACDE91023FFF7F1
:10751000EEBB012323930893FFF7B7BB03D1049B72
:10752000D8073FF550AEDA461BF8013D302BFAD0B4
:107530005BE6079B039A013307933123137054E6EC
:107540000F9A002A00F0288103F23343069ADDF8EF
:1075500034801A440692099A17461A44099264E53F
:107560004FF000094E46DCE4294620460D9A00F013
:1075700045FF0546B1E50E9064E500F01181DDE9B7
:107580000A01079A4F4B564206F00F0203EBC20363
:10759000D3E90023F9F7A0FB36118046894600F0B5
:1075A000708100234FF0020A474FF20706D5D7E952
:1075B0000023F9F791FB01230AF1010A761007F184
:1075C0000807F2D1002B3FF4B1AB80468946FFF7A4
:1075D000ADBB049B002B7FF446AEDDE90412C2F381
:1075E0001303002B3FF418AF3DE6002A12DD2946B5
:1075F00001222046049300F05DFF4946054600F055
:10760000CFFF0028049B40F31781392B00F0FB804B
:107610000BF13103BA46079A3746013246460792C4
:107620000AF8013BE1E50995069C049D02460B46DC
:10763000F8F794FD52465B4680468946F9F7DCFD33
:1076400060B952465B4640464946F9F7ADFD002811
:107650003FF4CBAC099BD9077FF5C7AC039AFFF782
:10766000FFBB2046716800F01FFD0746002800F0B0
:107670000C81336906F10C0102339A000C30F9F7E2
:10768000B5FA39460122204600F014FF804610E684
:107690002946204600F0B2FE05461EE5DDE9082336
:1076A0009F1AC2E4392B00F0AE80BA460133B2E72C
:1076B000079A374601324646079277E590F200086E
:1076C0000000F07FE0F30008B8F30008DDF84CA0FC
:1076D0008349DDE9102301EBCA0151E90201F9F701
:1076E000FBFACDE9100149464046F8F7EDFE0646A3
:1076F000F8F780FE0B46024649464046F8F72CFD57
:107700005346039F3036012B8046894607F8016BAC
:1077100000F0AC80139E039B1E440022714B404638
:107720004946F9F7D9FA89468046F8F7CDFE8246F0
:10773000F8F760FE02460B4640464946F8F70CFD56
:107740000AF1300A07F801ABB74280468946E4D116
:10775000DDE910010022644BF8F700FD42464B467C
:10776000F9F72CFD002862D1DDE9102300205E49E5
:10777000F8F7F2FC42464B46F9F73EFD00283FF48D
:10778000A9AB16F8013CB246302B06F1FF36F8D013
:10779000149B0133079338E5169BC3F13603D5E6F6
:1077A0004FF0020ADDE90A89FFF7C0BA089B002BF7
:1077B0003FF462AB129B002B7FF78CAB1393079BBC
:1077C0000022013B404649461493464BF9F784FAA0
:1077D000804689460AF10100F8F70CFE42464B4606
:1077E000F9F77AFA414B0022F8F7B8FCA1F150738F
:1077F000CDE910011193FFF7BCBA079B0133079342
:107800003123FFF734BB079BBB4601330793392372
:1078100037460BF8013B4646D7E44FF000094E4689
:1078200049E69A4668E4109D139CB246B0E7149B63
:10783000039A0793FFF714BB7FF4ECAEDA077FF5EA
:10784000E9AEE2E6DDF854B0109D139CFFF742BBB1
:10785000392BD8D0BAF1000F3FF7DAAEDAE6229B27
:10786000022B3FF713AECDF81C809CE53E466FE738
:10787000229B022B3FF70AAE129BCDF81C80089387
:107880000FE54FF0020AFFF751BA024640F2EA2133
:10789000174B184802F03CF8002620463146666433
:1078A00000F002FC039078B900224FF4D571104B20
:1078B000104802F02DF8104B0393FFF7F4B83FF493
:1078C00033ACC0F13C00B5E4039B012223644FF0CC
:1078D000FF33239612930C920893FFF7FBBA00BF75
:1078E000E0F30008000024400000E03F00001C40DE
:1078F000A0F20008B4F2000894F20008B1F90C20DC
:10790000F8B50C461107074643D4636842F4006299
:10791000002BA2815BDDA56A002D56D000233E68B6
:107920003B6093B212F4805255D101233846E1698D
:10793000A847421C65D0A389A56A5B0705D5636883
:10794000C01A236B0BB1E36BC01A0246E169002336
:107950003846A847411C40D13B68002B3DD01D2B29
:1079600001D0162B54D10022A38923F40063A381F4
:107970002369C4E90032216B3E6031B304F1400356
:10798000994202D0384600F077F900231846236365
:10799000F8BD2669CEB193B29A0718BF00232568B7
:1079A00008BF63692660AD1BA3600CE02B4632461E
:1079B000D4F824C03846E169E047B0F1000CA5EBEB
:1079C0000C05664416DD002DF0DC0020F8BDE36BED
:1079D000002BA0DCF9E7206DAFE70022B4F90C30F2
:1079E000626023F400632269A381DB042260C2D5B4
:1079F0002065C0E7A3894FF0FF3043F04003A38127
:107A0000F8BD3B68002B96D01D2B06D0162B04D05A
:107A1000A38943F04003A381F8BD00203E60F8BD78
:107A200038B505460C4608B1836BA3B1B4F90C0018
:107A3000B8B1636EDB0701D4810515D52846214610
:107A4000FFF75CFF636E0546DA0702D4A3899B0546
:107A50000ED5284638BD00F017F8B4F90C00002800
:107A6000E7D10546284638BDA06D00F031FAE5E7BC
:107A7000A06D00F02FFA284638BD00BF014900F084
:107A8000FBB900BFED9900082DE9F047824639485F
:107A900000F01EFADAF83840002C66D104230322E5
:107AA0003549DAF80450CAF83C10DFF8D090DFF816
:107AB000D080344F344E0AF53B71CAE9B921CAF877
:107AC000E0422146EB600822C5E90044C5E90444D0
:107AD0006C66AC60AC6105F15C00FCF74FFFC5E97A
:107AE0000759C5E90987EE6205F1580000F0ECF985
:107AF000DAF80850254B2146EB600822C5E900441E
:107B0000C5E904446C66AC60AC6105F15C00FCF74F
:107B100035FFC5E90759C5E90987EE6205F1580047
:107B200000F0D2F9DAF80C50194B2146EB6008222C
:107B3000C5E90044C5E904446C66AC60AC6105F17C
:107B40005C00FCF71BFF05F15800C5E90759C5E9C2
:107B50000A76C5F8248000F0B7F901230548CAF871
:107B60003830BDE8F04700F0B5B90248BDE8F0474D
:107B700000F0B0B9B80B00207D7A000861880008D9
:107B800085880008C5880008E5880008090001000C
:107B900012000200014800F09BB900BFB40B0020A6
:107BA000014800F097B900BFB40B002038B5084B6E
:107BB000084D5B1B9C1007D0043B1D44013C55F84D
:107BC00004399847002CF9D1BDE8384003F084B956
:107BD000BCF60008B8F60008F8B50C46234F064678
:107BE000FCF71EFFBB685D68C4F57E6325F00305E6
:107BF0000F332B4423F47F6323F00F03A3F580544A
:107C0000B4F5805F07DB00213046FCF729FFBB6835
:107C10002B44984204D03046FCF708FF0020F8BD02
:107C200030466142FCF71CFF01300DD0104ABB68A2
:107C30002D1B45F001055D60136830461B1B13606A
:107C4000FCF7F4FE0120F8BD00213046FCF708FFE8
:107C5000BA68831A0F2BDEDD43F001035360054B36
:107C600003491B68C01A0860D5E700BF4004002024
:107C7000780B00204808002000295ED0F8B50C469B
:107C80000646FCF7CDFE54F8042C784FA4F1080505
:107C900022F001016818D7F808C04368844523F032
:107CA000030300F08780D207436034D454F8082CD3
:107CB00007F10804AD1A1144AA68A24268D000EB8B
:107CC000030CDCF804E0D5F80CC01EF0010FC2F87C
:107CD0000CC0CCF8082000F0918041F001036B60EB
:107CE0000160B1F5007F31D24A09CB0801219140F2
:107CF0007A6801331143796007EBC30257F83310F8
:107D0000083AC5E9021247F83350CD603046BDE865
:107D1000F840FCF78BBEC2185268D2070ED4194443
:107D200007F108048368A34270D0C268DA609360E8
:107D300041F001036B606950D3E7704741F00103E4
:107D4000B1F5007F44F8043C0160CDD3B1F5206F5C
:107D50004FEA512347D28B0903F1390003F138026E
:107D6000C300F818FB580838984258D05A6822F0D7
:107D700003028A4202D99B689842F7D1D868C5E9C4
:107D8000023085603046DD60BDE8F840FCF74EBE4D
:107D9000C2185268D20763D40B44D0E90212CA60F9
:107DA000916043F001026A603046EB50BDE8F84054
:107DB000FCF73CBE0B44D10707D454F8082CAD1A8D
:107DC0001344D5E90212CA60916043F001026A606F
:107DD000274ABD6012689A4298D8264B30461968E7
:107DE000FFF7FAFE92E7142B0AD9542B1FD80B0B7E
:107DF00003F16F0003F16E02C300B2E7194491E78B
:107E000003F15C0003F15B02C300AAE741F0010348
:107E1000C7E90455C5E902446B60695076E7012162
:107E2000921001FA02F279680A437A60A7E7B3F583
:107E3000AA7F06D8CB0B03F1780003F17702C300C9
:107E40008FE740F25452934206D88B0C03F17D0029
:107E500003F17C02C30084E74FF47E737E2280E747
:107E600041F001036B60016050E700BF4004002057
:107E70004C080020A80B00202DE9F8434FF0000922
:107E80000746884600F53876D6E90154013D10D4FE
:107E9000A389013D012B08D9B4F90E30013304D078
:107EA00021463846C04749EA00096B1C04F16804C2
:107EB000EED13668002EE7D14846BDE8F88300BF12
:107EC0000048704744090020704700BF704700BF5A
:107ED000704700BF704700BF2DE9F0418B890C4609
:107EE000990796B008D5012204F14303C4E904328E
:107EF000236016B0BDE8F081B4F90E1006460029E3
:107F000027DB6A4601F070FE002821DB019D4FF45B
:107F1000806805F47045A5F50055B5FA85F54FF470
:107F200000676D0941463046FCF77CFAB4F90C3025
:107F3000F0B1204A43F08003F263C4F81480A381B7
:107F40002060206135BB3B43A38116B0BDE8F081C2
:107F5000A38913F0800519D04FF040083046414600
:107F60000025FCF75FFA2F46B4F90C300028E0D169
:107F70009A05BED4012123F0030304F1430243F028
:107F80000203C4E90421A3812260B2E74FF48068B0
:107F90002F46C7E73046B4F90E1001F0B1FF10B913
:107FA000B4F90C30CFE7A38923F0030343F00103B6
:107FB0001BB2C8E77D7A000870B50C46B1F90E1007
:107FC000154600291E4696B014DB6A4601F00CFEE9
:107FD00000280FDB019A4FF4806302F47042A2F58F
:107FE0000052B2FA82F24FF40060520932602B6004
:107FF00016B070BD0023B4F90C10336011F080008E
:1080000004D0402218462A6016B070BD4FF4806339
:108010002B6016B070BD00BF5FFA81FC810710D0E5
:108020000346511E2AB90AE09A0718460AD00139B8
:1080300005D3184613F8012B6245F5D1704700208F
:108040007047114603290CD80029F8D00346014493
:1080500001E08B42F3D0184613F8012B6245F8D1AA
:10806000ECE7024610B54CEA0C2444EA04441046FE
:10807000036804326340A3F1013E2EEA030313F0C8
:10808000803F04D1043903291046F0D851B103468A
:10809000014401E08B4205D0184613F8012B6245DC
:1080A000F8D110BD002010BD38B5C36C05460C4694
:1080B0004BB153F8240080B1026843F82420002318
:1080C000C0E9033338BD2122042101F041FC0346FD
:1080D000E8640028EDD1002038BD0121284601FACE
:1080E00004F56A1D920001F033FC0028F3D0C0E9CA
:1080F0000145E4E731B1C36C4A6853F822000860D7
:1081000043F82210704700BF2DE9F0414FF0000EF8
:108110000E461C460D69074601F1140001680EF178
:10812000010E8BB202FB0343090C4FEA134C02FB16
:1081300001CC9BB203EB0C43754540F8043B4FEA7E
:108140001C44EBDC3CB1B368AB4207DD06EB8503B6
:1081500001355C6135613046BDE8F08171683846B3
:108160000131FFF7A1FF8046A8B1326906F10C0189
:10817000023292000C30F8F739FDFB6C726853F84C
:108180002210316043F82260464606EB8503013534
:108190005C613561DFE70246B521024B024801F020
:1081A000B7FB00BFA0F2000834F30008020C120471
:1081B0000346CAB91020834013F07F4F04BF1B024F
:1081C000083013F0704F04BF1B01043013F0404F10
:1081D00004BF9B000230002B05DB13F0804F00F141
:1081E000010008BF202070470020E5E70368024631
:1081F00013F0070009D0D9071FD498074BBF5B08BD
:108200009B08012002201360704799B209B9102021
:10821000C340D9B209B908301B0A190704BF1B09AA
:108220000430990704BF9B080230D90703D45B08C8
:1082300000F1010003D01360704700207047202038
:10824000704700BF38B5C36C04460D464BB1586843
:10825000B0B102685A60002201234561C0E90323DE
:1082600038BD2122042101F073FB0346E06400289D
:10827000EDD100224FF4A071074B084801F048FBF4
:108280001C220121204601F063FB0028F1D00122CD
:108290000223C0E90123DEE7A0F2000834F300085E
:1082A0002DE9F04F0E6915698846AE42144685B037
:1082B00005DB2A46234635460C4616469846A368F3
:1082C0006168AF19BB42B8BF0131FFF7EDFE019005
:1082D000002800F08780019B03F1140909EB870A4D
:1082E000D14505D24B46002243F8042B9A45FBD8D2
:1082F00008F1140808EB860B04F11403D8451A465C
:1083000003EB85055FD22B1B153B23F003030433DE
:108310001534A54238BF0423CDE902A7AC461F4659
:10832000924605E0000C29D1C34509F1040948D95A
:1083300058F8040B85B2002DF4D056464C46002365
:1083400056F8040B216882B21FFA81FE05FB02EE8B
:10835000000C0A0C05FB0022734402EB13429BB293
:1083600043EA0243B44544F8043B4FEA1243E7D8DA
:1083700049F8073058F8040C000CD5D0D9F8003073
:10838000544619464D4600222688090C00FB06116A
:108390009BB20A4443EA024345F8043B54F8046B99
:1083A0002968360C8BB200FB0633A44503EB12435D
:1083B0004FEA1342E8D8C34549F8073009F10409E8
:1083C000B6D8DDE902A7002F02DC05E0013F03D0AB
:1083D0005AF8043D002BF9D0019B18461F6105B0E7
:1083E000BDE8F08F024640F25D11024B024801F0F9
:1083F0008FFA00BFA0F2000834F3000812F0030364
:108400002DE9F041144607462ED10E46A4101CD08B
:10841000BD6C95B3E3074FF0000806D4641014D088
:108420002868A8B10546E307F8D52A4631463846FC
:10843000FFF736FFB6B17168FB6C641053F821206A
:10844000326043F821600646EAD13046BDE8F0814B
:108450002A4629463846FFF723FF28600546C0F81C
:108460000080E0E70646D9E70F4A013B52F8232097
:108470000023FFF749FE0646C8E701213846FFF70B
:1084800013FE054640B140F271230122C0E90423E6
:108490000023B8640360BDE702464FF4A071034BAC
:1084A000034801F035FA00BFA8F40008A0F2000864
:1084B00034F300082DE9F0470C462669A36806EB63
:1084C0006216751C9D429046074649684FEA62193C
:1084D00004DD5B009D4201F10101FADC3846FFF743
:1084E000E3FD002851D0B9F1000F00F114010FDDB8
:1084F0000B464FF0000C09F105024FEA820E00EB2B
:10850000820243F804CB9342FBD1AEF11403194429
:10851000226904F1140318F01F0803EB820C2CD01D
:108520008E464FF0000AC8F120091A6802FA08F2D4
:1085300042EA0A024EF8042B53F8042B9C4522FA17
:1085400009FAF2D8ACEB0403153B23F00303043320
:1085500004F11502944538BF0423BAF1000F18BF87
:108560002E4641F803A0FB6C6268066153F82210A6
:10857000216043F82240BDE8F087043953F8042B0A
:108580009C4541F8042FF9D8EDE7024640F2D91195
:10859000014B024801F0BCF9A0F2000834F30008D6
:1085A00084460B690069C01A15D10CF1140C143102
:1085B0000CEB830210B401EB830301E0944508D275
:1085C00052F8044D53F8041D8C42F7D004D24FF0FA
:1085D000FF3010BC70477047012010BC704700BFCF
:1085E0002DE9F84F0C6913698946E41A002C1746E7
:1085F0007DD101F11406143202EB830206EB8303F2
:1086000001E09E4276D253F8045D52F8041D8D427B
:10861000F7D067D3D9F80410FFF746FD002873D0D0
:10862000D9F81050C46000F1140426464FF0000A37
:108630003B6909F1140807F1140E09F1100C08EB5D
:1086400085020EEB83095CF804BF5EF8041B1FFA79
:108650008BF353441FFA81FA090CA3EB0A03C1EB15
:108660001B4101EB23419BB243EA0143F14546F82C
:10867000043B4FEA214AE6D8A9EB07011539153723
:10868000B94521F0030606F1040638BF042621F09F
:10869000030138BF0021B044424526440C4418D998
:1086A0003746444654F8041B8BB253444FEA234ADE
:1086B0000AEB11419BB243EA0143A24247F8043B53
:1086C0004FEA214AEED8541EA4EB080424F0030418
:1086D000344423B954F8043D013D002BFAD0056120
:1086E000BDE8F88F4B460124B9461F4692E7F9DBF7
:1086F00000248FE70021FFF7D7FC60B1012200239F
:10870000C0E90423BDE8F88F02464FF41071054B11
:10871000054801F0FDF8024640F23221014B0248C3
:1087200001F0F6F8A0F2000834F3000870B501215A
:1087300082B016461D46FFF7B7FC044600284CD011
:108740002B46C5F30A55C3F313030DB143F480134D
:10875000002E019322D068460096FFF747FD0028BF
:1087600037D0019B0099C0F1200203FA02F20A43BC
:10877000C34001936261002B14BF02210121A36158
:108780002161B5B1069BA5F2334505441D60079BE9
:10879000C0F135001860204602B070BD01A8FFF797
:1087A00025FD0123019A1946626120302361002DC5
:1087B000E8D104EB8102A0F232431069069A1360FB
:1087C000FFF7F4FCC0EB41112046079B196002B093
:1087D00070BDDDE900236261CDE7024640F20A3157
:1087E000014B024801F094F8A0F2000834F30008AD
:1087F000F8B50027DFF85CC021F00043634504466C
:108800000D46176023DC844653EA0C0C1FD0DFF8BA
:1088100048C0164601EA0C0C0A46BCF1000F09D10B
:1088200000220E4BF8F758FA6FF0350704460A4657
:1088300021F0004322F0FF421B1522F4E002A3F2D4
:10884000FE333B4442F07F55336045F4001520462B
:108850002946F8BDFFFFEF7F0000F07F0000504386
:1088600010B50C46B1F90E1001F00AFC002803DB2C
:10887000236D0344236510BDA38923F48053A38192
:1088800010BD00BF2DE9F0410C46B1F90C101F4698
:10889000CB05054616460BD421F48051A1813B46F9
:1088A00032462846B4F90E10BDE8F04100F0D4BFBE
:1088B000B4F90E100223002201F03AFBB4F90C10B7
:1088C000EAE700BF10B50C46B1F90E1001F030FB1D
:1088D000A389421C0EBF23F4805343F480532065C8
:1088E000A38110BDB1F90E1001F06EB820F00301A4
:1088F00010F00300C0F1000051F8043B00F1040C3B
:108900004FEACC0C6FF000021CBF22FA0CF21343AA
:108910004FF0010C4CEA0C2C4CEA0C4CA3EB0C0273
:1089200022EA030212EACC1204BF51F8043B0430DD
:10893000F4D0C2F1000102EA0102B2FA82F2C2F1FD
:108940001F0200EBD200704730B540EA0104A307D4
:1089500022D1032A20D90B468446194653F8045BDA
:10896000A5F1013424EA050414F0803F15D1043A3E
:10897000032A19464CF8045BEFD801F1FF3E52B1CF
:1089800063461EF8011F541E03F8011B41B1224625
:108990009C46002AF4D130BD844601F1FF3EEEE74B
:1089A0006244002CF7D003F8011B9342FBD130BD89
:1089B0002DE9F84F4B6E90469C042DD593681268B4
:1089C00043B38B46064602F1080959E9025A5FEAA9
:1089D0009A0715D00024043D01E0A7420ED05A4664
:1089E000304655F8041F01F0CBF8431C04F1010494
:1089F000F3D10023C8E90133BDE8F88FD8F8083077
:108A00002AF0030AA3EB0A03C8F8083009F10809A1
:108A1000002BDAD10020ECE701F0FAF80023C8E9D6
:108A20000133BDE8F88F00BF10B4946814B110BCD6
:108A3000FFF7BEBF2046546010BC70472DE9F04FD1
:108A4000BDB01C461746CDE90530029118B1836BC5
:108A5000002B00F07782029A536EDE0740F184818A
:108A6000B2F90C108AB2900408D441F40052029971
:108A70004B6E8A8123F4005392B24B66110740F18A
:108A8000EC80029B1B69002B00F0E78002F01A03C8
:108A90000A2B00F0F08013AB10930023CDE91133C3
:108AA000CDE90933CDE90B330DF14C0904933B7843
:108AB000002B00F046813C4604E014F8013F002BF7
:108AC00000F02181252BF8D1E51B40F01E81237891
:108AD000002B00F036814FF0000300254FF0FF3BE4
:108AE0004FF02B088DF83B3063780395671C0137F6
:108AF000A3F120025A2A00F24681DFE812F0A10217
:108B0000440144019D024401440144017C024401AA
:108B100044016A00530244012902AF024401AB023E
:108B20005B005B005B005B005B005B005B005B006D
:108B30005B004401440144014401440144014401F7
:108B400044014401130278004401440144014401FA
:108B5000440144014401440144014401D100440161
:108B600044014401F701440141024401440121054B
:108B700044014401440144014401440144014401CD
:108B80004401440113027A004401440144013702C4
:108B90007A00740044012D0244016902D300570297
:108BA00074004401F701720041054401440143058A
:108BB000440172000021A3F1300217F8013B01EBE0
:108BC000810102EB4101A3F13002092AF5D9039199
:108BD0008EE7059B53F8042B002A03920593C0F2FD
:108BE000B4813B7883E73B7845F020057FE745F08B
:108BF0001005AC06059E40F16B81073626F007068E
:108C00003246736852F8086B98460592002BC0F202
:108C10004984BBF1FF3F00F0318556EA080325F097
:108C2000800A00F025840A2E78F1000380F0E184A8
:108C30000123554630368DF8EF6001930DF1EF04B6
:108C4000DDF804809DF83B30D845B8BFD846002BEE
:108C500000F0A88008F10108A4E0029D06982946CA
:108C6000FDF7D6FD002840F09485AA8902F01A038A
:108C70000A2B7FF410AF0299B1F90E30002BFFF6EA
:108C80000AAF4B6EDE0702D4950540F1628523469C
:108C90003A46029906983DB0BDE8F04F00F09ABD03
:108CA00045F0100515F0200800F00381059E0736F9
:108CB00026F007063346D6F8048053F8086B059370
:108CC000002325F4806A4FF000028DF83B20BBF1B1
:108CD000FF3F00F0DD8156EA08022AF0800540F0EF
:108CE000D681BBF1000F40F0CC84002B40F0C5834F
:108CF0001AF00103019300F0EC8330230DF1EF042F
:108D00008DF8EF309CE7E51B1BD0119B129A0133C5
:108D10002A44072BC9E900751292119305DC09F169
:108D20000809049B2B440493D1E6002A00F09C839D
:108D30000299069810AAFFF73BFE40B90DF14C09C5
:108D4000EFE7129B002B40F0158500231193029A48
:108D5000536ED90740F1A28093895B0600F1258507
:108D600004983DB0BDE8F08F029BB3F90C108D055F
:108D70008AB23FF578AE1D46986DFFF7A9F8B5F9B0
:108D80000C108AB26FE6002BDBD04FF001088DF893
:108D90008C304FF0000323AC8DF83B30CDF80480CD
:108DA0004FF0000B15F00203079318BF08F10208FB
:108DB00015F08403089305D1039BA3EB0806002E4E
:108DC00000F38A82DDE91112481C9DF83B6076B100
:108DD000012101320DF13B060728CDE91102C9E955
:108DE000006100F35882014609F108090130079B30
:108DF000D3B102230232C9F8043007280FABCDE902
:108E00001102C9F8003040F36282002A00F0278383
:108E10000299069810AAFFF7CBFD002897D1DDE94B
:108E200011120DF14C09481C089B802B00F0718138
:108E3000019BABEB0306002E00F3CF81019B0728BB
:108E40001A44CDE91102C9F80040C9F8043040F3D2
:108E50005D81002A00F093820299069810AAFFF71C
:108E6000A7FD00287FF473AF129A0DF14C09680733
:108E700005D5039BA3EB0804002C00F38A82DDE9EF
:108E800003134145ACBF5B1843440493002A40F0F0
:108E9000F38100230DF14C09119308E6029B9B8995
:108EA0009A053FF55AAF029CA06DFFF713F8A3890E
:108EB00053E715F0100340F0188315F0400200F05E
:108EC0001083059E984656F8043B05969EB2F7E639
:108ED00056F8043BE806059600F11083690640F158
:108EE0000A8343F3C0381EB243468FE64FF00003B7
:108EF000059E8DF83B3056F8044B002C00F0CF83D4
:108F0000BBF1FF3F00F041835A4600212046FFF7A6
:108F100083F8002800F02284031B4FF0000B059615
:108F200001938DE64FF000034FF00108059E8DF888
:108F30003B3056F8043B23AC8DF88C300596CDF8C9
:108F400004802DE7FEF7A0FD85E5039B5B420393BC
:108F50003B7845F00405CAE53B786C2B03BF7B7872
:108F600045F02005013745F01005C0E53B78682B3A
:108F700003BF7B7845F40075013745F04005B6E541
:108F800045F0100A1AF0200800F07E82059E0123A9
:108F9000073626F007063246D6F8048052F8086BEA
:108FA000059290E63B788DF83B80A0E530228DF865
:108FB0003C207822059B8DF83D2053F8046BBE4A77
:108FC00005934FF00008022345F0020A09927AE661
:108FD000AE0600F1A482EC0600F15983680600F1A8
:108FE000B083A90540F15383059E049A56F8043BCB
:108FF0001A7005965BE5069C2046FEF761FF436804
:1090000018460B93FFF772FC034620460C931C4650
:10901000FEF756FF83680A93002C3FF4E2AD0A9BEB
:10902000002B3FF4DEAD0A9B1B78002B3FF4D9AD3B
:109030003B7845F480655AE53B7845F0010556E5F7
:109040009DF83B30002B7FF4CCAD20238DF83B30D6
:109050003B784CE53B7845F0800548E5394611F80A
:10906000013B2A2B00F0A683A3F13002092A0F4608
:109070004FF0000B3FF63CAD17F8013B0BEB8B0BB1
:1090800002EB4B0BA3F13002092AF5D930E5AA46D1
:10909000012B3FF4C8AD022B3CAC12D1099A06F06B
:1090A0000F03D35C360946EA08764FEA181804F82D
:1090B000013D56EA0803F2D13CAB1B1B5546019318
:1090C000BEE506F00703F60846EA48764FEAD808F8
:1090D000303356EA0801224604F8013DF1D11AF076
:1090E000010FE9D0302BE7D03023023A04F8013CDD
:1090F0003CAB9B1A554614460193A1E50123019A06
:1091000013941193149212920DF14C0909F108096C
:10911000ADE6039BA3EB0806002E7FF789AE102E69
:10912000DFF898A138DD5346CC46BA46C1460794CD
:10913000A8461F46069C029D07E001F1020E01466B
:109140000CF1080C103E102E1EDD1023481C1032AE
:109150000728CDE91102CCF80070CCF80430ECDD22
:10916000002A00F092802946204610AAFFF720FC32
:1091700000287FF4ECADDDE91112103E102E0DF148
:109180004C0C01F1010EE0DC3B4645465746C84613
:109190007046E1469A46079C32440728CDE9110201
:1091A000C9F800A0C9F8046040F39681002A00F0D5
:1091B0009A820299069810AAFFF7FAFB00287FF41A
:1091C000C6ADDDE91112019B0DF14C09ABEB0306B5
:1091D000002E01F101007FF731AE102E40F36B82BB
:1091E000DFF8D8A0CC465346C146BA46A8460794F5
:1091F0004FF0100B1F46069C029D07E001F1020E86
:1092000001460CF1080C103E102E19DD481C1032DE
:109210000728CCE9007BCDE91102EFDD32B3294606
:10922000204610AAFFF7C4FB00287FF490ADDDE9CB
:109230001112103E102E0DF14C0C01F1010EE5DC67
:109240003B4645465746C8467046E1469A46079C07
:1092500032440728CDE91102C9F800A0C9F804601A
:1092600000F3E98009F108090130E7E54FF0010E4C
:1092700011460DF14C0CC6E70299069810AAFFF7AB
:1092800097FB00283FF405AE61E54FF0010E114653
:109290000DF14C0C56E7002A00F0DE80029906988A
:1092A00010AAFFF785FB00287FF451ADDDE911120C
:1092B0000DF14C09481C9AE53CF20008C4F4000882
:1092C000022201200FAB13930DF14C0914920146B9
:1092D00009F10809481CA7E5102E40F34582DDE995
:1092E0001132DFF8F0A219465346CC46BA46C146C1
:1092F0000D94A8461F46069C029D07E001F1020E50
:1093000001460CF1080C103E102E1CDD1023481CE9
:1093100010320728CDE91102CCF80070CCF80430E7
:10932000ECDD32B32946204610AAFFF741FB0028A6
:109330007FF40DADDDE91112103E102E0DF14C0C35
:1093400001F1010EE2DC3B4645465746C8467146F0
:10935000E1469A460D9C32440729CDE91112C9F81D
:1093600000A0C9F8046000F3A78009F10809481CAF
:109370002BE511464FF0010E0DF14C0CC3E76C07C5
:10938000119250D5039BA3EB0804002C4BDD0DF18B
:109390004C09102C40F3F881DFF838A21025534611
:1093A0001199BA46069E1F46DDF808B006E0881CF3
:1093B000194609F10809103C102C19DD4B1C10321C
:1093C000072BC9E90075CDE91132F0DD32B35946FA
:1093D000304610AAFFF7ECFA00287FF4B8ACDDE9BC
:1093E0001112103C102C0DF14C0901F10100E5DCCB
:1093F0003B4657469A4622440728C9E900A4CDE9CE
:1094000011027FF73CAD72B10299069810AAFFF7DE
:10941000CFFA00287FF49BAC129A30E50120114668
:109420000DF14C09C7E7DDE903234245ACBF9B18AA
:10943000434404932DE5002A3FF460AE0299069858
:1094400010AAFFF7B5FA00287FF481AC1198129AA0
:109450000DF14C090130F1E4079B002B69D101208B
:1094600011460DF14C09DFE411920DF14C0958E45D
:10947000BBF1000F7FF4DCAB55464FF0000B3CAC6A
:10948000CDF804B0FFF7DCBB1AF0100340D11AF09E
:10949000400239D0059E984656F8042B01230596C4
:1094A00096B210E42D2376428DF83B30AA464FF059
:1094B000010368EB48080AE4002A6FD00299069875
:1094C00010AAFFF775FA00287FF441AC0DF14C09A2
:1094D00078E43CACFFF7B4BB014609F10809013060
:1094E000A6E415F4007840F01D81059B53F8046B49
:1094F0000593FFF7E5BBAA0500F10E814FEAE3787B
:109500001E464346FFF782BB1AF4007840F0FB800A
:10951000059A012352F8046B0592FFF7D4BBDDE9ED
:10952000041656F8042BCB17C2E900130596FFF773
:10953000BEBA02220FAB13930DF14C091492C7E689
:10954000254A099215F0200836D0059E073626F0E8
:1095500007063246D6F8048052F8086B0592EA07EF
:1095600009D556EA080206D08DF83D30302345F083
:1095700002058DF83C30022325F4806AFFF7A3BB77
:10958000AA46FFE4154A0992DCE720460596FFF754
:10959000ADF94FF0000B0190FFF752BB9DF83B1067
:1095A000002900F0A68001200DF13B0213920DF17D
:1095B0004C090246149016E415F0100214D115F06F
:1095C00040010DD0059E904656F8042B059696B2A4
:1095D000C5E700BFB4F4000850F200083CF20008F0
:1095E00015F4007840F0A680059A52F8046B0592B5
:1095F000B5E700230AF48062CDF804B0CDF81CA0D2
:10960000BB46CDF820909A461746DDF828903CAD31
:109610000CE00023304641460A22F7F70DFE0A2EE1
:1096200078F100031BD3064688462546304641465E
:109630000A220023F7F700FE30326C1E0AF1010AFD
:1096400005F8012C002FE4D099F800305345E0D103
:10965000BAF1FF0FDDD00A2E78F100032ED2DDF82B
:109660001CA03CAB1B1B5F46CDF82890DDF804B076
:109670005546DDF820900193FFF7E2BAAA46FFF7BE
:10968000D2BA012BAA467FF406ADFFF7D1BA059EE8
:10969000049A56F8043B1A600596FFF708BABBF126
:1096A000060FD84628BF4FF00608474CCDF8048077
:1096B0000596FFF775BBDFF814A1C9E50C9B0B9964
:1096C000E41A1A462046FFF73FF999F801300BB12A
:1096D00009F10109304641460A2200234FF0000AF1
:1096E000F7F7AAFD9FE7012011460DF14C09FFF79E
:1096F0009FBB079B002B7FF4E3AD114601200DF1CA
:109700004C09FFF795BB059E904656F8042B0123A4
:109710000596D6B2FFF7D7BA43F3C0185EB24346F8
:10972000FFF774BA059E904656F8043B0596DEB2E4
:10973000FFF7C6BA059E884656F8042B0596D6B2A2
:109740000DE7059E049A56F8043B1A800596FFF72C
:10975000AEB9886DFEF7BEFBFFF799BACDF804B03D
:1097600005968346FFF76CBA1199129ADFF860A04C
:109770000131F0E50299069810AAFFF719F90028BF
:109780003FF4E3AAFFF7E3BA1198DFF844A00130F1
:1097900031E6029B5B6EDB0707D4029B9B899F052A
:1097A00003D4029B986DFEF795FB4FF0FF330493B3
:1097B000FFF7D6BA059A7B780F4652F8041B05923C
:1097C00041EAE17BFFF793B964F20008C4F40008B2
:1097D000B4F40008F0B54FF4806C1546002406463A
:1097E0001F46ADF26C4D1AAB009304938B8916A8FB
:1097F00023F00203ADF80C304B6E06941993CB891D
:109800000C46ADF80E30CB69CDF808C007934B6A13
:10981000CDF814C00993FEF757FB2A463B4669462C
:109820003046FFF70BF9051E07DB69463046FEF7A9
:10983000F7F8002818BF4FF0FF35BDF80C305B0675
:1098400003D5A38943F04003A3811698FEF73EFB9E
:1098500028460DF26C4DF0BD38B50C46114600227D
:109860008446074D20462A601A466446FAF796FB5E
:10987000431C00D038BD2B68002BFBD0236038BDC3
:10988000BC0B00202DE9F047DFF87CA00646DAF893
:10989000000098460F469146FEF71AFB1B4B1B68CB
:1098A000D3F8484124B365681F2D26DC5EB96B1CD4
:1098B0000235DAF80000636044F82570FEF70AFB11
:1098C0000020BDE8F087012304EB8501C1F88890F2
:1098D000D4F88821AB401A43022EC4F88821C1F87D
:1098E0000881E4D1D4F88C211343C4F88C31DEE72D
:1098F00003F5A674C3F84841D5E7DAF80000FEF78F
:10990000E9FA4FF0FF30DCE75008002028F20008A9
:10991000144600B51A460A4B0D461B6885B0DE6832
:1099200003464CB10749019130460749029400951E
:1099300000F0C2F800F02CFE04490C46F3E700BF2B
:1099400014000020D4F40008E4F4000830E100081A
:1099500038B5A1FB021484BBFAF764FD0546D8B103
:1099600050F8042C22F00302043A242A16D8132AB1
:1099700019D91B2AC0E900441CD90023242A14BF8A
:1099800000F1100200F11802C0E9024404BF0461B2
:109990004461C2E900339360284638BD2146FAF796
:1099A000EDFF284638BD024600232846C2E90033B1
:1099B000936038BD00F10802F6E7FAF701FD0C23C9
:1099C00000250360E8E700BF002238B5064D0446D5
:1099D00008462A60FAF7FCFA431C00D038BD2B6811
:1099E000002BFBD0236038BDBC0B002070B50029D4
:1099F0004BD006460C4610B1836B002B48D0636EEB
:109A0000D80734D5B4F90C30002B3ED0214630466F
:109A1000FDF774FFE36A054633B13046E1699847C4
:109A20000028B8BF4FF0FF35A3891A063BD4216B3D
:109A300041B104F14003994202D03046FEF71CF9CF
:109A400000232363616C21B13046FEF715F9002332
:109A50006364FEF79FF80022636EA281DB0727D5BF
:109A6000A06DFEF733FAFEF79BF8284670BDA38978
:109A70009905CBD4A06DFEF72BFAB4F90C30002B6E
:109A8000C4D1656E15F0010508D00025284670BDCB
:109A9000FDF7FAFF636ED807B4D4E8E7A06DFEF7D0
:109AA00019FA284670BD30462169FEF7E5F8BEE791
:109AB000A06DFEF70FFAD3E70EB400B5074A82B0E7
:109AC00003AB0146106853F8042B0193FEF7B6FF71
:109AD00002B05DF804EB03B0704700BF1400002033
:109AE0002DE9F04383B007468846144600F01AFA81
:109AF000012803D108F1FF33FE2B33D94246384603
:109B000004F15C0301A900F017FD421C06462FD0AA
:109B100018B39DF8041000250DF1050908E023682D
:109B20005A1C226019700135B54216D219F8011B72
:109B3000A368013B002BA360F1DAA269934201DB29
:109B40000A29ECD12246384600F09EFC431CEAD19B
:109B50000646304603B0BDE8F0834646304603B0C3
:109B6000BDE8F0835FFA88F106468DF80410D2E76D
:109B70003046A38943F04003A38103B0BDE8F083DE
:109B800030B5536E144613F0010FB2F90C30054690
:109B900083B09AB201D198051CD5900406D4626EA8
:109BA00043F4005342F40052A381626622462846E1
:109BB000FFF796FF636E0546DA0702D4A3899B057B
:109BC00002D5284603B030BDA06DFEF783F92846C4
:109BD00003B030BDA06D0191FEF77AF9B4F90C30F5
:109BE00001999AB2D9E700BF70B50026074D044627
:109BF000084611462E60FAF717FA431C00D070BDD4
:109C00002B68002BFBD0236070BD00BFBC0B002075
:109C10009368002B00F0B7802DE9F04FB1F90C30BC
:109C20000C4619078046174683B098B225D523699C
:109C30001BB310F002033D682DD04FF0000B5E46C1
:109C4000DFF8B8A2002E00F08B80564533465A4606
:109C500028BF53464046E169D4F824C0E0470028B5
:109C600040F38780BB6883441B1A361ABB60002B05
:109C7000E8D1002003B0BDE8F08F21464046FCF754
:109C8000C7FD002840F03681B4F90C303D6898B229
:109C900010F00203D1D110F0010976D14E46002E0A
:109CA0005AD08205D4F808B040F1B580B3455A4681
:109CB00000F2CD8010F4906F00F0CB802368216912
:109CC000A3EB010B636903EB430A0AEBDA7A0BF1AE
:109CD00001034FEA6A0A33445345524684BF9A4609
:109CE0005246430540F1EA8011464046FAF79AFB96
:109CF000002800F0F9805A4621690190F6F776FFB6
:109D0000A289019B22F4906242F08002A28103EBBF
:109D10000B0023613246AAEB0B03B346C4F814A030
:109D2000A3602060B24600264946019200F02CF95B
:109D3000A3682168019AA3EB0B030A44A360226085
:109D4000B868D144A0EB0A00B860002891D0B4F9FB
:109D50000C0080B2002EA4D1D5E9009608359EE70C
:109D6000D5E900B608356DE721464046FDF758FEB7
:109D700080B3B4F90C304FF0FF3043F04003A381BF
:109D800003B0BDE8F08F002070471E46AA469946F2
:109D900018461D4656B3002832D04A46206821692D
:109DA000B24228BF32468842636904D9A16803EBF6
:109DB000010B5A4574DC934265DC2A464046E16952
:109DC000D4F824C0E047B0F1000BD2DDB9EB0B09A9
:109DD000CAD00120BB685D44A3EB0B03A6EB0B06C6
:109DE000BB60002B3FF445AF002ED4D10AF108032D
:109DF00053F8046C9A4653F8085C0833002EF7D0E9
:109E000032460A212846FEF707F9002869D00130BA
:109E1000A0EB0509C1E72068236998421BD8636954
:109E2000B34218D86FF0004CB44528BFB4469CFB31
:109E3000F3FC4A4603FB0CF34046E169D4F824C026
:109E4000E047B0F1000A94DDA6EB0A0678E7B346D6
:109E50003246206866E7B345DA4628BFB24649462F
:109E6000524600F091F8A3682268A3EB0A0352441B
:109E7000A3602260002BE7D121464046FDF7D0FDCC
:109E80000028E1D075E729469346019200F07CF85E
:109E9000A368019A9B1AA36023681A44226095E77D
:109EA00029465A4600F070F8236821465B44404634
:109EB0002360FDF7B5FD002888D05AE7404600F042
:109EC000F5F8034600287FF422AF40462169FDF7EC
:109ED000D3FE0C22B4F90C30C8F8002023F0800324
:109EE00049E7721C914659E70C22B4F90C30C8F8C6
:109EF000002040E74FF0FF30BCE600BF00FCFF7FD2
:109F0000002238B5064D044608462A60FAF73AF8AA
:109F1000431C00D038BD2B68002BFBD0236038BD1C
:109F2000BC0B0020014B93F8280170475408002017
:109F300038B50C46114600228446074D20462A605B
:109F40001A466446FAF750F8431C00D038BD2B6817
:109F5000002BFBD0236038BDBC0B002082B049B180
:109F60005AB16BB113780B601278101E18BF012024
:109F700002B0704701A9002AF3D1104602B0704721
:109F80006FF00100F4E700BF88420DD98B188342BF
:109F90000AD900EB020CBAB1624613F801CD99421E
:109FA00002F801CDF9D170470F2A0ED8034602F10D
:109FB000FF3C4AB10CF1010C013B8C4411F8012B20
:109FC000614503F8012FF9D1704740EA01039B076F
:109FD0004FD1A2F1100370B501F1200C23F00F0551
:109FE00001F1100E00F11004AC441B095EF8105C86
:109FF0000EF1100E44F8105C5EF81C5C103444F84E
:10A000001C5C5EF8185C44F8185C5EF8145CE6456D
:10A0100044F8145CEAD1013312F00C0F01EB031188
:10A0200002F00F0400EB031327D08E46043C24F00B
:10A0300003064FEA940C1E441C1F5EF8045B44F8B0
:10A04000045FB442F9D10CF1010402F0030203EB06
:10A05000840301EB840102F1FF3C4AB10CF1010CD5
:10A06000013B8C4411F8012B614503F8012FF9D114
:10A0700070BD034602F1FF3C9CE72246EBE700BFC0
:10A0800038B50C46114600228446074D20462A600A
:10A090001A466446F9F7B0FF431C00D038BD2B6860
:10A0A000002BFBD0236038BDBC0B00202DE9F84FFE
:10A0B0001646002900F0988006F10B0580460C46F4
:10A0C000FAF7AEFC162D5DD810252A46AE425ED8B2
:10A0D00054F8041CA4F1080921F00307974262DA3E
:10A0E000BC4B09EB0700D3F808C0844500F097800B
:10A0F000D0F804C02CF0010303445B68DB0768D48C
:10A100002CF0030C07EB0C03934247DACB0710D477
:10A1100054F8083CA9EB030ADAF8043023F00301F1
:10A120008C44BC44944580F211817B18934280F2A8
:10A13000E88031464046FAF775F90646E0B154F832
:10A14000043CA0F1080223F001034B44934200F0C9
:10A15000D2803A1F242A00F2F580132A00F2AC8044
:10A1600003462246116819605168596092689A60E6
:10A1700021464046FDF780FD4046FAF757FC304641
:10A18000BDE8F88F25F00705002D2A469EDA0C233E
:10A190000026C8F800303046BDE8F88F1F46D0E9E9
:10A1A0000223D3609A607B1B0F2B22D8D9F804308E
:10A1B00003F001033B43C9F804304F447B6843F08C
:10A1C00001037B6026464046FAF730FC3046BDE886
:10A1D000F88FC907ADD454F8083CA9EB030ADAF8A4
:10A1E000041021F00301A0E71146BDE8F84FFAF78B
:10A1F00019B9D9F8041043F0010301F00101294312
:10A20000C9F8041009EB05014B604F447B684046D8
:10A2100043F0010308317B60FDF72EFDD2E7DCF847
:10A22000040020F0030B07EB0B0C05F11000844534
:10A230004DDAC9073FF57DAF54F8081CA9EB010AB8
:10A24000DAF8041021F003018B44BB4458453FF772
:10A250006CAF5646DAF80C1056F8080F3A1F242A4D
:10A26000C160886000F2DB80132A40F2D68021684A
:10A270001B2ACAF808106168CAF80C1000F2E080C6
:10A2800008340AF110022168116061685160A16808
:10A290009160ABEB05020AEB050142F00102996007
:10A2A0004A60DAF80430404603F001031D43CAF85F
:10A2B0000450FAF7BBFB6EE723681B2A0360636850
:10A2C000436068D804F1080200F108034AE709EB8B
:10A2D0000502ACEB050C9A604CF00103536054F896
:10A2E000043C404603F001031D4344F8045CFAF7C4
:10A2F0009DFB26464FE750F8043C23F003031F4420
:10A3000051E75646DAF80C1056F8080F3A1F242A7F
:10A31000C16088604CD8132A48D921681B2ACAF822
:10A3200008106168CAF80C1056D808340AF11002F7
:10A330001F462368D146136063685360A3683446A0
:10A34000936030E72146FFF71FFE11E75646D0E93C
:10A350000213CB60996056F8081FDAF80C303A1FE8
:10A36000242ACB6099602DD8132A29D923681B2A67
:10A37000CAF808306368CAF80C3042D808340AF1C9
:10A380001003226867461A606268D1465A60A26864
:10A3900034469A6007E7A368242A8360E368C360B1
:10A3A00026D004F1100200F11003DBE63246BFE7CD
:10A3B000214630461F46D146FFF7E6FD3446F2E619
:10A3C0003346DEE7214630466746D146FFF7DCFDDF
:10A3D0003446E8E640040020A168242ACAF8101098
:10A3E000E168CAF8141020D010340AF118029FE76F
:10A3F000236904F1180203616369436100F11803E2
:10A40000B0E6A368242ACAF81030E368CAF814300A
:10A4100022D010340AF11803B3E7324633E721465D
:10A420003046FFF7B1FD174B33E722691834CAF8FD
:10A43000182054F8042CCAF81C200AF1200277E7EF
:10A44000A168242ACAF81010E168CAF814100ED0C6
:10A4500010340AF1180216E723691834CAF81830C4
:10A4600054F8043CCAF81C300AF1200389E7226939
:10A470001834CAF8182054F8042CCAF81C200AF121
:10A48000200200E740040020F8B506460D461446B9
:10A4900010B1836B002B43D0B4F90C20A3691007D3
:10A4A000A36091B21BD52369CBB1EDB289042F46CD
:10A4B00022D522686169D31A994229DD0133A16846
:10A4C0000139A160511C2160157062699A422AD03D
:10A4D000A389DB0701D50A2D25D03846F8BD2146D2
:10A4E0003046FCF795F920BBB4F90C20EDB291B2DF
:10A4F00089042F462369DCD442F40052A281626EA3
:10A50000616922F4005262662268D31A9942D5DC4E
:10A5100021463046FDF784FA58B901232268CEE778
:10A52000FDF7B2FAB8E721463046FDF779FA002880
:10A53000D3D04FF0FF37D0E770B505461C4684B046
:10A5400039B10B4ED6F8E060B047431C09D004B0D7
:10A5500070BD0A460649D1F8E06001A9B047431C26
:10A56000F5D100228A2322602B6004B070BD00BFA9
:10A5700054080020034649B1FF2A02D801200A707E
:10A5800070478A224FF0FF301A60704708467047C4
:10A59000062008B500F004F80120F7F78FFA00BF95
:10A5A00038B5154B1F281D6820D8D5F8DC22044685
:10A5B00062B152F820304BB1012B15D0591C0FD08D
:10A5C000002542F820509847284638BD284600F01C
:10A5D00029F8224601462846BDE8384000F00EB86A
:10A5E000162301202B6038BD002038BD16234FF004
:10A5F000FF302B6038BD00BF1400002070B500266E
:10A60000074D0446084611462E60F7F74FFA431CE3
:10A6100000D070BD2B68002BFBD0236070BD00BF45
:10A62000BC0B0020F7F740BAC1F30A52F8B5A2F20A
:10A63000FF35132D0B4684460C46064630DC002DB4
:10A640001EDB354F2F4101EA0702024315D030A32C
:10A65000D3E90023F5F782FD00220023F6F7CCFDB5
:10A6600048B1002C04DA4FF4801343FA05F52C446A
:10A67000002624EA07042346B44660461946F8BD7E
:10A6800023A3D3E90023F5F769FD00220023F6F7A1
:10A69000B3FD0028EFD0002C24DB00263446EAE787
:10A6A000332D08DDB5F5806FE7D10246F5F756FD8D
:10A6B00084460B46E1E74FF0FF37A2F21342D74042
:10A6C0000742DAD012A3D3E90023F5F747FD0022B1
:10A6D0000023F6F791FD0028CDD0002C0BDB26EAF5
:10A6E0000706C8E724F000430C4A1E43002E18BF9B
:10A6F00014460026BFE7142D08D00123C5F1340508
:10A7000003FA05F5AE1928BFE418E8E70134E6E7D7
:10A710009C7500883CE4377EFFFF0F000000F0BF0F
:10A7200000F02EB82DE9F8438046894614461D46B0
:10A7300000F0F0F8224606460F46404649462B46B2
:10A74000F6F764FD30B92046294600220023F6F7CB
:10A750002BFD18B930463946BDE8F883F9F730FECD
:10A76000002200232121016010461946F6F7DEFB86
:10A7700006460F4630463946BDE8F8830000000023
:10A780009C462DE9F84F53425F4C13432CF000498F
:10A7900049EAD373A342964607460E463DD8454242
:10A7A000054321F0004A4AEAD575A54203468B4687
:10A7B00033D80CF1404505F5801515433DD04FEADF
:10A7C000AC7505F002055AEA030345EAD1752CD0B1
:10A7D00059EA020335D0A14546D0A24531D0AAEBB3
:10A7E0000909B9F1747F4FEA295339DABCF1000F36
:10A7F00046DA3C3344DA00200021012D58D0022DE6
:10A8000049D085B134A3D3E90023F5F7A5FC34A3DF
:10A81000D3E90023F5F7A0FC05E03A46704661460F
:10A820003346F5F79BFCBDE8F88F022D10D0032DC1
:10A83000F9D12DA1D1E90001F5E7BDE8F84F00F00D
:10A84000B3B9BBF1000F07DB29A1D1E90001EAE7A9
:10A8500023A1D1E90001E6E727A1D1E90001E2E760
:10A8600023A1D1E90001C8E7CA4505F1FF3523D08E
:10A87000022D29D8254B03EBC505D5E90001D2E708
:10A880007246634638463146F6F750FB00F01AFB35
:10A8900000F08AF9B1E710A3D3E90023F5F75CFCD7
:10A8A00002460B460EA1D1E90001F5F755FCBAE7C7
:10A8B00001F100431946B6E7022D08D8144B03EB0B
:10A8C000C505D5E90001AEE700200021ABE70CA1EA
:10A8D000D1E90001A7E700BF075C143326A6A13C1D
:10A8E000182D4454FB210940182D4454FB2109C064
:10A8F000182D4454FB21F93F182D4454FB21F9BF76
:10A90000182D4454FB21E93F0000F07F40F6000879
:10A9100028F600082DE9F84323F000479E469C46A0
:10A9200057EA0203054690462FD010461446984A2F
:10A9300021F0004991450B4627DC4242954E0243E7
:10A9400047EAD272B24220D8B945AE462A4601F053
:10A95000004606DCC0F2CB804545C0F0C88000F060
:10A96000FF808C491940F9B9B9F1000F40F0E2803D
:10A97000BEF1000F754640F30881A1F213416D004E
:10A98000002D01F1FF31FADC12E073464246284601
:10A99000F6F7A2F90B460246F6F7C8FA05460B464B
:10A9A00028461946BDE8F8834FEA2951A1F2FF3144
:10A9B000784D0CEA050585B9002F40F0AC800028E1
:10A9C000804640F3E080A5F213454FEA4808B8F10D
:10A9D000000F05F1FF35F8DC02E03D15A5F2FF356B
:10A9E000DFF8B481414572DBC3F3130343F48013F2
:10A9F000DFF8A4E1754559DBCCF3130C4CF4801C53
:10AA0000101A491B0BD11DE050EA0E0344D04FEA47
:10AA1000DE73013903EB40034FEA4E0211D0A3EB82
:10AA20000C00944288BF00F1FF300028A2EB040E16
:10AA30004FEAD277E8DA013907EB43034FEA4202E3
:10AA4000EDD1101BA3EB0C0C944288BF0CF1FF3C22
:10AA5000BCF1000FA4BF0246634653EA020105D1D0
:10AA60001AE0D10F01EB43035200013DB3F5801F03
:10AA7000F7DB49498D4269DA491B142976DC05F276
:10AA80001E40CA4003FA00F043FA01F10E4340EAC7
:10AA900002031D46334683E7404BF60F03EBC60621
:10AAA000D6E9005328461946BDE8F883AEEB050405
:10AAB0001F2C24DD3A4C491BA4EB050C00FA0CFCBE
:10AAC00018BF0024ABD11046A3EB0C0CC0E7A8EBD9
:10AAD0000108B8F11F0F0CDC01F21E4309FA08F956
:10AAE0002EFA03F30EFA08F243EA090380E70B4655
:10AAF00056E72B4B00225B1A0EFA03F378E705F2B8
:10AB00001E4C07FA04FE00FA04F420FA0CF040EAA6
:10AB10000E0C101B75E74FEAC728B8F1000F1E4D49
:10AB20007FF75EAF4FEA4808B8F1000F05F1FF3537
:10AB3000F8DC55E74FEAC925002D17497FF738AFF4
:10AB40006D00002D01F1FF31FADC31E7A3F5801330
:10AB50001E4305F2FF3546EA05510B4615461FE731
:10AB60000E4B03EB1676D6E9005319E71F2906DCD6
:10AB700005F21E4522FA01F1AB400B4389E7084973
:10AB8000491B0B4185E7074D2AE7064910E700BF3F
:10AB9000FFFFEF7F0000F07F02FCFFFF58F6000888
:10ABA000E2FBFFFFEDFBFFFF2DE9F84FB84F21F06F
:10ABB0000046BE4204460D468A461CDDB54B9E4209
:10ABC0000DDC0AD0B44BB54AB54CBAF1000FD8BF72
:10ABD000134620461946BDE8F88F0028F2D02246D9
:10ABE0002B4620462946F5F7B9FA04460B4620467F
:10ABF0001946BDE8F88FAB4B9E4200F3B080A3F13D
:10AC0000DE739E4240F39D804FF0FF3B22462B4671
:10AC100020462946F6F760F802460B4680468946EC
:10AC2000F6F75AF882A3D3E9002306460F46F6F753
:10AC300053F881A3D3E90023F5F790FA32463B4657
:10AC4000F6F74AF87EA3D3E90023F5F787FA3246F0
:10AC50003B46F6F741F87CA3D3E90023F5F77EFAEB
:10AC600032463B46F6F738F879A3D3E90023F5F7E7
:10AC700075FA32463B46F6F72FF877A3D3E900235F
:10AC8000F5F76CFA42464B46F6F726F874A3D3E97B
:10AC900000238046894630463946F6F71DF872A3F0
:10ACA000D3E90023F5F758FA32463B46F6F714F895
:10ACB0006FA3D3E90023F5F74FFA32463B46F6F788
:10ACC0000BF86DA3D3E90023F5F746FA32463B466D
:10ACD000F6F702F86AA3D3E90023F5F73DFA324606
:10ACE0003B46F5F7F9FFBBF1FF3F02460B464046F6
:10ACF000494653D0F5F732FA6B4E22462B46F5F70C
:10AD0000EBFF6A4B06EBCB064FEACB0B9B44DBE930
:10AD10000023F5F721FA22462B46F5F71DFA0B46DC
:10AD20000246D6E90001F5F717FABAF1000F04461A
:10AD30000B46BFF64EAF01F1004320461946BDE871
:10AD4000F88F51A3D3E90023F5F708FA0022584BF6
:10AD5000F6F752FA00283FF457AF2B4639E700F0D8
:10AD6000B1F8544B04469E420D4629DCA3F550230E
:10AD70009E4250DC02460B46F5F7F0F900224C4BA0
:10AD8000F5F7EAF902460B462046294614461D46C9
:10AD90004FF0000B00224FF0804326E0F5F7DEF97C
:10ADA00022462B46F5F798FF02460B4620462946D9
:10ADB000F5F7D2F904460B4620461946BDE8F88F50
:10ADC0003D4B9E421CDA00223C4BF5F7C5F902468A
:10ADD0000B462046294614461D460022374B4FF0AD
:10ADE000020BF5F779FF0022314BF5F7B7F9024670
:10ADF0000B4620462946F6F799F804460D4605E726
:10AE000002460B4600202E49F6F790F84FF0030B50
:10AE100004460D46FAE60022254BF5F79DF9024659
:10AE20000B46204629464FF0010B14461D46DAE733
:10AE300011DA22E33AAD903FEB0D76244B7BA93F2C
:10AE4000513DD0A0660DB13F6E204CC5CD45B73FFA
:10AE5000FF8300922449C23F0D5555555555D53FA6
:10AE60002F6C6A2C44B4A2BF9AFDDE522DDEAD3F9A
:10AE70006D9A74AFF2B0B33F711623FEC671BC3F3A
:10AE8000C4EB98999999C93F9C7500883CE4377E3A
:10AE9000FFFF0F440000F07FFB21F93FFB21F9BFCA
:10AEA000182D4454FFFFDB3F68F6000888F60008C1
:10AEB0000000F03FFFFFF23F008003400000F83F3A
:10AEC0000000F0BF21F00041704700BFF8B500BF9F
:10AED000F8BC08BC9E467047F8B500BFF8BC08BC7B
:04AEE0009E467047D3
:10AEE8005A48540048656C6C6F210000416E676CCD
:10AEF800653A252E32660A00416E676C653A000095
:10AF0800FFFFFFFFFFFFFFFFFFFFFFFFFFFFFFDF69
:10AF1800F77EA4B4C538A494DE9CFFDFFFDFFFDF13
:10AF2800FFFFFFFFFFFFFFFFFFFFFFFFFFFFFFFF29
:10AF3800FFFFFFFFFFFFFFDFFFBFFF7EEF1DEF3EBD
:10AF4800F77EFFDFFFFFFFFFFFFFFFFFFFFFFFFFB2
:10AF5800FFFFFFFFFFFFFFFFFFFFFFFFFFFFFFFFF9
:10AF6800FFFFFFFFFFFFFFFFFFFFFFFFFFFFFFFFE9
:10AF7800FFFFFFFFFFFFFFFFFFFFFFFFF7DFFFFF01
:10AF8800B515BD56FF9FCDD9BDBABE5FB65EB67FBB
:10AF9800B65FB67FAE7FAE9FAE9FB67FB67FB67FF9
:10AFA800FFFFFFFFFFFFFFFFFFFFFFFFFFFFFFFFA9
:10AFB800FFDFA4B5A495A4759C53E6FDF75EF77E64
:10AFC800FFBFFFFFFFFFFFFFFFFFFFFFFFDFFFBF29
:10AFD800FFBFF79EF77EEF1DEEFEDE7BE6BDE6DDEA
:10AFE800EEFDF77EFFDFFFFFFFFFFFFFFFFFFFFF25
:10AFF800FFFFFFFFFFFFFFFFFFFFFFFFFFFFFFFF59
:10B00800FFFFFFFFFFFFFFFFFFFFFFFFFFFFFFFF48
:10B01800FFFFFFFFFFFFFFFFFFFFFFFFFFFFEF3D0A
:10B028009412EEBCDE5B9C74C5DBB63EB65FB67FA1
:10B03800B65FB67FAE7FB69FB69FB67FB67FB67F48
:10B04800EF9EF7BFF7DFFFFFFFFFFFFFFFFFFFDF09
:10B05800A4F4C599C5B98BD27B0F9C33E65CE6BDD9
:10B06800E6BDEEFDEF3EEF3EEF3DEF1DE6FDE6DD12
:10B07800E6BCDE9CE6BDDE7CBD37BD78E6BDE6BD40
:10B08800EEFDEF1DFF9EFFFFFFFFFFFFFFFFFFFF2E
:10B09800FFFFFFFFFFFFFFFFFFFFFFFFFFFFFFFFB8
:10B0A800FFFFFFFFFFFFFFFFFFFFFFFFFFFFFFFFA8
:10B0B800FFFFFFFFFFFFFFFFFFFFFFFFFFFFA4945E
:10B0C800C557F6DD8B91BD78E6DDB5DBB65EB65FBC
:10B0D800B65FB67FB67FB67FB69FB67FB67FB67FC0
:10B0E800B65DBE7DBE7DC69DC6BDCEDDD6DD947384
:10B0F800B557F73FE6BDBD588BB172EE8B91C59938
:10B10800DE7CDE5CDE5CDE7CDE7CDE7CDE7CDE7CA7
:10B11800DE7CE67DC5B9A474B537DE5CDE7CE6BDB1
:10B12800EEDEEEFEEF1DF75EFFBFFFFFFFFFFFFF46
:10B13800FFFFFFFFFFFFFFFFFFFFFFFFFFFFFFFF17
:10B14800FFFFFFFFFFFFFFFFFFFFFFFFFFFFFFFF07
:10B15800FFFFFFFFFFFFFFDFFFBFFFDFBD56AC9321
:10B16800E63A93F1AC94FF3EFF9FDEBCA59AB67F0A
:10B17800B65FB65FB67FB67FB67FB67FB67FB67F5F
:10B18800B65FB65FB65FB65FB65EBE5E73B19CD49F
:10B19800FFFFEEFDCD78C538BCF7A454835072AEDE
:10B1A800A434D61BE67CE67DE69DE69DE67CDE5C67
:10B1B800CDDAB4F7ACB6C599DE5CD63CD63CDE5DDC
:10B1C800E6BDE6BEE6BDE6BCEEFDF75EFFBEFFDF10
:10B1D800FFFFFFFFFFFFFFFFFFFFFFFFFFFFFFFF77
:10B1E800FFFFFFFFFFFFFFFFFFFFFFFFFFFFFFFF67
:10B1F800FFFFFFFFFFDFFF9FEEFDB494A3B1BCB4D8
:10B2080093B0B4D5EE9CEEBCF71DFFDFBDF99D7A77
:10B21800BE7FB65FB67FB67FB67FB67FB67FB67F96
:10B22800B67FB67FB67FB65FBEBF7C147BB0FFDF4C
:10B23800FF7EEE5BCD38BCB5BCB5BCF6BD17AC54D3
:10B248009391A434AC95ACB5BD37C578ACD69BF218
:10B258007B0F8330BD38E67DE69DDE3CD5FCD61CF1
:10B26800D63CDE7DE69DDE7CDE7CDE9CE6DDE71DF1
:10B27800EF5EF79EFFDFFFFFFFFFFFFFFFFFFFFF10
:10B28800FFFFFFFFFFDFFFFFFFFFFFFFFFFFFFDF06
:10B29800FFDFFFBFF73DC5978B6F8B0EA3909BB168
:10B2A800CD77F69CEEBCEE9BE67BEF1DFFBF9D17AE
:10B2B800ADFDBE7FB65FB67FB67FB67FB67FB67F81
:10B2C800B67FB67FAE5FB69F94B7526BE6FCFFDFE2
:10B2D800EEDCE5D9E5B9CD16B494B474BCB5C517A0
:10B2E800BD17BD17B4F7BD37CDBAC558ACB5AC94CA
:10B2F800AC54939182EE8B4FA413C538DDFCDE3C31
:10B30800DE5CDE5CD63CD63CD63CD65CDE5CDE7DC4
:10B31800DE7CE69DE6DDEEFEEF1EEF1EEF1EEF1E65
:10B32800EF1DEEFDEEFDEEFDF73EEF3EEEFDF6DC29
:10B33800E65BCD57A412830EABF2D558D558CD375E
:10B34800D598E61AEE5BF67BE61AE69BFFDFDEFD94
:10B3580094F7BE5FAE5FB67FB67FB67FB67FB67F27
:10B36800B65FB67FB67FADFD4A4BAD14FFFFFF9EBB
:10B37800EE7BE578E558DD37CCF6C4D5BCB5B4D559
:10B38800B4D5B4D5BCD5BCD6BCD6B495AC33AC1208
:10B39800A412A412AC12A3D0932E8AEE9B91B4757A
:10B3A800C517D59AE63CE65CE65CDE3CDE5CDE7CF6
:10B3B800DE7CDE7CDE7DDE7DDE9DDE7DDE7DDE9D6F
:10B3C800E69DE6BDEEBDEE9DE63CD5BACD37ABF2C7
:10B3D80092AD8A8DA3D1D558D599D599D578D55719
:10B3E800DDB9E5FAE61AEE3AEE7CDE1AF73EFFFF23
:10B3F800AD989D39B69FAE5FB67FB67FB67FB67FF4
:10B40800B65FAE5EBE9F73D36B4EF79EFFBFF73E2F
:10B41800DDD9DD57DD37DD17DD57DD98DDB8D578A7
:10B42800C516B494B433AC13AC12AC12AC12A3F27C
:10B43800A3D1A3D1A3D1A3D1AC12ABF29B70932E0D
:10B448008AEE82CD9BD2BC95C517D599D5B9DDFAC0
:10B45800E63BDE3BDE3BDE3CDE3BE65CE65CDDFB02
:10B46800DD99C4F6B4539B2F826C826C828C92EE69
:10B47800ABB0BCB4D598CD98CD78D599DDB9E5D920
:10B48800EDB9E5B9E5D9E5B9EE7BE69BD65AFFDF1C
:10B49800DEDC8434B61EB67FB67FB67FB67FB67F55
:10B4A800B65FBE7FA55A528DCE39FFFFFFDFEEFC97
:10B4B800D557DD17DD17DD16DD37E5B9F65BF69CE8
:10B4C800DDF9C4F6B433B412B433AC33AC12ABF216
:10B4D800A3F1A3F1A3F2A3D1A3D1A3F2AC12AC328E
:10B4E800C494C4B5B453A3D193709370934F932F5E
:10B4F800934F9B709B509BB19BB1A3D19BB18AEE9C
:10B508007A2B71CA7A0B8AADAB90CCB5C4B5DDB9CC
:10B51800DDB9CD77CD77DDB8E61AE5DAE5B9E59896
:10B52800E598E5B9DDB9E5B9E5D9FF3EC5D8D65AFC
:10B53800FFFFA5168CB8BE9FAE5FB67FB67FB67FFD
:10B54800B65FBE7F73B47BB0FFBFFFDFFFFFFF3D79
:10B55800DD77D4F6DD16DD16DD37E598EE1AE61A46
:10B56800E5D9DD99D517C474BC33B433AC33AC32E8
:10B57800AC32AC12AC12A3D1A3D1A3D1A3D1A3D125
:10B58800A412B4B5BD16C516BCF5C4F5C4D5B453DC
:10B59800AC12B433ABF2A3D19BB19BB1A3D1AC1223
:10B5A800AC12BC74CCF6CD57CD37CD77A433BCB62E
:10B5B800D599DDB9E5F9E61AEDFAE5B9E578E57862
:10B5C800E578E5B9E5D9E5B9DDB9F6FDF77E945238
:10B5D800B596E6FD83F3B61EAE5FB67FB67FB67F3F
:10B5E800B67FA5BC6310C5F8FFFFFFDFFFFFFF7E36
:10B5F800EDF9DD17DD16DD37DD57E598E5B9DD989E
:10B60800DD78DD78E578E558D517CCD6CCB5C474A7
:10B61800BC74BC53B3F2B433B3F2ABD1ABD1ABD13E
:10B62800ABF2AC12B433B433B433B433B453B4530D
:10B63800B453B453B453B453B453B433B453B474C9
:10B64800BCD5C4F6CD16CD37CD57D599B453A3F292
:10B65800EE1AEE1AE5D9E5D9E5D9E598E578E55881
:10B66800DD78E5B9E5D9E5B9DD78E65AFFFFACF54F
:10B6780049E9C5B7A4F69519BE9FB65FB67FB67FF0
:10B68800B67F94B87BB1F79FFFDFFFDFFFDFFF7E58
:10B69800F69BE5B8DD37DD57E578E598DD98DD7888
:10B6A800D537DD37DD58DD58DD58DD37DD16D4B543
:10B6B800D4B5BC12AB90CCB5C494C474C474C4746F
:10B6C800CC74CC94D4D5D4D6D4D5CCB5CC95CCB573
:10B6D800CC95C474C474C494C495C495CCB5CCF644
:10B6E800D537DD78DD78DD98EE1AEE3BC5169B7010
:10B6F800D557E5D9E5B9DDB9DDB9E598E578E55877
:10B70800DD58E578E5B9E598DD78EE7BFF9FDE9BAF
:10B718006AEC730EBDB88435B65EAE5FB67FB65FB1
:10B72800BE5F7C14A4F5FFFFFFDFFFDFFFBEFF5EF7
:10B73800FEDCFE7CEDF9E578E598E578E598DD78BE
:10B74800DD37DD37DD37DD37DD37DD37DCF6D4B51E
:10B75800DCD5AB70AB90D4D5D4B5D4B5D4B5D4B50D
:10B76800DCB5DCD5DCF5DCF6DCF6D4F6DCF6DCF6AC
:10B77800DCF6D4F6D4F6DD16DD37DD57E558E57886
:10B78800E598E5D9DDB9CD16EE3BEE1ACD16934F07
:10B79800AC33E5D9E598DD98DDB9E598E578E57845
:10B7A800E558E578E578E578E5F9FF3DFF9FFF9EE8
:10B7B800945373309CB78456A59BB69FB67FB65FEB
:10B7C800B63E73D2D69BFFFFFFFFFFFFFFBEFF5DB4
:10B7D800FF1DFF1DFEFDF69CEE3AEDFAE5B9DD789A
:10B7E800DD57DD37DD57DD57DD57DD37D4F6D4B506
:10B7F800D4B59ACEB3D1D4B5D494D495D495D495A0
:10B80800D494D4B4D4D5D4F6DD16D4F6DCF5DCD68D
:10B81800DCF6D4F6D516DD37DD57E578E578DD7842
:10B82800DDB8E61AE5F9B473EE1AEE1ACD36A3F2CE
:10B83800A3D1E598E5B9E5B9E5B9E598E578E598DE
:10B84800E578DD57E598E5B8EE5BFF5EFF9EFFFF04
:10B85800C5D883D29CB773B38CD8B69FB67FB67F52
:10B86800A59B8C74FFDEFFFFFFFFFFFFFF9EFF5DC0
:10B87800FF5EFF5EFF5EFF3DFEBCEE1AEE1ADD982E
:10B88800DD37E598EDD9EDD9EDD9EDD9E578E5378E
:10B89800D4959AEECC94D4D5D495D474D474D47465
:10B8A800D474D494D4B5D4D5D4D5DCD6DCF6DCD6CF
:10B8B800DCF7DCF6DD17E578E598E578E5B9E5D954
:10B8C800E5F9EE3BE61A8B0ED557EE3AD557BCB4E0
:10B8D800AC32D537EDD9E5B9E5B9E5B9E598E578FC
:10B8E800E578DD57DD78EDF9FEDCFF5EFF9EFFFFB2
:10B8F800EF1D8C12DE9C94948C74CE9EBE3EB65E78
:10B9080094F9A537FFFFFFDFFFFFFFDFFF9EFF7EF4
:10B91800FF9EFF7EFF7EFF5DF6BCEDFAEE1ADD7836
:10B92800D557EDD9FE5BFE7BFE5BFE7CFE5BF61A0F
:10B93800CCB5A32FE516DCF6DCD5D4B5DCB5DCB583
:10B94800DC95DC95DC95D494D495DCB5DCF5DCF697
:10B95800DCD6DCF6DCF6DD16E578E578E5B9E5D980
:10B96800E5D9EE3BDDF96A2AB453F65BD557C5161F
:10B97800C516C4D5EDFAE5B8E598E5B9EDB9EDB960
:10B98800DD77DD57E598F67BFF1DFF5EFF9EFFDF45
:10B99800FFDF9451CE19CDF98C11F77EEF9FD6FEBB
:10B9A8008456BDF9FFFFFFDFFFFFFFDFFF9EFF9E0D
:10B9B800FF9EFF7EFF7EFF7EF6BCE5F9E5F9C4F643
:10B9C800DD98EE1AFEBBFEBBFE9CFEBCFEBCFEBCB8
:10B9D800B433B3F2E558DD17DD16DD16ED77ED5714
:10B9E800E516DCD5DCB5DCB5DCB5CC33BBF2C4126E
:10B9F800D4B4D4D5DCB5DCD6DD16DD57DD98E5D971
:10BA0800E5FAF67CE6196A299BB0F65BD557BCF5D2
:10BA1800D5F9BCB4F65BE5B8E5B9EDFAF63AF61A2D
:10BA2800E5B8EDD9EDD9EE3AFF3DFF5EFF9EFFDFA9
:10BA3800FFFFAD14A4F4F75E83AFDE9AFFFFF7FFB4
:10BA48006B91D67AFFFFFFDFFFFFFFDFFF9EFF9EB0
:10BA5800FF9EFF9EFF9EFF7EF6DCEDFADDB9B45334
:10BA6800DD98F65BFEBCFEBCFEBCFEBCFEBCFEDC8C
:10BA7800A390C494ED99E558E557ED98F5D9F5B933
:10BA8800E536DCF5DD16CC54B390C3F2D494DC95DE
:10BA9800E4F6E516DD16E537E537E578E5D9F65B32
:10BAA800F65BFE9CDDD9726B9BB0F65BD577B4B4C0
:10BAB800E69BB4B4EE5BE5D9E5D9F63AF65BF63A1F
:10BAC800EE1AEDB9E557DD57F69CFF3EFF7EFF9E67
:10BAD800FFFFCE399452FFFFA4D3C5F8FFFFFFDF65
:10BAE8007390E75DFFFFFFDFFFFFFFDFFF7EFF9E35
:10BAF800FF9EFF9EFF9EFF7EFEFDEE1AD557B433D4
:10BB0800E5D9F67BFEDCFEDCFEDCFEBCFEFDEE5A73
:10BB1800A390E577EDB9ED98E5D9F63AFE7BFE3BC3
:10BB2800E557DD16CC74C433DCF6ED98ED98ED7866
:10BB3800ED57E557E578ED78ED78ED99EDFAF67B78
:10BB4800F65BFE9CD5B89BF1AC52F65BDD78B4B4DD
:10BB5800EEFDAC73E61AE5D9EDF9F63AF63AF65B7E
:10BB6800F61AE558E517DD16EDB9FE9CFF1DFF7EB8
:10BB7800FFFFE6DC9C72FFFFC618BD96FFFFFFDFE4
:10BB88007BB1F7BEFFDFFFDFFFDFFFBFFF9EFF9E3A
:10BB9800FF9EFF7EFF9EFF7EFEFDEE1ACD16AC12C5
:10BBA800E5B9F67CFEDCFEBCFEBCFEBCFEFDDD9805
:10BBB800A3B1F5FAEDD9EDD9EE1AF69BFE9CFE7B02
:10BBC800EDB8DD16CC94E537EDB9EDB9ED98ED7823
:10BBD800E578E578E578ED98E578E598E5D9E5FA4A
:10BBE800EE1AF65BBD16BD36B494F65BD537B4B421
:10BBF800F73DA432E5FAE5F9EDF9EE1AF63AF63A28
:10BC0800F5FAE557DD17DD37DD37F61AF69CF6DC71
:10BC1800FFBFF73DA4B3FFDFE71CB535FFFFFFFF0C
:10BC28009474FFDFFFDFFFDFFFDFFF9EFF7EFF9ED5
:10BC3800FF9EFF9EFF9EFF5EF6DCE5FAC4F6BC742D
:10BC4800EDB9F67BFE9CFE9CFEBCFEBCFF1DC4D578
:10BC5800ABF1EE1AEDD9EDF9EE3AFEDCFEDDF69B1E
:10BC6800EDFAE5B9ED98E558EDD9EDD9ED98ED98EF
:10BC7800E578ED99EDD9EDB9E598E598E5B9E5D917
:10BC8800EDFAE61AB4F5DE3AAC93FE9CC4D5BD369F
:10BC9800FF5EA412DDB8E5D9E5D9EE1AEE1AEE1A60
:10BCA800EDD9DD57DD17DD37DD16E578EDF9E63A34
:10BCB800FF7EF77EA4B3FF9EFFBFB556FFBEFFFF12
:10BCC800AD58FFDFFFBFFFBFFFDFFFBFFF9EFF9E37
:10BCD800FF9EFF9EFF9EFF3EEE5BE5D9C4D5BC7478
:10BCE800E5B9F67BFE9CFE9CFE9CFEBCFEFDB453B3
:10BCF800C4D5F63BE5FAEDFAF67BFF1DFF3DF6BC31
:10BD0800E61AE5FAEDB9ED98F5D9EDD9EDB8ED9863
:10BD1800ED78E578E598E598E578E578E598E5B88B
:10BD2800EE1ACD36C577F6FDB4F5FEDDAC53CDF889
:10BD3800FF7FAC53DDB9E5B9E5B9E5FAEDFAE5FA07
:10BD4800E5B9DD78DD37E537DD16DD16DD37E5D910
:10BD5800FF9FF77EACD4FFBFFFFFC5F8EF5DFFFF85
:10BD6800CE3BFFDFFFBFFFDFFFDFFFBFFF9EFF9E72
:10BD7800FF9EFF9EFF9EFF1DE5F9E5B9B433B4337E
:10BD8800EDD9F67BFEBCFE9CFE9CFEBCFEDCAC1234
:10BD9800D577EE3BEDFAEE1AF69BFEFDFF1DF69BFE
:10BDA800E5FAE5D9E5B9EDB9ED98E578E557E55750
:10BDB800DD17DD17DD57E578E578E578E598E5B92D
:10BDC800EE1A9C12DE5AEF1DD5F9F6DCA473EF3D8E
:10BDD800FFBFA453DD98EDB9E599E5D9EE1AEE1A3F
:10BDE800E5FAE599DD78DD37DD16D516D4D6D557D1
:10BDF800FF9FEF1CA4B3FFDFFFFFDE9AEF3DFFFFBD
:10BE0800DEFDFFDFFFBFFFDFFFDFFF9FFF9EFF9E1F
:10BE1800FF7EFF7EFF7EF6DCE5B9E5B9ABD2BC5309
:10BE2800F61AFE7BFE9CFE7BFE9BFEBCF67BABF10E
:10BE3800DD98E5F9E61AEE3AF67BEEBCF6DCEE5B49
:10BE4800E5FAE5D9E5B9E598E578DD57DD17DD17B9
:10BE5800DD37DD37DD57E578E557E578E599EDFA23
:10BE6800C5369432FFBFDE9BE6BCE67BA4B3FFFF7A
:10BE7800F7BFAC93DD98E5B9E599E5B9EDFAF67B3E
:10BE8800F67BE5D9E599E578DD37D4F6D4D5CD1636
:10BE9800FF7EE6FCACF4FFDFFFFFEF3DEF7DFFFF29
:10BEA800EF7EFFDFFFDFFFDFFFDFFF9EFF9EFF9ECE
:10BEB800FF5EFF5EFF5DEE7BE598E5989B90BC33E7
:10BEC800EDFAF65AF65BF67BF65BF67BDDB8A390E7
:10BED800E598E5B9E5F9EE3AEE5BEEDCFF5EEE9B40
:10BEE800E61AE5F9E5F9E5D9EDB9E578DD57E5981C
:10BEF800E5B9E5B9E578E578E598E598DDB9EE5B6B
:10BF0800ACB4D67AFFFFD65AEF3DBD97C5D8FFFF30
:10BF1800F79EACD4E5D9E5B9E5B9E5B9E5FAF67B1C
:10BF2800F69CEE3AE5D9E598DD77DD17D4D6DD77CE
:10BF3800FFBFE6FCBD97FFFFFFFFF79EF7BEFFFFC1
:10BF4800FFDFFFDFFFDFFFDFFFDFFF7EFF5DFF5D5E
:10BF5800F6FCF6FCF71DEE5BE5B8DD78934FBC53B5
:10BF6800EDD9EE1AEE1AEE3AEDFAEE3ACCF59B4F11
:10BF7800E578E599E5B9EE1AEE3AEEBCF73DF6FD3F
:10BF8800E63AE5F9EDFAEDFAE5D9EDB9E598EDF916
:10BF9800EE1AEDFAE5D9E5B9E5D9EE3AF6DDDE3A7D
:10BFA800D619FFFFFFDFD69BEF1DA493EF5DFFFFC0
:10BFB800EF3DB4D4EE3ADDD9DDB9E5D9E5FAEE7B4B
:10BFC800F69BEE7BEE1AE598E598E557D4F6DDB8D2
:10BFD800FFDFE71CD67AFFFFFFDFFFDEFFDFFFFF93
:10BFE800FFDFFFDEFFDFFFDFFFBFFF3DF6BCFEDC4C
:10BFF800F6BCFEDCF71DEE3ADD98DD77934FBC53B7
:10C00800E598DD77DD77DD98E598EDD9BC73A37009
:10C01800E599DD78DDB9E5FAF67BC577C597FF9F29
:10C02800EEBCEE5BEE3AEE1AE61AE5F9E5D9EE3A21
:10C03800F67BEE7BF69CF69CEEBCFF5EFF5ED65A66
:10C04800FFDFFFDFF79EE6FCCDF8CDF8FFFFFFFF2F
:10C05800E6DCBD56FEDDEE1AEE1AEE1AEE3BF6BC35
:10C06800F6DCEEBCEE9BE61AE5B9E598D537DDF9C6
:10C07800FFDFE73CE71CFFFFFFFFFFDFFFDFFFFFFE
:10C08800FFDFFFDFFFDFFFDFFF9EFEDCF65BFE7BEF
:10C09800FEDCFF5EF71DEE1ADD78DD789B4FB433CA
:10C0A800E558DD16E557E598E598EDB9B412A3B162
:10C0B800E599DD78DDB8E5F9EE3BACB4BD76F75E21
:10C0C800F6FCEE9CEE7BEE5BEE3AEE3BEE7BFEDDA5
:10C0D800FF1DFF3EF71DEEBCDE5AD65AD65AF79E14
:10C0E800FFFFFFFFF79EDEDBC5B7FFBFFFDFFFFFE8
:10C0F800DEDBD63AEE9BDDB8D578D578DD98E63A22
:10C10800E69BEEBCE69BEE7BEE5BEE1AE5F9EE9B5A
:10C11800FFFFE75DE75DF7DFFFDFFFDFF7DFE75EE4
:10C12800FFDFFFDFFFDFFFDFFF3DF67BF63AFE7B39
:10C13800F6BCF71DEE9BE5F9E598E5989B70BC33D6
:10C14800E557DD16DD37DD57E578ED98B3F2B41223
:10C15800E578DD78DDB9EE1ADDB8B4F5D639EEDC70
:10C16800F71DEEDCF6DCFEBCFEBCEE5BE61ACD98F5
:10C17800BD56B515A4D4BDB7D67AEF1DF7BEFFDFFF
:10C18800FFFFFFFFF7BEDEBBEF3CFFFFFFDFFFFF58
:10C19800EF7DF77EEEFCDE5AD5D8D5D8CDB8C59759
:10C1A800C597BD35B515BD56CD77CD57BCF5D61954
:10C1B800DEFCB5FABE5DC67EC69EC69DC69EBE5E48
:10C1C800FFDFFFDFFFBFFF7EF69BF61AF5FAF5F9F2
:10C1D800EE5AF6DCEE3AE5D9E5B9E5D99B91BC54BF
:10C1E800E557DD17DD37DD57E598E598ABF1C494E1
:10C1F800E598DD98DDB9EE3BCD37C597EF1DEEDC50
:10C20800FF7FF6FDE67BD5F9B4F5AC94BD36BD7776
:10C21800CE19E6BBF77EFFFFFFFFFFFFFFFFFFFF23
:10C22800FFFFFFFFFFDEFFDEFFDFFFDFFFFFFFFF98
:10C23800FFFFFFFFFFFFFFFFFFFFFFFFFFFFFFFF06
:10C24800FFFFFFDFFFBFFF7EEEDBD619E69BAD5693
:10C25800AD79A57CB65FB65EB65EB65EB65FB67FF4
:10C26800FFDFFF9EFF3DFEBCF61AF5B9E4F6D4D514
:10C27800EE3AFF3DEE3AE5D9E5D9EE1AAC12BC74B8
:10C28800E578DD37DD37E557E598EDB9ABD1CCB5C5
:10C29800E5B9E5B9EE1AFEDDC557CE19FF9FDE7B7D
:10C2A800E6DCD639D639DE9BDEBBF77EFFFFFFFF23
:10C2B800FFBFEF1DD65AD67AF75EFFDFFFFFFFFFFD
:10C2C800FFDFFFDFFFDFFFDFFFDFFFDFFFFFFFFF36
:10C2D800FFDFFFDFF7BEF7BEFFFFFFFFFFDFFFDF78
:10C2E800FFFFFFFFFFFFFFFFEF1DCE18FFFFA53683
:10C2F800BE1EB67FAE5FB67FB67FB67FB67FB67F0F
:10C30800FFBFFF5DEE3BEDD9ED57DCB5D454CC74DF
:10C31800EE1AF71DEE5BE5D9E5D9EE1AAC12BC941E
:10C32800DD78DD57DD57DD58E598EDB9B412CD1647
:10C33800EE1AEE1BDDD9C5579C52DEDBFFDFEF3D61
:10C34800FFBEFFDFFFFFFFFFFFFFFFDFFFBFEF3D88
:10C35800D69AD65AD69AE73DFFDFFFDFFFDFFFDF29
:10C36800FFDFFFDFFFDFFFDFFFDFFFDFFFDFFFDFD5
:10C37800FFDFF7BEE71CD69AD69AF79EFFFFFFFFAE
:10C38800FFFFFFFFFFDEFFFFDEDBC5D7FFBF94B671
:10C39800B5FEB65FAE7FB67FB67FB67FB67FB67F97
:10C3A800FFDFFF1DEDB9DD16D474CC53D474CC7304
:10C3B800D597FF5EEE9CE5F9DDD9EE1AA3F1B453EB
:10C3C800E5B8DD57E578DD78E599EDFAB494E63A15
:10C3D800D5F9A493ACD4C597DEBBFFBEFFDFFFDF62
:10C3E800FFFFFFFFFFDFFFDFFFDFFFFFFFFFFFFFB5
:10C3F800FFBFF77EEF3DE6FCE6DBF77DFFBEFFDF24
:10C40800FFDFFFDFFFDFFFDFFFDFFFDFFFDFFFDF34
:10C41800FFDFE6FCCE18CE39D63ADEBBEF5DFFFF74
:10C42800FFFFFFFFFFDEFFFFD65AC577FFBF9CF770
:10C43800B5FEB67FB65FB67FB67FB67FB67FB67FEE
:10C44800FFBFF6FDDD16D474CC53CC53D454CC5373
:10C45800D536FF9FEEBCDDF9DDD9EE3AB473B4747E
:10C46800E5B8DD57E578DD98E5D9F67BAC93E6BB12
:10C47800EF1DE6FCFFBFFFFFFFFFFFDEFFDEFFDE75
:10C48800FFFFFFFFFFFFFFFFF75EE6DCCE18ACF40F
:10C498008BD06ACC6ACC838FC597FF9EFFDFFFDF06
:10C4A800FFDFFFDFFFDFFFDFFFDFFFDFFFDEFFBEB6
:10C4B800FFDFF79EBD5693F17B2E7B4E8BD1ACD41C
:10C4C800C5B8E6FCFFDFFFFFC556C4B5FF9E94B6AE
:10C4D800B5FEB67FB67FB67FB67FB67FB67FB67F2E
:10C4E800E6FCF71DD4F6D454D453CC73D454D454A6
:10C4F800D494EDF9E5FAEDFAEE1AF65BB473B47379
:10C50800E5B8DD57DD57DD78EDFAF69C9C32DE9B09
:10C51800FFFFFFDFFFDFFFDEFFDEFFDEFFBEFF9E68
:10C52800E6FBCE39ACF49C317B2D626B51E951A806
:10C53800518859C98B6FBD16D619F75DFFFFFFDF0C
:10C54800FFDFFFDFFFDFFFDFFFDFFFDFFFDEFFDEF5
:10C55800FFBEFF9EC59793D17B0D72AC72AC72CDB6
:10C56800834FCE19FFDFFFFFAC32C4B5EF1C843414
:10C57800B61EB65FB67FB69FB67FB67FB67FB67F6C
:10C58800C5D8FFBFE5D9D454D453D453D453B32F0B
:10C59800AB0FAB90ABB1ABB1A3B1BCB5B453C4D581
:10C5A800EDD9DD57E557DD78EDFAF69C9411DE7A82
:10C5B800FFFFFFBEFFDEFFDFFFDFFFBEFFBEFFBEE8
:10C5C800BD76834E624A6A4B6A6B6A6B6A4A6A6ACC
:10C5D8006A2A62297ACC7B0E836FDE7AFFFFFFDF3F
:10C5E800FFDFFFDFFFDFFFDFFFDFFFDFFFDEFFDE55
:10C5F800FFDEFFBEBD96838F7AED72AC7AED832E97
:10C60800A473EF3DFFDFFFDFA3D1D557DE9B841472
:10C61800BE3EB67FB67FB67FB67FB67FB67FB67FA3
:10C62800ACD4FFBFEE9BD494D454CC54D474B32F61
:10C63800DCF5EE3AEE1AE5B8C4F5BCD5A3D1C4F5DD
:10C64800EE1ADD57E558E578E5B9F6BC9C52DEBB35
:10C65800FFFFFFBEFFDFFFDFFFDFFFBEFFBEFFDF25
:10C66800DE5A9BD1934F82EC724A6A4A62096A6A1F
:10C67800728A93CFB4F4D639EEFCFFBFFFDFFFDF39
:10C68800FFBEFFBEFFDFFFDFFFDFFFDFFFDFFFDFF4
:10C69800FFBEFFDEFFBEEF1CDE7AD5F9C597B556A3
:10C6A800B556EF5DFFFFFFBEABF1EE1ADE5A8414FC
:10C6B800BE3FB65FB67FB67FB67FB67FB67FB67F22
:10C6C8009473F75DFF5DD516D474CC74D494CC13F1
:10C6D800C453FF1DFF5EFF7EFF9FFF7FDDB8B4736D
:10C6E800F65BDD78E558E578E5B9F6DDA4B3E6DB79
:10C6F800FFFFFFBEFFDFFFDFFFDFFFBFFFBEFFDF84
:10C70800EF1C94116A4A59C87ACCAC93C576D639CD
:10C71800EEDBFF7EFFDFFFFFFFFFFFDFFFDFFFDF57
:10C72800FFBEFFBFFFDFFFDFFFDFFFDFFFDFFFDF52
:10C73800FFBEFFDFFFBEFFFFFFFFFFFFFFFFFFFFA3
:10C74800FFDFFFDFFFDFF79EAC32F65BCDF99476B3
:10C75800BE5FB65FB67FB67FB65FB65FB65FB67FC1
:10C768009CB5D69BFFDFDDB8CC74D474D474D49454
:10C77800BBD1DD36FF3EFF3DFF3DFF5EE63AB49498
:10C78800FEBCE5D9E578E558E5B9FEFDA4B3DEBB06
:10C79800FFFFFFBEFFDFFFDFFFBFFFBEFFBEFFBE25
:10C7A800F73DDE7ADE39E67BFF5EFF9FFF9FFF9E47
:10C7B800FF7EFF7EFF7EFF9EFFBEFFBEFFBEFFDF48
:10C7C800FFDFFFDFFFDFFFDFFFDFFFDFFFDFFFDF71
:10C7D800FFBEFFDEFFBEFFBEFFBEFFBEFF9EFF7EA9
:10C7E800FF9EFF9EFFDFEF3DBCD4FEBCBD989D19A8
:10C7F800B67FAE5FB67FB67FB65FB65FB65FAE3E5A
:10C80800B598B5B8FFFFE67ACC94DC54CC94CC95B7
:10C81800DCD6BC12DDD8FF1DFF1DFF3EF6BCB4D42C
:10C82800F6BCEE3AE578DD78DDB8FF1DA4D4DEBAB3
:10C83800FFFFFFDFFFDFFFDFFFBEFFBEFFBEFFBE64
:10C84800FF9EFF9FFF9FFF9FFF5EFF5DFF5DFF5DF8
:10C85800FF5DFF5EFF7EFF9EFFBEFFBEFFBEFFDFE8
:10C86800FFDEFFDFFFDFFFDFFFDFFFDFFFDFFFDFD1
:10C87800FFBEFFDEFFBEFFBEFFBEFF9EFF9EFF7E28
:10C88800FF9EFF9EFF9EF73DBC94F69BC5FAA57BD5
:10C89800B67FB67FB67FB67FB65FB65FB65FAE1EB1
:10C8A800B5BA9C94FFDFF71DCCD5D474D494D49535
:10C8B800DCB5D495ABB1EE5AF69BF6DCFF3EA493FB
:10C8C800EE9BF65BE578E578DD78F6BCAD15CE39FC
:10C8D800FFFFFFBEFFDFFFDFFFBEFFBEFF9EFF9E25
:10C8E800FF7EFF5EFF5EFF5EFF5DFF5DFF3DFF3D7C
:10C8F800FF3DFF7EFF7EFF9EFF9EFFBEFFBEFFDF68
:10C90800FFDFFFDFFFDFFFFFFFFFFFDFFFDFFFDFEF
:10C91800FFBEFFDFFFBFFFBEFFBEFF9EFF7EFF7EA5
:10C92800FF9EF75DFF9EFF9ECD7793B0B537B61D8E
:10C93800B67FB65FB67FB67FB65FB65FB67FB65FC7
:10C94800B65E8435D67BFFBFDD98CC74D494D4B55D
:10C95800D4B5DCF6C412BBF2EE1ABCD4F6DCB4F5DE
:10C96800DE3AF69CE598E578DD78EE7BACB4C5D781
:10C97800FFFFFFBEFFBFFFBFFFBEFFBEFF9EFF9EC4
:10C98800FF7EFF7EFF5EFF5EFF5DFF3DFF3DFF3DDB
:10C99800FF5DFF5EFF7EFF7EFF9EFFBEFFBEFFDEE8
:10C9A800FFDFFFFFFFFFFFFFFFFFFFFFFFFFFFDFCF
:10C9B800FFDFFFDFFFDFFFBEFFBEFF9EFF9EDE9AA9
:10C9C800EEFCCDF8EEDCFF9EFFBFD5F86B0EA59B05
:10C9D800B67FB65FB67FB67FB65FB67FAE3E849849
:10C9E800B69F9D1AB558FFFFF6BCD4D5D495DCB5D3
:10C9F800D4F5D4D5E4F6B371C474E619BD15B4B44E
:10CA0800CD77FEFDE5B9E578E598EE3AB4D4BD7684
:10CA1800FFFFFF9EFFBEFFBEFFBEFFBEFF9EFF7E65
:10CA2800FF7DFF5EFF5EFF5DFF3DFF3DFF3DFF3D7C
:10CA3800FF5EFF5EFF7EFF7EFF9EFFBEFFBEFFDE46
:10CA4800FFDFFFFFFFDFFFDFFFDFFFFFFFFFFFFF6E
:10CA5800FFFFFFDFFFDFFFBEFFBEFF9EFF9EEF1C55
:10CA6800EEDBF71CF71DFFBFFFBFFFFF8C537C36C3
:10CA7800BE9FB67FB67FB67FAE5FB69F8CF98498AF
:10CA8800AE7FB61EA4F8F77EFF7EDD78D4B5DCD580
:10CA9800D4B5D4D5DCB5D4959B0ECCF5FEDCA43248
:10CAA800BD15FEFDEDD9E578E598EE3ACD77B535BB
:10CAB800FFDFFFBEFFBEFFBEFFBEFFBEFF9EFF7EC5
:10CAC800FF5DFF5DF73DFF3DFF3DF6FCFF1DFF3DB0
:10CAD800FF5DFF5DFF7EFF7EFF7DFF9EFFBEFFBE09
:10CAE800FFDFFFFFFFDFFFFFFFFFFFFFFFFFFFDFAE
:10CAF800FFDFFFDFFFDFFFDFFFBEFFBEFF9EFF9E02
:10CB0800FF9EFFBFFFDFFFDFFFDFFFFFAD3684962D
:10CB1800BE9FB65FB67FB67FB65FB67F7C98A55BD3
:10CB2800B65EB69F9D3ACE7BFFDFEE7BD516DCD591
:10CB3800DCB5DCD5D4B5D4B5CC7492CDDD97EE7B1D
:10CB4800AC73FEBCEDFAE558E578EE1AD5F9B4F504
:10CB5800FFDFFFBEFFBEFFBEFFBEFFBEFF9EFF9E04
:10CB6800F71CDE59EEDBD618FF5EDE5AEEBBFF5E21
:10CB7800FF3DFF5EFF7EFF7EFF7EFF9EFFBEFFDE66
:10CB8800FFFFFFFFFFDFFF9EF75DF75DFFBEFFDFE3
:10CB9800FFDFFFDFFFDFFFDFFFBFFFDFFFBFFFBEFE
:10CBA800FFBFFFBFFFDFFFDFFFDFFFFF94949D5A4A
:10CBB800BE9FB67FB67FB67FB67FB67FA59C7C1634
:10CBC800B65EAE7FAE1EAD78F79EFF3EDD98DCF612
:10CBD800DCD6DCD6DCD5D4B4D4B5CC5392CDC4F5F0
:10CBE800A3F1E5D9EDFAE557E578E5F9DDF9ACD437
:10CBF800FFBFFFBEFFBEFFBEFFBEFFBEFF9EFF7EA4
:10CC0800FF5DEEFCFF5DEEDCFF5DFF5EFF3DFF5D5F
:10CC1800FF5DFF5EFF7EFF7DFF7EFF9EFFBEF71C70
:10CC2800CDB7CD76D597D5B8CD97D639F79EFFDF56
:10CC3800FFDFFFDFFFDFFFDFFFDFFFDFFFDFFFDFFC
:10CC4800FFFFFFDFFFDFFFDFFFFFEF3D8412B61DB1
:10CC5800B67FB67FB67FB67FB67FB65FB65FB63EA5
:10CC6800B65FAE5FB67FA57ACE3BFFBFE63ADD166C
:10CC7800DCF6DCF6DCD5D4B5D494DC95C4128AACE9
:10CC88008AEDCCD5EDD9DD57E578E5D9DDB8ACD45A
:10CC9800FF9FFFBEFFBEFFBEFFBEFFBEFF9EFF9E03
:10CCA800FF7EFF9EFF5DFF7EFF5EFF5EFF5EFF5E15
:10CCB800FF5EFF7EFF7EFF7EFF9EF79EFFDECD9725
:10CCC800CCF5E5D8F5F9EE1AF6DCFFBFFFDFFFDF9C
:10CCD800FFFFFFFFFFFFFFFFFFFFFFFFFFFFFFFF5C
:10CCE800FFFFFFFFFFDFFFDFFFFFB59894D6BE7F92
:10CCF800B67FB67FB67FB67FB67FB67FB65FAE5FCC
:10CD0800AE5FAE5FAE5FB63E9CF7EF3EF73DD577C0
:10CD1800DD16DCF6DCF6D4B5D494D474DC95CC748A
:10CD280092EEB412EDD9DD37E557E5B8E5FAACB4C3
:10CD3800F75EFF9EFF9EFFBEFFBEFFBEFFBEFFBEAB
:10CD4800FF9EFF7EFF7EFF5DFF7EFF7EFF5EFF5E34
:10CD5800FF7EFF7EFF7EFF9EFFBEFFBEFFFFD5D892
:10CD6800E598FE5BCD16CD97F77EFFDFFFFFFFFF4F
:10CD7800FFFFFFFFFFFFFFFFFFFFFFFFFFFFFFFFBB
:10CD8800FFFFFFDFFFDFFFDFCE39B598AD9ABE7F2B
:10CD9800AE5FB67FB67FB67FB67FB67FB67FAE7F13
:10CDA800B67FB65FB65FB65FAD9BB598FF9EEE7B6C
:10CDB800D516DCF6DCF6D4D5D4B5D495D474DCB568
:10CDC800C494A390E598DD37DD37E578EE1AA453CF
:10CDD800EEFCFFBEFF9EFFBEFFBEFFBEFFBEFFBE56
:10CDE800FF9EFF9DFF9EFF7EFF7EFF5EFF7EFF7E14
:10CDF800FF9EFF9EFF9EFFBEFFBEFFDFFFFFE69A7E
:10CE0800BCB4BCD4D5F8FF9EFFFFFFFFFFFFFFFFB8
:10CE1800FFFFFFFFFFFFFFFFFFFFFFFFFFFFFFFF1A
:10CE2800FFDFFFFFFFDFBDD7D65ABDD9A59BB67F71
:10CE3800B65FB65FB67FB67FB67FB67FB67FB67F82
:10CE4800B67FB65FB65FAE5FB67F9D18C619FF7E28
:10CE5800D577D4F6DCF6DCD6DCB5D495D495D49465
:10CE6800D4F6ABB1CCD5E558DD16DD57EE1AA432B1
:10CE7800D639FFBFFF9EFFBEFFBEFFBEFFBEFFBE8F
:10CE8800FFBEFFBEFFBEFF9EFF7EFF7EFF7EFF9EB2
:10CE9800FF9EFF9EFFDFFFDFFFDFFFFFFFFFFFBEFD
:10CEA800D659EF3CFFFFFFDFFFDFFFFFFFFFFFFF6C
:10CEB800FFFFFFFFFFFFFFFFFFFFFFFFFFFFFFFF7A
:10CEC800FFFFF77ED639DE7BFF7E9CD6AE1DB67F90
:10CED800B65FB65FB67FB67FB67FB67FB67FB67FE2
:10CEE800AE5FB65FB65FB65FAE5FB61E9CD6DE9B22
:10CEF800F69CD516D4F6DCD5D4D5D495D495D4954E
:10CF0800DCD6C474ABD1E558DD16DD37EE1AB4D4DF
:10CF1800C597FFBFF77DFF9EFFBEFFBEFFBEFFDFC9
:10CF2800FFBEFFBEFFBEFFBEFFBEFF9EFF9EFFBE51
:10CF3800FFBEFFDFFFDFFFFFFFDFFFFFFFFFFFFF9A
:10CF4800FFFFFFFFFFFFFFFFFFFFFFFFFFFFFFFFE9
:10CF5800FFFFFFFFFFFFF7DFF7FFFFFFFFFFF75EB2
:10CF6800DE9BD5F8DE5AFF9FD67B9496BE7FB65FD0
:10CF7800B67FB67FB67FB67FB67FB67FB67FB67F01
:10CF8800B67FB67FB67FAE7FAE5FB67FADDCA51746
:10CF9800F71EE5D9CCD5DCF6D4D5D4B5D495DC9537
:10CFA800DCB5D4D59B2FD4D5DD37DD16E5B9BCF576
:10CFB800BD15FFBFFF9FFFBEFF9EFFBEFFBEFFDF89
:10CFC800FFDFFFDFFFBFFFBEFFBFFFBEFFBEFFBE2D
:10CFD800FFDFFFDFFFFFFFFFFFDFFFFFFFFFFFFFB9
:10CFE800FFFFFFFFFFFFFFFFFFFFFFFFFFFFFFFF49
:10CFF800FFFFFFFFFFFFFFFFFFDFEEBCB4F5B4B498
:10D00800CD56EE5ADE39FF5EC61AA579B67FAE5FF9
:10D01800B67FB65FB67FB67FB67FB67FB67FB67F80
:10D02800B67FB67FB67FB67FB67FB65EB67EB5DC16
:10D03800C5FAFEFEDD78D4D5DCF6D4B5D4B5DC95DA
:10D04800D495DD169B70B3F2E557DD16DD78CD1665
:10D05800A412CDD8E69BFF9EFFDFFFDFFFDFFFBEF8
:10D06800FFBEFFDFFFBEFFDEFFDEFFDFFFDFFFDF0C
:10D07800FFDFFFFFFFFFFFFFFFFFFFFFFFFFFFFFD8
:10D08800FFFFFFFFFFFFFFFFFFFFFFDFFFFFFFFFC8
:10D09800FFFFFFFFF79EDE19AC93B473D5B8EE5BC4
:10D0A800B473DDB8E63AFF5EAD58B5FDB67FB67F1E
:10D0B800B67FB67FB67FB67FB67FB67FB67FB67FC0
:10D0C800B67FB67FB67FB67FB67FB65FAE5FB65E19
:10D0D800B579BD16EE9CDD57D4F6DCD6DCB5DCB5EB
:10D0E800DC95DD16BC53930EDD17DD16DD57D537FD
:10D0F8009370D598CD57B4D5C576EEDCFFBFFFFF4A
:10D10800FFFFFFBEFFBEFFDEFFDEFFDEFFDEFFDF4D
:10D11800FFDFFFFFFFDFFFFFFFFFFFFFFFFFFFFF57
:10D12800FFDFFFFFFFFFFFFFFFFFFFFFFFDFEF3D19
:10D13800CDD8C556BD56CD56DE19F71CFF3DDDF9D5
:10D148009BB1D578EE9BEEBC9496B65EB67FB67F63
:10D15800B67FB67FB67FB67FB67FB67FB67FB67F1F
:10D16800B67FB67FB67FB67FB67FB67FB65FBE3E68
:10D178009C55C5B8F6FCEDFAD516DCF6D4F6D4B550
:10D18800DC95D4D5DD379B4FC453E557DD37E578BB
:10D19800932FC4D5FEBDF65BBCD4A412CDD8C5D898
:10D1A800DE7AFFBEFFDEFFDEFFDEFFDEFFDEFFDF33
:10D1B800FFFFFFFFFFFFFFFFFFFFFFFFFFFFFFFF77
:10D1C800FFFFFFDFFF7EF73DDE7ACDD8C557BCF500
:10D1D800BD15DE19F71DFF5EEEBCDE19E5D9DD5879
:10D1E8009B90D537FF3EBD989CD8BE9FAE5EB65F7C
:10D1F800B67FB67FB67FB67FB67FB67FB67FB67F7F
:10D20800B67FB67FB67FB67FB67FB67FBE7FAD3AB4
:10D21800B517FFFFF71DDDB8DD37DD17DCF6DCD508
:10D22800DCB5D4D5E537CC94AB70DD37DD37E59880
:10D23800A390ABD1E5FAFEBCC556D5D8F75EAD379D
:10D2480083B0F7BFFFDFFFDFFFDFFFDEFFFFFFFF7A
:10D25800FFFFF7BED67ADE9BDEDCDEDCDEDCD67BCB
:10D26800BDB7A4D4ACB5ACB4C556D5D9E63AF69C8E
:10D27800F69CEE7BE61ADDD9DD78E578E558D5161B
:10D28800932FCD16F73E9CB6AD9CB67FAE5FAE5FD2
:10D29800B67FB67FB67FB67FB67FB67FB67FB67FDE
:10D2A800B67FB67FB67FB65FB65EB65EBE7FA4D8E1
:10D2B800D63AFFFFEEDCEDFAED98E537DD16DCF641
:10D2C800DCF6DCF6DCF6E557B3B1C453E578E5786F
:10D2D800BC33930EEE1ACD56ACD4F79FBE1A8433E6
:10D2E80083F1FFBFFFFFFFDFFFDFFFDFFFFFFFFF70
:10D2F800FFFFE6FCB537BDBAB59AAD9AADBAADBB7E
:10D30800AD9AB5DBB5BB8C34F73EFF3DEE5BE5D996
:10D31800DD78DD78E578E578E578E557DD57DD16E1
:10D32800930FD577E6DC8C76B63FB65FAE5FAE7FFF
:10D33800AE7FAE7FAE7FB67FB67FB67FB67FB67F55
:10D34800B65FB65EBE7EBEBEC6BDBEBDC6BEA4F7D7
:10D35800BD77FFFFF73DE61AE5B9E578DD57DD371C
:10D36800DCF6D4D6DD16E558D516930ED516ED980D
:10D37800CCD58ACDCD77ACD4DEBCC67D7C14C61A9C
:10D38800D6BBBDD7E6FCFFFFFFDFFFFFFFFFFFDFD8
:10D39800FFFFCE599CF7C69FBE5FB65FB67FB65FEC
:10D3A800B67FB65FB65F73F4CE3AF71DDDB9DD78A8
:10D3B800E558E558E558E578E578DD57DD77DD3758
:10D3C8009B2FEE7AD67A9D3AB65FAE5FAE5FAE7FA0
:10D3D800AE5FAE5FAE5FAE5FAE5FB67FB67FB67F65
:10D3E800BE5ECEDEEFDFF7FFFFFFF7FFF7BFE71DFB
:10D3F800A4D4C5B8FF7EF71DDDD9DD98DD58DD372B
:10D40800DD16D4F6DD17DD57EE1AABF1934FE5D9EB
:10D41800DD77934F9413B5DBC67D7413AD77FFFFAB
:10D42800FFDFEF5DA514C618FFFFFFBEFFDFFFFF9C
:10D43800FFFFD69A9495ADFDB67FAE3EB65FAE3E81
:10D44800AE3EAE3EB67F9D5B8413E69CE5FAE5787A
:10D45800E578E578E598E598DD97DD77EE1AD51655
:10D46800ABF1F73DBE3BB61DB65FAE5FAE5EAE5FDD
:10D47800B67FB67FB67FAE7FB67FB65FB65FB65E65
:10D48800BE5CEF9EFFFFFFFFFFFFFFFFFFFFFFFFF9
:10D49800F75EB4F5AC53D5D8EE9CE5F9DD78DD3709
:10D4A800DD37DD37DD58DD98F69CE63A82EDC4F6C7
:10D4B800F69C9BF19434C69E8475AD77FFFFFFDF21
:10D4C800F7BFFFDFFFBFBDB7BDB7FFFFFFDFF79EA9
:10D4D800F7BEEF3DDEBBB5DAAE1DB67FAE5FA65E2A
:10D4E800AE5EAE3EAE3EB67F9D3A8C34D5B9EDF910
:10D4F800E597E598E5B9E5D8DDB8EE1AEE3ACD78C6
:10D50800B537CE9CB63DB65FAE5FAE5FAE5FB67F59
:10D51800B67FB67FB67FAE7EB67FB65EBE7DC6BD31
:10D52800E73DF7DEFFFFFFFFFFFFFFFFFFFFFFDF26
:10D53800F79EEF1DD5F9AC53B4B4DDB8DD57E55807
:10D54800E558E578E598E5FAF6FDF71EACB48B4F9B
:10D55800F69CCD7783B294D7AD98F77EEF5EEF7ED9
:10D56800F7BEFFDFFFFFFFFFCE59C5D7D67AD67AC1
:10D57800C618BD76E6BBE6FC8434ADFDBE7FB65F5B
:10D58800B65FB65FB65FAE3EBE7FAD5B9413C53681
:10D59800DDD8DDB8E5B9E5B9EE1ADDB8D5D9C63BB1
:10D5A8008CB7ADDCAE5EAE5FAE5FB65FB65FB67F22
:10D5B800B67FB65FB65EB67EB67EC69DEF9FF7FFB6
:10D5C800FFFFFFFFFFFFFFFFFFFFFFFFFFFFFFFF63
:10D5D800FFFFFFDFFFFFFFBFCD97BCB4DDB8E598C5
:10D5E800E578E598E598EE5BFF3EBD5794337B0EF2
:10D5F800BD16FF1D8C12AD57E71DCE39CE39CE5959
:10D60800D69AC639CE5AE6FCFFFFD659B596EF1D15
:10D61800EF1CBD76DE9AFFFFACF684149CB79C978E
:10D628009CD8A539AD9BBE5EAE1EC67FA4F89BF202
:10D63800DD98DD98E5D9EDFAE5D9B4D5CE3CAD9CB9
:10D648009D3AB65FAE5FB65FB63FB65FB65FAE7F78
:10D65800B65EBE7DBE9DB65DCEDDF7DFFFFFFFFF88
:10D66800FFFFFFFFFFFFFFFFFFFFFFFFFFFFFFFFC2
:10D67800FFFFFFFFFFFFD679B515F71DFF3EE61A3E
:10D68800DD98E5B9E5B9E63AB4F57B719496B559F4
:10D698008391EE9CB5369CB4D69BE6FCE73DEF5EE5
:10D6A800DEFCCE3ABDB8BDB7C619F77EC618C5D8D8
:10D6B800EF3DB515EF1CD69BA494BD58DE3BCDDAE3
:10D6C800CDB9C5799C758C77BE3EADBC9C96EE5B9A
:10D6D800E5F9E5D9E5F9EDFAF67BCD78A4D7B5DD1E
:10D6E800A5DEB65FAE5FB65FB65FB65FB65FAE5E2D
:10D6F800C6DEEFBFF7DFEF9EEF9EFFFFFFFFFFFFE6
:10D70800FFFFFFFFFFFFFFFFFFFFFFFFFFFFFFFF21
:10D71800FFFFFFFFE73C9471E6DCFFBFEEBCE619B4
:10D72800DDB8E5B9EDD9E63AB5369474DEBED6BDB6
:10D73800B5579412D65AA493F77EFFDFF7BEF79E2B
:10D74800E6FCA4B4A4B4A494A4B4BDB8E6FDCE1970
:10D75800E6FCAD15F73DC5D8C598DE1ADE19DE5BC7
:10D76800E67BDE1ACDBA8C569D198C35CDD9EE3AAA
:10D77800DD98DD98E5B9E5F9EE5BF6DDB517A57B33
:10D78800B65FAE5EAE5FAE3EAE3EB65EBE7FBE5D1F
:10D79800E77FFFFFFFFFFFFFFFFFFFFFFFFFFFFF29
:10D7A800FFFFFFFFFFFFFFFFFFFFFFFFFFFFFFFF81
:10D7B800FFFFFFFFBDD7CE38FFFFF71DE63AE5B8FC
:10D7C800E5B8E5B9E5D9EE9BFFBFA515B5B8F79F54
:10D7D800BDB97B90BD57BD77DE9BFFFFFFFFFFFF05
:10D7E800FFBECDF9B516B4F77B318BF4A4D6C5B915
:10D7F800BD77AD16BD97A4B4CDB9F6FDEEBCF6FD68
:10D80800F6DCF69BE67BB5597392A4B6EE7CE5B8D8
:10D81800E578E578E598E5D9EE5BF6FCDE7BA518BA
:10D82800BE5FB63FBE7ECEDECEFED75EE79FE79FE9
:10D83800EFDFF7DFF7BFEF9FE79EE79EE79EE79EE4
:10D84800EFBEEF9EEF9EEF9EE77EE77EE77EE77EE8
:10D85800E75EE75EAD97EF5EFF9FE69BE61AE5B8E9
:10D86800E5B8E5D8E63AEEFDFFFFE6FC7BF2BE3C04
:10D8780073B2C5D8CDF9C597DE7AFFFFFFDFFFFF8A
:10D88800FFDEF77EC5D8A4D6B4F8941583B39C966A
:10D8980094549454ACF6ACD5A454F6BCEE7BE65A3A
:10D8A800DE19E65AF6DCBD587351E6DDEEBCDD98AC
:10D8B800E578E578E578E5D9EE5AFF5DEEFC9CB7AA
:10D8C800B63FAE3FB65EBE9EBEBEBE9DBE7DBE7DB1
:10D8D800BE5DBE5EB67EB65EB65EB65EB65EAE5E79
:10D8E800BE7DBE7DB67DB65DB65DB65DB65DB65D28
:10D8F800B65DBE7E9518C63AFFFFEEBBE619E5D9C0
:10D90800E5B8E5F9EE7BFF7EFFFFAD7794B8AD9CF7
:10D918007BF3E71CFFFFE6BBCE19F77EFFDFFFDFD7
:10D92800FFFFFFDFFFBFC5F9C599CDDBAD18A49692
:10D93800A4B7B538BD58A494A453F6BCFEDCEE9B3E
:10D94800EE7BF69CF6BCACF683F4C5D9F6DCDD9824
:10D95800E578E558E578E5B8EE9BFF7EA4F6A55B8B
:10D96800B65FAE5FAE5FAE5FAE5EAE5EAE5EAE5E43
:10D97800AE5EAE5EB65FAE5FB67FB65FAE5FB65FF9
:10D98800B67FB67FB67FB67FB67FB67FB67FB67FE7
:10D99800AE7FB67FB61D7C34BDF9FF7FEE9BDDD927
:10D9A800E5B9E5F9F6BCE6BC9CF68CB7C65F9D19EF
:10D9B800A4F6F75EFFDFFFFFDE7AC5D8FFBFFFDF03
:10D9C800FFFFFFDFFFFFFFDFE6DBDEBCE6DDCDFAB2
:10D9D800C5BBBD79B537F75ECDB8EE9BF6BCF67A18
:10D9E800EE5AEE5BCDD8BD7794568413CDD9EE1A96
:10D9F800E598DD99E5B9EE1ADE3AACF79D39BE5FD8
:10DA0800AE5EAE5EAE5FB65FB65EB65EB65EB65E84
:10DA1800AE5EAE5EAE5FAE5FB67FAE5FAE5FAE7F50
:10DA2800B67FB67FB67FB69FB67FB67FB67FB67F26
:10DA3800B67FB65FB65FADFD84349C94D5D9DDD989
:10DA4800DD99E5D9BCD57B70A55ABE5FB63E9D1859
:10DA5800B598EF3DFFDFFFBFFFBFD65AE6DCFFFFFB
:10DA6800FFFFFFFFFFFFFFDFFFFFFFFFFFBFE6DD59
:10DA78009C5594149413EF1DD619F6BCFEFCF69B26
:10DA8800F65AF65AE6DCFFFF9475AD59ACF7D5B9EE
:10DA9800E5FAE5DAF63CDDD99C34AD7BB65EAE3E00
:10DAA800AE5FAE3FAE5FB65FAE5FAE5FAE5FAE5E1F
:10DAB800AE5FAE5FAE5EAE5FAE5FAE5FAE5FB67FCF
:10DAC800B67FB67FB67FB67FB67FB67FB67FB67FA6
:10DAD800B67FB67FAE5FBE7FAD79BD98DDD9E5B9BB
:10DAE800DD99E5B9DDD9C57894B7B61EB61E9D385F
:10DAF800D67AEF7DFFFFFFDFFF9EE6FDD65BF77E60
:10DB0800FFFFFFFFFFFFFFDFFFDFFFDFFF9EC5987F
:10DB18007B3193F68BF4AD16A4B3D5B8F6DCE619D1
:10DB2800EDF9D556E6BBFFFFBDB99CB7BDBC93F375
:10DB3800DDFAE5F9EE1BEE3BB517A57BAE5EAE3E12
:10DB4800AE3FAE3FAE5FAE5FAE5FAE5FAE5FAE5FA5
:10DB5800AE5FB67FAE7FAE5FAE5FAE5FAE5FB67FE5
:10DB6800B67FB67FB67FB67FB67FB67FB67FB67F05
:10DB7800B67FAE5FB69F9D9CB598FF1EE5D9E59927
:10DB8800DD98DDB8EE39FF7EA5389D5BADFEA53882
:10DB9800DEBBEF7EFFFFFFDFFFBFEEFDE6BCE6FC6E
:10DBA800FFDFF7BFFFDFFFFFFFFFFFDFEF3DB557E9
:10DBB8009C558C15B538A4B48BF1C597FF1DFEBBD9
:10DBC800F69BDDD8EF1DFFFFCE3AA4D79496BD583B
:10DBD800E61ADD98DD78E5DAE63C9CB7A5BCAE5FD1
:10DBE800AE5EAE5FAE5FAE5FAE5FB65FAE5FAE5FBE
:10DBF800B67FB67FB67FAE5FAE5FAE5FAE5FB67F15
:10DC0800B67FB67FB67FB67FB67FB67FB67FB67F64
:10DC1800B67FAE5FB69F8D19C61AFF1EDDB9E5B98E
:10DC2800E5B8E5F9EE7BFF3E9495A59CADBDAD99B1
:10DC3800DEDBEF5DFFFFFFFFFF9FE6BCEEFDE6DCEE
:10DC4800EF3DEF5DEF5EE6FCCE59C618BD97A4D553
:10DC5800B5378C12ACF6CDF9DE9BC577DDF9E63920
:10DC6800FEBCEE5AEEFCF79EC5D99C9794B7F71EFA
:10DC7800DDD9E578E557DD78EE1BCDBB8498AE5F3E
:10DC8800AE3FAE3FAE5FAE5FAE5FAE5FAE5FAE5F64
:10DC9800AE5FAE5FAE5FAE5FAE5FAE5FAE5FAE5F14
:10DCA800B67FB67FB67FB67FB67FB67FB67FB67FC4
:10DCB800AE5FB67FBE9FADFC8C74DE1AEE3BE5FA14
:10DCC800E5D9EE3AFF1EB4F66B50ADBC9D3BAD589E
:10DCD800CE59E71CFFFFEF3DE69CD63BE6BCF75D5F
:10DCE800FFBFF77EDEBBCE59DEBBEF3DFF9FDEBB3D
:10DCF800E6DCE6FCBD97C5D8FFBFE6DCCDD8C59706
:10DD0800C536C516C597E67BB55994989CB7FF7F6D
:10DD1800E63BDD98DD77DD78EDFAAC9694D9B69FD1
:10DD2800AE3FAE3FAE5FAE5FAE5FAE5FAE5FAE5FC3
:10DD3800AE5FAE5FAE5FAE5FAE5FAE5FAE5FAE5F73
:10DD4800B67FB67FB67FB67FB67FB67FB67FB67F23
:10DD5800B65FADDD8CD994B97BD473509BF2D5579F
:10DD6800EE3BEE5BACB472EE83B373938416CE5D78
:10DD7800C619CE5AF7BFD63BC599BD78EF3EFFFF0F
:10DD8800FFDFFFBFFFDFFFFFFFFFFFFFFFDFFFDF5B
:10DD9800E6FCF79ED67AB577EF1DFFFFFFFFFFFF82
:10DDA800E67BB4B4FF3ED67B9CB6B5BC7372A49434
:10DDB800DDDAE5BAE599E5B9B4948391A53AA59C6D
:10DDC800AE3EAE5FAE5FAE5FAE5FAE5FAE5FAE5F04
:10DDD800AE5FAE5FAE5FAE5FAE5FAE5FAE5FB65FCB
:10DDE800B67FB67FB67FB67FB67FB67FB67FB67F83
:10DDF800BE7F8CD97BF68C379478945593D2AC54EB
:10DE0800C537BCB67B0FB4F7ACD894567BD5A539CB
:10DE180094D7A557FFDFDE9BCE1AEF5EFFFFFFFF0B
:10DE2800FFFFFFFFFFFFFFFFFFFFFFFFFFDFFFDF3A
:10DE3800F77EFFBFCE3AB516DE9BF77EE6FBD67AB5
:10DE4800D619E69BEEFD949484147B9573536B0F5F
:10DE58008390B4B6D599B4B57B2F7B727BB47BF62F
:10DE6800AE1EAE5FAE3FAE5FAE5FAE5FAE5FAE5FA3
:10DE7800AE5FAE5FAE5FAE5FAE5FAE5FAE5EB65E2C
:10DE8800B69FB69FB69FB67FB67FB67FB67FB65FA2
:10DE9800BE7FA55C949994589458A497BD17A43450
:10DEA80093D2A434A475A4B79C988C379497C61CB5
:10DEB800A4F8A4F7FFDFFFDFFFFFFFFFFFFFFFFF6F
:10DEC800FFFFFFFFFFFFFFFFFFFFFFFFFFFFFFFF5A
:10DED800FFDFF75EB558A495D63BBD98C578CDB998
:10DEE800EEDCFFBFB5579D187BF57B958C17A4B763
:10DEF800A4B6A47593F3A4568C158BF58C168C5781
:10DF0800B65EAE5FAE5FAE5FAE5FAE5FAE5FAE5F9A
:10DF1800AE5FAE5FAE5FAE5FAE5FAE5FAE5FBE7D63
:10DF2800B67FB67FB67FB67FB67FB67FB67FB65F61
:10DF3800BE7FA57C8C788C178C17A476B495C4F614
:10DF4800CD17A4137B2F9434945783F68C36A4B73B
:10DF5800ACD7B558FFDFFFFFFFFFFFFFFFFFFFFF55
:10DF6800FFFFFFFFFFFFFFFFFFFFFFFFFFDFFFBF19
:10DF7800D67BCE1BBD59ACB6DE7CB537D61BD61CBE
:10DF8800D63BBDB99518BE5E73947B749437A4B71D
:10DF9800ACF79C348BB3A4779C57941794379CFAAE
:10DFA800B65FAE3FAE5FAE5FAE5FB67FB67FB67FA1
:10DFB800B67FB65FAE5FAE5FAE5FB65FB65ED73EAA
:10DFC800B67FB67FB67FB67FB67FB65FB67FB65FE1
:10DFD800B67FA59C7C177C1784169C569BB2D57877
:10DFE800E5B9CCF67A8D8BB38C16841794788C159A
:10DFF8008BD483D2EF5DFFFFFFDFFFDFFFFFFFDF83
:10E00800FFBFF79EF77EEF5EEF3EEF1EEEFEEEFEE1
:10E01800ACF6B4F8A475B517DE7CA518AD9C9D3A8E
:10E028008C9794D8B63EB65E73D483B49457A455EF
:10E0380093F2BD17D599C537A4968C1683F6ADDD36
:10E04800B65FAE3FAE5FAE5FAE5FB67FB67FB67F00
:10E05800B67FB65FAE5FAE5FAE7FAE3ECEFEDF7E12
:10E06800B67FB69FB69FB69FB69FB67FB67FB67F80
:10E07800B67FAE1E8478951AB61EACF8B475E5D98D
:10E08800DD78E5B9A3B1ACB6BDFDB61EA5BD8C372C
:10E0980094167B51BD78FF7FEEFDEF3DEF1DE6FD49
:10E0A800DE9CC5D9B557BD79BD99C59ABD79B53737
:10E0B800BD78E69DD61BEEFDEF1EBE1CB65FB67F93
:10E0C800B67FB67FAE3EB67F84366B11739383718D
:10E0D800BCF6EE1AEE1ABCD59C968C578C78B63ED8
:10E0E800AE3FAE5FAE5FAE5FAE5FAE5FAE5FAE5FE0
:10E0F800AE5FAE5FAE3FAE5FAE7FAE5EBE9DBE5D55
:10E1080000000000000000000102030406070809DF
:10E1180000000000010203040203040506070809C1
:10E128000A0B0C0D0E0F101000000000000000007C
:10E138004F0000009E000000ED0000003C010000C0
:10E148008B010000D90100002802000077020000BE
:10E15800C60200001503000063030000B2030000BC
:10E16800000400004F0400009D040000EC040000BF
:10E178003A05000088050000D605000024060000C6
:10E1880072060000C00600000E0700005B070000D2
:10E19800A9070000F60700004308000090080000E7
:10E1A800DD0800002A09000077090000C309000003
:10E1B8000F0A00005C0A0000A80A0000F40A000028
:10E1C8003F0B00008B0B0000D60B0000210C000059
:10E1D8006C0C0000B70C0000010D00004C0D000095
:10E1E800960D0000E00D0000290E0000730E0000DF
:10E1F800BC0E0000050F00004E0F0000960F000037
:10E20800DF0F0000271000006E100000B61000009D
:10E21800FD100000441100008B110000D111000016
:10E22800171200005D120000A2120000E8120000A0
:10E238002D13000071130000B6130000F91300003D
:10E248003D14000081140000C414000006150000ED
:10E25800491500008B150000CC1500000E160000B3
:10E268004F1600008F160000CF1600000F17000091
:10E278004F1700008E170000CD1700000B18000084
:10E288004918000087180000C41800000119000090
:10E298003D19000079190000B5190000F0190000B7
:10E2A8002B1A0000661A00009F1A0000D91A0000F5
:10E2B800121B00004B1B0000831B0000BB1B00004F
:10E2C800F21B0000291C0000601C0000961C0000C6
:10E2D800CB1C0000001D0000351D0000691D00005A
:10E2E8009D1D0000D01D0000031E0000351E00000B
:10E2F800671E0000981E0000C91E0000FA1E0000DC
:10E30800291F0000591F0000881F0000B61F0000C9
:10E31800E41F0000112000003E2000006A200000D9
:10E3280096200000C1200000EC200000162100000B
:10E33800402100006921000092210000BA2100005C
:10E34800E1210000082200002F22000055220000D1
:10E358007A2200009F220000C3220000E72200006A
:10E368000A2300002D2300004F2300007023000023
:10E3780091230000B2230000D1230000F123000004
:10E388000F2400002D2400004B2400006824000006
:10E3980084240000A0240000BB240000D524000031
:10E3A800EF24000009250000222500003A2500007E
:10E3B80052250000692500007F25000095250000F2
:10E3C800AA250000BF250000D3250000E62500008F
:10E3D800F92500000B2600001D2600002E2600004F
:10E3E8003E2600004E2600005D2600006C26000038
:10E3F8007A2600008726000094260000A026000048
:10E40800AB260000B6260000C0260000CA26000081
:10E41800D3260000DB260000E3260000EA260000E1
:10E42800F1260000F7260000FC2600000127000066
:10E4380005270000082700000B2700000D27000013
:10E448000F27000010270000102700000000000020
:10E4580000000000000000000000000000000000B4
:10E4680000000000000000000000000000000000A4
:10E478000000000C000C000C000C000C000C000C40
:10E48800000C000C000C000C0000000C000C00003C
:10E49800000000000000001B001B001B001B001BED
:10E4A8000000000000000000000000000000000064
:10E4B8000000000000000000000080198019801989
:10E4C8008019C07FC07F80190033C07FC07F0033B0
:10E4D8000033003300330000000000000000001E7D
:10E4E800003F807580650074003C001E00078005B1
:10E4F800806580658075003F001E000400040000F0
:10E508000000007000D840D8C0D880D90073000639
:10E51800000C801BC036C066C046C00680030000E1
:10E52800000000000000001E003F003300330033ED
:10E53800001E000CC03CC066806380618063C03EE2
:10E54800801C0000000000000000000C000C000C03
:10E55800000C000C0000000000000000000000009B
:10E568000000000000000000000000008000000122
:10E578000003000600060004000C000C000C000C50
:10E58800000C000C000400060006000300018000D7
:10E59800002000100018000C000C00040006000603
:10E5A80000060006000600060004000C000C001817
:10E5B800001000200000000C002D003F001E00335A
:10E5C8000000000000000000000000000000000043
:10E5D8000000000000000000000000000000000C27
:10E5E800000C000C000CC0FFC0FF000C000C000C5D
:10E5F800000C000000000000000000000000000007
:10E608000000000000000000000000000000000002
:10E61800000000000000000C000C000400040008CA
:10E6280000000000000000000000000000000000E2
:10E638000000001E001E0000000000000000000096
:10E6480000000000000000000000000000000000C2
:10E658000000000000000000000000000000000CA6
:10E66800000C00000000000000000003000300038D
:10E678000006000600060006000C000C000C000C4A
:10E688000018001800180000000000000000001E1C
:10E69800003F0033806180618061806D806D8061A2
:10E6A800806180610033003F001E00000000000010
:10E6B80000000006000E001E0036002600060006B8
:10E6C8000006000600060006000600060006000018
:10E6D800000000000000001E003F80738061806120
:10E6E800800100030006000C001800300060807FE5
:10E6F800807F0000000000000000001C003E006356
:10E7080000630003000E000E000380018001806199
:10E718008073003F001E000000000000000000069B
:10E72800000E000E001E001E0016003600360066A1
:10E73800807F807F000600060006000000000000C1
:10E748000000007F007F006000600060006E007FB6
:10E7580080638001800180618073003F001E00009B
:10E76800000000000000001E003F80338061006050
:10E77800006E007F80738061806180618033003F1C
:10E78800001E0000000000000000807F807F8001E4
:10E798000003000300060006000C000C000C000833
:10E7A8000018001800180000000000000000001EFB
:10E7B800003F8063806180610021001E003F80610E
:10E7C800806180618061003F001E00000000000041
:10E7D8000000001E003F00738061806180618073CB
:10E7E800803F801D800180610073003F001E000093
:10E7F8000000000000000000000000000000000C05
:10E80800000C000000000000000000000000000CE8
:10E81800000C0000000000000000000000000000E4
:10E8280000000000000C000C0000000000000000C8
:10E838000000000C000C00040004000800000000A8
:10E848000000000080008003000E003800600038DF
:10E85800000E80038000000000000000000000009F
:10E8680000000000000000000000807F807F0000A2
:10E878000000807F807F0000000000000000000092
:10E8880000000000000000000000000000400070D0
:10E89800001C000780010007001C007000400000F9
:10E8A80000000000000000000000001F803FC07151
:10E8B800C060C000C00180030007000E000C000CFF
:10E8C8000000000C000C0000000000000000001E0A
:10E8D800003F803180718063806F806D806D806FB4
:10E8E800806700600032003E001C0000000000004D
:10E8F8000000000E000E001B001B001B001B8031D7
:10E908008031803F803F8031C060C060C0600000BF
:10E91800000000000000007C007E006300630063CC
:10E928000063007E007E0063806180618063007FF9
:10E93800007E0000000000000000001E003F803143
:10E9480080610060006000600060006000608061BD
:10E958008031003F001E0000000000000000007C25
:10E96800007F006380638061806180618061806175
:10E97800806100630063007E007C000000000000EE
:10E988000000807F807F0060006000600060007F82
:10E99800007F0060006000600060807F807F000072
:10E9A800000000000000807F807F00600060006041
:10E9B8000060007F007F0060006000600060006011
:10E9C80000600000000000000000001E003F8031D1
:10E9D80080610060006000608063806380618061A6
:10E9E8008031803F001E00000000000000008061B0
:10E9F80080618061806180618061807F807F8061CB
:10EA08008061806180618061806100000000000099
:10EA18000000003F003F000C000C000C000C000C34
:10EA2800000C000C000C000C000C003F003F000024
:10EA38000000000000008001800180018001800149
:10EA48008001800180018001806180618073003FC6
:10EA5800001E0000000000000000C060806100632C
:10EA680000660066006C0078007C00660066006343
:10EA780080618061C060000000000000000000604C
:10EA8800006000600060006000600060006000607E
:10EA9800006000600060807F807F00000000000050
:10EAA8000000C071C071C07BC07AC06AC06AC06E05
:10EAB800C064C060C060C060C060C060C06000006A
:10EAC8000000000000008071807180798079807971
:10EAD800806D806D806D80658067806780678063EA
:10EAE80080630000000000000000001E003F0033AB
:10EAF8008061806180618061806180618061806106
:10EB08000033003F001E0000000000000000007EEF
:10EB1800007F80638061806180618063007F007E08
:10EB280000600060006000600060000000000000FD
:10EB38000000001E003F00338061806180618061B9
:10EB480080618061806580670033803F401E0000DF
:10EB5800000000000000007E007F8063806180610B
:10EB68008063007F007E00660063006380618061CF
:10EB7800C0600000000000000000000E001F80318F
:10EB8800803100300038001E0007800380618061FA
:10EB98008031003F001E0000000000000000C0FFA0
:10EBA800C0FF000C000C000C000C000C000C000C4A
:10EBB800000C000C000C000C000C00000000000011
:10EBC8000000806180618061806180618061806116
:10EBD80080618061806180618073003F001E000059
:10EBE800000000000000C060C060C060803180315B
:10EBF8008031001B001B001B001B000E000E000EC6
:10EC080000040000000000000000C0C0C0C0C0C078
:10EC1800C0C0C0C0C0CC804C804C805E8052805246
:10EC28008073806180610000000000000000C0C0A7
:10EC3800806080610033003B001E000C000C001E49
:10EC4800001F003B80718061C0C000000000000010
:10EC58000000C0C08061806100330033001E001EC8
:10EC6800000C000C000C000C000C000C000C000048
:10EC7800000000000000803F803F80010003000387
:10EC88000006000C000C0018001800300060807F9F
:10EC9800807F000000000000000F000F000C000C37
:10ECA800000C000C000C000C000C000C000C000CFC
:10ECB800000C000C000C000C000F000F00000018E6
:10ECC80000180018000C000C000C000C00060006D0
:10ECD8000006000600030003000300000000000017
:10ECE800001E001E000600060006000600060006BC
:10ECF80000060006000600060006000600060006DC
:10ED0800001E001E0000000C000C001E0012003344
:10ED180000338061806100000000000000000000F6
:10ED280000000000000000000000000000000000DB
:10ED380000000000000000000000000000000000CB
:10ED48000000000000000000E0FF000000000038A4
:10ED58000018000C00000000000000000000000087
:10ED6800000000000000000000000000000000009B
:10ED780000000000000000000000001F803F8061CC
:10ED88008001801F803F80618063807FC0380000E1
:10ED98000000000000000060006000600060006E7D
:10EDA800007F807380618061806180618073007FF3
:10EDB800006E0000000000000000000000000000DD
:10EDC8000000001E003F8073806100600060806169
:10EDD8008073003F001E000000000000000080015A
:10EDE800800180018001801D803F80738061806187
:10EDF800806180618073803F801D000000000000FA
:10EE080000000000000000000000001E003F00732A
:10EE18008061807F807F00608071003F001E00005D
:10EE2800000000000000C007C00F000C000C807F2D
:10EE3800807F000C000C000C000C000C000C000C77
:10EE4800000C0000000000000000000000000000AE
:10EE5800801D803F807380618061806180618073E4
:10EE6800803F801D80018063007F003E00000060BD
:10EE7800006000600060006F807F80718061806149
:10EE88008061806180618061806100000000000015
:10EE980000000006000600000000003E003E0006DC
:10EEA8000006000600060006000600060006000030
:10EEB800000000000006000600000000003E003EC2
:10EEC800000600060006000600060006000600060A
:10EED80000060046007E003C000000600060006004
:10EEE8000060806100630066006C007C007600634F
:10EEF80000638061C0600000000000000000003E68
:10EF0800003E000600060006000600060006000691
:10EF180000060006000600060006000000000000CB
:10EF28000000000000000000000080DDC0FFC0CE2F
:10EF3800C0CCC0CCC0CCC0CCC0CCC0CCC0CC0000F5
:10EF48000000000000000000000000000000006F4A
:10EF5800807F807180618061806180618061806173
:10EF680080610000000000000000000000000000B8
:10EF78000000001E003F80738061806180618061B5
:10EF88008073003F001E0000000000000000000029
:10EF980000000000006E007F8073806180618061E6
:10EFA80080618073007F006E006000600060006018
:10EFB8000000000000000000801D803F8073806119
:10EFC8008061806180618073803F801D8001800145
:10EFD80080018001000000000000000000000067C0
:10EFE800803F003900300030003000300030003001
:10EFF80000300000000000000000000000000000D9
:10F008000000001E803F80610060007F803F80011B
:10F018008061007F001E000000000000000000006A
:10F02800000800180018007F007F0018001800185A
:10F03800001800180018801F800F00000000000052
:10F048000000000000000000000080618061806115
:10F0580080618061806180618063807F803D000085
:10F068000000000000000000000000000000C06078
:10F07800803180318031001B001B001B000E000E08
:10F088000006000000000000000000000000000072
:10F09800000080DD80DD80DD0055005500550077DB
:10F0A800007700220022000000000000000000009D
:10F0B800000000000000806100330033001E000CD7
:10F0C800000C001E003300338061000000000000C7
:10F0D8000000000000000000806180618031003382
:10F0E8000033001B001B001B000E000E000E001C4E
:10F0F800007C007000000000000000000000C07FDD
:10F10800C07F800100030006000C00180030C07F9B
:10F11800C07F000000000000800380070006000692
:10F12800000600060006000E001C001C000E00066B
:10F138000006000600060006800780030006000699
:10F148000006000600060006000600060006000687
:10F158000006000600060006000600060006000677
:10F168000038003C000C000C000C000C000C000ED9
:10F1780000070007000E000C000C000C000C000C2F
:10F18800003C003800000000000000000000000003
:10F1980000008038807F0047000000000000000069
:10F1A80000000000000000000F0180961180FFB1F0
:10F1B80003012C2DB203012C2DB306012C2D012C9B
:10F1C8002DB40107C003A20284C101C5C2020A000E
:10F1D800C3028A2AC4028AEEC5010E20003601A89D
:10F1E8003A010500032A040000004F2B0400000028
:10F1F8009F21000004E010021C07123732292D2934
:10F20800252B3900010310E110031D07062E2C29B8
:10F218002D2E2E373F0000021013800A298064002B
:10F2280018000020494E4600696E66004E414E00A7
:10F238006E616E00303132333435363738396162B9
:10F248006364656600000000303132333435363788
:10F25800383941424344454600000000286E756C29
:10F268006C290000300000002020202020202020D1
:10F278002020202020202020303030303030303006
:10F2880030303030303030304E614E00496E666973
:10F298006E6974790000000042616C6C6F632073C2
:10F2A8007563636565646564000000002F6D6E74A6
:10F2B8002F776F726B73706163652F776F726B73E3
:10F2C800706163652F4743432D31302D7069706538
:10F2D8006C696E652F6A656E6B696E732D47434363
:10F2E8002D31302D706970656C696E652D32363040
:10F2F8005F32303231303732375F31363237333779
:10F30800313338362F7372632F6E65776C69622FCD
:10F318006E65776C69622F6C6962632F7374646CB5
:10F3280069622F64746F612E630000002F6D6E7424
:10F338002F776F726B73706163652F776F726B7362
:10F34800706163652F4743432D31302D70697065B7
:10F358006C696E652F6A656E6B696E732D474343E2
:10F368002D31302D706970656C696E652D323630BF
:10F378005F32303231303732375F313632373337F8
:10F38800313338362F7372632F6E65776C69622F4D
:10F398006E65776C69622F6C6962632F7374646C35
:10F3A80069622F6D707265632E63000000000000B3
:10F3B8000080E03779C34143176E05B5B5B8934669
:10F3C800F5F93FE9034F384D321D30F94877825A35
:10F3D8003CBF737FDD4F1575000000000000F03F53
:10F3E8000000000000002440000000000000594018
:10F3F8000000000000408F40000000000088C3406B
:10F4080000000000006AF8400000000080842E41DF
:10F4180000000000D01263410000000084D797412B
:10F428000000000065CDCD41000000205FA0024231
:10F43800000000E876483742000000A2941A6D42A6
:10F44800000040E59C30A2420000901EC4BCD64299
:10F4580000003426F56B0C430080E03779C3414344
:10F4680000A0D8855734764300C84E676DC1AB43BA
:10F47800003D9160E458E143408CB5781DAF1544D8
:10F4880050EFE2D6E41A4B4492D54D06CFF08044B3
:10F49800F64AE1C7022DB544B49DD9794378EA44C8
:10F4A80005000000190000007D0000002020202039
:10F4B8002020202020202020202020203030303004
:10F4C8003030303030303030303030302C206675CD
:10F4D8006E6374696F6E3A20000000006173736593
:10F4E8007274696F6E2022257322206661696C65CB
:10F4F800643A2066696C6520222573222C206C6989
:10F508006E65202564257325730A000043000000FA
:10F51800504F5349580000002E00000000202020C2
:10F5280020202020202028282828282020202020AB
:10F53800202020202020202020202020208810107B
:10F5480010101010101010101010101010040404D7
:10F558000404040404040410101010101010414195
:10F568004141414101010101010101010101010183
:10F578000101010101010101101010101010424297
:10F588004242424202020202020202020202020253
:10F5980002020202020202021010101020000000F3
:10F5A8000000000000000000000000000000000053
:10F5B8000000000000000000000000000000000043
:10F5C8000000000000000000000000000000000033
:10F5D8000000000000000000000000000000000023
:10F5E8000000000000000000000000000000000013
:10F5F8000000000000000000000000000000000003
:10F6080000000000000000000000000000000000F2
:10F6180000000000000000000000000000000000E2
:10F62800182D4454FB21E9BFD221337F7CD90240F5
:10F63800D221337F7CD902C0000000000000008086
:10F64800182D4454FB210940182D4454FB2109C0AE
:10F658000000000000000000000000000000008022
:10F668004FBB610567ACDD3F182D4454FB21E93FD2
:10F678009BF681D20B73EF3F182D4454FB21F93FC1
:10F68800E2652F227F2B7A3C075C143326A6813C47
:10F69800BDCBF07A8807703C075C143326A6913CF2
:08F6A800C01BFF7F0100000000
:08F6B000E568000835010008BF
:04F6B8001101000834
:10F6BC000024F40001000000100000000B120000F8
:10F6CC0054E400081800002000000000040300208F
:10F6DC006C030020D4030020000000000000000098
:10F6EC00000000000000000000000000000000000E
:10F6FC0000000000000000000000000000000000FE
:10F70C0000000000000000000000000000000000ED
:10F71C0000000000000000000000000000000000DD
:10F72C0000000000000000000000000000000000CD
:10F73C0000000000000000000000000000000000BD
:10F74C0000000000000000000000000000000000AD
:10F75C00000000000000000000000000000000009D
:10F76C00000000000000000000000000000000008D
:10F77C0001000000000000000E33CDAB34126DE62A
:10F78C00ECDE05000B000000000000000000000093
:10F79C00000000000000000000000000000000005D
:10F7AC00000000000000000000000000000000004D
:10F7BC00000000000000000000000000000000003D
:10F7CC00000000000000000000000000000000002D
:10FAFC000000000000000000400400204004002032
:10FB0C004804002048040020500400205004002029
:10FB1C0058040020580400206004002060040020D9
:10FB2C006804002068040020700400207004002089
:10FB3C007804002078040020800400208004002039
:10FB4C0088040020880400209004002090040020E9
:10FB5C009804002098040020A0040020A004002099
:10FB6C00A8040020A8040020B0040020B004002049
:10FB7C00B8040020B8040020C0040020C0040020F9
:10FB8C00C8040020C8040020D0040020D0040020A9
:10FB9C00D8040020D8040020E0040020E004002059
:10FBAC00E8040020E8040020F0040020F004002009
:10FBBC00F8040020F80400200005002000050020B7
:10FBCC000805002008050020100500201005002065
:10FBDC001805002018050020200500202005002015
:10FBEC0028050020280500203005002030050020C5
:10FBFC003805002038050020400500204005002075
:10FC0C004805002048050020500500205005002024
:10FC1C0058050020580500206005002060050020D4
:10FC2C006805002068050020700500207005002084
:10FC3C007805002078050020800500208005002034
:10FC4C0088050020880500209005002090050020E4
:10FC5C009805002098050020A0050020A005002094
:10FC6C00A8050020A8050020B0050020B005002044
:10FC7C00B8050020B8050020C0050020C0050020F4
:10FC8C00C8050020C8050020D0050020D0050020A4
:10FC9C00D8050020D8050020E0050020E005002054
:10FCAC00E8050020E8050020F0050020F005002004
:10FCBC00F8050020F80500200006002000060020B2
:10FCCC000806002008060020100600201006002060
:10FCDC001806002018060020200600202006002010
:10FCEC0028060020280600203006002030060020C0
:10FCFC003806002038060020400600204006002070
:10FD0C00480600204806002050060020500600201F
:10FD1C0058060020580600206006002060060020CF
:10FD2C00680600206806002070060020700600207F
:10FD3C00780600207806002080060020800600202F
:10FD4C0088060020880600209006002090060020DF
:10FD5C009806002098060020A0060020A00600208F
:10FD6C00A8060020A8060020B0060020B00600203F
:10FD7C00B8060020B8060020C0060020C0060020EF
:10FD8C00C8060020C8060020D0060020D00600209F
:10FD9C00D8060020D8060020E0060020E00600204F
:10FDAC00E8060020E8060020F0060020F0060020FF
:10FDBC00F8060020F80600200007002000070020AD
:10FDCC00080700200807002010070020100700205B
:10FDDC00180700201807002020070020200700200B
:10FDEC0028070020280700203007002030070020BB
:10FDFC00380700203807002040070020400700206B
:10FE0C00480700204807002050070020500700201A
:10FE1C0058070020580700206007002060070020CA
:10FE2C00680700206807002070070020700700207A
:10FE3C00780700207807002080070020800700202A
:10FE4C0088070020880700209007002090070020DA
:10FE5C009807002098070020A0070020A00700208A
:10FE6C00A8070020A8070020B0070020B00700203A
:10FE7C00B8070020B8070020C0070020C0070020EA
:10FE8C00C8070020C8070020D0070020D00700209A
:10FE9C00D8070020D8070020E0070020E00700204A
:10FEAC00E8070020E8070020F0070020F0070020FA
:10FEBC00F8070020F80700200008002000080020A8
:10FECC000808002008080020100800201008002056
:10FEDC001808002018080020200800202008002006
:10FEEC0028080020280800203008002030080020B6
:10FEFC003808002038080020FFFFFFFF0000020038
:10FF0C00AC0B0020430000000000000000000000CB
:10FF1C0000000000000000000000000000000000D5
:10FF2C000000000043000000000000000000000082
:10FF3C0000000000000000000000000000000000B5
:10FF4C000000000043000000000000000000000062
:10FF5C000000000000000000000000000000000095
:10FF6C000000000043000000000000000000000042
:10FF7C000000000000000000000000000000000075
:10FF8C000000000043000000000000000000000022
:10FF9C000000000000000000000000000000000055
:10FFAC000000000043000000000000000000000002
:10FFBC000000000000000000000000000000000035
:10FFCC0000000000430000000000000000000000E2
:10FFDC000000000000000000000000000000000015
:10FFEC000000000075A500085D9F000800000000DF
:04FFFC0024F50008E0
:020000040801F1
:1000000020F5000830E1000830E1000830E1000888
:1000100030E1000830E1000830E1000830E100087C
:1000200030E1000830E10008FFFFFFFFFFFFFFFFA6
:10003000FFFFFFFFFFFF000001004153434949005C
:1000400000000000000000000000000000000000B0
:100050000000000000000000000041534349490037
:100060000000000000000000000000000000000090
:0C00700000000000000000000000000084
:040000050800437537
:00000001FF
