Archive member included to satisfy reference by file (symbol)

c:/tools/gcc-arm-none-eabi-10.3-2021.07/bin/../lib/gcc/arm-none-eabi/10.3.1/thumb/v7-m/nofp\libgcc.a(_arm_muldf3.o)
                              CMakeFiles/FOC_Driver.elf.dir/FOC/hardware_specific/stm32_mcu.c.obj (__aeabi_dmul)
c:/tools/gcc-arm-none-eabi-10.3-2021.07/bin/../lib/gcc/arm-none-eabi/10.3.1/thumb/v7-m/nofp\libgcc.a(_arm_mulsf3.o)
                              CMakeFiles/FOC_Driver.elf.dir/FOC/FOC.c.obj (__aeabi_fmul)
c:/tools/gcc-arm-none-eabi-10.3-2021.07/bin/../lib/gcc/arm-none-eabi/10.3.1/thumb/v7-m/nofp\libgcc.a(_arm_addsubdf3.o)
                              CMakeFiles/FOC_Driver.elf.dir/Core/Src/main.c.obj (__aeabi_dadd)
c:/tools/gcc-arm-none-eabi-10.3-2021.07/bin/../lib/gcc/arm-none-eabi/10.3.1/thumb/v7-m/nofp\libgcc.a(_arm_fixdfsi.o)
                              CMakeFiles/FOC_Driver.elf.dir/FOC/FOC.c.obj (__aeabi_d2iz)
c:/tools/gcc-arm-none-eabi-10.3-2021.07/bin/../lib/gcc/arm-none-eabi/10.3.1/thumb/v7-m/nofp\libgcc.a(_arm_fixunsdfsi.o)
                              CMakeFiles/FOC_Driver.elf.dir/FOC/hardware_specific/stm32_mcu.c.obj (__aeabi_d2uiz)
c:/tools/gcc-arm-none-eabi-10.3-2021.07/bin/../lib/gcc/arm-none-eabi/10.3.1/thumb/v7-m/nofp\libgcc.a(_arm_truncdfsf2.o)
                              CMakeFiles/FOC_Driver.elf.dir/Core/Src/main.c.obj (__aeabi_d2f)
c:/tools/gcc-arm-none-eabi-10.3-2021.07/bin/../lib/gcc/arm-none-eabi/10.3.1/thumb/v7-m/nofp\libgcc.a(_arm_addsubsf3.o)
                              CMakeFiles/FOC_Driver.elf.dir/FOC/FOC.c.obj (__aeabi_fsub)
c:/tools/gcc-arm-none-eabi-10.3-2021.07/bin/../lib/gcc/arm-none-eabi/10.3.1/thumb/v7-m/nofp\libgcc.a(_arm_muldivsf3.o)
                              CMakeFiles/FOC_Driver.elf.dir/FOC/FOC.c.obj (__aeabi_fdiv)
c:/tools/gcc-arm-none-eabi-10.3-2021.07/bin/../lib/gcc/arm-none-eabi/10.3.1/thumb/v7-m/nofp\libgcc.a(_arm_cmpsf2.o)
                              CMakeFiles/FOC_Driver.elf.dir/Core/Src/main.c.obj (__aeabi_fcmplt)
c:/tools/gcc-arm-none-eabi-10.3-2021.07/bin/../lib/gcc/arm-none-eabi/10.3.1/thumb/v7-m/nofp\libgcc.a(_arm_fixsfsi.o)
                              CMakeFiles/FOC_Driver.elf.dir/FOC/FOC_utils.c.obj (__aeabi_f2iz)
c:/tools/gcc-arm-none-eabi-10.3-2021.07/bin/../lib/gcc/arm-none-eabi/10.3.1/../../../../arm-none-eabi/lib/thumb/v7-m/nofp\libg.a(lib_a-errno.o)
                              CMakeFiles/FOC_Driver.elf.dir/Core/Src/syscalls.c.obj (__errno)
c:/tools/gcc-arm-none-eabi-10.3-2021.07/bin/../lib/gcc/arm-none-eabi/10.3.1/../../../../arm-none-eabi/lib/thumb/v7-m/nofp\libg.a(lib_a-exit.o)
                              c:/tools/gcc-arm-none-eabi-10.3-2021.07/bin/../lib/gcc/arm-none-eabi/10.3.1/../../../../arm-none-eabi/lib/thumb/v7-m/nofp/crt0.o (exit)
c:/tools/gcc-arm-none-eabi-10.3-2021.07/bin/../lib/gcc/arm-none-eabi/10.3.1/../../../../arm-none-eabi/lib/thumb/v7-m/nofp\libg.a(lib_a-impure.o)
                              c:/tools/gcc-arm-none-eabi-10.3-2021.07/bin/../lib/gcc/arm-none-eabi/10.3.1/../../../../arm-none-eabi/lib/thumb/v7-m/nofp\libg.a(lib_a-exit.o) (_global_impure_ptr)
c:/tools/gcc-arm-none-eabi-10.3-2021.07/bin/../lib/gcc/arm-none-eabi/10.3.1/../../../../arm-none-eabi/lib/thumb/v7-m/nofp\libg.a(lib_a-init.o)
                              c:/tools/gcc-arm-none-eabi-10.3-2021.07/bin/../lib/gcc/arm-none-eabi/10.3.1/../../../../arm-none-eabi/lib/thumb/v7-m/nofp/crt0.o (__libc_init_array)
c:/tools/gcc-arm-none-eabi-10.3-2021.07/bin/../lib/gcc/arm-none-eabi/10.3.1/../../../../arm-none-eabi/lib/thumb/v7-m/nofp\libg.a(lib_a-malloc.o)
                              CMakeFiles/FOC_Driver.elf.dir/st7735/st7735.c.obj (malloc)
c:/tools/gcc-arm-none-eabi-10.3-2021.07/bin/../lib/gcc/arm-none-eabi/10.3.1/../../../../arm-none-eabi/lib/thumb/v7-m/nofp\libg.a(lib_a-mallocr.o)
                              c:/tools/gcc-arm-none-eabi-10.3-2021.07/bin/../lib/gcc/arm-none-eabi/10.3.1/../../../../arm-none-eabi/lib/thumb/v7-m/nofp\libg.a(lib_a-malloc.o) (_malloc_r)
c:/tools/gcc-arm-none-eabi-10.3-2021.07/bin/../lib/gcc/arm-none-eabi/10.3.1/../../../../arm-none-eabi/lib/thumb/v7-m/nofp\libg.a(lib_a-memset.o)
                              c:/tools/gcc-arm-none-eabi-10.3-2021.07/bin/../lib/gcc/arm-none-eabi/10.3.1/../../../../arm-none-eabi/lib/thumb/v7-m/nofp/crt0.o (memset)
c:/tools/gcc-arm-none-eabi-10.3-2021.07/bin/../lib/gcc/arm-none-eabi/10.3.1/../../../../arm-none-eabi/lib/thumb/v7-m/nofp\libg.a(lib_a-mlock.o)
                              c:/tools/gcc-arm-none-eabi-10.3-2021.07/bin/../lib/gcc/arm-none-eabi/10.3.1/../../../../arm-none-eabi/lib/thumb/v7-m/nofp\libg.a(lib_a-mallocr.o) (__malloc_lock)
c:/tools/gcc-arm-none-eabi-10.3-2021.07/bin/../lib/gcc/arm-none-eabi/10.3.1/../../../../arm-none-eabi/lib/thumb/v7-m/nofp\libg.a(lib_a-printf.o)
                              CMakeFiles/FOC_Driver.elf.dir/Core/Src/main.c.obj (printf)
c:/tools/gcc-arm-none-eabi-10.3-2021.07/bin/../lib/gcc/arm-none-eabi/10.3.1/../../../../arm-none-eabi/lib/thumb/v7-m/nofp\libg.a(lib_a-sbrkr.o)
                              c:/tools/gcc-arm-none-eabi-10.3-2021.07/bin/../lib/gcc/arm-none-eabi/10.3.1/../../../../arm-none-eabi/lib/thumb/v7-m/nofp\libg.a(lib_a-mallocr.o) (_sbrk_r)
c:/tools/gcc-arm-none-eabi-10.3-2021.07/bin/../lib/gcc/arm-none-eabi/10.3.1/../../../../arm-none-eabi/lib/thumb/v7-m/nofp\libg.a(lib_a-setvbuf.o)
                              CMakeFiles/FOC_Driver.elf.dir/retarget/retarget.c.obj (setvbuf)
c:/tools/gcc-arm-none-eabi-10.3-2021.07/bin/../lib/gcc/arm-none-eabi/10.3.1/../../../../arm-none-eabi/lib/thumb/v7-m/nofp\libg.a(lib_a-vfprintf.o)
                              c:/tools/gcc-arm-none-eabi-10.3-2021.07/bin/../lib/gcc/arm-none-eabi/10.3.1/../../../../arm-none-eabi/lib/thumb/v7-m/nofp\libg.a(lib_a-printf.o) (_vfprintf_r)
c:/tools/gcc-arm-none-eabi-10.3-2021.07/bin/../lib/gcc/arm-none-eabi/10.3.1/../../../../arm-none-eabi/lib/thumb/v7-m/nofp\libg.a(lib_a-wsetup.o)
                              c:/tools/gcc-arm-none-eabi-10.3-2021.07/bin/../lib/gcc/arm-none-eabi/10.3.1/../../../../arm-none-eabi/lib/thumb/v7-m/nofp\libg.a(lib_a-vfprintf.o) (__swsetup_r)
c:/tools/gcc-arm-none-eabi-10.3-2021.07/bin/../lib/gcc/arm-none-eabi/10.3.1/../../../../arm-none-eabi/lib/thumb/v7-m/nofp\libg.a(lib_a-__call_atexit.o)
                              c:/tools/gcc-arm-none-eabi-10.3-2021.07/bin/../lib/gcc/arm-none-eabi/10.3.1/../../../../arm-none-eabi/lib/thumb/v7-m/nofp\libg.a(lib_a-exit.o) (__call_exitprocs)
c:/tools/gcc-arm-none-eabi-10.3-2021.07/bin/../lib/gcc/arm-none-eabi/10.3.1/../../../../arm-none-eabi/lib/thumb/v7-m/nofp\libg.a(lib_a-atexit.o)
                              c:/tools/gcc-arm-none-eabi-10.3-2021.07/bin/../lib/gcc/arm-none-eabi/10.3.1/../../../../arm-none-eabi/lib/thumb/v7-m/nofp\libg.a(lib_a-__call_atexit.o) (atexit)
c:/tools/gcc-arm-none-eabi-10.3-2021.07/bin/../lib/gcc/arm-none-eabi/10.3.1/../../../../arm-none-eabi/lib/thumb/v7-m/nofp\libg.a(lib_a-dtoa.o)
                              c:/tools/gcc-arm-none-eabi-10.3-2021.07/bin/../lib/gcc/arm-none-eabi/10.3.1/../../../../arm-none-eabi/lib/thumb/v7-m/nofp\libg.a(lib_a-vfprintf.o) (_dtoa_r)
c:/tools/gcc-arm-none-eabi-10.3-2021.07/bin/../lib/gcc/arm-none-eabi/10.3.1/../../../../arm-none-eabi/lib/thumb/v7-m/nofp\libg.a(lib_a-fflush.o)
                              c:/tools/gcc-arm-none-eabi-10.3-2021.07/bin/../lib/gcc/arm-none-eabi/10.3.1/../../../../arm-none-eabi/lib/thumb/v7-m/nofp\libg.a(lib_a-setvbuf.o) (_fflush_r)
c:/tools/gcc-arm-none-eabi-10.3-2021.07/bin/../lib/gcc/arm-none-eabi/10.3.1/../../../../arm-none-eabi/lib/thumb/v7-m/nofp\libg.a(lib_a-findfp.o)
                              c:/tools/gcc-arm-none-eabi-10.3-2021.07/bin/../lib/gcc/arm-none-eabi/10.3.1/../../../../arm-none-eabi/lib/thumb/v7-m/nofp\libg.a(lib_a-setvbuf.o) (__sinit)
c:/tools/gcc-arm-none-eabi-10.3-2021.07/bin/../lib/gcc/arm-none-eabi/10.3.1/../../../../arm-none-eabi/lib/thumb/v7-m/nofp\libg.a(lib_a-fini.o)
                              c:/tools/gcc-arm-none-eabi-10.3-2021.07/bin/../lib/gcc/arm-none-eabi/10.3.1/../../../../arm-none-eabi/lib/thumb/v7-m/nofp\libg.a(lib_a-__call_atexit.o) (__libc_fini_array)
c:/tools/gcc-arm-none-eabi-10.3-2021.07/bin/../lib/gcc/arm-none-eabi/10.3.1/../../../../arm-none-eabi/lib/thumb/v7-m/nofp\libg.a(lib_a-freer.o)
                              c:/tools/gcc-arm-none-eabi-10.3-2021.07/bin/../lib/gcc/arm-none-eabi/10.3.1/../../../../arm-none-eabi/lib/thumb/v7-m/nofp\libg.a(lib_a-malloc.o) (_free_r)
c:/tools/gcc-arm-none-eabi-10.3-2021.07/bin/../lib/gcc/arm-none-eabi/10.3.1/../../../../arm-none-eabi/lib/thumb/v7-m/nofp\libg.a(lib_a-fwalk.o)
                              c:/tools/gcc-arm-none-eabi-10.3-2021.07/bin/../lib/gcc/arm-none-eabi/10.3.1/../../../../arm-none-eabi/lib/thumb/v7-m/nofp\libg.a(lib_a-findfp.o) (_fwalk)
c:/tools/gcc-arm-none-eabi-10.3-2021.07/bin/../lib/gcc/arm-none-eabi/10.3.1/../../../../arm-none-eabi/lib/thumb/v7-m/nofp\libg.a(lib_a-localeconv.o)
                              c:/tools/gcc-arm-none-eabi-10.3-2021.07/bin/../lib/gcc/arm-none-eabi/10.3.1/../../../../arm-none-eabi/lib/thumb/v7-m/nofp\libg.a(lib_a-vfprintf.o) (_localeconv_r)
c:/tools/gcc-arm-none-eabi-10.3-2021.07/bin/../lib/gcc/arm-none-eabi/10.3.1/../../../../arm-none-eabi/lib/thumb/v7-m/nofp\libg.a(lib_a-lock.o)
                              c:/tools/gcc-arm-none-eabi-10.3-2021.07/bin/../lib/gcc/arm-none-eabi/10.3.1/../../../../arm-none-eabi/lib/thumb/v7-m/nofp\libg.a(lib_a-vfprintf.o) (__retarget_lock_init_recursive)
c:/tools/gcc-arm-none-eabi-10.3-2021.07/bin/../lib/gcc/arm-none-eabi/10.3.1/../../../../arm-none-eabi/lib/thumb/v7-m/nofp\libg.a(lib_a-makebuf.o)
                              c:/tools/gcc-arm-none-eabi-10.3-2021.07/bin/../lib/gcc/arm-none-eabi/10.3.1/../../../../arm-none-eabi/lib/thumb/v7-m/nofp\libg.a(lib_a-wsetup.o) (__smakebuf_r)
c:/tools/gcc-arm-none-eabi-10.3-2021.07/bin/../lib/gcc/arm-none-eabi/10.3.1/../../../../arm-none-eabi/lib/thumb/v7-m/nofp\libg.a(lib_a-memchr-stub.o)
                              c:/tools/gcc-arm-none-eabi-10.3-2021.07/bin/../lib/gcc/arm-none-eabi/10.3.1/../../../../arm-none-eabi/lib/thumb/v7-m/nofp\libg.a(lib_a-vfprintf.o) (memchr)
c:/tools/gcc-arm-none-eabi-10.3-2021.07/bin/../lib/gcc/arm-none-eabi/10.3.1/../../../../arm-none-eabi/lib/thumb/v7-m/nofp\libg.a(lib_a-memcpy.o)
                              c:/tools/gcc-arm-none-eabi-10.3-2021.07/bin/../lib/gcc/arm-none-eabi/10.3.1/../../../../arm-none-eabi/lib/thumb/v7-m/nofp\libg.a(lib_a-dtoa.o) (memcpy)
c:/tools/gcc-arm-none-eabi-10.3-2021.07/bin/../lib/gcc/arm-none-eabi/10.3.1/../../../../arm-none-eabi/lib/thumb/v7-m/nofp\libg.a(lib_a-mprec.o)
                              c:/tools/gcc-arm-none-eabi-10.3-2021.07/bin/../lib/gcc/arm-none-eabi/10.3.1/../../../../arm-none-eabi/lib/thumb/v7-m/nofp\libg.a(lib_a-dtoa.o) (_Balloc)
c:/tools/gcc-arm-none-eabi-10.3-2021.07/bin/../lib/gcc/arm-none-eabi/10.3.1/../../../../arm-none-eabi/lib/thumb/v7-m/nofp\libg.a(lib_a-reent.o)
                              c:/tools/gcc-arm-none-eabi-10.3-2021.07/bin/../lib/gcc/arm-none-eabi/10.3.1/../../../../arm-none-eabi/lib/thumb/v7-m/nofp\libg.a(lib_a-sbrkr.o) (errno)
c:/tools/gcc-arm-none-eabi-10.3-2021.07/bin/../lib/gcc/arm-none-eabi/10.3.1/../../../../arm-none-eabi/lib/thumb/v7-m/nofp\libg.a(lib_a-s_frexp.o)
                              c:/tools/gcc-arm-none-eabi-10.3-2021.07/bin/../lib/gcc/arm-none-eabi/10.3.1/../../../../arm-none-eabi/lib/thumb/v7-m/nofp\libg.a(lib_a-vfprintf.o) (frexp)
c:/tools/gcc-arm-none-eabi-10.3-2021.07/bin/../lib/gcc/arm-none-eabi/10.3.1/../../../../arm-none-eabi/lib/thumb/v7-m/nofp\libg.a(lib_a-stdio.o)
                              c:/tools/gcc-arm-none-eabi-10.3-2021.07/bin/../lib/gcc/arm-none-eabi/10.3.1/../../../../arm-none-eabi/lib/thumb/v7-m/nofp\libg.a(lib_a-findfp.o) (__sread)
c:/tools/gcc-arm-none-eabi-10.3-2021.07/bin/../lib/gcc/arm-none-eabi/10.3.1/../../../../arm-none-eabi/lib/thumb/v7-m/nofp\libg.a(lib_a-strlen-stub.o)
                              c:/tools/gcc-arm-none-eabi-10.3-2021.07/bin/../lib/gcc/arm-none-eabi/10.3.1/../../../../arm-none-eabi/lib/thumb/v7-m/nofp\libg.a(lib_a-vfprintf.o) (strlen)
c:/tools/gcc-arm-none-eabi-10.3-2021.07/bin/../lib/gcc/arm-none-eabi/10.3.1/../../../../arm-none-eabi/lib/thumb/v7-m/nofp\libg.a(lib_a-strncpy.o)
                              c:/tools/gcc-arm-none-eabi-10.3-2021.07/bin/../lib/gcc/arm-none-eabi/10.3.1/../../../../arm-none-eabi/lib/thumb/v7-m/nofp\libg.a(lib_a-vfprintf.o) (strncpy)
c:/tools/gcc-arm-none-eabi-10.3-2021.07/bin/../lib/gcc/arm-none-eabi/10.3.1/../../../../arm-none-eabi/lib/thumb/v7-m/nofp\libg.a(lib_a-vfiprintf.o)
                              c:/tools/gcc-arm-none-eabi-10.3-2021.07/bin/../lib/gcc/arm-none-eabi/10.3.1/../../../../arm-none-eabi/lib/thumb/v7-m/nofp\libg.a(lib_a-vfprintf.o) (__sprint_r)
c:/tools/gcc-arm-none-eabi-10.3-2021.07/bin/../lib/gcc/arm-none-eabi/10.3.1/../../../../arm-none-eabi/lib/thumb/v7-m/nofp\libg.a(lib_a-writer.o)
                              c:/tools/gcc-arm-none-eabi-10.3-2021.07/bin/../lib/gcc/arm-none-eabi/10.3.1/../../../../arm-none-eabi/lib/thumb/v7-m/nofp\libg.a(lib_a-stdio.o) (_write_r)
c:/tools/gcc-arm-none-eabi-10.3-2021.07/bin/../lib/gcc/arm-none-eabi/10.3.1/../../../../arm-none-eabi/lib/thumb/v7-m/nofp\libg.a(lib_a-__atexit.o)
                              c:/tools/gcc-arm-none-eabi-10.3-2021.07/bin/../lib/gcc/arm-none-eabi/10.3.1/../../../../arm-none-eabi/lib/thumb/v7-m/nofp\libg.a(lib_a-atexit.o) (__register_exitproc)
c:/tools/gcc-arm-none-eabi-10.3-2021.07/bin/../lib/gcc/arm-none-eabi/10.3.1/../../../../arm-none-eabi/lib/thumb/v7-m/nofp\libg.a(lib_a-assert.o)
                              c:/tools/gcc-arm-none-eabi-10.3-2021.07/bin/../lib/gcc/arm-none-eabi/10.3.1/../../../../arm-none-eabi/lib/thumb/v7-m/nofp\libg.a(lib_a-dtoa.o) (__assert_func)
c:/tools/gcc-arm-none-eabi-10.3-2021.07/bin/../lib/gcc/arm-none-eabi/10.3.1/../../../../arm-none-eabi/lib/thumb/v7-m/nofp\libg.a(lib_a-callocr.o)
                              c:/tools/gcc-arm-none-eabi-10.3-2021.07/bin/../lib/gcc/arm-none-eabi/10.3.1/../../../../arm-none-eabi/lib/thumb/v7-m/nofp\libg.a(lib_a-mprec.o) (_calloc_r)
c:/tools/gcc-arm-none-eabi-10.3-2021.07/bin/../lib/gcc/arm-none-eabi/10.3.1/../../../../arm-none-eabi/lib/thumb/v7-m/nofp\libg.a(lib_a-closer.o)
                              c:/tools/gcc-arm-none-eabi-10.3-2021.07/bin/../lib/gcc/arm-none-eabi/10.3.1/../../../../arm-none-eabi/lib/thumb/v7-m/nofp\libg.a(lib_a-stdio.o) (_close_r)
c:/tools/gcc-arm-none-eabi-10.3-2021.07/bin/../lib/gcc/arm-none-eabi/10.3.1/../../../../arm-none-eabi/lib/thumb/v7-m/nofp\libg.a(lib_a-fclose.o)
                              c:/tools/gcc-arm-none-eabi-10.3-2021.07/bin/../lib/gcc/arm-none-eabi/10.3.1/../../../../arm-none-eabi/lib/thumb/v7-m/nofp\libg.a(lib_a-findfp.o) (_fclose_r)
c:/tools/gcc-arm-none-eabi-10.3-2021.07/bin/../lib/gcc/arm-none-eabi/10.3.1/../../../../arm-none-eabi/lib/thumb/v7-m/nofp\libg.a(lib_a-fiprintf.o)
                              c:/tools/gcc-arm-none-eabi-10.3-2021.07/bin/../lib/gcc/arm-none-eabi/10.3.1/../../../../arm-none-eabi/lib/thumb/v7-m/nofp\libg.a(lib_a-assert.o) (fiprintf)
c:/tools/gcc-arm-none-eabi-10.3-2021.07/bin/../lib/gcc/arm-none-eabi/10.3.1/../../../../arm-none-eabi/lib/thumb/v7-m/nofp\libg.a(lib_a-fputwc.o)
                              c:/tools/gcc-arm-none-eabi-10.3-2021.07/bin/../lib/gcc/arm-none-eabi/10.3.1/../../../../arm-none-eabi/lib/thumb/v7-m/nofp\libg.a(lib_a-vfiprintf.o) (_fputwc_r)
c:/tools/gcc-arm-none-eabi-10.3-2021.07/bin/../lib/gcc/arm-none-eabi/10.3.1/../../../../arm-none-eabi/lib/thumb/v7-m/nofp\libg.a(lib_a-fstatr.o)
                              c:/tools/gcc-arm-none-eabi-10.3-2021.07/bin/../lib/gcc/arm-none-eabi/10.3.1/../../../../arm-none-eabi/lib/thumb/v7-m/nofp\libg.a(lib_a-makebuf.o) (_fstat_r)
c:/tools/gcc-arm-none-eabi-10.3-2021.07/bin/../lib/gcc/arm-none-eabi/10.3.1/../../../../arm-none-eabi/lib/thumb/v7-m/nofp\libg.a(lib_a-fvwrite.o)
                              c:/tools/gcc-arm-none-eabi-10.3-2021.07/bin/../lib/gcc/arm-none-eabi/10.3.1/../../../../arm-none-eabi/lib/thumb/v7-m/nofp\libg.a(lib_a-vfiprintf.o) (__sfvwrite_r)
c:/tools/gcc-arm-none-eabi-10.3-2021.07/bin/../lib/gcc/arm-none-eabi/10.3.1/../../../../arm-none-eabi/lib/thumb/v7-m/nofp\libg.a(lib_a-isattyr.o)
                              c:/tools/gcc-arm-none-eabi-10.3-2021.07/bin/../lib/gcc/arm-none-eabi/10.3.1/../../../../arm-none-eabi/lib/thumb/v7-m/nofp\libg.a(lib_a-makebuf.o) (_isatty_r)
c:/tools/gcc-arm-none-eabi-10.3-2021.07/bin/../lib/gcc/arm-none-eabi/10.3.1/../../../../arm-none-eabi/lib/thumb/v7-m/nofp\libg.a(lib_a-locale.o)
                              c:/tools/gcc-arm-none-eabi-10.3-2021.07/bin/../lib/gcc/arm-none-eabi/10.3.1/../../../../arm-none-eabi/lib/thumb/v7-m/nofp\libg.a(lib_a-fputwc.o) (__locale_mb_cur_max)
c:/tools/gcc-arm-none-eabi-10.3-2021.07/bin/../lib/gcc/arm-none-eabi/10.3.1/../../../../arm-none-eabi/lib/thumb/v7-m/nofp\libg.a(lib_a-lseekr.o)
                              c:/tools/gcc-arm-none-eabi-10.3-2021.07/bin/../lib/gcc/arm-none-eabi/10.3.1/../../../../arm-none-eabi/lib/thumb/v7-m/nofp\libg.a(lib_a-stdio.o) (_lseek_r)
c:/tools/gcc-arm-none-eabi-10.3-2021.07/bin/../lib/gcc/arm-none-eabi/10.3.1/../../../../arm-none-eabi/lib/thumb/v7-m/nofp\libg.a(lib_a-mbtowc_r.o)
                              c:/tools/gcc-arm-none-eabi-10.3-2021.07/bin/../lib/gcc/arm-none-eabi/10.3.1/../../../../arm-none-eabi/lib/thumb/v7-m/nofp\libg.a(lib_a-locale.o) (__ascii_mbtowc)
c:/tools/gcc-arm-none-eabi-10.3-2021.07/bin/../lib/gcc/arm-none-eabi/10.3.1/../../../../arm-none-eabi/lib/thumb/v7-m/nofp\libg.a(lib_a-memmove.o)
                              c:/tools/gcc-arm-none-eabi-10.3-2021.07/bin/../lib/gcc/arm-none-eabi/10.3.1/../../../../arm-none-eabi/lib/thumb/v7-m/nofp\libg.a(lib_a-fvwrite.o) (memmove)
c:/tools/gcc-arm-none-eabi-10.3-2021.07/bin/../lib/gcc/arm-none-eabi/10.3.1/../../../../arm-none-eabi/lib/thumb/v7-m/nofp\libg.a(lib_a-readr.o)
                              c:/tools/gcc-arm-none-eabi-10.3-2021.07/bin/../lib/gcc/arm-none-eabi/10.3.1/../../../../arm-none-eabi/lib/thumb/v7-m/nofp\libg.a(lib_a-stdio.o) (_read_r)
c:/tools/gcc-arm-none-eabi-10.3-2021.07/bin/../lib/gcc/arm-none-eabi/10.3.1/../../../../arm-none-eabi/lib/thumb/v7-m/nofp\libg.a(lib_a-reallocr.o)
                              c:/tools/gcc-arm-none-eabi-10.3-2021.07/bin/../lib/gcc/arm-none-eabi/10.3.1/../../../../arm-none-eabi/lib/thumb/v7-m/nofp\libg.a(lib_a-fvwrite.o) (_realloc_r)
c:/tools/gcc-arm-none-eabi-10.3-2021.07/bin/../lib/gcc/arm-none-eabi/10.3.1/../../../../arm-none-eabi/lib/thumb/v7-m/nofp\libg.a(lib_a-strcmp.o)
                              c:/tools/gcc-arm-none-eabi-10.3-2021.07/bin/../lib/gcc/arm-none-eabi/10.3.1/../../../../arm-none-eabi/lib/thumb/v7-m/nofp\libg.a(lib_a-locale.o) (strcmp)
c:/tools/gcc-arm-none-eabi-10.3-2021.07/bin/../lib/gcc/arm-none-eabi/10.3.1/../../../../arm-none-eabi/lib/thumb/v7-m/nofp\libg.a(lib_a-wbuf.o)
                              c:/tools/gcc-arm-none-eabi-10.3-2021.07/bin/../lib/gcc/arm-none-eabi/10.3.1/../../../../arm-none-eabi/lib/thumb/v7-m/nofp\libg.a(lib_a-fputwc.o) (__swbuf_r)
c:/tools/gcc-arm-none-eabi-10.3-2021.07/bin/../lib/gcc/arm-none-eabi/10.3.1/../../../../arm-none-eabi/lib/thumb/v7-m/nofp\libg.a(lib_a-wcrtomb.o)
                              c:/tools/gcc-arm-none-eabi-10.3-2021.07/bin/../lib/gcc/arm-none-eabi/10.3.1/../../../../arm-none-eabi/lib/thumb/v7-m/nofp\libg.a(lib_a-fputwc.o) (_wcrtomb_r)
c:/tools/gcc-arm-none-eabi-10.3-2021.07/bin/../lib/gcc/arm-none-eabi/10.3.1/../../../../arm-none-eabi/lib/thumb/v7-m/nofp\libg.a(lib_a-wctomb_r.o)
                              c:/tools/gcc-arm-none-eabi-10.3-2021.07/bin/../lib/gcc/arm-none-eabi/10.3.1/../../../../arm-none-eabi/lib/thumb/v7-m/nofp\libg.a(lib_a-locale.o) (__ascii_wctomb)
c:/tools/gcc-arm-none-eabi-10.3-2021.07/bin/../lib/gcc/arm-none-eabi/10.3.1/../../../../arm-none-eabi/lib/thumb/v7-m/nofp\libg.a(lib_a-abort.o)
                              c:/tools/gcc-arm-none-eabi-10.3-2021.07/bin/../lib/gcc/arm-none-eabi/10.3.1/../../../../arm-none-eabi/lib/thumb/v7-m/nofp\libg.a(lib_a-assert.o) (abort)
c:/tools/gcc-arm-none-eabi-10.3-2021.07/bin/../lib/gcc/arm-none-eabi/10.3.1/../../../../arm-none-eabi/lib/thumb/v7-m/nofp\libg.a(lib_a-ctype_.o)
                              c:/tools/gcc-arm-none-eabi-10.3-2021.07/bin/../lib/gcc/arm-none-eabi/10.3.1/../../../../arm-none-eabi/lib/thumb/v7-m/nofp\libg.a(lib_a-locale.o) (_ctype_)
c:/tools/gcc-arm-none-eabi-10.3-2021.07/bin/../lib/gcc/arm-none-eabi/10.3.1/../../../../arm-none-eabi/lib/thumb/v7-m/nofp\libg.a(lib_a-signal.o)
                              c:/tools/gcc-arm-none-eabi-10.3-2021.07/bin/../lib/gcc/arm-none-eabi/10.3.1/../../../../arm-none-eabi/lib/thumb/v7-m/nofp\libg.a(lib_a-abort.o) (raise)
c:/tools/gcc-arm-none-eabi-10.3-2021.07/bin/../lib/gcc/arm-none-eabi/10.3.1/../../../../arm-none-eabi/lib/thumb/v7-m/nofp\libg.a(lib_a-signalr.o)
                              c:/tools/gcc-arm-none-eabi-10.3-2021.07/bin/../lib/gcc/arm-none-eabi/10.3.1/../../../../arm-none-eabi/lib/thumb/v7-m/nofp\libg.a(lib_a-signal.o) (_kill_r)
c:/tools/gcc-arm-none-eabi-10.3-2021.07/bin/../lib/gcc/arm-none-eabi/10.3.1/thumb/v7-m/nofp\libgcc.a(_arm_muldivdf3.o)
                              c:/tools/gcc-arm-none-eabi-10.3-2021.07/bin/../lib/gcc/arm-none-eabi/10.3.1/../../../../arm-none-eabi/lib/thumb/v7-m/nofp\libg.a(lib_a-dtoa.o) (__aeabi_ddiv)
c:/tools/gcc-arm-none-eabi-10.3-2021.07/bin/../lib/gcc/arm-none-eabi/10.3.1/thumb/v7-m/nofp\libgcc.a(_arm_cmpdf2.o)
                              c:/tools/gcc-arm-none-eabi-10.3-2021.07/bin/../lib/gcc/arm-none-eabi/10.3.1/../../../../arm-none-eabi/lib/thumb/v7-m/nofp\libg.a(lib_a-vfprintf.o) (__aeabi_dcmpeq)
c:/tools/gcc-arm-none-eabi-10.3-2021.07/bin/../lib/gcc/arm-none-eabi/10.3.1/thumb/v7-m/nofp\libgcc.a(_arm_unorddf2.o)
                              c:/tools/gcc-arm-none-eabi-10.3-2021.07/bin/../lib/gcc/arm-none-eabi/10.3.1/../../../../arm-none-eabi/lib/thumb/v7-m/nofp\libg.a(lib_a-vfprintf.o) (__aeabi_dcmpun)
c:/tools/gcc-arm-none-eabi-10.3-2021.07/bin/../lib/gcc/arm-none-eabi/10.3.1/thumb/v7-m/nofp\libgcc.a(_aeabi_uldivmod.o)
                              c:/tools/gcc-arm-none-eabi-10.3-2021.07/bin/../lib/gcc/arm-none-eabi/10.3.1/../../../../arm-none-eabi/lib/thumb/v7-m/nofp\libg.a(lib_a-vfprintf.o) (__aeabi_uldivmod)
c:/tools/gcc-arm-none-eabi-10.3-2021.07/bin/../lib/gcc/arm-none-eabi/10.3.1/thumb/v7-m/nofp\libgcc.a(_udivmoddi4.o)
                              c:/tools/gcc-arm-none-eabi-10.3-2021.07/bin/../lib/gcc/arm-none-eabi/10.3.1/thumb/v7-m/nofp\libgcc.a(_aeabi_uldivmod.o) (__udivmoddi4)
c:/tools/gcc-arm-none-eabi-10.3-2021.07/bin/../lib/gcc/arm-none-eabi/10.3.1/thumb/v7-m/nofp\libgcc.a(_dvmd_tls.o)
                              c:/tools/gcc-arm-none-eabi-10.3-2021.07/bin/../lib/gcc/arm-none-eabi/10.3.1/thumb/v7-m/nofp\libgcc.a(_aeabi_uldivmod.o) (__aeabi_ldiv0)
c:/tools/gcc-arm-none-eabi-10.3-2021.07/bin/../lib/gcc/arm-none-eabi/10.3.1/../../../../arm-none-eabi/lib/thumb/v7-m/nofp\libm.a(lib_a-s_floor.o)
                              CMakeFiles/FOC_Driver.elf.dir/FOC/FOC.c.obj (floor)
c:/tools/gcc-arm-none-eabi-10.3-2021.07/bin/../lib/gcc/arm-none-eabi/10.3.1/../../../../arm-none-eabi/lib/thumb/v7-m/nofp\libm.a(lib_a-w_atan2.o)
                              CMakeFiles/FOC_Driver.elf.dir/FOC/FOC.c.obj (atan2)
c:/tools/gcc-arm-none-eabi-10.3-2021.07/bin/../lib/gcc/arm-none-eabi/10.3.1/../../../../arm-none-eabi/lib/thumb/v7-m/nofp\libm.a(lib_a-w_fmod.o)
                              CMakeFiles/FOC_Driver.elf.dir/FOC/FOC_utils.c.obj (fmod)
c:/tools/gcc-arm-none-eabi-10.3-2021.07/bin/../lib/gcc/arm-none-eabi/10.3.1/../../../../arm-none-eabi/lib/thumb/v7-m/nofp\libm.a(lib_a-e_atan2.o)
                              c:/tools/gcc-arm-none-eabi-10.3-2021.07/bin/../lib/gcc/arm-none-eabi/10.3.1/../../../../arm-none-eabi/lib/thumb/v7-m/nofp\libm.a(lib_a-w_atan2.o) (__ieee754_atan2)
c:/tools/gcc-arm-none-eabi-10.3-2021.07/bin/../lib/gcc/arm-none-eabi/10.3.1/../../../../arm-none-eabi/lib/thumb/v7-m/nofp\libm.a(lib_a-e_fmod.o)
                              c:/tools/gcc-arm-none-eabi-10.3-2021.07/bin/../lib/gcc/arm-none-eabi/10.3.1/../../../../arm-none-eabi/lib/thumb/v7-m/nofp\libm.a(lib_a-w_fmod.o) (__ieee754_fmod)
c:/tools/gcc-arm-none-eabi-10.3-2021.07/bin/../lib/gcc/arm-none-eabi/10.3.1/../../../../arm-none-eabi/lib/thumb/v7-m/nofp\libm.a(lib_a-s_atan.o)
                              c:/tools/gcc-arm-none-eabi-10.3-2021.07/bin/../lib/gcc/arm-none-eabi/10.3.1/../../../../arm-none-eabi/lib/thumb/v7-m/nofp\libm.a(lib_a-e_atan2.o) (atan)
c:/tools/gcc-arm-none-eabi-10.3-2021.07/bin/../lib/gcc/arm-none-eabi/10.3.1/../../../../arm-none-eabi/lib/thumb/v7-m/nofp\libm.a(lib_a-s_fabs.o)
                              c:/tools/gcc-arm-none-eabi-10.3-2021.07/bin/../lib/gcc/arm-none-eabi/10.3.1/../../../../arm-none-eabi/lib/thumb/v7-m/nofp\libm.a(lib_a-e_atan2.o) (fabs)

Discarded input sections

 .text          0x00000000        0x0 c:/tools/gcc-arm-none-eabi-10.3-2021.07/bin/../lib/gcc/arm-none-eabi/10.3.1/thumb/v7-m/nofp/crti.o
 .data          0x00000000        0x0 c:/tools/gcc-arm-none-eabi-10.3-2021.07/bin/../lib/gcc/arm-none-eabi/10.3.1/thumb/v7-m/nofp/crti.o
 .bss           0x00000000        0x0 c:/tools/gcc-arm-none-eabi-10.3-2021.07/bin/../lib/gcc/arm-none-eabi/10.3.1/thumb/v7-m/nofp/crti.o
 .data          0x00000000        0x4 c:/tools/gcc-arm-none-eabi-10.3-2021.07/bin/../lib/gcc/arm-none-eabi/10.3.1/thumb/v7-m/nofp/crtbegin.o
 .rodata        0x00000000       0x24 c:/tools/gcc-arm-none-eabi-10.3-2021.07/bin/../lib/gcc/arm-none-eabi/10.3.1/thumb/v7-m/nofp/crtbegin.o
 .text          0x00000000       0x7c c:/tools/gcc-arm-none-eabi-10.3-2021.07/bin/../lib/gcc/arm-none-eabi/10.3.1/../../../../arm-none-eabi/lib/thumb/v7-m/nofp/crt0.o
 .data          0x00000000        0x0 c:/tools/gcc-arm-none-eabi-10.3-2021.07/bin/../lib/gcc/arm-none-eabi/10.3.1/../../../../arm-none-eabi/lib/thumb/v7-m/nofp/crt0.o
 .bss           0x00000000        0x0 c:/tools/gcc-arm-none-eabi-10.3-2021.07/bin/../lib/gcc/arm-none-eabi/10.3.1/../../../../arm-none-eabi/lib/thumb/v7-m/nofp/crt0.o
 .ARM.extab     0x00000000        0x0 c:/tools/gcc-arm-none-eabi-10.3-2021.07/bin/../lib/gcc/arm-none-eabi/10.3.1/../../../../arm-none-eabi/lib/thumb/v7-m/nofp/crt0.o
 .ARM.exidx     0x00000000       0x10 c:/tools/gcc-arm-none-eabi-10.3-2021.07/bin/../lib/gcc/arm-none-eabi/10.3.1/../../../../arm-none-eabi/lib/thumb/v7-m/nofp/crt0.o
 .ARM.attributes
                0x00000000       0x1b c:/tools/gcc-arm-none-eabi-10.3-2021.07/bin/../lib/gcc/arm-none-eabi/10.3.1/../../../../arm-none-eabi/lib/thumb/v7-m/nofp/crt0.o
 .text          0x00000000        0x0 CMakeFiles/FOC_Driver.elf.dir/Core/Src/adc.c.obj
 .data          0x00000000        0x0 CMakeFiles/FOC_Driver.elf.dir/Core/Src/adc.c.obj
 .bss           0x00000000        0x0 CMakeFiles/FOC_Driver.elf.dir/Core/Src/adc.c.obj
 .text.HAL_ADC_MspDeInit
                0x00000000       0x2c CMakeFiles/FOC_Driver.elf.dir/Core/Src/adc.c.obj
 .text          0x00000000        0x0 CMakeFiles/FOC_Driver.elf.dir/Core/Src/can.c.obj
Memory Configuration

Name             Origin             Length             Attributes
RAM              0x20000000         0x00005000         xrw
FLASH            0x08000000         0x00020000         xr
*default*        0x00000000         0xffffffff

Linker script and memory map

LOAD c:/tools/gcc-arm-none-eabi-10.3-2021.07/bin/../lib/gcc/arm-none-eabi/10.3.1/thumb/v7-m/nofp/crti.o
LOAD c:/tools/gcc-arm-none-eabi-10.3-2021.07/bin/../lib/gcc/arm-none-eabi/10.3.1/thumb/v7-m/nofp/crtbegin.o
LOAD c:/tools/gcc-arm-none-eabi-10.3-2021.07/bin/../lib/gcc/arm-none-eabi/10.3.1/../../../../arm-none-eabi/lib/thumb/v7-m/nofp/crt0.o
LOAD CMakeFiles/FOC_Driver.elf.dir/Core/Src/adc.c.obj
LOAD CMakeFiles/FOC_Driver.elf.dir/Core/Src/can.c.obj
LOAD CMakeFiles/FOC_Driver.elf.dir/Core/Src/gpio.c.obj
LOAD CMakeFiles/FOC_Driver.elf.dir/Core/Src/i2c.c.obj
LOAD CMakeFiles/FOC_Driver.elf.dir/Core/Src/main.c.obj
LOAD CMakeFiles/FOC_Driver.elf.dir/Core/Src/spi.c.obj
LOAD CMakeFiles/FOC_Driver.elf.dir/Core/Src/stm32f1xx_hal_msp.c.obj
LOAD CMakeFiles/FOC_Driver.elf.dir/Core/Src/stm32f1xx_it.c.obj
LOAD CMakeFiles/FOC_Driver.elf.dir/Core/Src/syscalls.c.obj
LOAD CMakeFiles/FOC_Driver.elf.dir/Core/Src/system_stm32f1xx.c.obj
LOAD CMakeFiles/FOC_Driver.elf.dir/Core/Src/tim.c.obj
LOAD CMakeFiles/FOC_Driver.elf.dir/Core/Src/usart.c.obj
LOAD CMakeFiles/FOC_Driver.elf.dir/Drivers/STM32F1xx_HAL_Driver/Src/stm32f1xx_hal.c.obj
LOAD CMakeFiles/FOC_Driver.elf.dir/Drivers/STM32F1xx_HAL_Driver/Src/stm32f1xx_hal_adc.c.obj
LOAD CMakeFiles/FOC_Driver.elf.dir/Drivers/STM32F1xx_HAL_Driver/Src/stm32f1xx_hal_adc_ex.c.obj
LOAD CMakeFiles/FOC_Driver.elf.dir/Drivers/STM32F1xx_HAL_Driver/Src/stm32f1xx_hal_can.c.obj
LOAD CMakeFiles/FOC_Driver.elf.dir/Drivers/STM32F1xx_HAL_Driver/Src/stm32f1xx_hal_cortex.c.obj
LOAD CMakeFiles/FOC_Driver.elf.dir/Drivers/STM32F1xx_HAL_Driver/Src/stm32f1xx_hal_dma.c.obj
LOAD CMakeFiles/FOC_Driver.elf.dir/Drivers/STM32F1xx_HAL_Driver/Src/stm32f1xx_hal_exti.c.obj
LOAD CMakeFiles/FOC_Driver.elf.dir/Drivers/STM32F1xx_HAL_Driver/Src/stm32f1xx_hal_flash.c.obj
LOAD CMakeFiles/FOC_Driver.elf.dir/Drivers/STM32F1xx_HAL_Driver/Src/stm32f1xx_hal_flash_ex.c.obj
LOAD CMakeFiles/FOC_Driver.elf.dir/Drivers/STM32F1xx_HAL_Driver/Src/stm32f1xx_hal_gpio.c.obj
LOAD CMakeFiles/FOC_Driver.elf.dir/Drivers/STM32F1xx_HAL_Driver/Src/stm32f1xx_hal_gpio_ex.c.obj
LOAD CMakeFiles/FOC_Driver.elf.dir/Drivers/STM32F1xx_HAL_Driver/Src/stm32f1xx_hal_i2c.c.obj
LOAD CMakeFiles/FOC_Driver.elf.dir/Drivers/STM32F1xx_HAL_Driver/Src/stm32f1xx_hal_pwr.c.obj
LOAD CMakeFiles/FOC_Driver.elf.dir/Drivers/STM32F1xx_HAL_Driver/Src/stm32f1xx_hal_rcc.c.obj
LOAD CMakeFiles/FOC_Driver.elf.dir/Drivers/STM32F1xx_HAL_Driver/Src/stm32f1xx_hal_rcc_ex.c.obj
LOAD CMakeFiles/FOC_Driver.elf.dir/Drivers/STM32F1xx_HAL_Driver/Src/stm32f1xx_hal_spi.c.obj
LOAD CMakeFiles/FOC_Driver.elf.dir/Drivers/STM32F1xx_HAL_Driver/Src/stm32f1xx_hal_tim.c.obj
LOAD CMakeFiles/FOC_Driver.elf.dir/Drivers/STM32F1xx_HAL_Driver/Src/stm32f1xx_hal_tim_ex.c.obj
LOAD CMakeFiles/FOC_Driver.elf.dir/Drivers/STM32F1xx_HAL_Driver/Src/stm32f1xx_hal_uart.c.obj
LOAD CMakeFiles/FOC_Driver.elf.dir/FOC/FOC.c.obj
LOAD CMakeFiles/FOC_Driver.elf.dir/FOC/FOC_utils.c.obj
LOAD CMakeFiles/FOC_Driver.elf.dir/FOC/hardware_specific/stm32_mcu.c.obj
LOAD CMakeFiles/FOC_Driver.elf.dir/retarget/retarget.c.obj
LOAD CMakeFiles/FOC_Driver.elf.dir/st7735/fonts.c.obj
LOAD CMakeFiles/FOC_Driver.elf.dir/st7735/st7735.c.obj
LOAD CMakeFiles/FOC_Driver.elf.dir/startup/startup_stm32f103xb.s.obj
START GROUP
LOAD c:/tools/gcc-arm-none-eabi-10.3-2021.07/bin/../lib/gcc/arm-none-eabi/10.3.1/thumb/v7-m/nofp\libgcc.a
LOAD c:/tools/gcc-arm-none-eabi-10.3-2021.07/bin/../lib/gcc/arm-none-eabi/10.3.1/../../../../arm-none-eabi/lib/thumb/v7-m/nofp\libg.a
LOAD c:/tools/gcc-arm-none-eabi-10.3-2021.07/bin/../lib/gcc/arm-none-eabi/10.3.1/../../../../arm-none-eabi/lib/thumb/v7-m/nofp\libc.a
END GROUP
LOAD c:/tools/gcc-arm-none-eabi-10.3-2021.07/bin/../lib/gcc/arm-none-eabi/10.3.1/thumb/v7-m/nofp/crtend.o
LOAD c:/tools/gcc-arm-none-eabi-10.3-2021.07/bin/../lib/gcc/arm-none-eabi/10.3.1/thumb/v7-m/nofp/crtn.o
                0x20005000                _estack = 0x20005000
                0x00000200                _Min_Heap_Size = 0x200
                0x00000400                _Min_Stack_Size = 0x400

.isr_vector     0x08000000      0x10c
                0x08000000                . = ALIGN (0x4)
 *(.isr_vector)
 .isr_vector    0x08000000      0x10c CMakeFiles/FOC_Driver.elf.dir/startup/startup_stm32f103xb.s.obj
                0x08000000                g_pfnVectors
                0x0800010c                . = ALIGN (0x4)

.text           0x08000110     0xadd4
                0x08000110                . = ALIGN (0x4)
 *(.text)
 .text          0x08000110       0x40 c:/tools/gcc-arm-none-eabi-10.3-2021.07/bin/../lib/gcc/arm-none-eabi/10.3.1/thumb/v7-m/nofp/crtbegin.o
 .text          0x08000150      0x378 c:/tools/gcc-arm-none-eabi-10.3-2021.07/bin/../lib/gcc/arm-none-eabi/10.3.1/thumb/v7-m/nofp\libgcc.a(_arm_addsubdf3.o)
                0x08000150                __aeabi_drsub
                0x08000158                __aeabi_dsub
                0x08000158                __subdf3
                0x0800015c                __aeabi_dadd
                0x0800015c                __adddf3
                0x080003d4                __floatunsidf
                0x080003d4                __aeabi_ui2d
                0x080003f4                __floatsidf
                0x080003f4                __aeabi_i2d
                0x08000418                __aeabi_f2d
                0x08000418                __extendsfdf2
                0x0800045c                __floatundidf
                0x0800045c                __aeabi_ul2d
                0x0800046c                __floatdidf
                0x0800046c                __aeabi_l2d
 .text          0x080004c8       0x50 c:/tools/gcc-arm-none-eabi-10.3-2021.07/bin/../lib/gcc/arm-none-eabi/10.3.1/thumb/v7-m/nofp\libgcc.a(_arm_fixdfsi.o)
                0x080004c8                __aeabi_d2iz
                0x080004c8                __fixdfsi
 .text          0x08000518       0x40 c:/tools/gcc-arm-none-eabi-10.3-2021.07/bin/../lib/gcc/arm-none-eabi/10.3.1/thumb/v7-m/nofp\libgcc.a(_arm_fixunsdfsi.o)
                0x08000518                __aeabi_d2uiz
                0x08000518                __fixunsdfsi
 .text          0x08000558       0xa0 c:/tools/gcc-arm-none-eabi-10.3-2021.07/bin/../lib/gcc/arm-none-eabi/10.3.1/thumb/v7-m/nofp\libgcc.a(_arm_truncdfsf2.o)
                0x08000558                __truncdfsf2
                0x08000558                __aeabi_d2f
 .text          0x080005f8      0x21c c:/tools/gcc-arm-none-eabi-10.3-2021.07/bin/../lib/gcc/arm-none-eabi/10.3.1/thumb/v7-m/nofp\libgcc.a(_arm_addsubsf3.o)
                0x080005f8                __aeabi_frsub
                0x08000600                __subsf3
                0x08000600                __aeabi_fsub
                0x08000604                __aeabi_fadd
                0x08000604                __addsf3
                0x08000764                __aeabi_ui2f
                0x08000764                __floatunsisf
                0x0800076c                __aeabi_i2f
                0x0800076c                __floatsisf
                0x08000788                __aeabi_ul2f
                0x08000788                __floatundisf
                0x08000798                __aeabi_l2f
                0x08000798                __floatdisf
 .text          0x08000814      0x2a0 c:/tools/gcc-arm-none-eabi-10.3-2021.07/bin/../lib/gcc/arm-none-eabi/10.3.1/thumb/v7-m/nofp\libgcc.a(_arm_muldivsf3.o)
                0x08000814                __mulsf3
                0x08000814                __aeabi_fmul
                0x0800097c                __aeabi_fdiv
                0x0800097c                __divsf3
 .text          0x08000ab4       0xec c:/tools/gcc-arm-none-eabi-10.3-2021.07/bin/../lib/gcc/arm-none-eabi/10.3.1/thumb/v7-m/nofp\libgcc.a(_arm_cmpsf2.o)
                0x08000ab4                __gesf2
                0x08000ab4                __gtsf2
                0x08000abc                __lesf2
                0x08000abc                __ltsf2
                0x08000ac4                __nesf2
                0x08000ac4                __eqsf2
                0x08000ac4                __cmpsf2
                0x08000b24                __aeabi_cfrcmple
                0x08000b2c                __aeabi_cfcmpeq
                0x08000b2c                __aeabi_cfcmple
                0x08000b3c                __aeabi_fcmpeq
                0x08000b50                __aeabi_fcmplt
                0x08000b64                __aeabi_fcmple
                0x08000b78                __aeabi_fcmpge
                0x08000b8c                __aeabi_fcmpgt
 .text          0x08000ba0       0x4c c:/tools/gcc-arm-none-eabi-10.3-2021.07/bin/../lib/gcc/arm-none-eabi/10.3.1/thumb/v7-m/nofp\libgcc.a(_arm_fixsfsi.o)
                0x08000ba0                __aeabi_f2iz
                0x08000ba0                __fixsfsi
 .text          0x08000bec       0xec c:/tools/gcc-arm-none-eabi-10.3-2021.07/bin/../lib/gcc/arm-none-eabi/10.3.1/../../../../arm-none-eabi/lib/thumb/v7-m/nofp\libg.a(lib_a-memcpy.o)
                0x08000bec                memcpy
 .text          0x08000cd8      0x424 c:/tools/gcc-arm-none-eabi-10.3-2021.07/bin/../lib/gcc/arm-none-eabi/10.3.1/thumb/v7-m/nofp\libgcc.a(_arm_muldivdf3.o)
                0x08000cd8                __aeabi_dmul
                0x08000cd8                __muldf3
                0x08000f2c                __divdf3
                0x08000f2c                __aeabi_ddiv
 .text          0x080010fc      0x110 c:/tools/gcc-arm-none-eabi-10.3-2021.07/bin/../lib/gcc/arm-none-eabi/10.3.1/thumb/v7-m/nofp\libgcc.a(_arm_cmpdf2.o)
                0x080010fc                __gtdf2
                0x080010fc                __gedf2
                0x08001104                __ltdf2
                0x08001104                __ledf2
                0x0800110c                __nedf2
                0x0800110c                __eqdf2
                0x0800110c                __cmpdf2
                0x08001188                __aeabi_cdrcmple
                0x08001198                __aeabi_cdcmpeq
                0x08001198                __aeabi_cdcmple
                0x080011a8                __aeabi_dcmpeq
                0x080011bc                __aeabi_dcmplt
                0x080011d0                __aeabi_dcmple
                0x080011e4                __aeabi_dcmpge
                0x080011f8                __aeabi_dcmpgt
 .text          0x0800120c       0x2c c:/tools/gcc-arm-none-eabi-10.3-2021.07/bin/../lib/gcc/arm-none-eabi/10.3.1/thumb/v7-m/nofp\libgcc.a(_arm_unorddf2.o)
                0x0800120c                __unorddf2
                0x0800120c                __aeabi_dcmpun
 .text          0x08001238       0x30 c:/tools/gcc-arm-none-eabi-10.3-2021.07/bin/../lib/gcc/arm-none-eabi/10.3.1/thumb/v7-m/nofp\libgcc.a(_aeabi_uldivmod.o)
                0x08001238                __aeabi_uldivmod
 .text          0x08001268      0x2d4 c:/tools/gcc-arm-none-eabi-10.3-2021.07/bin/../lib/gcc/arm-none-eabi/10.3.1/thumb/v7-m/nofp\libgcc.a(_udivmoddi4.o)
                0x08001268                __udivmoddi4
 .text          0x0800153c        0x4 c:/tools/gcc-arm-none-eabi-10.3-2021.07/bin/../lib/gcc/arm-none-eabi/10.3.1/thumb/v7-m/nofp\libgcc.a(_dvmd_tls.o)
                0x0800153c                __aeabi_idiv0
                0x0800153c                __aeabi_ldiv0
 *(.text*)
 .text.MX_ADC1_Init
                0x08001540       0x58 CMakeFiles/FOC_Driver.elf.dir/Core/Src/adc.c.obj
                0x08001540                MX_ADC1_Init
 .text.HAL_ADC_MspInit
                0x08001598       0x60 CMakeFiles/FOC_Driver.elf.dir/Core/Src/adc.c.obj
                0x08001598                HAL_ADC_MspInit
 .text.MX_CAN_Init
                0x080015f8       0x38 CMakeFiles/FOC_Driver.elf.dir/Core/Src/can.c.obj
                0x080015f8                MX_CAN_Init
 .text.HAL_CAN_MspInit
                0x08001630       0x74 CMakeFiles/FOC_Driver.elf.dir/Core/Src/can.c.obj
                0x08001630                HAL_CAN_MspInit
 .text.MX_GPIO_Init
                0x080016a4       0xb8 CMakeFiles/FOC_Driver.elf.dir/Core/Src/gpio.c.obj
                0x080016a4                MX_GPIO_Init
 .text.MX_I2C1_Init
                0x0800175c       0x3c CMakeFiles/FOC_Driver.elf.dir/Core/Src/i2c.c.obj
                0x0800175c                MX_I2C1_Init
 .text.HAL_I2C_MspInit
                0x08001798       0x78 CMakeFiles/FOC_Driver.elf.dir/Core/Src/i2c.c.obj
                0x08001798                HAL_I2C_MspInit
 .text.Error_Handler
                0x08001810        0x4 CMakeFiles/FOC_Driver.elf.dir/Core/Src/main.c.obj
                0x08001810                Error_Handler
 .text.SystemClock_Config
                0x08001814       0x84 CMakeFiles/FOC_Driver.elf.dir/Core/Src/main.c.obj
                0x08001814                SystemClock_Config
 .text.main     0x08001898      0x108 CMakeFiles/FOC_Driver.elf.dir/Core/Src/main.c.obj
                0x08001898                main
 .text.MX_SPI1_Init
                0x080019a0       0x48 CMakeFiles/FOC_Driver.elf.dir/Core/Src/spi.c.obj
                0x080019a0                MX_SPI1_Init
 .text.HAL_SPI_MspInit
                0x080019e8       0x64 CMakeFiles/FOC_Driver.elf.dir/Core/Src/spi.c.obj
                0x080019e8                HAL_SPI_MspInit
 .text.HAL_MspInit
                0x08001a4c       0x44 CMakeFiles/FOC_Driver.elf.dir/Core/Src/stm32f1xx_hal_msp.c.obj
                0x08001a4c                HAL_MspInit
 .text.NMI_Handler
                0x08001a90        0x2 CMakeFiles/FOC_Driver.elf.dir/Core/Src/stm32f1xx_it.c.obj
                0x08001a90                NMI_Handler
 .text.HardFault_Handler
                0x08001a92        0x2 CMakeFiles/FOC_Driver.elf.dir/Core/Src/stm32f1xx_it.c.obj
                0x08001a92                HardFault_Handler
 .text.MemManage_Handler
                0x08001a94        0x2 CMakeFiles/FOC_Driver.elf.dir/Core/Src/stm32f1xx_it.c.obj
                0x08001a94                MemManage_Handler
 .text.BusFault_Handler
                0x08001a96        0x2 CMakeFiles/FOC_Driver.elf.dir/Core/Src/stm32f1xx_it.c.obj
                0x08001a96                BusFault_Handler
 .text.UsageFault_Handler
                0x08001a98        0x2 CMakeFiles/FOC_Driver.elf.dir/Core/Src/stm32f1xx_it.c.obj
                0x08001a98                UsageFault_Handler
 .text.SVC_Handler
                0x08001a9a        0x2 CMakeFiles/FOC_Driver.elf.dir/Core/Src/stm32f1xx_it.c.obj
                0x08001a9a                SVC_Handler
 .text.DebugMon_Handler
                0x08001a9c        0x2 CMakeFiles/FOC_Driver.elf.dir/Core/Src/stm32f1xx_it.c.obj
                0x08001a9c                DebugMon_Handler
 .text.PendSV_Handler
                0x08001a9e        0x2 CMakeFiles/FOC_Driver.elf.dir/Core/Src/stm32f1xx_it.c.obj
                0x08001a9e                PendSV_Handler
 .text.SysTick_Handler
                0x08001aa0        0x8 CMakeFiles/FOC_Driver.elf.dir/Core/Src/stm32f1xx_it.c.obj
                0x08001aa0                SysTick_Handler
 .text._getpid  0x08001aa8        0x4 CMakeFiles/FOC_Driver.elf.dir/Core/Src/syscalls.c.obj
                0x08001aa8                _getpid
 .text._kill    0x08001aac       0x10 CMakeFiles/FOC_Driver.elf.dir/Core/Src/syscalls.c.obj
                0x08001aac                _kill
 .text._exit    0x08001abc        0xc CMakeFiles/FOC_Driver.elf.dir/Core/Src/syscalls.c.obj
                0x08001abc                _exit
 .text._sbrk    0x08001ac8       0x3c CMakeFiles/FOC_Driver.elf.dir/Core/Src/syscalls.c.obj
                0x08001ac8                _sbrk
 .text.SystemInit
                0x08001b04        0x2 CMakeFiles/FOC_Driver.elf.dir/Core/Src/system_stm32f1xx.c.obj
                0x08001b04                SystemInit
 *fill*         0x08001b06        0x2 
 .text.HAL_TIM_Base_MspInit
                0x08001b08       0x2c CMakeFiles/FOC_Driver.elf.dir/Core/Src/tim.c.obj
                0x08001b08                HAL_TIM_Base_MspInit
 .text.HAL_TIM_MspPostInit
                0x08001b34       0x50 CMakeFiles/FOC_Driver.elf.dir/Core/Src/tim.c.obj
                0x08001b34                HAL_TIM_MspPostInit
 .text.MX_TIM1_Init
                0x08001b84      0x110 CMakeFiles/FOC_Driver.elf.dir/Core/Src/tim.c.obj
                0x08001b84                MX_TIM1_Init
 .text.MX_USART1_UART_Init
                0x08001c94       0x34 CMakeFiles/FOC_Driver.elf.dir/Core/Src/usart.c.obj
                0x08001c94                MX_USART1_UART_Init
 .text.HAL_UART_MspInit
                0x08001cc8       0x88 CMakeFiles/FOC_Driver.elf.dir/Core/Src/usart.c.obj
                0x08001cc8                HAL_UART_MspInit
 .text.HAL_InitTick
                0x08001d50       0x4c CMakeFiles/FOC_Driver.elf.dir/Drivers/STM32F1xx_HAL_Driver/Src/stm32f1xx_hal.c.obj
                0x08001d50                HAL_InitTick
 .text.HAL_Init
                0x08001d9c       0x24 CMakeFiles/FOC_Driver.elf.dir/Drivers/STM32F1xx_HAL_Driver/Src/stm32f1xx_hal.c.obj
                0x08001d9c                HAL_Init
 .text.HAL_IncTick
                0x08001dc0       0x18 CMakeFiles/FOC_Driver.elf.dir/Drivers/STM32F1xx_HAL_Driver/Src/stm32f1xx_hal.c.obj
                0x08001dc0                HAL_IncTick
 .text.HAL_GetTick
                0x08001dd8        0xc CMakeFiles/FOC_Driver.elf.dir/Drivers/STM32F1xx_HAL_Driver/Src/stm32f1xx_hal.c.obj
                0x08001dd8                HAL_GetTick
 .text.HAL_Delay
                0x08001de4       0x28 CMakeFiles/FOC_Driver.elf.dir/Drivers/STM32F1xx_HAL_Driver/Src/stm32f1xx_hal.c.obj
                0x08001de4                HAL_Delay
 .text.HAL_ADC_ConfigChannel
                0x08001e0c      0x144 CMakeFiles/FOC_Driver.elf.dir/Drivers/STM32F1xx_HAL_Driver/Src/stm32f1xx_hal_adc.c.obj
                0x08001e0c                HAL_ADC_ConfigChannel
 .text.ADC_ConversionStop_Disable
                0x08001f50       0x56 CMakeFiles/FOC_Driver.elf.dir/Drivers/STM32F1xx_HAL_Driver/Src/stm32f1xx_hal_adc.c.obj
                0x08001f50                ADC_ConversionStop_Disable
 *fill*         0x08001fa6        0x2 
 .text.HAL_ADC_Init
                0x08001fa8      0x108 CMakeFiles/FOC_Driver.elf.dir/Drivers/STM32F1xx_HAL_Driver/Src/stm32f1xx_hal_adc.c.obj
                0x08001fa8                HAL_ADC_Init
 .text.HAL_CAN_Init
                0x080020b0      0x14c CMakeFiles/FOC_Driver.elf.dir/Drivers/STM32F1xx_HAL_Driver/Src/stm32f1xx_hal_can.c.obj
                0x080020b0                HAL_CAN_Init
 .text.HAL_NVIC_SetPriorityGrouping
                0x080021fc       0x24 CMakeFiles/FOC_Driver.elf.dir/Drivers/STM32F1xx_HAL_Driver/Src/stm32f1xx_hal_cortex.c.obj
                0x080021fc                HAL_NVIC_SetPriorityGrouping
 .text.HAL_NVIC_SetPriority
                0x08002220       0x70 CMakeFiles/FOC_Driver.elf.dir/Drivers/STM32F1xx_HAL_Driver/Src/stm32f1xx_hal_cortex.c.obj
                0x08002220                HAL_NVIC_SetPriority
 .text.HAL_SYSTICK_Config
                0x08002290       0x28 CMakeFiles/FOC_Driver.elf.dir/Drivers/STM32F1xx_HAL_Driver/Src/stm32f1xx_hal_cortex.c.obj
                0x08002290                HAL_SYSTICK_Config
 .text.HAL_GPIO_Init
                0x080022b8      0x224 CMakeFiles/FOC_Driver.elf.dir/Drivers/STM32F1xx_HAL_Driver/Src/stm32f1xx_hal_gpio.c.obj
                0x080022b8                HAL_GPIO_Init
 .text.HAL_GPIO_WritePin
                0x080024dc        0xc CMakeFiles/FOC_Driver.elf.dir/Drivers/STM32F1xx_HAL_Driver/Src/stm32f1xx_hal_gpio.c.obj
                0x080024dc                HAL_GPIO_WritePin
 .text.HAL_I2C_Init
                0x080024e8      0x1bc CMakeFiles/FOC_Driver.elf.dir/Drivers/STM32F1xx_HAL_Driver/Src/stm32f1xx_hal_i2c.c.obj
                0x080024e8                HAL_I2C_Init
 .text.RCC_Delay
                0x080026a4       0x2c CMakeFiles/FOC_Driver.elf.dir/Drivers/STM32F1xx_HAL_Driver/Src/stm32f1xx_hal_rcc.c.obj
 .text.HAL_RCC_OscConfig
                0x080026d0      0x410 CMakeFiles/FOC_Driver.elf.dir/Drivers/STM32F1xx_HAL_Driver/Src/stm32f1xx_hal_rcc.c.obj
                0x080026d0                HAL_RCC_OscConfig
 .text.HAL_RCC_GetSysClockFreq
                0x08002ae0       0x70 CMakeFiles/FOC_Driver.elf.dir/Drivers/STM32F1xx_HAL_Driver/Src/stm32f1xx_hal_rcc.c.obj
                0x08002ae0                HAL_RCC_GetSysClockFreq
 .text.HAL_RCC_ClockConfig
                0x08002b50      0x16c CMakeFiles/FOC_Driver.elf.dir/Drivers/STM32F1xx_HAL_Driver/Src/stm32f1xx_hal_rcc.c.obj
                0x08002b50                HAL_RCC_ClockConfig
 .text.HAL_RCC_GetHCLKFreq
                0x08002cbc        0xc CMakeFiles/FOC_Driver.elf.dir/Drivers/STM32F1xx_HAL_Driver/Src/stm32f1xx_hal_rcc.c.obj
                0x08002cbc                HAL_RCC_GetHCLKFreq
 .text.HAL_RCC_GetPCLK1Freq
                0x08002cc8       0x20 CMakeFiles/FOC_Driver.elf.dir/Drivers/STM32F1xx_HAL_Driver/Src/stm32f1xx_hal_rcc.c.obj
                0x08002cc8                HAL_RCC_GetPCLK1Freq
 .text.HAL_RCC_GetPCLK2Freq
                0x08002ce8       0x20 CMakeFiles/FOC_Driver.elf.dir/Drivers/STM32F1xx_HAL_Driver/Src/stm32f1xx_hal_rcc.c.obj
                0x08002ce8                HAL_RCC_GetPCLK2Freq
 .text.HAL_RCCEx_PeriphCLKConfig
                0x08002d08      0x118 CMakeFiles/FOC_Driver.elf.dir/Drivers/STM32F1xx_HAL_Driver/Src/stm32f1xx_hal_rcc_ex.c.obj
                0x08002d08                HAL_RCCEx_PeriphCLKConfig
 .text.SPI_WaitFlagStateUntilTimeout
                0x08002e20       0xd4 CMakeFiles/FOC_Driver.elf.dir/Drivers/STM32F1xx_HAL_Driver/Src/stm32f1xx_hal_spi.c.obj
 .text.SPI_EndRxTxTransaction
                0x08002ef4       0x24 CMakeFiles/FOC_Driver.elf.dir/Drivers/STM32F1xx_HAL_Driver/Src/stm32f1xx_hal_spi.c.obj
 .text.HAL_SPI_Init
                0x08002f18       0xb6 CMakeFiles/FOC_Driver.elf.dir/Drivers/STM32F1xx_HAL_Driver/Src/stm32f1xx_hal_spi.c.obj
                0x08002f18                HAL_SPI_Init
 .text.HAL_SPI_Transmit
                0x08002fce      0x1b8 CMakeFiles/FOC_Driver.elf.dir/Drivers/STM32F1xx_HAL_Driver/Src/stm32f1xx_hal_spi.c.obj
                0x08002fce                HAL_SPI_Transmit
 *fill*         0x08003186        0x2 
 .text.TIM_OC1_SetConfig
                0x08003188       0x5c CMakeFiles/FOC_Driver.elf.dir/Drivers/STM32F1xx_HAL_Driver/Src/stm32f1xx_hal_tim.c.obj
 .text.TIM_OC3_SetConfig
                0x080031e4       0x64 CMakeFiles/FOC_Driver.elf.dir/Drivers/STM32F1xx_HAL_Driver/Src/stm32f1xx_hal_tim.c.obj
 .text.TIM_OC4_SetConfig
                0x08003248       0x48 CMakeFiles/FOC_Driver.elf.dir/Drivers/STM32F1xx_HAL_Driver/Src/stm32f1xx_hal_tim.c.obj
 .text.TIM_TI1_ConfigInputStage
                0x08003290       0x24 CMakeFiles/FOC_Driver.elf.dir/Drivers/STM32F1xx_HAL_Driver/Src/stm32f1xx_hal_tim.c.obj
 .text.TIM_TI2_ConfigInputStage
                0x080032b4       0x26 CMakeFiles/FOC_Driver.elf.dir/Drivers/STM32F1xx_HAL_Driver/Src/stm32f1xx_hal_tim.c.obj
 .text.TIM_ITRx_SetConfig
                0x080032da       0x10 CMakeFiles/FOC_Driver.elf.dir/Drivers/STM32F1xx_HAL_Driver/Src/stm32f1xx_hal_tim.c.obj
 .text.HAL_TIM_PWM_MspInit
                0x080032ea        0x2 CMakeFiles/FOC_Driver.elf.dir/Drivers/STM32F1xx_HAL_Driver/Src/stm32f1xx_hal_tim.c.obj
                0x080032ea                HAL_TIM_PWM_MspInit
 .text.TIM_Base_SetConfig
                0x080032ec       0x74 CMakeFiles/FOC_Driver.elf.dir/Drivers/STM32F1xx_HAL_Driver/Src/stm32f1xx_hal_tim.c.obj
                0x080032ec                TIM_Base_SetConfig
 .text.HAL_TIM_Base_Init
                0x08003360       0x58 CMakeFiles/FOC_Driver.elf.dir/Drivers/STM32F1xx_HAL_Driver/Src/stm32f1xx_hal_tim.c.obj
                0x08003360                HAL_TIM_Base_Init
 .text.HAL_TIM_PWM_Init
                0x080033b8       0x58 CMakeFiles/FOC_Driver.elf.dir/Drivers/STM32F1xx_HAL_Driver/Src/stm32f1xx_hal_tim.c.obj
                0x080033b8                HAL_TIM_PWM_Init
 .text.TIM_OC2_SetConfig
                0x08003410       0x64 CMakeFiles/FOC_Driver.elf.dir/Drivers/STM32F1xx_HAL_Driver/Src/stm32f1xx_hal_tim.c.obj
                0x08003410                TIM_OC2_SetConfig
 .text.HAL_TIM_PWM_ConfigChannel
                0x08003474       0xd0 CMakeFiles/FOC_Driver.elf.dir/Drivers/STM32F1xx_HAL_Driver/Src/stm32f1xx_hal_tim.c.obj
                0x08003474                HAL_TIM_PWM_ConfigChannel
 .text.TIM_ETR_SetConfig
                0x08003544       0x18 CMakeFiles/FOC_Driver.elf.dir/Drivers/STM32F1xx_HAL_Driver/Src/stm32f1xx_hal_tim.c.obj
                0x08003544                TIM_ETR_SetConfig
 .text.HAL_TIM_ConfigClockSource
                0x0800355c       0xda CMakeFiles/FOC_Driver.elf.dir/Drivers/STM32F1xx_HAL_Driver/Src/stm32f1xx_hal_tim.c.obj
                0x0800355c                HAL_TIM_ConfigClockSource
 .text.TIM_CCxChannelCmd
                0x08003636       0x1e CMakeFiles/FOC_Driver.elf.dir/Drivers/STM32F1xx_HAL_Driver/Src/stm32f1xx_hal_tim.c.obj
                0x08003636                TIM_CCxChannelCmd
 .text.HAL_TIM_PWM_Start
                0x08003654       0xdc CMakeFiles/FOC_Driver.elf.dir/Drivers/STM32F1xx_HAL_Driver/Src/stm32f1xx_hal_tim.c.obj
                0x08003654                HAL_TIM_PWM_Start
 .text.HAL_TIMEx_MasterConfigSynchronization
                0x08003730       0x6c CMakeFiles/FOC_Driver.elf.dir/Drivers/STM32F1xx_HAL_Driver/Src/stm32f1xx_hal_tim_ex.c.obj
                0x08003730                HAL_TIMEx_MasterConfigSynchronization
 .text.HAL_TIMEx_ConfigBreakDeadTime
                0x0800379c       0x52 CMakeFiles/FOC_Driver.elf.dir/Drivers/STM32F1xx_HAL_Driver/Src/stm32f1xx_hal_tim_ex.c.obj
                0x0800379c                HAL_TIMEx_ConfigBreakDeadTime
 *fill*         0x080037ee        0x2 
 .text.UART_SetConfig
                0x080037f0       0x94 CMakeFiles/FOC_Driver.elf.dir/Drivers/STM32F1xx_HAL_Driver/Src/stm32f1xx_hal_uart.c.obj
 .text.UART_WaitOnFlagUntilTimeout
                0x08003884       0x6c CMakeFiles/FOC_Driver.elf.dir/Drivers/STM32F1xx_HAL_Driver/Src/stm32f1xx_hal_uart.c.obj
 .text.HAL_UART_Init
                0x080038f0       0x5e CMakeFiles/FOC_Driver.elf.dir/Drivers/STM32F1xx_HAL_Driver/Src/stm32f1xx_hal_uart.c.obj
                0x080038f0                HAL_UART_Init
 .text.HAL_UART_Transmit
                0x0800394e       0xd8 CMakeFiles/FOC_Driver.elf.dir/Drivers/STM32F1xx_HAL_Driver/Src/stm32f1xx_hal_uart.c.obj
                0x0800394e                HAL_UART_Transmit
 .text.HAL_UART_Receive
                0x08003a26       0xe4 CMakeFiles/FOC_Driver.elf.dir/Drivers/STM32F1xx_HAL_Driver/Src/stm32f1xx_hal_uart.c.obj
                0x08003a26                HAL_UART_Receive
 .text.FOC_init
                0x08003b0a        0x8 CMakeFiles/FOC_Driver.elf.dir/FOC/FOC.c.obj
                0x08003b0a                FOC_init
 *fill*         0x08003b12        0x2 
 .text.FOC_SVPWM
                0x08003b14      0x204 CMakeFiles/FOC_Driver.elf.dir/FOC/FOC.c.obj
                0x08003b14                FOC_SVPWM
 .text._sin     0x08003d18      0x164 CMakeFiles/FOC_Driver.elf.dir/FOC/FOC_utils.c.obj
                0x08003d18                _sin
 *fill*         0x08003e7c        0x4 
 .text._normalizeAngle
                0x08003e80       0x3c CMakeFiles/FOC_Driver.elf.dir/FOC/FOC_utils.c.obj
                0x08003e80                _normalizeAngle
 .text._sqrtApprox
                0x08003ebc       0x14 CMakeFiles/FOC_Driver.elf.dir/FOC/FOC_utils.c.obj
                0x08003ebc                _sqrtApprox
 .text._init3PWM
                0x08003ed0       0x34 CMakeFiles/FOC_Driver.elf.dir/FOC/hardware_specific/stm32_mcu.c.obj
                0x08003ed0                _init3PWM
 *fill*         0x08003f04        0x4 
 .text._writeDutyCycle3PWM
                0x08003f08       0x5c CMakeFiles/FOC_Driver.elf.dir/FOC/hardware_specific/stm32_mcu.c.obj
                0x08003f08                _writeDutyCycle3PWM
 .text.RetargetInit
                0x08003f64       0x20 CMakeFiles/FOC_Driver.elf.dir/retarget/retarget.c.obj
                0x08003f64                RetargetInit
 .text._isatty  0x08003f84       0x16 CMakeFiles/FOC_Driver.elf.dir/retarget/retarget.c.obj
                0x08003f84                _isatty
 *fill*         0x08003f9a        0x2 
 .text._write   0x08003f9c       0x34 CMakeFiles/FOC_Driver.elf.dir/retarget/retarget.c.obj
                0x08003f9c                _write
 .text._close   0x08003fd0       0x18 CMakeFiles/FOC_Driver.elf.dir/retarget/retarget.c.obj
                0x08003fd0                _close
 .text._lseek   0x08003fe8       0x10 CMakeFiles/FOC_Driver.elf.dir/retarget/retarget.c.obj
                0x08003fe8                _lseek
 .text._read    0x08003ff8       0x30 CMakeFiles/FOC_Driver.elf.dir/retarget/retarget.c.obj
                0x08003ff8                _read
 .text._fstat   0x08004028       0x1a CMakeFiles/FOC_Driver.elf.dir/retarget/retarget.c.obj
                0x08004028                _fstat
 *fill*         0x08004042        0x2 
 .text.ST7735_Reset
                0x08004044       0x24 CMakeFiles/FOC_Driver.elf.dir/st7735/st7735.c.obj
 .text.ST7735_WriteCommand
                0x08004068       0x30 CMakeFiles/FOC_Driver.elf.dir/st7735/st7735.c.obj
 .text.ST7735_WriteData
                0x08004098       0x28 CMakeFiles/FOC_Driver.elf.dir/st7735/st7735.c.obj
 .text.ST7735_ExecuteCommandList
                0x080040c0       0x4c CMakeFiles/FOC_Driver.elf.dir/st7735/st7735.c.obj
 .text.ST7735_SetAddressWindow
                0x0800410c       0x58 CMakeFiles/FOC_Driver.elf.dir/st7735/st7735.c.obj
 .text.ST7735_WriteChar
                0x08004164       0x98 CMakeFiles/FOC_Driver.elf.dir/st7735/st7735.c.obj
 .text.ST7735_Init
                0x080041fc       0x28 CMakeFiles/FOC_Driver.elf.dir/st7735/st7735.c.obj
                0x080041fc                ST7735_Init
 .text.ST7735_WriteString
                0x08004224       0x6a CMakeFiles/FOC_Driver.elf.dir/st7735/st7735.c.obj
                0x08004224                ST7735_WriteString
 *fill*         0x0800428e        0x2 
 .text.ST7735_FillRectangle
                0x08004290       0x88 CMakeFiles/FOC_Driver.elf.dir/st7735/st7735.c.obj
                0x08004290                ST7735_FillRectangle
 .text.ST7735_FillScreen
                0x08004318       0x18 CMakeFiles/FOC_Driver.elf.dir/st7735/st7735.c.obj
                0x08004318                ST7735_FillScreen
 .text.ST7735_DrawImage
                0x08004330       0x44 CMakeFiles/FOC_Driver.elf.dir/st7735/st7735.c.obj
                0x08004330                ST7735_DrawImage
 .text.Reset_Handler
                0x08004374       0x48 CMakeFiles/FOC_Driver.elf.dir/startup/startup_stm32f103xb.s.obj
                0x08004374                Reset_Handler
 .text.Default_Handler
                0x080043bc        0x2 CMakeFiles/FOC_Driver.elf.dir/startup/startup_stm32f103xb.s.obj
                0x080043bc                RTC_Alarm_IRQHandler
                0x080043bc                EXTI2_IRQHandler
                0x080043bc                TIM1_CC_IRQHandler
                0x080043bc                PVD_IRQHandler
                0x080043bc                EXTI3_IRQHandler
                0x080043bc                EXTI0_IRQHandler
                0x080043bc                I2C2_EV_IRQHandler
                0x080043bc                ADC1_2_IRQHandler
                0x080043bc                SPI1_IRQHandler
                0x080043bc                TAMPER_IRQHandler
                0x080043bc                DMA1_Channel4_IRQHandler
                0x080043bc                USART3_IRQHandler
                0x080043bc                RTC_IRQHandler
                0x080043bc                DMA1_Channel7_IRQHandler
                0x080043bc                CAN1_RX1_IRQHandler
                0x080043bc                TIM4_IRQHandler
                0x080043bc                I2C1_EV_IRQHandler
                0x080043bc                DMA1_Channel6_IRQHandler
                0x080043bc                TIM3_IRQHandler
                0x080043bc                RCC_IRQHandler
                0x080043bc                TIM1_TRG_COM_IRQHandler
                0x080043bc                DMA1_Channel1_IRQHandler
                0x080043bc                Default_Handler
                0x080043bc                EXTI15_10_IRQHandler
                0x080043bc                EXTI9_5_IRQHandler
                0x080043bc                SPI2_IRQHandler
                0x080043bc                DMA1_Channel5_IRQHandler
                0x080043bc                EXTI4_IRQHandler
                0x080043bc                USB_LP_CAN1_RX0_IRQHandler
                0x080043bc                USB_HP_CAN1_TX_IRQHandler
                0x080043bc                DMA1_Channel3_IRQHandler
                0x080043bc                TIM1_UP_IRQHandler
                0x080043bc                WWDG_IRQHandler
                0x080043bc                TIM2_IRQHandler
                0x080043bc                TIM1_BRK_IRQHandler
                0x080043bc                EXTI1_IRQHandler
                0x080043bc                USART2_IRQHandler
                0x080043bc                I2C2_ER_IRQHandler
                0x080043bc                DMA1_Channel2_IRQHandler
                0x080043bc                CAN1_SCE_IRQHandler
                0x080043bc                FLASH_IRQHandler
                0x080043bc                USART1_IRQHandler
                0x080043bc                I2C1_ER_IRQHandler
                0x080043bc                USBWakeUp_IRQHandler
 *fill*         0x080043be        0x2 
 .text.__errno  0x080043c0        0xc c:/tools/gcc-arm-none-eabi-10.3-2021.07/bin/../lib/gcc/arm-none-eabi/10.3.1/../../../../arm-none-eabi/lib/thumb/v7-m/nofp\libg.a(lib_a-errno.o)
                0x080043c0                __errno
 .text.__libc_init_array
                0x080043cc       0x48 c:/tools/gcc-arm-none-eabi-10.3-2021.07/bin/../lib/gcc/arm-none-eabi/10.3.1/../../../../arm-none-eabi/lib/thumb/v7-m/nofp\libg.a(lib_a-init.o)
                0x080043cc                __libc_init_array
 .text.malloc   0x08004414       0x10 c:/tools/gcc-arm-none-eabi-10.3-2021.07/bin/../lib/gcc/arm-none-eabi/10.3.1/../../../../arm-none-eabi/lib/thumb/v7-m/nofp\libg.a(lib_a-malloc.o)
                0x08004414                malloc
 .text._malloc_r
                0x08004424      0x558 c:/tools/gcc-arm-none-eabi-10.3-2021.07/bin/../lib/gcc/arm-none-eabi/10.3.1/../../../../arm-none-eabi/lib/thumb/v7-m/nofp\libg.a(lib_a-mallocr.o)
                0x08004424                _malloc_r
 .text.memset   0x0800497c       0xa4 c:/tools/gcc-arm-none-eabi-10.3-2021.07/bin/../lib/gcc/arm-none-eabi/10.3.1/../../../../arm-none-eabi/lib/thumb/v7-m/nofp\libg.a(lib_a-memset.o)
                0x0800497c                memset
 .text.__malloc_lock
                0x08004a20        0xc c:/tools/gcc-arm-none-eabi-10.3-2021.07/bin/../lib/gcc/arm-none-eabi/10.3.1/../../../../arm-none-eabi/lib/thumb/v7-m/nofp\libg.a(lib_a-mlock.o)
                0x08004a20                __malloc_lock
 .text.__malloc_unlock
                0x08004a2c        0xc c:/tools/gcc-arm-none-eabi-10.3-2021.07/bin/../lib/gcc/arm-none-eabi/10.3.1/../../../../arm-none-eabi/lib/thumb/v7-m/nofp\libg.a(lib_a-mlock.o)
                0x08004a2c                __malloc_unlock
 .text.printf   0x08004a38       0x28 c:/tools/gcc-arm-none-eabi-10.3-2021.07/bin/../lib/gcc/arm-none-eabi/10.3.1/../../../../arm-none-eabi/lib/thumb/v7-m/nofp\libg.a(lib_a-printf.o)
                0x08004a38                printf
 .text._sbrk_r  0x08004a60       0x24 c:/tools/gcc-arm-none-eabi-10.3-2021.07/bin/../lib/gcc/arm-none-eabi/10.3.1/../../../../arm-none-eabi/lib/thumb/v7-m/nofp\libg.a(lib_a-sbrkr.o)
                0x08004a60                _sbrk_r
 .text.setvbuf  0x08004a84      0x1b0 c:/tools/gcc-arm-none-eabi-10.3-2021.07/bin/../lib/gcc/arm-none-eabi/10.3.1/../../../../arm-none-eabi/lib/thumb/v7-m/nofp\libg.a(lib_a-setvbuf.o)
                0x08004a84                setvbuf
 .text._vfprintf_r
                0x08004c34     0x1b58 c:/tools/gcc-arm-none-eabi-10.3-2021.07/bin/../lib/gcc/arm-none-eabi/10.3.1/../../../../arm-none-eabi/lib/thumb/v7-m/nofp\libg.a(lib_a-vfprintf.o)
                0x08004c34                _vfprintf_r
 .text.__sbprintf
                0x0800678c       0x84 c:/tools/gcc-arm-none-eabi-10.3-2021.07/bin/../lib/gcc/arm-none-eabi/10.3.1/../../../../arm-none-eabi/lib/thumb/v7-m/nofp\libg.a(lib_a-vfprintf.o)
 .text.__swsetup_r
                0x08006810       0xd4 c:/tools/gcc-arm-none-eabi-10.3-2021.07/bin/../lib/gcc/arm-none-eabi/10.3.1/../../../../arm-none-eabi/lib/thumb/v7-m/nofp\libg.a(lib_a-wsetup.o)
                0x08006810                __swsetup_r
 .text.startup.register_fini
                0x080068e4       0x14 c:/tools/gcc-arm-none-eabi-10.3-2021.07/bin/../lib/gcc/arm-none-eabi/10.3.1/../../../../arm-none-eabi/lib/thumb/v7-m/nofp\libg.a(lib_a-__call_atexit.o)
 .text.atexit   0x080068f8        0xc c:/tools/gcc-arm-none-eabi-10.3-2021.07/bin/../lib/gcc/arm-none-eabi/10.3.1/../../../../arm-none-eabi/lib/thumb/v7-m/nofp\libg.a(lib_a-atexit.o)
                0x080068f8                atexit
 .text.quorem   0x08006904      0x12c c:/tools/gcc-arm-none-eabi-10.3-2021.07/bin/../lib/gcc/arm-none-eabi/10.3.1/../../../../arm-none-eabi/lib/thumb/v7-m/nofp\libg.a(lib_a-dtoa.o)
 .text._dtoa_r  0x08006a30      0xecc c:/tools/gcc-arm-none-eabi-10.3-2021.07/bin/../lib/gcc/arm-none-eabi/10.3.1/../../../../arm-none-eabi/lib/thumb/v7-m/nofp\libg.a(lib_a-dtoa.o)
                0x08006a30                _dtoa_r
 .text.__sflush_r
                0x080078fc      0x124 c:/tools/gcc-arm-none-eabi-10.3-2021.07/bin/../lib/gcc/arm-none-eabi/10.3.1/../../../../arm-none-eabi/lib/thumb/v7-m/nofp\libg.a(lib_a-fflush.o)
                0x080078fc                __sflush_r
 .text._fflush_r
                0x08007a20       0x5c c:/tools/gcc-arm-none-eabi-10.3-2021.07/bin/../lib/gcc/arm-none-eabi/10.3.1/../../../../arm-none-eabi/lib/thumb/v7-m/nofp\libg.a(lib_a-fflush.o)
                0x08007a20                _fflush_r
 .text._cleanup_r
                0x08007a7c        0xc c:/tools/gcc-arm-none-eabi-10.3-2021.07/bin/../lib/gcc/arm-none-eabi/10.3.1/../../../../arm-none-eabi/lib/thumb/v7-m/nofp\libg.a(lib_a-findfp.o)
                0x08007a7c                _cleanup_r
 .text.__sinit  0x08007a88      0x10c c:/tools/gcc-arm-none-eabi-10.3-2021.07/bin/../lib/gcc/arm-none-eabi/10.3.1/../../../../arm-none-eabi/lib/thumb/v7-m/nofp\libg.a(lib_a-findfp.o)
                0x08007a88                __sinit
 .text.__sfp_lock_acquire
                0x08007b94        0xc c:/tools/gcc-arm-none-eabi-10.3-2021.07/bin/../lib/gcc/arm-none-eabi/10.3.1/../../../../arm-none-eabi/lib/thumb/v7-m/nofp\libg.a(lib_a-findfp.o)
                0x08007b94                __sfp_lock_acquire
 .text.__sfp_lock_release
                0x08007ba0        0xc c:/tools/gcc-arm-none-eabi-10.3-2021.07/bin/../lib/gcc/arm-none-eabi/10.3.1/../../../../arm-none-eabi/lib/thumb/v7-m/nofp\libg.a(lib_a-findfp.o)
                0x08007ba0                __sfp_lock_release
 .text.__libc_fini_array
                0x08007bac       0x2c c:/tools/gcc-arm-none-eabi-10.3-2021.07/bin/../lib/gcc/arm-none-eabi/10.3.1/../../../../arm-none-eabi/lib/thumb/v7-m/nofp\libg.a(lib_a-fini.o)
                0x08007bac                __libc_fini_array
 .text._malloc_trim_r
                0x08007bd8       0xa0 c:/tools/gcc-arm-none-eabi-10.3-2021.07/bin/../lib/gcc/arm-none-eabi/10.3.1/../../../../arm-none-eabi/lib/thumb/v7-m/nofp\libg.a(lib_a-freer.o)
                0x08007bd8                _malloc_trim_r
 .text._free_r  0x08007c78      0x200 c:/tools/gcc-arm-none-eabi-10.3-2021.07/bin/../lib/gcc/arm-none-eabi/10.3.1/../../../../arm-none-eabi/lib/thumb/v7-m/nofp\libg.a(lib_a-freer.o)
                0x08007c78                _free_r
 .text._fwalk_reent
                0x08007e78       0x48 c:/tools/gcc-arm-none-eabi-10.3-2021.07/bin/../lib/gcc/arm-none-eabi/10.3.1/../../../../arm-none-eabi/lib/thumb/v7-m/nofp\libg.a(lib_a-fwalk.o)
                0x08007e78                _fwalk_reent
 .text._localeconv_r
                0x08007ec0        0x8 c:/tools/gcc-arm-none-eabi-10.3-2021.07/bin/../lib/gcc/arm-none-eabi/10.3.1/../../../../arm-none-eabi/lib/thumb/v7-m/nofp\libg.a(lib_a-localeconv.o)
                0x08007ec0                _localeconv_r
 .text.__retarget_lock_init_recursive
                0x08007ec8        0x4 c:/tools/gcc-arm-none-eabi-10.3-2021.07/bin/../lib/gcc/arm-none-eabi/10.3.1/../../../../arm-none-eabi/lib/thumb/v7-m/nofp\libg.a(lib_a-lock.o)
                0x08007ec8                __retarget_lock_init_recursive
 .text.__retarget_lock_close_recursive
                0x08007ecc        0x4 c:/tools/gcc-arm-none-eabi-10.3-2021.07/bin/../lib/gcc/arm-none-eabi/10.3.1/../../../../arm-none-eabi/lib/thumb/v7-m/nofp\libg.a(lib_a-lock.o)
                0x08007ecc                __retarget_lock_close_recursive
 .text.__retarget_lock_acquire_recursive
                0x08007ed0        0x4 c:/tools/gcc-arm-none-eabi-10.3-2021.07/bin/../lib/gcc/arm-none-eabi/10.3.1/../../../../arm-none-eabi/lib/thumb/v7-m/nofp\libg.a(lib_a-lock.o)
                0x08007ed0                __retarget_lock_acquire_recursive
 .text.__retarget_lock_release_recursive
                0x08007ed4        0x4 c:/tools/gcc-arm-none-eabi-10.3-2021.07/bin/../lib/gcc/arm-none-eabi/10.3.1/../../../../arm-none-eabi/lib/thumb/v7-m/nofp\libg.a(lib_a-lock.o)
                0x08007ed4                __retarget_lock_release_recursive
 .text.__smakebuf_r
                0x08007ed8       0xe0 c:/tools/gcc-arm-none-eabi-10.3-2021.07/bin/../lib/gcc/arm-none-eabi/10.3.1/../../../../arm-none-eabi/lib/thumb/v7-m/nofp\libg.a(lib_a-makebuf.o)
                0x08007ed8                __smakebuf_r
 .text.__swhatbuf_r
                0x08007fb8       0x60 c:/tools/gcc-arm-none-eabi-10.3-2021.07/bin/../lib/gcc/arm-none-eabi/10.3.1/../../../../arm-none-eabi/lib/thumb/v7-m/nofp\libg.a(lib_a-makebuf.o)
                0x08007fb8                __swhatbuf_r
 .text.memchr   0x08008018       0x90 c:/tools/gcc-arm-none-eabi-10.3-2021.07/bin/../lib/gcc/arm-none-eabi/10.3.1/../../../../arm-none-eabi/lib/thumb/v7-m/nofp\libg.a(lib_a-memchr-stub.o)
                0x08008018                memchr
 .text._Balloc  0x080080a8       0x4c c:/tools/gcc-arm-none-eabi-10.3-2021.07/bin/../lib/gcc/arm-none-eabi/10.3.1/../../../../arm-none-eabi/lib/thumb/v7-m/nofp\libg.a(lib_a-mprec.o)
                0x080080a8                _Balloc
 .text._Bfree   0x080080f4       0x14 c:/tools/gcc-arm-none-eabi-10.3-2021.07/bin/../lib/gcc/arm-none-eabi/10.3.1/../../../../arm-none-eabi/lib/thumb/v7-m/nofp\libg.a(lib_a-mprec.o)
                0x080080f4                _Bfree
 .text.__multadd
                0x08008108       0xa4 c:/tools/gcc-arm-none-eabi-10.3-2021.07/bin/../lib/gcc/arm-none-eabi/10.3.1/../../../../arm-none-eabi/lib/thumb/v7-m/nofp\libg.a(lib_a-mprec.o)
                0x08008108                __multadd
 .text.__hi0bits
                0x080081ac       0x40 c:/tools/gcc-arm-none-eabi-10.3-2021.07/bin/../lib/gcc/arm-none-eabi/10.3.1/../../../../arm-none-eabi/lib/thumb/v7-m/nofp\libg.a(lib_a-mprec.o)
                0x080081ac                __hi0bits
 .text.__lo0bits
                0x080081ec       0x58 c:/tools/gcc-arm-none-eabi-10.3-2021.07/bin/../lib/gcc/arm-none-eabi/10.3.1/../../../../arm-none-eabi/lib/thumb/v7-m/nofp\libg.a(lib_a-mprec.o)
                0x080081ec                __lo0bits
 .text.__i2b    0x08008244       0x5c c:/tools/gcc-arm-none-eabi-10.3-2021.07/bin/../lib/gcc/arm-none-eabi/10.3.1/../../../../arm-none-eabi/lib/thumb/v7-m/nofp\libg.a(lib_a-mprec.o)
                0x08008244                __i2b
 .text.__multiply
                0x080082a0      0x15c c:/tools/gcc-arm-none-eabi-10.3-2021.07/bin/../lib/gcc/arm-none-eabi/10.3.1/../../../../arm-none-eabi/lib/thumb/v7-m/nofp\libg.a(lib_a-mprec.o)
                0x080082a0                __multiply
 .text.__pow5mult
                0x080083fc       0xb8 c:/tools/gcc-arm-none-eabi-10.3-2021.07/bin/../lib/gcc/arm-none-eabi/10.3.1/../../../../arm-none-eabi/lib/thumb/v7-m/nofp\libg.a(lib_a-mprec.o)
                0x080083fc                __pow5mult
 .text.__lshift
                0x080084b4       0xec c:/tools/gcc-arm-none-eabi-10.3-2021.07/bin/../lib/gcc/arm-none-eabi/10.3.1/../../../../arm-none-eabi/lib/thumb/v7-m/nofp\libg.a(lib_a-mprec.o)
                0x080084b4                __lshift
 .text.__mcmp   0x080085a0       0x40 c:/tools/gcc-arm-none-eabi-10.3-2021.07/bin/../lib/gcc/arm-none-eabi/10.3.1/../../../../arm-none-eabi/lib/thumb/v7-m/nofp\libg.a(lib_a-mprec.o)
                0x080085a0                __mcmp
 .text.__mdiff  0x080085e0      0x14c c:/tools/gcc-arm-none-eabi-10.3-2021.07/bin/../lib/gcc/arm-none-eabi/10.3.1/../../../../arm-none-eabi/lib/thumb/v7-m/nofp\libg.a(lib_a-mprec.o)
                0x080085e0                __mdiff
 .text.__d2b    0x0800872c       0xc4 c:/tools/gcc-arm-none-eabi-10.3-2021.07/bin/../lib/gcc/arm-none-eabi/10.3.1/../../../../arm-none-eabi/lib/thumb/v7-m/nofp\libg.a(lib_a-mprec.o)
                0x0800872c                __d2b
 .text.frexp    0x080087f0       0x70 c:/tools/gcc-arm-none-eabi-10.3-2021.07/bin/../lib/gcc/arm-none-eabi/10.3.1/../../../../arm-none-eabi/lib/thumb/v7-m/nofp\libg.a(lib_a-s_frexp.o)
                0x080087f0                frexp
 .text.__sread  0x08008860       0x24 c:/tools/gcc-arm-none-eabi-10.3-2021.07/bin/../lib/gcc/arm-none-eabi/10.3.1/../../../../arm-none-eabi/lib/thumb/v7-m/nofp\libg.a(lib_a-stdio.o)
                0x08008860                __sread
 .text.__swrite
                0x08008884       0x40 c:/tools/gcc-arm-none-eabi-10.3-2021.07/bin/../lib/gcc/arm-none-eabi/10.3.1/../../../../arm-none-eabi/lib/thumb/v7-m/nofp\libg.a(lib_a-stdio.o)
                0x08008884                __swrite
 .text.__sseek  0x080088c4       0x20 c:/tools/gcc-arm-none-eabi-10.3-2021.07/bin/../lib/gcc/arm-none-eabi/10.3.1/../../../../arm-none-eabi/lib/thumb/v7-m/nofp\libg.a(lib_a-stdio.o)
                0x080088c4                __sseek
 .text.__sclose
                0x080088e4        0x8 c:/tools/gcc-arm-none-eabi-10.3-2021.07/bin/../lib/gcc/arm-none-eabi/10.3.1/../../../../arm-none-eabi/lib/thumb/v7-m/nofp\libg.a(lib_a-stdio.o)
                0x080088e4                __sclose
 .text.strlen   0x080088ec       0x5c c:/tools/gcc-arm-none-eabi-10.3-2021.07/bin/../lib/gcc/arm-none-eabi/10.3.1/../../../../arm-none-eabi/lib/thumb/v7-m/nofp\libg.a(lib_a-strlen-stub.o)
                0x080088ec                strlen
 .text.strncpy  0x08008948       0x68 c:/tools/gcc-arm-none-eabi-10.3-2021.07/bin/../lib/gcc/arm-none-eabi/10.3.1/../../../../arm-none-eabi/lib/thumb/v7-m/nofp\libg.a(lib_a-strncpy.o)
                0x08008948                strncpy
 .text.__sprint_r.part.0
                0x080089b0       0x78 c:/tools/gcc-arm-none-eabi-10.3-2021.07/bin/../lib/gcc/arm-none-eabi/10.3.1/../../../../arm-none-eabi/lib/thumb/v7-m/nofp\libg.a(lib_a-vfiprintf.o)
 .text.__sprint_r
                0x08008a28       0x14 c:/tools/gcc-arm-none-eabi-10.3-2021.07/bin/../lib/gcc/arm-none-eabi/10.3.1/../../../../arm-none-eabi/lib/thumb/v7-m/nofp\libg.a(lib_a-vfiprintf.o)
                0x08008a28                __sprint_r
 .text._vfiprintf_r
                0x08008a3c      0xd98 c:/tools/gcc-arm-none-eabi-10.3-2021.07/bin/../lib/gcc/arm-none-eabi/10.3.1/../../../../arm-none-eabi/lib/thumb/v7-m/nofp\libg.a(lib_a-vfiprintf.o)
                0x08008a3c                _vfiprintf_r
 .text.__sbprintf
                0x080097d4       0x84 c:/tools/gcc-arm-none-eabi-10.3-2021.07/bin/../lib/gcc/arm-none-eabi/10.3.1/../../../../arm-none-eabi/lib/thumb/v7-m/nofp\libg.a(lib_a-vfiprintf.o)
 .text._write_r
                0x08009858       0x2c c:/tools/gcc-arm-none-eabi-10.3-2021.07/bin/../lib/gcc/arm-none-eabi/10.3.1/../../../../arm-none-eabi/lib/thumb/v7-m/nofp\libg.a(lib_a-writer.o)
                0x08009858                _write_r
 .text.__register_exitproc
                0x08009884       0x8c c:/tools/gcc-arm-none-eabi-10.3-2021.07/bin/../lib/gcc/arm-none-eabi/10.3.1/../../../../arm-none-eabi/lib/thumb/v7-m/nofp\libg.a(lib_a-__atexit.o)
                0x08009884                __register_exitproc
 .text.__assert_func
                0x08009910       0x40 c:/tools/gcc-arm-none-eabi-10.3-2021.07/bin/../lib/gcc/arm-none-eabi/10.3.1/../../../../arm-none-eabi/lib/thumb/v7-m/nofp\libg.a(lib_a-assert.o)
                0x08009910                __assert_func
 .text._calloc_r
                0x08009950       0x78 c:/tools/gcc-arm-none-eabi-10.3-2021.07/bin/../lib/gcc/arm-none-eabi/10.3.1/../../../../arm-none-eabi/lib/thumb/v7-m/nofp\libg.a(lib_a-callocr.o)
                0x08009950                _calloc_r
 .text._close_r
                0x080099c8       0x24 c:/tools/gcc-arm-none-eabi-10.3-2021.07/bin/../lib/gcc/arm-none-eabi/10.3.1/../../../../arm-none-eabi/lib/thumb/v7-m/nofp\libg.a(lib_a-closer.o)
                0x080099c8                _close_r
 .text._fclose_r
                0x080099ec       0xcc c:/tools/gcc-arm-none-eabi-10.3-2021.07/bin/../lib/gcc/arm-none-eabi/10.3.1/../../../../arm-none-eabi/lib/thumb/v7-m/nofp\libg.a(lib_a-fclose.o)
                0x080099ec                _fclose_r
 .text.fiprintf
                0x08009ab8       0x28 c:/tools/gcc-arm-none-eabi-10.3-2021.07/bin/../lib/gcc/arm-none-eabi/10.3.1/../../../../arm-none-eabi/lib/thumb/v7-m/nofp\libg.a(lib_a-fiprintf.o)
                0x08009ab8                fiprintf
 .text.__fputwc
                0x08009ae0       0xa0 c:/tools/gcc-arm-none-eabi-10.3-2021.07/bin/../lib/gcc/arm-none-eabi/10.3.1/../../../../arm-none-eabi/lib/thumb/v7-m/nofp\libg.a(lib_a-fputwc.o)
                0x08009ae0                __fputwc
 .text._fputwc_r
                0x08009b80       0x68 c:/tools/gcc-arm-none-eabi-10.3-2021.07/bin/../lib/gcc/arm-none-eabi/10.3.1/../../../../arm-none-eabi/lib/thumb/v7-m/nofp\libg.a(lib_a-fputwc.o)
                0x08009b80                _fputwc_r
 .text._fstat_r
                0x08009be8       0x28 c:/tools/gcc-arm-none-eabi-10.3-2021.07/bin/../lib/gcc/arm-none-eabi/10.3.1/../../../../arm-none-eabi/lib/thumb/v7-m/nofp\libg.a(lib_a-fstatr.o)
                0x08009be8                _fstat_r
 .text.__sfvwrite_r
                0x08009c10      0x2f0 c:/tools/gcc-arm-none-eabi-10.3-2021.07/bin/../lib/gcc/arm-none-eabi/10.3.1/../../../../arm-none-eabi/lib/thumb/v7-m/nofp\libg.a(lib_a-fvwrite.o)
                0x08009c10                __sfvwrite_r
 .text._isatty_r
                0x08009f00       0x24 c:/tools/gcc-arm-none-eabi-10.3-2021.07/bin/../lib/gcc/arm-none-eabi/10.3.1/../../../../arm-none-eabi/lib/thumb/v7-m/nofp\libg.a(lib_a-isattyr.o)
                0x08009f00                _isatty_r
 .text.__locale_mb_cur_max
                0x08009f24        0xc c:/tools/gcc-arm-none-eabi-10.3-2021.07/bin/../lib/gcc/arm-none-eabi/10.3.1/../../../../arm-none-eabi/lib/thumb/v7-m/nofp\libg.a(lib_a-locale.o)
                0x08009f24                __locale_mb_cur_max
 .text._lseek_r
                0x08009f30       0x2c c:/tools/gcc-arm-none-eabi-10.3-2021.07/bin/../lib/gcc/arm-none-eabi/10.3.1/../../../../arm-none-eabi/lib/thumb/v7-m/nofp\libg.a(lib_a-lseekr.o)
                0x08009f30                _lseek_r
 .text.__ascii_mbtowc
                0x08009f5c       0x2c c:/tools/gcc-arm-none-eabi-10.3-2021.07/bin/../lib/gcc/arm-none-eabi/10.3.1/../../../../arm-none-eabi/lib/thumb/v7-m/nofp\libg.a(lib_a-mbtowc_r.o)
                0x08009f5c                __ascii_mbtowc
 .text.memmove  0x08009f88       0xf8 c:/tools/gcc-arm-none-eabi-10.3-2021.07/bin/../lib/gcc/arm-none-eabi/10.3.1/../../../../arm-none-eabi/lib/thumb/v7-m/nofp\libg.a(lib_a-memmove.o)
                0x08009f88                memmove
 .text._read_r  0x0800a080       0x2c c:/tools/gcc-arm-none-eabi-10.3-2021.07/bin/../lib/gcc/arm-none-eabi/10.3.1/../../../../arm-none-eabi/lib/thumb/v7-m/nofp\libg.a(lib_a-readr.o)
                0x0800a080                _read_r
 .text._realloc_r
                0x0800a0ac      0x3dc c:/tools/gcc-arm-none-eabi-10.3-2021.07/bin/../lib/gcc/arm-none-eabi/10.3.1/../../../../arm-none-eabi/lib/thumb/v7-m/nofp\libg.a(lib_a-reallocr.o)
                0x0800a0ac                _realloc_r
 .text.__swbuf_r
                0x0800a488       0xb0 c:/tools/gcc-arm-none-eabi-10.3-2021.07/bin/../lib/gcc/arm-none-eabi/10.3.1/../../../../arm-none-eabi/lib/thumb/v7-m/nofp\libg.a(lib_a-wbuf.o)
                0x0800a488                __swbuf_r
 .text._wcrtomb_r
                0x0800a538       0x3c c:/tools/gcc-arm-none-eabi-10.3-2021.07/bin/../lib/gcc/arm-none-eabi/10.3.1/../../../../arm-none-eabi/lib/thumb/v7-m/nofp\libg.a(lib_a-wcrtomb.o)
                0x0800a538                _wcrtomb_r
 .text.__ascii_wctomb
                0x0800a574       0x1c c:/tools/gcc-arm-none-eabi-10.3-2021.07/bin/../lib/gcc/arm-none-eabi/10.3.1/../../../../arm-none-eabi/lib/thumb/v7-m/nofp\libg.a(lib_a-wctomb_r.o)
                0x0800a574                __ascii_wctomb
 .text.abort    0x0800a590       0x10 c:/tools/gcc-arm-none-eabi-10.3-2021.07/bin/../lib/gcc/arm-none-eabi/10.3.1/../../../../arm-none-eabi/lib/thumb/v7-m/nofp\libg.a(lib_a-abort.o)
                0x0800a590                abort
 .text.raise    0x0800a5a0       0x5c c:/tools/gcc-arm-none-eabi-10.3-2021.07/bin/../lib/gcc/arm-none-eabi/10.3.1/../../../../arm-none-eabi/lib/thumb/v7-m/nofp\libg.a(lib_a-signal.o)
                0x0800a5a0                raise
 .text._kill_r  0x0800a5fc       0x28 c:/tools/gcc-arm-none-eabi-10.3-2021.07/bin/../lib/gcc/arm-none-eabi/10.3.1/../../../../arm-none-eabi/lib/thumb/v7-m/nofp\libg.a(lib_a-signalr.o)
                0x0800a5fc                _kill_r
 .text._getpid_r
                0x0800a624        0x4 c:/tools/gcc-arm-none-eabi-10.3-2021.07/bin/../lib/gcc/arm-none-eabi/10.3.1/../../../../arm-none-eabi/lib/thumb/v7-m/nofp\libg.a(lib_a-signalr.o)
                0x0800a624                _getpid_r
 .text.floor    0x0800a628       0xf8 c:/tools/gcc-arm-none-eabi-10.3-2021.07/bin/../lib/gcc/arm-none-eabi/10.3.1/../../../../arm-none-eabi/lib/thumb/v7-m/nofp\libm.a(lib_a-s_floor.o)
                0x0800a628                floor
 .text.atan2    0x0800a720        0x4 c:/tools/gcc-arm-none-eabi-10.3-2021.07/bin/../lib/gcc/arm-none-eabi/10.3.1/../../../../arm-none-eabi/lib/thumb/v7-m/nofp\libm.a(lib_a-w_atan2.o)
                0x0800a720                atan2
 .text.fmod     0x0800a724       0x58 c:/tools/gcc-arm-none-eabi-10.3-2021.07/bin/../lib/gcc/arm-none-eabi/10.3.1/../../../../arm-none-eabi/lib/thumb/v7-m/nofp\libm.a(lib_a-w_fmod.o)
                0x0800a724                fmod
 *fill*         0x0800a77c        0x4 
 .text.__ieee754_atan2
                0x0800a780      0x194 c:/tools/gcc-arm-none-eabi-10.3-2021.07/bin/../lib/gcc/arm-none-eabi/10.3.1/../../../../arm-none-eabi/lib/thumb/v7-m/nofp\libm.a(lib_a-e_atan2.o)
                0x0800a780                __ieee754_atan2
 .text.__ieee754_fmod
                0x0800a914      0x294 c:/tools/gcc-arm-none-eabi-10.3-2021.07/bin/../lib/gcc/arm-none-eabi/10.3.1/../../../../arm-none-eabi/lib/thumb/v7-m/nofp\libm.a(lib_a-e_fmod.o)
                0x0800a914                __ieee754_fmod
 .text.atan     0x0800aba8      0x31c c:/tools/gcc-arm-none-eabi-10.3-2021.07/bin/../lib/gcc/arm-none-eabi/10.3.1/../../../../arm-none-eabi/lib/thumb/v7-m/nofp\libm.a(lib_a-s_atan.o)
                0x0800aba8                atan
 .text.fabs     0x0800aec4        0x8 c:/tools/gcc-arm-none-eabi-10.3-2021.07/bin/../lib/gcc/arm-none-eabi/10.3.1/../../../../arm-none-eabi/lib/thumb/v7-m/nofp\libm.a(lib_a-s_fabs.o)
                0x0800aec4                fabs
 *(.glue_7)
 .glue_7        0x0800aecc        0x0 linker stubs
 *(.glue_7t)
 .glue_7t       0x0800aecc        0x0 linker stubs
 *(.eh_frame)
 .eh_frame      0x0800aecc        0x0 c:/tools/gcc-arm-none-eabi-10.3-2021.07/bin/../lib/gcc/arm-none-eabi/10.3.1/thumb/v7-m/nofp/crtbegin.o
 *(.init)
 .init          0x0800aecc        0x4 c:/tools/gcc-arm-none-eabi-10.3-2021.07/bin/../lib/gcc/arm-none-eabi/10.3.1/thumb/v7-m/nofp/crti.o
                0x0800aecc                _init
 .init          0x0800aed0        0x8 c:/tools/gcc-arm-none-eabi-10.3-2021.07/bin/../lib/gcc/arm-none-eabi/10.3.1/thumb/v7-m/nofp/crtn.o
 *(.fini)
 .fini          0x0800aed8        0x4 c:/tools/gcc-arm-none-eabi-10.3-2021.07/bin/../lib/gcc/arm-none-eabi/10.3.1/thumb/v7-m/nofp/crti.o
                0x0800aed8                _fini
 .fini          0x0800aedc        0x8 c:/tools/gcc-arm-none-eabi-10.3-2021.07/bin/../lib/gcc/arm-none-eabi/10.3.1/thumb/v7-m/nofp/crtn.o
                0x0800aee4                . = ALIGN (0x4)
                0x0800aee4                _etext = .

.vfp11_veneer   0x0800aee4        0x0
 .vfp11_veneer  0x0800aee4        0x0 linker stubs

.v4_bx          0x0800aee4        0x0
 .v4_bx         0x0800aee4        0x0 linker stubs

.iplt           0x0800aee4        0x0
 .iplt          0x0800aee4        0x0 c:/tools/gcc-arm-none-eabi-10.3-2021.07/bin/../lib/gcc/arm-none-eabi/10.3.1/thumb/v7-m/nofp/crtbegin.o

.rodata         0x0800aee8     0x47c0
                0x0800aee8                . = ALIGN (0x4)
 *(.rodata)
 *(.rodata*)
 .rodata.main.str1.4
                0x0800aee8       0x1f CMakeFiles/FOC_Driver.elf.dir/Core/Src/main.c.obj
 *fill*         0x0800af07        0x1 
 .rodata.head_portrait_80x80
                0x0800af08     0x3200 CMakeFiles/FOC_Driver.elf.dir/Core/Src/main.c.obj
                0x0800af08                head_portrait_80x80
 .rodata.AHBPrescTable
                0x0800e108       0x10 CMakeFiles/FOC_Driver.elf.dir/Core/Src/system_stm32f1xx.c.obj
                0x0800e108                AHBPrescTable
 .rodata.APBPrescTable
                0x0800e118        0x8 CMakeFiles/FOC_Driver.elf.dir/Core/Src/system_stm32f1xx.c.obj
                0x0800e118                APBPrescTable
 .rodata.HAL_RCC_GetSysClockFreq.str1.4
                0x0800e120       0x11 CMakeFiles/FOC_Driver.elf.dir/Drivers/STM32F1xx_HAL_Driver/Src/stm32f1xx_hal_rcc.c.obj
 *fill*         0x0800e131        0x3 
 .rodata.sine_array
                0x0800e134      0x320 CMakeFiles/FOC_Driver.elf.dir/FOC/FOC_utils.c.obj
                0x0800e134                sine_array
 .rodata.Font11x18
                0x0800e454      0xd5c CMakeFiles/FOC_Driver.elf.dir/st7735/fonts.c.obj
 .rodata.init_cmds1
                0x0800f1b0       0x3b CMakeFiles/FOC_Driver.elf.dir/st7735/st7735.c.obj
 *fill*         0x0800f1eb        0x1 
 .rodata.init_cmds2
                0x0800f1ec        0xf CMakeFiles/FOC_Driver.elf.dir/st7735/st7735.c.obj
 *fill*         0x0800f1fb        0x1 
 .rodata.init_cmds3
                0x0800f1fc       0x2b CMakeFiles/FOC_Driver.elf.dir/st7735/st7735.c.obj
 *fill*         0x0800f227        0x1 
 .rodata._global_impure_ptr
                0x0800f228        0x4 c:/tools/gcc-arm-none-eabi-10.3-2021.07/bin/../lib/gcc/arm-none-eabi/10.3.1/../../../../arm-none-eabi/lib/thumb/v7-m/nofp\libg.a(lib_a-impure.o)
                0x0800f228                _global_impure_ptr
 .rodata._vfprintf_r.str1.4
                0x0800f22c       0x42 c:/tools/gcc-arm-none-eabi-10.3-2021.07/bin/../lib/gcc/arm-none-eabi/10.3.1/../../../../arm-none-eabi/lib/thumb/v7-m/nofp\libg.a(lib_a-vfprintf.o)
 *fill*         0x0800f26e        0x2 
 .rodata.blanks.1
                0x0800f270       0x10 c:/tools/gcc-arm-none-eabi-10.3-2021.07/bin/../lib/gcc/arm-none-eabi/10.3.1/../../../../arm-none-eabi/lib/thumb/v7-m/nofp\libg.a(lib_a-vfprintf.o)
 .rodata.zeroes.0
                0x0800f280       0x10 c:/tools/gcc-arm-none-eabi-10.3-2021.07/bin/../lib/gcc/arm-none-eabi/10.3.1/../../../../arm-none-eabi/lib/thumb/v7-m/nofp\libg.a(lib_a-vfprintf.o)
 .rodata._dtoa_r.str1.4
                0x0800f290       0xa2 c:/tools/gcc-arm-none-eabi-10.3-2021.07/bin/../lib/gcc/arm-none-eabi/10.3.1/../../../../arm-none-eabi/lib/thumb/v7-m/nofp\libg.a(lib_a-dtoa.o)
                                 0xa6 (size before relaxing)
 *fill*         0x0800f332        0x2 
 .rodata.__multadd.str1.4
                0x0800f334       0x7f c:/tools/gcc-arm-none-eabi-10.3-2021.07/bin/../lib/gcc/arm-none-eabi/10.3.1/../../../../arm-none-eabi/lib/thumb/v7-m/nofp\libg.a(lib_a-mprec.o)
                                 0x93 (size before relaxing)
 *fill*         0x0800f3b3        0x5 
 .rodata.__mprec_bigtens
                0x0800f3b8       0x28 c:/tools/gcc-arm-none-eabi-10.3-2021.07/bin/../lib/gcc/arm-none-eabi/10.3.1/../../../../arm-none-eabi/lib/thumb/v7-m/nofp\libg.a(lib_a-mprec.o)
                0x0800f3b8                __mprec_bigtens
 .rodata.__mprec_tens
                0x0800f3e0       0xc8 c:/tools/gcc-arm-none-eabi-10.3-2021.07/bin/../lib/gcc/arm-none-eabi/10.3.1/../../../../arm-none-eabi/lib/thumb/v7-m/nofp\libg.a(lib_a-mprec.o)
                0x0800f3e0                __mprec_tens
 .rodata.p05.0  0x0800f4a8        0xc c:/tools/gcc-arm-none-eabi-10.3-2021.07/bin/../lib/gcc/arm-none-eabi/10.3.1/../../../../arm-none-eabi/lib/thumb/v7-m/nofp\libg.a(lib_a-mprec.o)
 .rodata._vfiprintf_r.str1.4
                0x0800f4b4       0x2f c:/tools/gcc-arm-none-eabi-10.3-2021.07/bin/../lib/gcc/arm-none-eabi/10.3.1/../../../../arm-none-eabi/lib/thumb/v7-m/nofp\libg.a(lib_a-vfiprintf.o)
 .rodata.blanks.1
                0x0800f4b4       0x10 c:/tools/gcc-arm-none-eabi-10.3-2021.07/bin/../lib/gcc/arm-none-eabi/10.3.1/../../../../arm-none-eabi/lib/thumb/v7-m/nofp\libg.a(lib_a-vfiprintf.o)
 .rodata.zeroes.0
                0x0800f4c4       0x10 c:/tools/gcc-arm-none-eabi-10.3-2021.07/bin/../lib/gcc/arm-none-eabi/10.3.1/../../../../arm-none-eabi/lib/thumb/v7-m/nofp\libg.a(lib_a-vfiprintf.o)
 .rodata.__assert_func.str1.4
                0x0800f4d4       0x3f c:/tools/gcc-arm-none-eabi-10.3-2021.07/bin/../lib/gcc/arm-none-eabi/10.3.1/../../../../arm-none-eabi/lib/thumb/v7-m/nofp\libg.a(lib_a-assert.o)
                                 0x43 (size before relaxing)
 *fill*         0x0800f513        0x1 
 .rodata._setlocale_r.str1.4
                0x0800f514        0xa c:/tools/gcc-arm-none-eabi-10.3-2021.07/bin/../lib/gcc/arm-none-eabi/10.3.1/../../../../arm-none-eabi/lib/thumb/v7-m/nofp\libg.a(lib_a-locale.o)
                                  0xd (size before relaxing)
 *fill*         0x0800f51e        0x2 
 .rodata.str1.4
                0x0800f520        0x2 c:/tools/gcc-arm-none-eabi-10.3-2021.07/bin/../lib/gcc/arm-none-eabi/10.3.1/../../../../arm-none-eabi/lib/thumb/v7-m/nofp\libg.a(lib_a-locale.o)
 *fill*         0x0800f522        0x2 
 .rodata._ctype_
                0x0800f524      0x101 c:/tools/gcc-arm-none-eabi-10.3-2021.07/bin/../lib/gcc/arm-none-eabi/10.3.1/../../../../arm-none-eabi/lib/thumb/v7-m/nofp\libg.a(lib_a-ctype_.o)
                0x0800f524                _ctype_
 *fill*         0x0800f625        0x3 
 .rodata.CSWTCH.8
                0x0800f628       0x18 c:/tools/gcc-arm-none-eabi-10.3-2021.07/bin/../lib/gcc/arm-none-eabi/10.3.1/../../../../arm-none-eabi/lib/thumb/v7-m/nofp\libm.a(lib_a-e_atan2.o)
 .rodata.CSWTCH.9
                0x0800f640       0x18 c:/tools/gcc-arm-none-eabi-10.3-2021.07/bin/../lib/gcc/arm-none-eabi/10.3.1/../../../../arm-none-eabi/lib/thumb/v7-m/nofp\libm.a(lib_a-e_atan2.o)
 .rodata.Zero   0x0800f658       0x10 c:/tools/gcc-arm-none-eabi-10.3-2021.07/bin/../lib/gcc/arm-none-eabi/10.3.1/../../../../arm-none-eabi/lib/thumb/v7-m/nofp\libm.a(lib_a-e_fmod.o)
 .rodata.atanhi
                0x0800f668       0x20 c:/tools/gcc-arm-none-eabi-10.3-2021.07/bin/../lib/gcc/arm-none-eabi/10.3.1/../../../../arm-none-eabi/lib/thumb/v7-m/nofp\libm.a(lib_a-s_atan.o)
 .rodata.atanlo
                0x0800f688       0x20 c:/tools/gcc-arm-none-eabi-10.3-2021.07/bin/../lib/gcc/arm-none-eabi/10.3.1/../../../../arm-none-eabi/lib/thumb/v7-m/nofp\libm.a(lib_a-s_atan.o)
                0x0800f6a8                . = ALIGN (0x4)

.ARM.extab
 *(.ARM.extab* .gnu.linkonce.armextab.*)

.ARM            0x0800f6a8        0x8
                0x0800f6a8                __exidx_start = .
 *(.ARM.exidx*)
 .ARM.exidx     0x0800f6a8        0x8 c:/tools/gcc-arm-none-eabi-10.3-2021.07/bin/../lib/gcc/arm-none-eabi/10.3.1/thumb/v7-m/nofp\libgcc.a(_udivmoddi4.o)
                0x0800f6b0                __exidx_end = .

.rel.dyn        0x0800f6b0        0x0
 .rel.iplt      0x0800f6b0        0x0 c:/tools/gcc-arm-none-eabi-10.3-2021.07/bin/../lib/gcc/arm-none-eabi/10.3.1/thumb/v7-m/nofp/crtbegin.o

.preinit_array  0x0800f6b0        0x0
                0x0800f6b0                PROVIDE (__preinit_array_start = .)
 *(.preinit_array*)
                0x0800f6b0                PROVIDE (__preinit_array_end = .)

.init_array     0x0800f6b0        0x8
                0x0800f6b0                PROVIDE (__init_array_start = .)
 *(SORT_BY_NAME(.init_array.*))
 .init_array.00000
                0x0800f6b0        0x4 c:/tools/gcc-arm-none-eabi-10.3-2021.07/bin/../lib/gcc/arm-none-eabi/10.3.1/../../../../arm-none-eabi/lib/thumb/v7-m/nofp\libg.a(lib_a-__call_atexit.o)
 *(.init_array*)
 .init_array    0x0800f6b4        0x4 c:/tools/gcc-arm-none-eabi-10.3-2021.07/bin/../lib/gcc/arm-none-eabi/10.3.1/thumb/v7-m/nofp/crtbegin.o
                0x0800f6b8                PROVIDE (__init_array_end = .)

.fini_array     0x0800f6b8        0x4
                0x0800f6b8                PROVIDE (__fini_array_start = .)
 *(SORT_BY_NAME(.fini_array.*))
 *(.fini_array*)
 .fini_array    0x0800f6b8        0x4 c:/tools/gcc-arm-none-eabi-10.3-2021.07/bin/../lib/gcc/arm-none-eabi/10.3.1/thumb/v7-m/nofp/crtbegin.o
                0x0800f6bc                PROVIDE (__fini_array_end = .)
                0x0800f6bc                _sidata = LOADADDR (.data)

.data           0x20000000      0x9c0 load address 0x0800f6bc
                0x20000000                . = ALIGN (0x4)
                0x20000000                _sdata = .
 *(.data)
 *(.data*)
 .data.SystemCoreClock
                0x20000000        0x4 CMakeFiles/FOC_Driver.elf.dir/Core/Src/system_stm32f1xx.c.obj
                0x20000000                SystemCoreClock
 .data.uwTickFreq
                0x20000004        0x1 CMakeFiles/FOC_Driver.elf.dir/Drivers/STM32F1xx_HAL_Driver/Src/stm32f1xx_hal.c.obj
                0x20000004                uwTickFreq
 *fill*         0x20000005        0x3 
 .data.uwTickPrio
                0x20000008        0x4 CMakeFiles/FOC_Driver.elf.dir/Drivers/STM32F1xx_HAL_Driver/Src/stm32f1xx_hal.c.obj
                0x20000008                uwTickPrio
 .data.Font_11x18
                0x2000000c        0x8 CMakeFiles/FOC_Driver.elf.dir/st7735/fonts.c.obj
                0x2000000c                Font_11x18
 .data._impure_ptr
                0x20000014        0x4 c:/tools/gcc-arm-none-eabi-10.3-2021.07/bin/../lib/gcc/arm-none-eabi/10.3.1/../../../../arm-none-eabi/lib/thumb/v7-m/nofp\libg.a(lib_a-impure.o)
                0x20000014                _impure_ptr
 .data.impure_data
                0x20000018      0x428 c:/tools/gcc-arm-none-eabi-10.3-2021.07/bin/../lib/gcc/arm-none-eabi/10.3.1/../../../../arm-none-eabi/lib/thumb/v7-m/nofp\libg.a(lib_a-impure.o)
 .data.__malloc_av_
                0x20000440      0x408 c:/tools/gcc-arm-none-eabi-10.3-2021.07/bin/../lib/gcc/arm-none-eabi/10.3.1/../../../../arm-none-eabi/lib/thumb/v7-m/nofp\libg.a(lib_a-mallocr.o)
                0x20000440                __malloc_av_
 .data.__malloc_sbrk_base
                0x20000848        0x4 c:/tools/gcc-arm-none-eabi-10.3-2021.07/bin/../lib/gcc/arm-none-eabi/10.3.1/../../../../arm-none-eabi/lib/thumb/v7-m/nofp\libg.a(lib_a-mallocr.o)
                0x20000848                __malloc_sbrk_base
 .data.__malloc_trim_threshold
                0x2000084c        0x4 c:/tools/gcc-arm-none-eabi-10.3-2021.07/bin/../lib/gcc/arm-none-eabi/10.3.1/../../../../arm-none-eabi/lib/thumb/v7-m/nofp\libg.a(lib_a-mallocr.o)
                0x2000084c                __malloc_trim_threshold
 .data.__atexit_recursive_mutex
                0x20000850        0x4 c:/tools/gcc-arm-none-eabi-10.3-2021.07/bin/../lib/gcc/arm-none-eabi/10.3.1/../../../../arm-none-eabi/lib/thumb/v7-m/nofp\libg.a(lib_a-__call_atexit.o)
                0x20000850                __atexit_recursive_mutex
 .data.__global_locale
                0x20000854      0x16c c:/tools/gcc-arm-none-eabi-10.3-2021.07/bin/../lib/gcc/arm-none-eabi/10.3.1/../../../../arm-none-eabi/lib/thumb/v7-m/nofp\libg.a(lib_a-locale.o)
                0x20000854                __global_locale
                0x200009c0                . = ALIGN (0x4)
                0x200009c0                _edata = .

.igot.plt       0x200009c0        0x0 load address 0x0801007c
 .igot.plt      0x200009c0        0x0 c:/tools/gcc-arm-none-eabi-10.3-2021.07/bin/../lib/gcc/arm-none-eabi/10.3.1/thumb/v7-m/nofp/crtbegin.o
                0x200009c0                . = ALIGN (0x4)

.bss            0x200009c0      0x200 load address 0x0801007c
                0x200009c0                _sbss = .
                0x200009c0                __bss_start__ = _sbss
 *(.bss)
 .bss           0x200009c0       0x1c c:/tools/gcc-arm-none-eabi-10.3-2021.07/bin/../lib/gcc/arm-none-eabi/10.3.1/thumb/v7-m/nofp/crtbegin.o
 *(.bss*)
 .bss.hadc1     0x200009dc       0x30 CMakeFiles/FOC_Driver.elf.dir/Core/Src/adc.c.obj
                0x200009dc                hadc1
 .bss.hcan      0x20000a0c       0x28 CMakeFiles/FOC_Driver.elf.dir/Core/Src/can.c.obj
                0x20000a0c                hcan
 .bss.hi2c1     0x20000a34       0x54 CMakeFiles/FOC_Driver.elf.dir/Core/Src/i2c.c.obj
                0x20000a34                hi2c1
 .bss.hspi1     0x20000a88       0x58 CMakeFiles/FOC_Driver.elf.dir/Core/Src/spi.c.obj
                0x20000a88                hspi1
 .bss.heap_end.0
                0x20000ae0        0x4 CMakeFiles/FOC_Driver.elf.dir/Core/Src/syscalls.c.obj
 .bss.htim1     0x20000ae4       0x48 CMakeFiles/FOC_Driver.elf.dir/Core/Src/tim.c.obj
                0x20000ae4                htim1
 .bss.huart1    0x20000b2c       0x44 CMakeFiles/FOC_Driver.elf.dir/Core/Src/usart.c.obj
                0x20000b2c                huart1
 .bss.uwTick    0x20000b70        0x4 CMakeFiles/FOC_Driver.elf.dir/Drivers/STM32F1xx_HAL_Driver/Src/stm32f1xx_hal.c.obj
                0x20000b70                uwTick
 .bss.gHuart    0x20000b74        0x4 CMakeFiles/FOC_Driver.elf.dir/retarget/retarget.c.obj
                0x20000b74                gHuart
 .bss.__malloc_current_mallinfo
                0x20000b78       0x28 c:/tools/gcc-arm-none-eabi-10.3-2021.07/bin/../lib/gcc/arm-none-eabi/10.3.1/../../../../arm-none-eabi/lib/thumb/v7-m/nofp\libg.a(lib_a-mallocr.o)
                0x20000b78                __malloc_current_mallinfo
 .bss.__malloc_max_sbrked_mem
                0x20000ba0        0x4 c:/tools/gcc-arm-none-eabi-10.3-2021.07/bin/../lib/gcc/arm-none-eabi/10.3.1/../../../../arm-none-eabi/lib/thumb/v7-m/nofp\libg.a(lib_a-mallocr.o)
                0x20000ba0                __malloc_max_sbrked_mem
 .bss.__malloc_max_total_mem
                0x20000ba4        0x4 c:/tools/gcc-arm-none-eabi-10.3-2021.07/bin/../lib/gcc/arm-none-eabi/10.3.1/../../../../arm-none-eabi/lib/thumb/v7-m/nofp\libg.a(lib_a-mallocr.o)
                0x20000ba4                __malloc_max_total_mem
 .bss.__malloc_top_pad
                0x20000ba8        0x4 c:/tools/gcc-arm-none-eabi-10.3-2021.07/bin/../lib/gcc/arm-none-eabi/10.3.1/../../../../arm-none-eabi/lib/thumb/v7-m/nofp\libg.a(lib_a-mallocr.o)
                0x20000ba8                __malloc_top_pad
 .bss.__lock___atexit_recursive_mutex
                0x20000bac        0x1 c:/tools/gcc-arm-none-eabi-10.3-2021.07/bin/../lib/gcc/arm-none-eabi/10.3.1/../../../../arm-none-eabi/lib/thumb/v7-m/nofp\libg.a(lib_a-lock.o)
                0x20000bac                __lock___atexit_recursive_mutex
 *fill*         0x20000bad        0x3 
 .bss.__lock___malloc_recursive_mutex
                0x20000bb0        0x1 c:/tools/gcc-arm-none-eabi-10.3-2021.07/bin/../lib/gcc/arm-none-eabi/10.3.1/../../../../arm-none-eabi/lib/thumb/v7-m/nofp\libg.a(lib_a-lock.o)
                0x20000bb0                __lock___malloc_recursive_mutex
 *fill*         0x20000bb1        0x3 
 .bss.__lock___sfp_recursive_mutex
                0x20000bb4        0x1 c:/tools/gcc-arm-none-eabi-10.3-2021.07/bin/../lib/gcc/arm-none-eabi/10.3.1/../../../../arm-none-eabi/lib/thumb/v7-m/nofp\libg.a(lib_a-lock.o)
                0x20000bb4                __lock___sfp_recursive_mutex
 *fill*         0x20000bb5        0x3 
 .bss.__lock___sinit_recursive_mutex
                0x20000bb8        0x1 c:/tools/gcc-arm-none-eabi-10.3-2021.07/bin/../lib/gcc/arm-none-eabi/10.3.1/../../../../arm-none-eabi/lib/thumb/v7-m/nofp\libg.a(lib_a-lock.o)
                0x20000bb8                __lock___sinit_recursive_mutex
 *fill*         0x20000bb9        0x3 
 .bss.errno     0x20000bbc        0x4 c:/tools/gcc-arm-none-eabi-10.3-2021.07/bin/../lib/gcc/arm-none-eabi/10.3.1/../../../../arm-none-eabi/lib/thumb/v7-m/nofp\libg.a(lib_a-reent.o)
                0x20000bbc                errno
 *(COMMON)
                0x20000bc0                . = ALIGN (0x4)
                0x20000bc0                _ebss = .
                0x20000bc0                __bss_end__ = _ebss

._user_heap_stack
                0x20000bc0      0x600 load address 0x0801007c
                0x20000bc0                . = ALIGN (0x8)
                0x20000bc0                PROVIDE (end = .)
                [!provide]                PROVIDE (_end = .)
                0x20000dc0                . = (. + _Min_Heap_Size)
 *fill*         0x20000bc0      0x200 
                0x200011c0                . = (. + _Min_Stack_Size)
 *fill*         0x20000dc0      0x400 
                0x200011c0                . = ALIGN (0x8)

/DISCARD/
 libc.a(*)
 libm.a(*)
 libgcc.a(*)

.ARM.attributes
                0x00000000       0x29
 *(.ARM.attributes)
 .ARM.attributes
                0x00000000       0x1d c:/tools/gcc-arm-none-eabi-10.3-2021.07/bin/../lib/gcc/arm-none-eabi/10.3.1/thumb/v7-m/nofp/crti.o
 .ARM.attributes
                0x0000001d       0x2d c:/tools/gcc-arm-none-eabi-10.3-2021.07/bin/../lib/gcc/arm-none-eabi/10.3.1/thumb/v7-m/nofp/crtbegin.o
 .ARM.attributes
                0x0000004a       0x2d CMakeFiles/FOC_Driver.elf.dir/Core/Src/adc.c.obj
 .ARM.attributes
                0x00000077       0x2d CMakeFiles/FOC_Driver.elf.dir/Core/Src/can.c.obj
 .ARM.attributes
                0x000000a4       0x2d CMakeFiles/FOC_Driver.elf.dir/Core/Src/gpio.c.obj
 .ARM.attributes
                0x000000d1       0x2d CMakeFiles/FOC_Driver.elf.dir/Core/Src/i2c.c.obj
 .ARM.attributes
                0x000000fe       0x2d CMakeFiles/FOC_Driver.elf.dir/Core/Src/main.c.obj
 .ARM.attributes
                0x0000012b       0x2d CMakeFiles/FOC_Driver.elf.dir/Core/Src/spi.c.obj
 .ARM.attributes
                0x00000158       0x2d CMakeFiles/FOC_Driver.elf.dir/Core/Src/stm32f1xx_hal_msp.c.obj
 .ARM.attributes
                0x00000185       0x2d CMakeFiles/FOC_Driver.elf.dir/Core/Src/stm32f1xx_it.c.obj
 .ARM.attributes
                0x000001b2       0x2d CMakeFiles/FOC_Driver.elf.dir/Core/Src/syscalls.c.obj
 .ARM.attributes
                0x000001df       0x2d CMakeFiles/FOC_Driver.elf.dir/Core/Src/system_stm32f1xx.c.obj
 .ARM.attributes
                0x0000020c       0x2d CMakeFiles/FOC_Driver.elf.dir/Core/Src/tim.c.obj
 .ARM.attributes
                0x00000239       0x2d CMakeFiles/FOC_Driver.elf.dir/Core/Src/usart.c.obj
 .ARM.attributes
                0x00000266       0x2d CMakeFiles/FOC_Driver.elf.dir/Drivers/STM32F1xx_HAL_Driver/Src/stm32f1xx_hal.c.obj
 .ARM.attributes
                0x00000293       0x2d CMakeFiles/FOC_Driver.elf.dir/Drivers/STM32F1xx_HAL_Driver/Src/stm32f1xx_hal_adc.c.obj
 .ARM.attributes
                0x000002c0       0x2d CMakeFiles/FOC_Driver.elf.dir/Drivers/STM32F1xx_HAL_Driver/Src/stm32f1xx_hal_can.c.obj
 .ARM.attributes
                0x000002ed       0x2d CMakeFiles/FOC_Driver.elf.dir/Drivers/STM32F1xx_HAL_Driver/Src/stm32f1xx_hal_cortex.c.obj
 .ARM.attributes
                0x0000031a       0x2d CMakeFiles/FOC_Driver.elf.dir/Drivers/STM32F1xx_HAL_Driver/Src/stm32f1xx_hal_gpio.c.obj
 .ARM.attributes
                0x00000347       0x2d CMakeFiles/FOC_Driver.elf.dir/Drivers/STM32F1xx_HAL_Driver/Src/stm32f1xx_hal_i2c.c.obj
 .ARM.attributes
                0x00000374       0x2d CMakeFiles/FOC_Driver.elf.dir/Drivers/STM32F1xx_HAL_Driver/Src/stm32f1xx_hal_rcc.c.obj
 .ARM.attributes
                0x000003a1       0x2d CMakeFiles/FOC_Driver.elf.dir/Drivers/STM32F1xx_HAL_Driver/Src/stm32f1xx_hal_rcc_ex.c.obj
 .ARM.attributes
                0x000003ce       0x2d CMakeFiles/FOC_Driver.elf.dir/Drivers/STM32F1xx_HAL_Driver/Src/stm32f1xx_hal_spi.c.obj
 .ARM.attributes
                0x000003fb       0x2d CMakeFiles/FOC_Driver.elf.dir/Drivers/STM32F1xx_HAL_Driver/Src/stm32f1xx_hal_tim.c.obj
 .ARM.attributes
                0x00000428       0x2d CMakeFiles/FOC_Driver.elf.dir/Drivers/STM32F1xx_HAL_Driver/Src/stm32f1xx_hal_tim_ex.c.obj
 .ARM.attributes
                0x00000455       0x2d CMakeFiles/FOC_Driver.elf.dir/Drivers/STM32F1xx_HAL_Driver/Src/stm32f1xx_hal_uart.c.obj
 .ARM.attributes
                0x00000482       0x2d CMakeFiles/FOC_Driver.elf.dir/FOC/FOC.c.obj
 .ARM.attributes
                0x000004af       0x2d CMakeFiles/FOC_Driver.elf.dir/FOC/FOC_utils.c.obj
 .ARM.attributes
                0x000004dc       0x2d CMakeFiles/FOC_Driver.elf.dir/FOC/hardware_specific/stm32_mcu.c.obj
 .ARM.attributes
                0x00000509       0x2d CMakeFiles/FOC_Driver.elf.dir/retarget/retarget.c.obj
 .ARM.attributes
                0x00000536       0x33 CMakeFiles/FOC_Driver.elf.dir/st7735/fonts.c.obj
 .ARM.attributes
                0x00000569       0x2d CMakeFiles/FOC_Driver.elf.dir/st7735/st7735.c.obj
 .ARM.attributes
                0x00000596       0x21 CMakeFiles/FOC_Driver.elf.dir/startup/startup_stm32f103xb.s.obj
 .ARM.attributes
                0x000005b7       0x1d c:/tools/gcc-arm-none-eabi-10.3-2021.07/bin/../lib/gcc/arm-none-eabi/10.3.1/thumb/v7-m/nofp\libgcc.a(_arm_addsubdf3.o)
 .ARM.attributes
                0x000005d4       0x1d c:/tools/gcc-arm-none-eabi-10.3-2021.07/bin/../lib/gcc/arm-none-eabi/10.3.1/thumb/v7-m/nofp\libgcc.a(_arm_fixdfsi.o)
 .ARM.attributes
                0x000005f1       0x1d c:/tools/gcc-arm-none-eabi-10.3-2021.07/bin/../lib/gcc/arm-none-eabi/10.3.1/thumb/v7-m/nofp\libgcc.a(_arm_fixunsdfsi.o)
 .ARM.attributes
                0x0000060e       0x1d c:/tools/gcc-arm-none-eabi-10.3-2021.07/bin/../lib/gcc/arm-none-eabi/10.3.1/thumb/v7-m/nofp\libgcc.a(_arm_truncdfsf2.o)
 .ARM.attributes
                0x0000062b       0x1d c:/tools/gcc-arm-none-eabi-10.3-2021.07/bin/../lib/gcc/arm-none-eabi/10.3.1/thumb/v7-m/nofp\libgcc.a(_arm_addsubsf3.o)
 .ARM.attributes
                0x00000648       0x1d c:/tools/gcc-arm-none-eabi-10.3-2021.07/bin/../lib/gcc/arm-none-eabi/10.3.1/thumb/v7-m/nofp\libgcc.a(_arm_muldivsf3.o)
 .ARM.attributes
                0x00000665       0x1d c:/tools/gcc-arm-none-eabi-10.3-2021.07/bin/../lib/gcc/arm-none-eabi/10.3.1/thumb/v7-m/nofp\libgcc.a(_arm_cmpsf2.o)
 .ARM.attributes
                0x00000682       0x1d c:/tools/gcc-arm-none-eabi-10.3-2021.07/bin/../lib/gcc/arm-none-eabi/10.3.1/thumb/v7-m/nofp\libgcc.a(_arm_fixsfsi.o)
 .ARM.attributes
                0x0000069f       0x2d c:/tools/gcc-arm-none-eabi-10.3-2021.07/bin/../lib/gcc/arm-none-eabi/10.3.1/../../../../arm-none-eabi/lib/thumb/v7-m/nofp\libg.a(lib_a-errno.o)
 .ARM.attributes
                0x000006cc       0x2d c:/tools/gcc-arm-none-eabi-10.3-2021.07/bin/../lib/gcc/arm-none-eabi/10.3.1/../../../../arm-none-eabi/lib/thumb/v7-m/nofp\libg.a(lib_a-impure.o)
 .ARM.attributes
                0x000006f9       0x2d c:/tools/gcc-arm-none-eabi-10.3-2021.07/bin/../lib/gcc/arm-none-eabi/10.3.1/../../../../arm-none-eabi/lib/thumb/v7-m/nofp\libg.a(lib_a-init.o)
 .ARM.attributes
                0x00000726       0x2d c:/tools/gcc-arm-none-eabi-10.3-2021.07/bin/../lib/gcc/arm-none-eabi/10.3.1/../../../../arm-none-eabi/lib/thumb/v7-m/nofp\libg.a(lib_a-malloc.o)
 .ARM.attributes
                0x00000753       0x2d c:/tools/gcc-arm-none-eabi-10.3-2021.07/bin/../lib/gcc/arm-none-eabi/10.3.1/../../../../arm-none-eabi/lib/thumb/v7-m/nofp\libg.a(lib_a-mallocr.o)
 .ARM.attributes
                0x00000780       0x2d c:/tools/gcc-arm-none-eabi-10.3-2021.07/bin/../lib/gcc/arm-none-eabi/10.3.1/../../../../arm-none-eabi/lib/thumb/v7-m/nofp\libg.a(lib_a-memset.o)
 .ARM.attributes
                0x000007ad       0x2d c:/tools/gcc-arm-none-eabi-10.3-2021.07/bin/../lib/gcc/arm-none-eabi/10.3.1/../../../../arm-none-eabi/lib/thumb/v7-m/nofp\libg.a(lib_a-mlock.o)
 .ARM.attributes
                0x000007da       0x2d c:/tools/gcc-arm-none-eabi-10.3-2021.07/bin/../lib/gcc/arm-none-eabi/10.3.1/../../../../arm-none-eabi/lib/thumb/v7-m/nofp\libg.a(lib_a-printf.o)
 .ARM.attributes
                0x00000807       0x2d c:/tools/gcc-arm-none-eabi-10.3-2021.07/bin/../lib/gcc/arm-none-eabi/10.3.1/../../../../arm-none-eabi/lib/thumb/v7-m/nofp\libg.a(lib_a-sbrkr.o)
 .ARM.attributes
                0x00000834       0x2d c:/tools/gcc-arm-none-eabi-10.3-2021.07/bin/../lib/gcc/arm-none-eabi/10.3.1/../../../../arm-none-eabi/lib/thumb/v7-m/nofp\libg.a(lib_a-setvbuf.o)
 .ARM.attributes
                0x00000861       0x2d c:/tools/gcc-arm-none-eabi-10.3-2021.07/bin/../lib/gcc/arm-none-eabi/10.3.1/../../../../arm-none-eabi/lib/thumb/v7-m/nofp\libg.a(lib_a-vfprintf.o)
 .ARM.attributes
                0x0000088e       0x2d c:/tools/gcc-arm-none-eabi-10.3-2021.07/bin/../lib/gcc/arm-none-eabi/10.3.1/../../../../arm-none-eabi/lib/thumb/v7-m/nofp\libg.a(lib_a-wsetup.o)
 .ARM.attributes
                0x000008bb       0x2d c:/tools/gcc-arm-none-eabi-10.3-2021.07/bin/../lib/gcc/arm-none-eabi/10.3.1/../../../../arm-none-eabi/lib/thumb/v7-m/nofp\libg.a(lib_a-__call_atexit.o)
 .ARM.attributes
                0x000008e8       0x2d c:/tools/gcc-arm-none-eabi-10.3-2021.07/bin/../lib/gcc/arm-none-eabi/10.3.1/../../../../arm-none-eabi/lib/thumb/v7-m/nofp\libg.a(lib_a-atexit.o)
 .ARM.attributes
                0x00000915       0x2d c:/tools/gcc-arm-none-eabi-10.3-2021.07/bin/../lib/gcc/arm-none-eabi/10.3.1/../../../../arm-none-eabi/lib/thumb/v7-m/nofp\libg.a(lib_a-dtoa.o)
 .ARM.attributes
                0x00000942       0x2d c:/tools/gcc-arm-none-eabi-10.3-2021.07/bin/../lib/gcc/arm-none-eabi/10.3.1/../../../../arm-none-eabi/lib/thumb/v7-m/nofp\libg.a(lib_a-fflush.o)
 .ARM.attributes
                0x0000096f       0x2d c:/tools/gcc-arm-none-eabi-10.3-2021.07/bin/../lib/gcc/arm-none-eabi/10.3.1/../../../../arm-none-eabi/lib/thumb/v7-m/nofp\libg.a(lib_a-findfp.o)
 .ARM.attributes
                0x0000099c       0x2d c:/tools/gcc-arm-none-eabi-10.3-2021.07/bin/../lib/gcc/arm-none-eabi/10.3.1/../../../../arm-none-eabi/lib/thumb/v7-m/nofp\libg.a(lib_a-fini.o)
 .ARM.attributes
                0x000009c9       0x2d c:/tools/gcc-arm-none-eabi-10.3-2021.07/bin/../lib/gcc/arm-none-eabi/10.3.1/../../../../arm-none-eabi/lib/thumb/v7-m/nofp\libg.a(lib_a-freer.o)
 .ARM.attributes
                0x000009f6       0x2d c:/tools/gcc-arm-none-eabi-10.3-2021.07/bin/../lib/gcc/arm-none-eabi/10.3.1/../../../../arm-none-eabi/lib/thumb/v7-m/nofp\libg.a(lib_a-fwalk.o)
 .ARM.attributes
                0x00000a23       0x2d c:/tools/gcc-arm-none-eabi-10.3-2021.07/bin/../lib/gcc/arm-none-eabi/10.3.1/../../../../arm-none-eabi/lib/thumb/v7-m/nofp\libg.a(lib_a-localeconv.o)
 .ARM.attributes
                0x00000a50       0x2d c:/tools/gcc-arm-none-eabi-10.3-2021.07/bin/../lib/gcc/arm-none-eabi/10.3.1/../../../../arm-none-eabi/lib/thumb/v7-m/nofp\libg.a(lib_a-lock.o)
 .ARM.attributes
                0x00000a7d       0x2d c:/tools/gcc-arm-none-eabi-10.3-2021.07/bin/../lib/gcc/arm-none-eabi/10.3.1/../../../../arm-none-eabi/lib/thumb/v7-m/nofp\libg.a(lib_a-makebuf.o)
 .ARM.attributes
                0x00000aaa       0x2d c:/tools/gcc-arm-none-eabi-10.3-2021.07/bin/../lib/gcc/arm-none-eabi/10.3.1/../../../../arm-none-eabi/lib/thumb/v7-m/nofp\libg.a(lib_a-memchr-stub.o)
 .ARM.attributes
                0x00000ad7       0x1b c:/tools/gcc-arm-none-eabi-10.3-2021.07/bin/../lib/gcc/arm-none-eabi/10.3.1/../../../../arm-none-eabi/lib/thumb/v7-m/nofp\libg.a(lib_a-memcpy.o)
 .ARM.attributes
                0x00000af2       0x2d c:/tools/gcc-arm-none-eabi-10.3-2021.07/bin/../lib/gcc/arm-none-eabi/10.3.1/../../../../arm-none-eabi/lib/thumb/v7-m/nofp\libg.a(lib_a-mprec.o)
 .ARM.attributes
                0x00000b1f       0x2d c:/tools/gcc-arm-none-eabi-10.3-2021.07/bin/../lib/gcc/arm-none-eabi/10.3.1/../../../../arm-none-eabi/lib/thumb/v7-m/nofp\libg.a(lib_a-reent.o)
 .ARM.attributes
                0x00000b4c       0x2d c:/tools/gcc-arm-none-eabi-10.3-2021.07/bin/../lib/gcc/arm-none-eabi/10.3.1/../../../../arm-none-eabi/lib/thumb/v7-m/nofp\libg.a(lib_a-s_frexp.o)
 .ARM.attributes
                0x00000b79       0x2d c:/tools/gcc-arm-none-eabi-10.3-2021.07/bin/../lib/gcc/arm-none-eabi/10.3.1/../../../../arm-none-eabi/lib/thumb/v7-m/nofp\libg.a(lib_a-stdio.o)
 .ARM.attributes
                0x00000ba6       0x2d c:/tools/gcc-arm-none-eabi-10.3-2021.07/bin/../lib/gcc/arm-none-eabi/10.3.1/../../../../arm-none-eabi/lib/thumb/v7-m/nofp\libg.a(lib_a-strlen-stub.o)
 .ARM.attributes
                0x00000bd3       0x2d c:/tools/gcc-arm-none-eabi-10.3-2021.07/bin/../lib/gcc/arm-none-eabi/10.3.1/../../../../arm-none-eabi/lib/thumb/v7-m/nofp\libg.a(lib_a-strncpy.o)
 .ARM.attributes
                0x00000c00       0x2d c:/tools/gcc-arm-none-eabi-10.3-2021.07/bin/../lib/gcc/arm-none-eabi/10.3.1/../../../../arm-none-eabi/lib/thumb/v7-m/nofp\libg.a(lib_a-vfiprintf.o)
 .ARM.attributes
                0x00000c2d       0x2d c:/tools/gcc-arm-none-eabi-10.3-2021.07/bin/../lib/gcc/arm-none-eabi/10.3.1/../../../../arm-none-eabi/lib/thumb/v7-m/nofp\libg.a(lib_a-writer.o)
 .ARM.attributes
                0x00000c5a       0x2d c:/tools/gcc-arm-none-eabi-10.3-2021.07/bin/../lib/gcc/arm-none-eabi/10.3.1/../../../../arm-none-eabi/lib/thumb/v7-m/nofp\libg.a(lib_a-__atexit.o)
 .ARM.attributes
                0x00000c87       0x2d c:/tools/gcc-arm-none-eabi-10.3-2021.07/bin/../lib/gcc/arm-none-eabi/10.3.1/../../../../arm-none-eabi/lib/thumb/v7-m/nofp\libg.a(lib_a-assert.o)
 .ARM.attributes
                0x00000cb4       0x2d c:/tools/gcc-arm-none-eabi-10.3-2021.07/bin/../lib/gcc/arm-none-eabi/10.3.1/../../../../arm-none-eabi/lib/thumb/v7-m/nofp\libg.a(lib_a-callocr.o)
 .ARM.attributes
                0x00000ce1       0x2d c:/tools/gcc-arm-none-eabi-10.3-2021.07/bin/../lib/gcc/arm-none-eabi/10.3.1/../../../../arm-none-eabi/lib/thumb/v7-m/nofp\libg.a(lib_a-closer.o)
 .ARM.attributes
                0x00000d0e       0x2d c:/tools/gcc-arm-none-eabi-10.3-2021.07/bin/../lib/gcc/arm-none-eabi/10.3.1/../../../../arm-none-eabi/lib/thumb/v7-m/nofp\libg.a(lib_a-fclose.o)
 .ARM.attributes
                0x00000d3b       0x2d c:/tools/gcc-arm-none-eabi-10.3-2021.07/bin/../lib/gcc/arm-none-eabi/10.3.1/../../../../arm-none-eabi/lib/thumb/v7-m/nofp\libg.a(lib_a-fiprintf.o)
 .ARM.attributes
                0x00000d68       0x2d c:/tools/gcc-arm-none-eabi-10.3-2021.07/bin/../lib/gcc/arm-none-eabi/10.3.1/../../../../arm-none-eabi/lib/thumb/v7-m/nofp\libg.a(lib_a-fputwc.o)
 .ARM.attributes
                0x00000d95       0x2d c:/tools/gcc-arm-none-eabi-10.3-2021.07/bin/../lib/gcc/arm-none-eabi/10.3.1/../../../../arm-none-eabi/lib/thumb/v7-m/nofp\libg.a(lib_a-fstatr.o)
 .ARM.attributes
                0x00000dc2       0x2d c:/tools/gcc-arm-none-eabi-10.3-2021.07/bin/../lib/gcc/arm-none-eabi/10.3.1/../../../../arm-none-eabi/lib/thumb/v7-m/nofp\libg.a(lib_a-fvwrite.o)
 .ARM.attributes
                0x00000def       0x2d c:/tools/gcc-arm-none-eabi-10.3-2021.07/bin/../lib/gcc/arm-none-eabi/10.3.1/../../../../arm-none-eabi/lib/thumb/v7-m/nofp\libg.a(lib_a-isattyr.o)
 .ARM.attributes
                0x00000e1c       0x2d c:/tools/gcc-arm-none-eabi-10.3-2021.07/bin/../lib/gcc/arm-none-eabi/10.3.1/../../../../arm-none-eabi/lib/thumb/v7-m/nofp\libg.a(lib_a-locale.o)
 .ARM.attributes
                0x00000e49       0x2d c:/tools/gcc-arm-none-eabi-10.3-2021.07/bin/../lib/gcc/arm-none-eabi/10.3.1/../../../../arm-none-eabi/lib/thumb/v7-m/nofp\libg.a(lib_a-lseekr.o)
 .ARM.attributes
                0x00000e76       0x2d c:/tools/gcc-arm-none-eabi-10.3-2021.07/bin/../lib/gcc/arm-none-eabi/10.3.1/../../../../arm-none-eabi/lib/thumb/v7-m/nofp\libg.a(lib_a-mbtowc_r.o)
 .ARM.attributes
                0x00000ea3       0x2d c:/tools/gcc-arm-none-eabi-10.3-2021.07/bin/../lib/gcc/arm-none-eabi/10.3.1/../../../../arm-none-eabi/lib/thumb/v7-m/nofp\libg.a(lib_a-memmove.o)
 .ARM.attributes
                0x00000ed0       0x2d c:/tools/gcc-arm-none-eabi-10.3-2021.07/bin/../lib/gcc/arm-none-eabi/10.3.1/../../../../arm-none-eabi/lib/thumb/v7-m/nofp\libg.a(lib_a-readr.o)
 .ARM.attributes
                0x00000efd       0x2d c:/tools/gcc-arm-none-eabi-10.3-2021.07/bin/../lib/gcc/arm-none-eabi/10.3.1/../../../../arm-none-eabi/lib/thumb/v7-m/nofp\libg.a(lib_a-reallocr.o)
 .ARM.attributes
                0x00000f2a       0x2d c:/tools/gcc-arm-none-eabi-10.3-2021.07/bin/../lib/gcc/arm-none-eabi/10.3.1/../../../../arm-none-eabi/lib/thumb/v7-m/nofp\libg.a(lib_a-wbuf.o)
 .ARM.attributes
                0x00000f57       0x2d c:/tools/gcc-arm-none-eabi-10.3-2021.07/bin/../lib/gcc/arm-none-eabi/10.3.1/../../../../arm-none-eabi/lib/thumb/v7-m/nofp\libg.a(lib_a-wcrtomb.o)
 .ARM.attributes
                0x00000f84       0x2d c:/tools/gcc-arm-none-eabi-10.3-2021.07/bin/../lib/gcc/arm-none-eabi/10.3.1/../../../../arm-none-eabi/lib/thumb/v7-m/nofp\libg.a(lib_a-wctomb_r.o)
 .ARM.attributes
                0x00000fb1       0x2d c:/tools/gcc-arm-none-eabi-10.3-2021.07/bin/../lib/gcc/arm-none-eabi/10.3.1/../../../../arm-none-eabi/lib/thumb/v7-m/nofp\libg.a(lib_a-abort.o)
 .ARM.attributes
                0x00000fde       0x2d c:/tools/gcc-arm-none-eabi-10.3-2021.07/bin/../lib/gcc/arm-none-eabi/10.3.1/../../../../arm-none-eabi/lib/thumb/v7-m/nofp\libg.a(lib_a-ctype_.o)
 .ARM.attributes
                0x0000100b       0x2d c:/tools/gcc-arm-none-eabi-10.3-2021.07/bin/../lib/gcc/arm-none-eabi/10.3.1/../../../../arm-none-eabi/lib/thumb/v7-m/nofp\libg.a(lib_a-signal.o)
 .ARM.attributes
                0x00001038       0x2d c:/tools/gcc-arm-none-eabi-10.3-2021.07/bin/../lib/gcc/arm-none-eabi/10.3.1/../../../../arm-none-eabi/lib/thumb/v7-m/nofp\libg.a(lib_a-signalr.o)
 .ARM.attributes
                0x00001065       0x1d c:/tools/gcc-arm-none-eabi-10.3-2021.07/bin/../lib/gcc/arm-none-eabi/10.3.1/thumb/v7-m/nofp\libgcc.a(_arm_muldivdf3.o)
 .ARM.attributes
                0x00001082       0x1d c:/tools/gcc-arm-none-eabi-10.3-2021.07/bin/../lib/gcc/arm-none-eabi/10.3.1/thumb/v7-m/nofp\libgcc.a(_arm_cmpdf2.o)
 .ARM.attributes
                0x0000109f       0x1d c:/tools/gcc-arm-none-eabi-10.3-2021.07/bin/../lib/gcc/arm-none-eabi/10.3.1/thumb/v7-m/nofp\libgcc.a(_arm_unorddf2.o)
 .ARM.attributes
                0x000010bc       0x1d c:/tools/gcc-arm-none-eabi-10.3-2021.07/bin/../lib/gcc/arm-none-eabi/10.3.1/thumb/v7-m/nofp\libgcc.a(_aeabi_uldivmod.o)
 .ARM.attributes
                0x000010d9       0x2d c:/tools/gcc-arm-none-eabi-10.3-2021.07/bin/../lib/gcc/arm-none-eabi/10.3.1/thumb/v7-m/nofp\libgcc.a(_udivmoddi4.o)
 .ARM.attributes
                0x00001106       0x1d c:/tools/gcc-arm-none-eabi-10.3-2021.07/bin/../lib/gcc/arm-none-eabi/10.3.1/thumb/v7-m/nofp\libgcc.a(_dvmd_tls.o)
 .ARM.attributes
                0x00001123       0x1d c:/tools/gcc-arm-none-eabi-10.3-2021.07/bin/../lib/gcc/arm-none-eabi/10.3.1/thumb/v7-m/nofp/crtn.o
OUTPUT(FOC_Driver.elf elf32-littlearm)
LOAD linker stubs
LOAD c:/tools/gcc-arm-none-eabi-10.3-2021.07/bin/../lib/gcc/arm-none-eabi/10.3.1/../../../../arm-none-eabi/lib/thumb/v7-m/nofp\libc.a
LOAD c:/tools/gcc-arm-none-eabi-10.3-2021.07/bin/../lib/gcc/arm-none-eabi/10.3.1/../../../../arm-none-eabi/lib/thumb/v7-m/nofp\libm.a
LOAD c:/tools/gcc-arm-none-eabi-10.3-2021.07/bin/../lib/gcc/arm-none-eabi/10.3.1/thumb/v7-m/nofp\libgcc.a

.debug_info     0x00000000    0x19c7f
 .debug_info    0x00000000      0x85b CMakeFiles/FOC_Driver.elf.dir/Core/Src/adc.c.obj
 .debug_info    0x0000085b      0x777 CMakeFiles/FOC_Driver.elf.dir/Core/Src/can.c.obj
 .debug_info    0x00000fd2      0x349 CMakeFiles/FOC_Driver.elf.dir/Core/Src/gpio.c.obj
 .debug_info    0x0000131b      0x936 CMakeFiles/FOC_Driver.elf.dir/Core/Src/i2c.c.obj
 .debug_info    0x00001c51      0xb5e CMakeFiles/FOC_Driver.elf.dir/Core/Src/main.c.obj
 .debug_info    0x000027af      0x857 CMakeFiles/FOC_Driver.elf.dir/Core/Src/spi.c.obj
 .debug_info    0x00003006      0x211 CMakeFiles/FOC_Driver.elf.dir/Core/Src/stm32f1xx_hal_msp.c.obj
 .debug_info    0x00003217      0x130 CMakeFiles/FOC_Driver.elf.dir/Core/Src/stm32f1xx_it.c.obj
 .debug_info    0x00003347      0x750 CMakeFiles/FOC_Driver.elf.dir/Core/Src/syscalls.c.obj
 .debug_info    0x00003a97      0x248 CMakeFiles/FOC_Driver.elf.dir/Core/Src/system_stm32f1xx.c.obj
 .debug_info    0x00003cdf      0xc44 CMakeFiles/FOC_Driver.elf.dir/Core/Src/tim.c.obj
 .debug_info    0x00004923      0x8bb CMakeFiles/FOC_Driver.elf.dir/Core/Src/usart.c.obj
 .debug_info    0x000051de      0x7a8 CMakeFiles/FOC_Driver.elf.dir/Drivers/STM32F1xx_HAL_Driver/Src/stm32f1xx_hal.c.obj
 .debug_info    0x00005986      0xf10 CMakeFiles/FOC_Driver.elf.dir/Drivers/STM32F1xx_HAL_Driver/Src/stm32f1xx_hal_adc.c.obj
 .debug_info    0x00006896     0x125e CMakeFiles/FOC_Driver.elf.dir/Drivers/STM32F1xx_HAL_Driver/Src/stm32f1xx_hal_can.c.obj
 .debug_info    0x00007af4      0xd8a CMakeFiles/FOC_Driver.elf.dir/Drivers/STM32F1xx_HAL_Driver/Src/stm32f1xx_hal_cortex.c.obj
 .debug_info    0x0000887e      0x66f CMakeFiles/FOC_Driver.elf.dir/Drivers/STM32F1xx_HAL_Driver/Src/stm32f1xx_hal_gpio.c.obj
 .debug_info    0x00008eed     0x3a6b CMakeFiles/FOC_Driver.elf.dir/Drivers/STM32F1xx_HAL_Driver/Src/stm32f1xx_hal_i2c.c.obj
 .debug_info    0x0000c958      0xa36 CMakeFiles/FOC_Driver.elf.dir/Drivers/STM32F1xx_HAL_Driver/Src/stm32f1xx_hal_rcc.c.obj
 .debug_info    0x0000d38e      0x443 CMakeFiles/FOC_Driver.elf.dir/Drivers/STM32F1xx_HAL_Driver/Src/stm32f1xx_hal_rcc_ex.c.obj
 .debug_info    0x0000d7d1     0x1d70 CMakeFiles/FOC_Driver.elf.dir/Drivers/STM32F1xx_HAL_Driver/Src/stm32f1xx_hal_spi.c.obj
 .debug_info    0x0000f541     0x3b00 CMakeFiles/FOC_Driver.elf.dir/Drivers/STM32F1xx_HAL_Driver/Src/stm32f1xx_hal_tim.c.obj
 .debug_info    0x00013041     0x19e9 CMakeFiles/FOC_Driver.elf.dir/Drivers/STM32F1xx_HAL_Driver/Src/stm32f1xx_hal_tim_ex.c.obj
 .debug_info    0x00014a2a     0x1c8b CMakeFiles/FOC_Driver.elf.dir/Drivers/STM32F1xx_HAL_Driver/Src/stm32f1xx_hal_uart.c.obj
 .debug_info    0x000166b5      0x44a CMakeFiles/FOC_Driver.elf.dir/FOC/FOC.c.obj
 .debug_info    0x00016aff      0x427 CMakeFiles/FOC_Driver.elf.dir/FOC/FOC_utils.c.obj
 .debug_info    0x00016f26      0x81d CMakeFiles/FOC_Driver.elf.dir/FOC/hardware_specific/stm32_mcu.c.obj
 .debug_info    0x00017743     0x12a7 CMakeFiles/FOC_Driver.elf.dir/retarget/retarget.c.obj
 .debug_info    0x000189ea      0x1aa CMakeFiles/FOC_Driver.elf.dir/st7735/fonts.c.obj
 .debug_info    0x00018b94     0x10c9 CMakeFiles/FOC_Driver.elf.dir/st7735/st7735.c.obj
 .debug_info    0x00019c5d       0x22 CMakeFiles/FOC_Driver.elf.dir/startup/startup_stm32f103xb.s.obj

.debug_abbrev   0x00000000     0x38ba
 .debug_abbrev  0x00000000      0x1c1 CMakeFiles/FOC_Driver.elf.dir/Core/Src/adc.c.obj
 .debug_abbrev  0x000001c1      0x1fe CMakeFiles/FOC_Driver.elf.dir/Core/Src/can.c.obj
 .debug_abbrev  0x000003bf      0x13c CMakeFiles/FOC_Driver.elf.dir/Core/Src/gpio.c.obj
 .debug_abbrev  0x000004fb      0x1e7 CMakeFiles/FOC_Driver.elf.dir/Core/Src/i2c.c.obj
 .debug_abbrev  0x000006e2      0x248 CMakeFiles/FOC_Driver.elf.dir/Core/Src/main.c.obj
 .debug_abbrev  0x0000092a      0x1c1 CMakeFiles/FOC_Driver.elf.dir/Core/Src/spi.c.obj
 .debug_abbrev  0x00000aeb       0xe5 CMakeFiles/FOC_Driver.elf.dir/Core/Src/stm32f1xx_hal_msp.c.obj
 .debug_abbrev  0x00000bd0       0x7e CMakeFiles/FOC_Driver.elf.dir/Core/Src/stm32f1xx_it.c.obj
 .debug_abbrev  0x00000c4e      0x1da CMakeFiles/FOC_Driver.elf.dir/Core/Src/syscalls.c.obj
 .debug_abbrev  0x00000e28      0x13e CMakeFiles/FOC_Driver.elf.dir/Core/Src/system_stm32f1xx.c.obj
 .debug_abbrev  0x00000f66      0x211 CMakeFiles/FOC_Driver.elf.dir/Core/Src/tim.c.obj
 .debug_abbrev  0x00001177      0x1e7 CMakeFiles/FOC_Driver.elf.dir/Core/Src/usart.c.obj
 .debug_abbrev  0x0000135e      0x1f4 CMakeFiles/FOC_Driver.elf.dir/Drivers/STM32F1xx_HAL_Driver/Src/stm32f1xx_hal.c.obj
 .debug_abbrev  0x00001552      0x1fc CMakeFiles/FOC_Driver.elf.dir/Drivers/STM32F1xx_HAL_Driver/Src/stm32f1xx_hal_adc.c.obj
 .debug_abbrev  0x0000174e      0x256 CMakeFiles/FOC_Driver.elf.dir/Drivers/STM32F1xx_HAL_Driver/Src/stm32f1xx_hal_can.c.obj
 .debug_abbrev  0x000019a4      0x341 CMakeFiles/FOC_Driver.elf.dir/Drivers/STM32F1xx_HAL_Driver/Src/stm32f1xx_hal_cortex.c.obj
 .debug_abbrev  0x00001ce5      0x1e6 CMakeFiles/FOC_Driver.elf.dir/Drivers/STM32F1xx_HAL_Driver/Src/stm32f1xx_hal_gpio.c.obj
 .debug_abbrev  0x00001ecb      0x293 CMakeFiles/FOC_Driver.elf.dir/Drivers/STM32F1xx_HAL_Driver/Src/stm32f1xx_hal_i2c.c.obj
 .debug_abbrev  0x0000215e      0x27a CMakeFiles/FOC_Driver.elf.dir/Drivers/STM32F1xx_HAL_Driver/Src/stm32f1xx_hal_rcc.c.obj
 .debug_abbrev  0x000023d8      0x1d2 CMakeFiles/FOC_Driver.elf.dir/Drivers/STM32F1xx_HAL_Driver/Src/stm32f1xx_hal_rcc_ex.c.obj
 .debug_abbrev  0x000025aa      0x23b CMakeFiles/FOC_Driver.elf.dir/Drivers/STM32F1xx_HAL_Driver/Src/stm32f1xx_hal_spi.c.obj
 .debug_abbrev  0x000027e5      0x23e CMakeFiles/FOC_Driver.elf.dir/Drivers/STM32F1xx_HAL_Driver/Src/stm32f1xx_hal_tim.c.obj
 .debug_abbrev  0x00002a23      0x241 CMakeFiles/FOC_Driver.elf.dir/Drivers/STM32F1xx_HAL_Driver/Src/stm32f1xx_hal_tim_ex.c.obj
 .debug_abbrev  0x00002c64      0x254 CMakeFiles/FOC_Driver.elf.dir/Drivers/STM32F1xx_HAL_Driver/Src/stm32f1xx_hal_uart.c.obj
 .debug_abbrev  0x00002eb8       0xf4 CMakeFiles/FOC_Driver.elf.dir/FOC/FOC.c.obj
 .debug_abbrev  0x00002fac      0x113 CMakeFiles/FOC_Driver.elf.dir/FOC/FOC_utils.c.obj
 .debug_abbrev  0x000030bf      0x1d1 CMakeFiles/FOC_Driver.elf.dir/FOC/hardware_specific/stm32_mcu.c.obj
 .debug_abbrev  0x00003290      0x2b4 CMakeFiles/FOC_Driver.elf.dir/retarget/retarget.c.obj
 .debug_abbrev  0x00003544       0xaa CMakeFiles/FOC_Driver.elf.dir/st7735/fonts.c.obj
 .debug_abbrev  0x000035ee      0x2ba CMakeFiles/FOC_Driver.elf.dir/st7735/st7735.c.obj
 .debug_abbrev  0x000038a8       0x12 CMakeFiles/FOC_Driver.elf.dir/startup/startup_stm32f103xb.s.obj

.debug_loc      0x00000000    0x12c88
 .debug_loc     0x00000000       0x84 CMakeFiles/FOC_Driver.elf.dir/Core/Src/adc.c.obj
 .debug_loc     0x00000084       0x84 CMakeFiles/FOC_Driver.elf.dir/Core/Src/can.c.obj
 .debug_loc     0x00000108       0xaa CMakeFiles/FOC_Driver.elf.dir/Core/Src/i2c.c.obj
 .debug_loc     0x000001b2       0x34 CMakeFiles/FOC_Driver.elf.dir/Core/Src/main.c.obj
 .debug_loc     0x000001e6       0x84 CMakeFiles/FOC_Driver.elf.dir/Core/Src/spi.c.obj
 .debug_loc     0x0000026a       0x15 CMakeFiles/FOC_Driver.elf.dir/Core/Src/stm32f1xx_hal_msp.c.obj
 .debug_loc     0x0000027f      0x3a2 CMakeFiles/FOC_Driver.elf.dir/Core/Src/syscalls.c.obj
 .debug_loc     0x00000621       0xff CMakeFiles/FOC_Driver.elf.dir/Core/Src/system_stm32f1xx.c.obj
 .debug_loc     0x00000720       0x42 CMakeFiles/FOC_Driver.elf.dir/Core/Src/tim.c.obj
 .debug_loc     0x00000762       0xb9 CMakeFiles/FOC_Driver.elf.dir/Core/Src/usart.c.obj
 .debug_loc     0x0000081b      0x141 CMakeFiles/FOC_Driver.elf.dir/Drivers/STM32F1xx_HAL_Driver/Src/stm32f1xx_hal.c.obj
 .debug_loc     0x0000095c      0xad9 CMakeFiles/FOC_Driver.elf.dir/Drivers/STM32F1xx_HAL_Driver/Src/stm32f1xx_hal_adc.c.obj
 .debug_loc     0x00001435      0xdb6 CMakeFiles/FOC_Driver.elf.dir/Drivers/STM32F1xx_HAL_Driver/Src/stm32f1xx_hal_can.c.obj
 .debug_loc     0x000021eb      0x71f CMakeFiles/FOC_Driver.elf.dir/Drivers/STM32F1xx_HAL_Driver/Src/stm32f1xx_hal_cortex.c.obj
 .debug_loc     0x0000290a      0x47d CMakeFiles/FOC_Driver.elf.dir/Drivers/STM32F1xx_HAL_Driver/Src/stm32f1xx_hal_gpio.c.obj
 .debug_loc     0x00002d87     0x41a9 CMakeFiles/FOC_Driver.elf.dir/Drivers/STM32F1xx_HAL_Driver/Src/stm32f1xx_hal_i2c.c.obj
 .debug_loc     0x00006f30      0x63e CMakeFiles/FOC_Driver.elf.dir/Drivers/STM32F1xx_HAL_Driver/Src/stm32f1xx_hal_rcc.c.obj
 .debug_loc     0x0000756e      0x3c8 CMakeFiles/FOC_Driver.elf.dir/Drivers/STM32F1xx_HAL_Driver/Src/stm32f1xx_hal_rcc_ex.c.obj
 .debug_loc     0x00007936     0x1d4e CMakeFiles/FOC_Driver.elf.dir/Drivers/STM32F1xx_HAL_Driver/Src/stm32f1xx_hal_spi.c.obj
 .debug_loc     0x00009684     0x47a8 CMakeFiles/FOC_Driver.elf.dir/Drivers/STM32F1xx_HAL_Driver/Src/stm32f1xx_hal_tim.c.obj
 .debug_loc     0x0000de2c     0x1ade CMakeFiles/FOC_Driver.elf.dir/Drivers/STM32F1xx_HAL_Driver/Src/stm32f1xx_hal_tim_ex.c.obj
 .debug_loc     0x0000f90a     0x2037 CMakeFiles/FOC_Driver.elf.dir/Drivers/STM32F1xx_HAL_Driver/Src/stm32f1xx_hal_uart.c.obj
 .debug_loc     0x00011941      0x426 CMakeFiles/FOC_Driver.elf.dir/FOC/FOC.c.obj
 .debug_loc     0x00011d67      0x212 CMakeFiles/FOC_Driver.elf.dir/FOC/FOC_utils.c.obj
 .debug_loc     0x00011f79       0x8f CMakeFiles/FOC_Driver.elf.dir/FOC/hardware_specific/stm32_mcu.c.obj
 .debug_loc     0x00012008      0x389 CMakeFiles/FOC_Driver.elf.dir/retarget/retarget.c.obj
 .debug_loc     0x00012391      0x8f7 CMakeFiles/FOC_Driver.elf.dir/st7735/st7735.c.obj

.debug_aranges  0x00000000     0x14c0
 .debug_aranges
                0x00000000       0x30 CMakeFiles/FOC_Driver.elf.dir/Core/Src/adc.c.obj
 .debug_aranges
                0x00000030       0x30 CMakeFiles/FOC_Driver.elf.dir/Core/Src/can.c.obj
 .debug_aranges
                0x00000060       0x20 CMakeFiles/FOC_Driver.elf.dir/Core/Src/gpio.c.obj
 .debug_aranges
                0x00000080       0x30 CMakeFiles/FOC_Driver.elf.dir/Core/Src/i2c.c.obj
 .debug_aranges
                0x000000b0       0x30 CMakeFiles/FOC_Driver.elf.dir/Core/Src/main.c.obj
 .debug_aranges
                0x000000e0       0x30 CMakeFiles/FOC_Driver.elf.dir/Core/Src/spi.c.obj
 .debug_aranges
                0x00000110       0x20 CMakeFiles/FOC_Driver.elf.dir/Core/Src/stm32f1xx_hal_msp.c.obj
 .debug_aranges
                0x00000130       0x60 CMakeFiles/FOC_Driver.elf.dir/Core/Src/stm32f1xx_it.c.obj
 .debug_aranges
                0x00000190       0x90 CMakeFiles/FOC_Driver.elf.dir/Core/Src/syscalls.c.obj
 .debug_aranges
                0x00000220       0x28 CMakeFiles/FOC_Driver.elf.dir/Core/Src/system_stm32f1xx.c.obj
 .debug_aranges
                0x00000248       0x38 CMakeFiles/FOC_Driver.elf.dir/Core/Src/tim.c.obj
 .debug_aranges
                0x00000280       0x30 CMakeFiles/FOC_Driver.elf.dir/Core/Src/usart.c.obj
 .debug_aranges
                0x000002b0       0xe0 CMakeFiles/FOC_Driver.elf.dir/Drivers/STM32F1xx_HAL_Driver/Src/stm32f1xx_hal.c.obj
 .debug_aranges
                0x00000390       0xf0 CMakeFiles/FOC_Driver.elf.dir/Drivers/STM32F1xx_HAL_Driver/Src/stm32f1xx_hal_adc.c.obj
 .debug_aranges
                0x00000480      0x138 CMakeFiles/FOC_Driver.elf.dir/Drivers/STM32F1xx_HAL_Driver/Src/stm32f1xx_hal_can.c.obj
 .debug_aranges
                0x000005b8       0x90 CMakeFiles/FOC_Driver.elf.dir/Drivers/STM32F1xx_HAL_Driver/Src/stm32f1xx_hal_cortex.c.obj
 .debug_aranges
                0x00000648       0x58 CMakeFiles/FOC_Driver.elf.dir/Drivers/STM32F1xx_HAL_Driver/Src/stm32f1xx_hal_gpio.c.obj
 .debug_aranges
                0x000006a0      0x2a0 CMakeFiles/FOC_Driver.elf.dir/Drivers/STM32F1xx_HAL_Driver/Src/stm32f1xx_hal_i2c.c.obj
 .debug_aranges
                0x00000940       0x90 CMakeFiles/FOC_Driver.elf.dir/Drivers/STM32F1xx_HAL_Driver/Src/stm32f1xx_hal_rcc.c.obj
 .debug_aranges
                0x000009d0       0x30 CMakeFiles/FOC_Driver.elf.dir/Drivers/STM32F1xx_HAL_Driver/Src/stm32f1xx_hal_rcc_ex.c.obj
 .debug_aranges
                0x00000a00      0x1d0 CMakeFiles/FOC_Driver.elf.dir/Drivers/STM32F1xx_HAL_Driver/Src/stm32f1xx_hal_spi.c.obj
 .debug_aranges
                0x00000bd0      0x3d0 CMakeFiles/FOC_Driver.elf.dir/Drivers/STM32F1xx_HAL_Driver/Src/stm32f1xx_hal_tim.c.obj
 .debug_aranges
                0x00000fa0      0x168 CMakeFiles/FOC_Driver.elf.dir/Drivers/STM32F1xx_HAL_Driver/Src/stm32f1xx_hal_tim_ex.c.obj
 .debug_aranges
                0x00001108      0x200 CMakeFiles/FOC_Driver.elf.dir/Drivers/STM32F1xx_HAL_Driver/Src/stm32f1xx_hal_uart.c.obj
 .debug_aranges
                0x00001308       0x28 CMakeFiles/FOC_Driver.elf.dir/FOC/FOC.c.obj
 .debug_aranges
                0x00001330       0x40 CMakeFiles/FOC_Driver.elf.dir/FOC/FOC_utils.c.obj
 .debug_aranges
                0x00001370       0x28 CMakeFiles/FOC_Driver.elf.dir/FOC/hardware_specific/stm32_mcu.c.obj
 .debug_aranges
                0x00001398       0x50 CMakeFiles/FOC_Driver.elf.dir/retarget/retarget.c.obj
 .debug_aranges
                0x000013e8       0x18 CMakeFiles/FOC_Driver.elf.dir/st7735/fonts.c.obj
 .debug_aranges
                0x00001400       0x98 CMakeFiles/FOC_Driver.elf.dir/st7735/st7735.c.obj
 .debug_aranges
                0x00001498       0x28 CMakeFiles/FOC_Driver.elf.dir/startup/startup_stm32f103xb.s.obj

.debug_ranges   0x00000000     0x13b0
 .debug_ranges  0x00000000       0x20 CMakeFiles/FOC_Driver.elf.dir/Core/Src/adc.c.obj
 .debug_ranges  0x00000020       0x20 CMakeFiles/FOC_Driver.elf.dir/Core/Src/can.c.obj
 .debug_ranges  0x00000040       0x10 CMakeFiles/FOC_Driver.elf.dir/Core/Src/gpio.c.obj
 .debug_ranges  0x00000050       0x20 CMakeFiles/FOC_Driver.elf.dir/Core/Src/i2c.c.obj
 .debug_ranges  0x00000070       0x38 CMakeFiles/FOC_Driver.elf.dir/Core/Src/main.c.obj
 .debug_ranges  0x000000a8       0x20 CMakeFiles/FOC_Driver.elf.dir/Core/Src/spi.c.obj
 .debug_ranges  0x000000c8       0x10 CMakeFiles/FOC_Driver.elf.dir/Core/Src/stm32f1xx_hal_msp.c.obj
 .debug_ranges  0x000000d8       0x50 CMakeFiles/FOC_Driver.elf.dir/Core/Src/stm32f1xx_it.c.obj
 .debug_ranges  0x00000128       0x80 CMakeFiles/FOC_Driver.elf.dir/Core/Src/syscalls.c.obj
 .debug_ranges  0x000001a8       0x18 CMakeFiles/FOC_Driver.elf.dir/Core/Src/system_stm32f1xx.c.obj
 .debug_ranges  0x000001c0       0x28 CMakeFiles/FOC_Driver.elf.dir/Core/Src/tim.c.obj
 .debug_ranges  0x000001e8       0x20 CMakeFiles/FOC_Driver.elf.dir/Core/Src/usart.c.obj
 .debug_ranges  0x00000208       0xd0 CMakeFiles/FOC_Driver.elf.dir/Drivers/STM32F1xx_HAL_Driver/Src/stm32f1xx_hal.c.obj
 .debug_ranges  0x000002d8       0xe0 CMakeFiles/FOC_Driver.elf.dir/Drivers/STM32F1xx_HAL_Driver/Src/stm32f1xx_hal_adc.c.obj
 .debug_ranges  0x000003b8      0x128 CMakeFiles/FOC_Driver.elf.dir/Drivers/STM32F1xx_HAL_Driver/Src/stm32f1xx_hal_can.c.obj
 .debug_ranges  0x000004e0       0xe0 CMakeFiles/FOC_Driver.elf.dir/Drivers/STM32F1xx_HAL_Driver/Src/stm32f1xx_hal_cortex.c.obj
 .debug_ranges  0x000005c0       0x48 CMakeFiles/FOC_Driver.elf.dir/Drivers/STM32F1xx_HAL_Driver/Src/stm32f1xx_hal_gpio.c.obj
 .debug_ranges  0x00000608      0x2a8 CMakeFiles/FOC_Driver.elf.dir/Drivers/STM32F1xx_HAL_Driver/Src/stm32f1xx_hal_i2c.c.obj
 .debug_ranges  0x000008b0       0xa0 CMakeFiles/FOC_Driver.elf.dir/Drivers/STM32F1xx_HAL_Driver/Src/stm32f1xx_hal_rcc.c.obj
 .debug_ranges  0x00000950       0x38 CMakeFiles/FOC_Driver.elf.dir/Drivers/STM32F1xx_HAL_Driver/Src/stm32f1xx_hal_rcc_ex.c.obj
 .debug_ranges  0x00000988      0x1c0 CMakeFiles/FOC_Driver.elf.dir/Drivers/STM32F1xx_HAL_Driver/Src/stm32f1xx_hal_spi.c.obj
 .debug_ranges  0x00000b48      0x3c0 CMakeFiles/FOC_Driver.elf.dir/Drivers/STM32F1xx_HAL_Driver/Src/stm32f1xx_hal_tim.c.obj
 .debug_ranges  0x00000f08      0x158 CMakeFiles/FOC_Driver.elf.dir/Drivers/STM32F1xx_HAL_Driver/Src/stm32f1xx_hal_tim_ex.c.obj
 .debug_ranges  0x00001060      0x1f0 CMakeFiles/FOC_Driver.elf.dir/Drivers/STM32F1xx_HAL_Driver/Src/stm32f1xx_hal_uart.c.obj
 .debug_ranges  0x00001250       0x18 CMakeFiles/FOC_Driver.elf.dir/FOC/FOC.c.obj
 .debug_ranges  0x00001268       0x30 CMakeFiles/FOC_Driver.elf.dir/FOC/FOC_utils.c.obj
 .debug_ranges  0x00001298       0x18 CMakeFiles/FOC_Driver.elf.dir/FOC/hardware_specific/stm32_mcu.c.obj
 .debug_ranges  0x000012b0       0x40 CMakeFiles/FOC_Driver.elf.dir/retarget/retarget.c.obj
 .debug_ranges  0x000012f0       0xa0 CMakeFiles/FOC_Driver.elf.dir/st7735/st7735.c.obj
 .debug_ranges  0x00001390       0x20 CMakeFiles/FOC_Driver.elf.dir/startup/startup_stm32f103xb.s.obj

.debug_line     0x00000000    0x17928
 .debug_line    0x00000000      0x339 CMakeFiles/FOC_Driver.elf.dir/Core/Src/adc.c.obj
 .debug_line    0x00000339      0x332 CMakeFiles/FOC_Driver.elf.dir/Core/Src/can.c.obj
 .debug_line    0x0000066b      0x22c CMakeFiles/FOC_Driver.elf.dir/Core/Src/gpio.c.obj
 .debug_line    0x00000897      0x31f CMakeFiles/FOC_Driver.elf.dir/Core/Src/i2c.c.obj
 .debug_line    0x00000bb6      0x527 CMakeFiles/FOC_Driver.elf.dir/Core/Src/main.c.obj
 .debug_line    0x000010dd      0x32d CMakeFiles/FOC_Driver.elf.dir/Core/Src/spi.c.obj
 .debug_line    0x0000140a      0x181 CMakeFiles/FOC_Driver.elf.dir/Core/Src/stm32f1xx_hal_msp.c.obj
 .debug_line    0x0000158b      0x1ad CMakeFiles/FOC_Driver.elf.dir/Core/Src/stm32f1xx_it.c.obj
 .debug_line    0x00001738      0x3df CMakeFiles/FOC_Driver.elf.dir/Core/Src/syscalls.c.obj
 .debug_line    0x00001b17      0x24a CMakeFiles/FOC_Driver.elf.dir/Core/Src/system_stm32f1xx.c.obj
 .debug_line    0x00001d61      0x44c CMakeFiles/FOC_Driver.elf.dir/Core/Src/tim.c.obj
 .debug_line    0x000021ad      0x336 CMakeFiles/FOC_Driver.elf.dir/Core/Src/usart.c.obj
 .debug_line    0x000024e3      0x568 CMakeFiles/FOC_Driver.elf.dir/Drivers/STM32F1xx_HAL_Driver/Src/stm32f1xx_hal.c.obj
 .debug_line    0x00002a4b      0xf0b CMakeFiles/FOC_Driver.elf.dir/Drivers/STM32F1xx_HAL_Driver/Src/stm32f1xx_hal_adc.c.obj
 .debug_line    0x00003956     0x1131 CMakeFiles/FOC_Driver.elf.dir/Drivers/STM32F1xx_HAL_Driver/Src/stm32f1xx_hal_can.c.obj
 .debug_line    0x00004a87      0x658 CMakeFiles/FOC_Driver.elf.dir/Drivers/STM32F1xx_HAL_Driver/Src/stm32f1xx_hal_cortex.c.obj
 .debug_line    0x000050df      0x602 CMakeFiles/FOC_Driver.elf.dir/Drivers/STM32F1xx_HAL_Driver/Src/stm32f1xx_hal_gpio.c.obj
 .debug_line    0x000056e1     0x5554 CMakeFiles/FOC_Driver.elf.dir/Drivers/STM32F1xx_HAL_Driver/Src/stm32f1xx_hal_i2c.c.obj
 .debug_line    0x0000ac35      0xc4b CMakeFiles/FOC_Driver.elf.dir/Drivers/STM32F1xx_HAL_Driver/Src/stm32f1xx_hal_rcc.c.obj
 .debug_line    0x0000b880      0x4bd CMakeFiles/FOC_Driver.elf.dir/Drivers/STM32F1xx_HAL_Driver/Src/stm32f1xx_hal_rcc_ex.c.obj
 .debug_line    0x0000bd3d     0x2489 CMakeFiles/FOC_Driver.elf.dir/Drivers/STM32F1xx_HAL_Driver/Src/stm32f1xx_hal_spi.c.obj
 .debug_line    0x0000e1c6     0x467d CMakeFiles/FOC_Driver.elf.dir/Drivers/STM32F1xx_HAL_Driver/Src/stm32f1xx_hal_tim.c.obj
 .debug_line    0x00012843     0x1b7d CMakeFiles/FOC_Driver.elf.dir/Drivers/STM32F1xx_HAL_Driver/Src/stm32f1xx_hal_tim_ex.c.obj
 .debug_line    0x000143c0     0x20da CMakeFiles/FOC_Driver.elf.dir/Drivers/STM32F1xx_HAL_Driver/Src/stm32f1xx_hal_uart.c.obj
 .debug_line    0x0001649a      0x202 CMakeFiles/FOC_Driver.elf.dir/FOC/FOC.c.obj
 .debug_line    0x0001669c      0x236 CMakeFiles/FOC_Driver.elf.dir/FOC/FOC_utils.c.obj
 .debug_line    0x000168d2      0x25c CMakeFiles/FOC_Driver.elf.dir/FOC/hardware_specific/stm32_mcu.c.obj
 .debug_line    0x00016b2e      0x45b CMakeFiles/FOC_Driver.elf.dir/retarget/retarget.c.obj
 .debug_line    0x00016f89       0xfe CMakeFiles/FOC_Driver.elf.dir/st7735/fonts.c.obj
 .debug_line    0x00017087      0x809 CMakeFiles/FOC_Driver.elf.dir/st7735/st7735.c.obj
 .debug_line    0x00017890       0x98 CMakeFiles/FOC_Driver.elf.dir/startup/startup_stm32f103xb.s.obj

.debug_str      0x00000000     0x60ee
 .debug_str     0x00000000      0x5b9 CMakeFiles/FOC_Driver.elf.dir/Core/Src/adc.c.obj
                                0x659 (size before relaxing)
 .debug_str     0x000005b9      0x2ab CMakeFiles/FOC_Driver.elf.dir/Core/Src/can.c.obj
                                0x59e (size before relaxing)
 .debug_str     0x00000864       0x66 CMakeFiles/FOC_Driver.elf.dir/Core/Src/gpio.c.obj
                                0x2b7 (size before relaxing)
 .debug_str     0x000008ca      0x304 CMakeFiles/FOC_Driver.elf.dir/Core/Src/i2c.c.obj
                                0x79c (size before relaxing)
 .debug_str     0x00000bce      0x509 CMakeFiles/FOC_Driver.elf.dir/Core/Src/main.c.obj
                                0x952 (size before relaxing)
 .debug_str     0x000010d7      0x1db CMakeFiles/FOC_Driver.elf.dir/Core/Src/spi.c.obj
                                0x6c5 (size before relaxing)
 .debug_str     0x000012b2       0x44 CMakeFiles/FOC_Driver.elf.dir/Core/Src/stm32f1xx_hal_msp.c.obj
                                0x259 (size before relaxing)
 .debug_str     0x000012f6       0xcf CMakeFiles/FOC_Driver.elf.dir/Core/Src/stm32f1xx_it.c.obj
                                0x25c (size before relaxing)
 .debug_str     0x000013c5      0x239 CMakeFiles/FOC_Driver.elf.dir/Core/Src/syscalls.c.obj
                                0x43d (size before relaxing)
 .debug_str     0x000015fe       0x96 CMakeFiles/FOC_Driver.elf.dir/Core/Src/system_stm32f1xx.c.obj
                                0x28e (size before relaxing)
 .debug_str     0x00001694      0x55c CMakeFiles/FOC_Driver.elf.dir/Core/Src/tim.c.obj
                                0xa28 (size before relaxing)
 .debug_str     0x00001bf0       0x69 CMakeFiles/FOC_Driver.elf.dir/Core/Src/usart.c.obj
                                0x700 (size before relaxing)
 .debug_str     0x00001c59      0x5f7 CMakeFiles/FOC_Driver.elf.dir/Drivers/STM32F1xx_HAL_Driver/Src/stm32f1xx_hal.c.obj
                                0x85e (size before relaxing)
 .debug_str     0x00002250      0x350 CMakeFiles/FOC_Driver.elf.dir/Drivers/STM32F1xx_HAL_Driver/Src/stm32f1xx_hal_adc.c.obj
                                0x90d (size before relaxing)
 .debug_str     0x000025a0      0x562 CMakeFiles/FOC_Driver.elf.dir/Drivers/STM32F1xx_HAL_Driver/Src/stm32f1xx_hal_can.c.obj
                                0xa78 (size before relaxing)
 .debug_str     0x00002b02      0x3b5 CMakeFiles/FOC_Driver.elf.dir/Drivers/STM32F1xx_HAL_Driver/Src/stm32f1xx_hal_cortex.c.obj
                                0x90d (size before relaxing)
 .debug_str     0x00002eb7      0x132 CMakeFiles/FOC_Driver.elf.dir/Drivers/STM32F1xx_HAL_Driver/Src/stm32f1xx_hal_gpio.c.obj
                                0x43a (size before relaxing)
 .debug_str     0x00002fe9      0x8f0 CMakeFiles/FOC_Driver.elf.dir/Drivers/STM32F1xx_HAL_Driver/Src/stm32f1xx_hal_i2c.c.obj
                                0xff2 (size before relaxing)
 .debug_str     0x000038d9      0x1dd CMakeFiles/FOC_Driver.elf.dir/Drivers/STM32F1xx_HAL_Driver/Src/stm32f1xx_hal_rcc.c.obj
                                0x665 (size before relaxing)
 .debug_str     0x00003ab6       0x9c CMakeFiles/FOC_Driver.elf.dir/Drivers/STM32F1xx_HAL_Driver/Src/stm32f1xx_hal_rcc_ex.c.obj
                                0x40d (size before relaxing)
 .debug_str     0x00003b52      0x51b CMakeFiles/FOC_Driver.elf.dir/Drivers/STM32F1xx_HAL_Driver/Src/stm32f1xx_hal_spi.c.obj
                                0xba1 (size before relaxing)
 .debug_str     0x0000406d      0xde9 CMakeFiles/FOC_Driver.elf.dir/Drivers/STM32F1xx_HAL_Driver/Src/stm32f1xx_hal_tim.c.obj
                               0x1672 (size before relaxing)
 .debug_str     0x00004e56      0x48a CMakeFiles/FOC_Driver.elf.dir/Drivers/STM32F1xx_HAL_Driver/Src/stm32f1xx_hal_tim_ex.c.obj
                                0xe73 (size before relaxing)
 .debug_str     0x000052e0      0x5ff CMakeFiles/FOC_Driver.elf.dir/Drivers/STM32F1xx_HAL_Driver/Src/stm32f1xx_hal_uart.c.obj
                                0xcc8 (size before relaxing)
 .debug_str     0x000058df       0xc4 CMakeFiles/FOC_Driver.elf.dir/FOC/FOC.c.obj
                                0x2a6 (size before relaxing)
 .debug_str     0x000059a3       0x99 CMakeFiles/FOC_Driver.elf.dir/FOC/FOC_utils.c.obj
                                0x2c0 (size before relaxing)
 .debug_str     0x00005a3c       0x67 CMakeFiles/FOC_Driver.elf.dir/FOC/hardware_specific/stm32_mcu.c.obj
                                0x75d (size before relaxing)
 .debug_str     0x00005aa3      0x3e9 CMakeFiles/FOC_Driver.elf.dir/retarget/retarget.c.obj
                                0xb4d (size before relaxing)
 .debug_str     0x00005e8c       0x5c CMakeFiles/FOC_Driver.elf.dir/st7735/fonts.c.obj
                                0x228 (size before relaxing)
 .debug_str     0x00005ee8      0x1bf CMakeFiles/FOC_Driver.elf.dir/st7735/st7735.c.obj
                                0x80e (size before relaxing)
 .debug_str     0x000060a7       0x47 CMakeFiles/FOC_Driver.elf.dir/startup/startup_stm32f103xb.s.obj
                                 0x80 (size before relaxing)

.comment        0x00000000       0x49
 .comment       0x00000000       0x49 CMakeFiles/FOC_Driver.elf.dir/Core/Src/adc.c.obj
                                 0x4a (size before relaxing)
 .comment       0x00000049       0x4a CMakeFiles/FOC_Driver.elf.dir/Core/Src/can.c.obj
 .comment       0x00000049       0x4a CMakeFiles/FOC_Driver.elf.dir/Core/Src/gpio.c.obj
 .comment       0x00000049       0x4a CMakeFiles/FOC_Driver.elf.dir/Core/Src/i2c.c.obj
 .comment       0x00000049       0x4a CMakeFiles/FOC_Driver.elf.dir/Core/Src/main.c.obj
 .comment       0x00000049       0x4a CMakeFiles/FOC_Driver.elf.dir/Core/Src/spi.c.obj
 .comment       0x00000049       0x4a CMakeFiles/FOC_Driver.elf.dir/Core/Src/stm32f1xx_hal_msp.c.obj
 .comment       0x00000049       0x4a CMakeFiles/FOC_Driver.elf.dir/Core/Src/stm32f1xx_it.c.obj
 .comment       0x00000049       0x4a CMakeFiles/FOC_Driver.elf.dir/Core/Src/syscalls.c.obj
 .comment       0x00000049       0x4a CMakeFiles/FOC_Driver.elf.dir/Core/Src/system_stm32f1xx.c.obj
 .comment       0x00000049       0x4a CMakeFiles/FOC_Driver.elf.dir/Core/Src/tim.c.obj
 .comment       0x00000049       0x4a CMakeFiles/FOC_Driver.elf.dir/Core/Src/usart.c.obj
 .comment       0x00000049       0x4a CMakeFiles/FOC_Driver.elf.dir/Drivers/STM32F1xx_HAL_Driver/Src/stm32f1xx_hal.c.obj
 .comment       0x00000049       0x4a CMakeFiles/FOC_Driver.elf.dir/Drivers/STM32F1xx_HAL_Driver/Src/stm32f1xx_hal_adc.c.obj
 .comment       0x00000049       0x4a CMakeFiles/FOC_Driver.elf.dir/Drivers/STM32F1xx_HAL_Driver/Src/stm32f1xx_hal_can.c.obj
 .comment       0x00000049       0x4a CMakeFiles/FOC_Driver.elf.dir/Drivers/STM32F1xx_HAL_Driver/Src/stm32f1xx_hal_cortex.c.obj
 .comment       0x00000049       0x4a CMakeFiles/FOC_Driver.elf.dir/Drivers/STM32F1xx_HAL_Driver/Src/stm32f1xx_hal_gpio.c.obj
 .comment       0x00000049       0x4a CMakeFiles/FOC_Driver.elf.dir/Drivers/STM32F1xx_HAL_Driver/Src/stm32f1xx_hal_i2c.c.obj
 .comment       0x00000049       0x4a CMakeFiles/FOC_Driver.elf.dir/Drivers/STM32F1xx_HAL_Driver/Src/stm32f1xx_hal_rcc.c.obj
 .comment       0x00000049       0x4a CMakeFiles/FOC_Driver.elf.dir/Drivers/STM32F1xx_HAL_Driver/Src/stm32f1xx_hal_rcc_ex.c.obj
 .comment       0x00000049       0x4a CMakeFiles/FOC_Driver.elf.dir/Drivers/STM32F1xx_HAL_Driver/Src/stm32f1xx_hal_spi.c.obj
 .comment       0x00000049       0x4a CMakeFiles/FOC_Driver.elf.dir/Drivers/STM32F1xx_HAL_Driver/Src/stm32f1xx_hal_tim.c.obj
 .comment       0x00000049       0x4a CMakeFiles/FOC_Driver.elf.dir/Drivers/STM32F1xx_HAL_Driver/Src/stm32f1xx_hal_tim_ex.c.obj
 .comment       0x00000049       0x4a CMakeFiles/FOC_Driver.elf.dir/Drivers/STM32F1xx_HAL_Driver/Src/stm32f1xx_hal_uart.c.obj
 .comment       0x00000049       0x4a CMakeFiles/FOC_Driver.elf.dir/FOC/FOC.c.obj
 .comment       0x00000049       0x4a CMakeFiles/FOC_Driver.elf.dir/FOC/FOC_utils.c.obj
 .comment       0x00000049       0x4a CMakeFiles/FOC_Driver.elf.dir/FOC/hardware_specific/stm32_mcu.c.obj
 .comment       0x00000049       0x4a CMakeFiles/FOC_Driver.elf.dir/retarget/retarget.c.obj
 .comment       0x00000049       0x4a CMakeFiles/FOC_Driver.elf.dir/st7735/fonts.c.obj
 .comment       0x00000049       0x4a CMakeFiles/FOC_Driver.elf.dir/st7735/st7735.c.obj

.debug_frame    0x00000000     0x5078
 .debug_frame   0x00000000       0x68 CMakeFiles/FOC_Driver.elf.dir/Core/Src/adc.c.obj
 .debug_frame   0x00000068       0x60 CMakeFiles/FOC_Driver.elf.dir/Core/Src/can.c.obj
 .debug_frame   0x000000c8       0x38 CMakeFiles/FOC_Driver.elf.dir/Core/Src/gpio.c.obj
 .debug_frame   0x00000100       0x60 CMakeFiles/FOC_Driver.elf.dir/Core/Src/i2c.c.obj
 .debug_frame   0x00000160       0x60 CMakeFiles/FOC_Driver.elf.dir/Core/Src/main.c.obj
 .debug_frame   0x000001c0       0x60 CMakeFiles/FOC_Driver.elf.dir/Core/Src/spi.c.obj
 .debug_frame   0x00000220       0x28 CMakeFiles/FOC_Driver.elf.dir/Core/Src/stm32f1xx_hal_msp.c.obj
 .debug_frame   0x00000248       0xa8 CMakeFiles/FOC_Driver.elf.dir/Core/Src/stm32f1xx_it.c.obj
 .debug_frame   0x000002f0      0x168 CMakeFiles/FOC_Driver.elf.dir/Core/Src/syscalls.c.obj
 .debug_frame   0x00000458       0x30 CMakeFiles/FOC_Driver.elf.dir/Core/Src/system_stm32f1xx.c.obj
 .debug_frame   0x00000488       0x7c CMakeFiles/FOC_Driver.elf.dir/Core/Src/tim.c.obj
 .debug_frame   0x00000504       0x60 CMakeFiles/FOC_Driver.elf.dir/Core/Src/usart.c.obj
 .debug_frame   0x00000564      0x1cc CMakeFiles/FOC_Driver.elf.dir/Drivers/STM32F1xx_HAL_Driver/Src/stm32f1xx_hal.c.obj
 .debug_frame   0x00000730      0x2c4 CMakeFiles/FOC_Driver.elf.dir/Drivers/STM32F1xx_HAL_Driver/Src/stm32f1xx_hal_adc.c.obj
 .debug_frame   0x000009f4      0x2d0 CMakeFiles/FOC_Driver.elf.dir/Drivers/STM32F1xx_HAL_Driver/Src/stm32f1xx_hal_can.c.obj
 .debug_frame   0x00000cc4      0x118 CMakeFiles/FOC_Driver.elf.dir/Drivers/STM32F1xx_HAL_Driver/Src/stm32f1xx_hal_cortex.c.obj
 .debug_frame   0x00000ddc       0xe4 CMakeFiles/FOC_Driver.elf.dir/Drivers/STM32F1xx_HAL_Driver/Src/stm32f1xx_hal_gpio.c.obj
 .debug_frame   0x00000ec0      0x970 CMakeFiles/FOC_Driver.elf.dir/Drivers/STM32F1xx_HAL_Driver/Src/stm32f1xx_hal_i2c.c.obj
 .debug_frame   0x00001830      0x190 CMakeFiles/FOC_Driver.elf.dir/Drivers/STM32F1xx_HAL_Driver/Src/stm32f1xx_hal_rcc.c.obj
 .debug_frame   0x000019c0       0x64 CMakeFiles/FOC_Driver.elf.dir/Drivers/STM32F1xx_HAL_Driver/Src/stm32f1xx_hal_rcc_ex.c.obj
 .debug_frame   0x00001a24      0x5a4 CMakeFiles/FOC_Driver.elf.dir/Drivers/STM32F1xx_HAL_Driver/Src/stm32f1xx_hal_spi.c.obj
 .debug_frame   0x00001fc8      0xb18 CMakeFiles/FOC_Driver.elf.dir/Drivers/STM32F1xx_HAL_Driver/Src/stm32f1xx_hal_tim.c.obj
 .debug_frame   0x00002ae0      0x40c CMakeFiles/FOC_Driver.elf.dir/Drivers/STM32F1xx_HAL_Driver/Src/stm32f1xx_hal_tim_ex.c.obj
 .debug_frame   0x00002eec      0x5c4 CMakeFiles/FOC_Driver.elf.dir/Drivers/STM32F1xx_HAL_Driver/Src/stm32f1xx_hal_uart.c.obj
 .debug_frame   0x000034b0       0x4c CMakeFiles/FOC_Driver.elf.dir/FOC/FOC.c.obj
 .debug_frame   0x000034fc       0x88 CMakeFiles/FOC_Driver.elf.dir/FOC/FOC_utils.c.obj
 .debug_frame   0x00003584       0x44 CMakeFiles/FOC_Driver.elf.dir/FOC/hardware_specific/stm32_mcu.c.obj
 .debug_frame   0x000035c8       0xb8 CMakeFiles/FOC_Driver.elf.dir/retarget/retarget.c.obj
 .debug_frame   0x00003680      0x234 CMakeFiles/FOC_Driver.elf.dir/st7735/st7735.c.obj
 .debug_frame   0x000038b4       0xac c:/tools/gcc-arm-none-eabi-10.3-2021.07/bin/../lib/gcc/arm-none-eabi/10.3.1/thumb/v7-m/nofp\libgcc.a(_arm_addsubdf3.o)
 .debug_frame   0x00003960       0x24 c:/tools/gcc-arm-none-eabi-10.3-2021.07/bin/../lib/gcc/arm-none-eabi/10.3.1/thumb/v7-m/nofp\libgcc.a(_arm_fixdfsi.o)
 .debug_frame   0x00003984       0x24 c:/tools/gcc-arm-none-eabi-10.3-2021.07/bin/../lib/gcc/arm-none-eabi/10.3.1/thumb/v7-m/nofp\libgcc.a(_arm_fixunsdfsi.o)
 .debug_frame   0x000039a8       0x24 c:/tools/gcc-arm-none-eabi-10.3-2021.07/bin/../lib/gcc/arm-none-eabi/10.3.1/thumb/v7-m/nofp\libgcc.a(_arm_truncdfsf2.o)
 .debug_frame   0x000039cc       0x4c c:/tools/gcc-arm-none-eabi-10.3-2021.07/bin/../lib/gcc/arm-none-eabi/10.3.1/thumb/v7-m/nofp\libgcc.a(_arm_addsubsf3.o)
 .debug_frame   0x00003a18       0x38 c:/tools/gcc-arm-none-eabi-10.3-2021.07/bin/../lib/gcc/arm-none-eabi/10.3.1/thumb/v7-m/nofp\libgcc.a(_arm_muldivsf3.o)
 .debug_frame   0x00003a50       0xc8 c:/tools/gcc-arm-none-eabi-10.3-2021.07/bin/../lib/gcc/arm-none-eabi/10.3.1/thumb/v7-m/nofp\libgcc.a(_arm_cmpsf2.o)
 .debug_frame   0x00003b18       0x24 c:/tools/gcc-arm-none-eabi-10.3-2021.07/bin/../lib/gcc/arm-none-eabi/10.3.1/thumb/v7-m/nofp\libgcc.a(_arm_fixsfsi.o)
 .debug_frame   0x00003b3c       0x20 c:/tools/gcc-arm-none-eabi-10.3-2021.07/bin/../lib/gcc/arm-none-eabi/10.3.1/../../../../arm-none-eabi/lib/thumb/v7-m/nofp\libg.a(lib_a-errno.o)
 .debug_frame   0x00003b5c       0x2c c:/tools/gcc-arm-none-eabi-10.3-2021.07/bin/../lib/gcc/arm-none-eabi/10.3.1/../../../../arm-none-eabi/lib/thumb/v7-m/nofp\libg.a(lib_a-init.o)
 .debug_frame   0x00003b88       0x30 c:/tools/gcc-arm-none-eabi-10.3-2021.07/bin/../lib/gcc/arm-none-eabi/10.3.1/../../../../arm-none-eabi/lib/thumb/v7-m/nofp\libg.a(lib_a-malloc.o)
 .debug_frame   0x00003bb8       0x4c c:/tools/gcc-arm-none-eabi-10.3-2021.07/bin/../lib/gcc/arm-none-eabi/10.3.1/../../../../arm-none-eabi/lib/thumb/v7-m/nofp\libg.a(lib_a-mallocr.o)
 .debug_frame   0x00003c04       0x2c c:/tools/gcc-arm-none-eabi-10.3-2021.07/bin/../lib/gcc/arm-none-eabi/10.3.1/../../../../arm-none-eabi/lib/thumb/v7-m/nofp\libg.a(lib_a-memset.o)
 .debug_frame   0x00003c30       0x30 c:/tools/gcc-arm-none-eabi-10.3-2021.07/bin/../lib/gcc/arm-none-eabi/10.3.1/../../../../arm-none-eabi/lib/thumb/v7-m/nofp\libg.a(lib_a-mlock.o)
 .debug_frame   0x00003c60       0x74 c:/tools/gcc-arm-none-eabi-10.3-2021.07/bin/../lib/gcc/arm-none-eabi/10.3.1/../../../../arm-none-eabi/lib/thumb/v7-m/nofp\libg.a(lib_a-printf.o)
 .debug_frame   0x00003cd4       0x2c c:/tools/gcc-arm-none-eabi-10.3-2021.07/bin/../lib/gcc/arm-none-eabi/10.3.1/../../../../arm-none-eabi/lib/thumb/v7-m/nofp\libg.a(lib_a-sbrkr.o)
 .debug_frame   0x00003d00       0x48 c:/tools/gcc-arm-none-eabi-10.3-2021.07/bin/../lib/gcc/arm-none-eabi/10.3.1/../../../../arm-none-eabi/lib/thumb/v7-m/nofp\libg.a(lib_a-setvbuf.o)
 .debug_frame   0x00003d48       0x94 c:/tools/gcc-arm-none-eabi-10.3-2021.07/bin/../lib/gcc/arm-none-eabi/10.3.1/../../../../arm-none-eabi/lib/thumb/v7-m/nofp\libg.a(lib_a-vfprintf.o)
 .debug_frame   0x00003ddc       0x2c c:/tools/gcc-arm-none-eabi-10.3-2021.07/bin/../lib/gcc/arm-none-eabi/10.3.1/../../../../arm-none-eabi/lib/thumb/v7-m/nofp\libg.a(lib_a-wsetup.o)
 .debug_frame   0x00003e08       0x5c c:/tools/gcc-arm-none-eabi-10.3-2021.07/bin/../lib/gcc/arm-none-eabi/10.3.1/../../../../arm-none-eabi/lib/thumb/v7-m/nofp\libg.a(lib_a-__call_atexit.o)
 .debug_frame   0x00003e64       0x20 c:/tools/gcc-arm-none-eabi-10.3-2021.07/bin/../lib/gcc/arm-none-eabi/10.3.1/../../../../arm-none-eabi/lib/thumb/v7-m/nofp\libg.a(lib_a-atexit.o)
 .debug_frame   0x00003e84       0x8c c:/tools/gcc-arm-none-eabi-10.3-2021.07/bin/../lib/gcc/arm-none-eabi/10.3.1/../../../../arm-none-eabi/lib/thumb/v7-m/nofp\libg.a(lib_a-dtoa.o)
 .debug_frame   0x00003f10       0x70 c:/tools/gcc-arm-none-eabi-10.3-2021.07/bin/../lib/gcc/arm-none-eabi/10.3.1/../../../../arm-none-eabi/lib/thumb/v7-m/nofp\libg.a(lib_a-fflush.o)
 .debug_frame   0x00003f80      0x154 c:/tools/gcc-arm-none-eabi-10.3-2021.07/bin/../lib/gcc/arm-none-eabi/10.3.1/../../../../arm-none-eabi/lib/thumb/v7-m/nofp\libg.a(lib_a-findfp.o)
 .debug_frame   0x000040d4       0x34 c:/tools/gcc-arm-none-eabi-10.3-2021.07/bin/../lib/gcc/arm-none-eabi/10.3.1/../../../../arm-none-eabi/lib/thumb/v7-m/nofp\libg.a(lib_a-fini.o)
 .debug_frame   0x00004108       0x8c c:/tools/gcc-arm-none-eabi-10.3-2021.07/bin/../lib/gcc/arm-none-eabi/10.3.1/../../../../arm-none-eabi/lib/thumb/v7-m/nofp\libg.a(lib_a-freer.o)
 .debug_frame   0x00004194       0x54 c:/tools/gcc-arm-none-eabi-10.3-2021.07/bin/../lib/gcc/arm-none-eabi/10.3.1/../../../../arm-none-eabi/lib/thumb/v7-m/nofp\libg.a(lib_a-fwalk.o)
 .debug_frame   0x000041e8       0x40 c:/tools/gcc-arm-none-eabi-10.3-2021.07/bin/../lib/gcc/arm-none-eabi/10.3.1/../../../../arm-none-eabi/lib/thumb/v7-m/nofp\libg.a(lib_a-localeconv.o)
 .debug_frame   0x00004228       0xb0 c:/tools/gcc-arm-none-eabi-10.3-2021.07/bin/../lib/gcc/arm-none-eabi/10.3.1/../../../../arm-none-eabi/lib/thumb/v7-m/nofp\libg.a(lib_a-lock.o)
 .debug_frame   0x000042d8       0x70 c:/tools/gcc-arm-none-eabi-10.3-2021.07/bin/../lib/gcc/arm-none-eabi/10.3.1/../../../../arm-none-eabi/lib/thumb/v7-m/nofp\libg.a(lib_a-makebuf.o)
 .debug_frame   0x00004348       0x28 c:/tools/gcc-arm-none-eabi-10.3-2021.07/bin/../lib/gcc/arm-none-eabi/10.3.1/../../../../arm-none-eabi/lib/thumb/v7-m/nofp\libg.a(lib_a-memchr-stub.o)
 .debug_frame   0x00004370      0x260 c:/tools/gcc-arm-none-eabi-10.3-2021.07/bin/../lib/gcc/arm-none-eabi/10.3.1/../../../../arm-none-eabi/lib/thumb/v7-m/nofp\libg.a(lib_a-mprec.o)
 .debug_frame   0x000045d0       0x64 c:/tools/gcc-arm-none-eabi-10.3-2021.07/bin/../lib/gcc/arm-none-eabi/10.3.1/../../../../arm-none-eabi/lib/thumb/v7-m/nofp\libg.a(lib_a-reent.o)
 .debug_frame   0x00004634       0x30 c:/tools/gcc-arm-none-eabi-10.3-2021.07/bin/../lib/gcc/arm-none-eabi/10.3.1/../../../../arm-none-eabi/lib/thumb/v7-m/nofp\libg.a(lib_a-s_frexp.o)
 .debug_frame   0x00004664       0x8c c:/tools/gcc-arm-none-eabi-10.3-2021.07/bin/../lib/gcc/arm-none-eabi/10.3.1/../../../../arm-none-eabi/lib/thumb/v7-m/nofp\libg.a(lib_a-stdio.o)
 .debug_frame   0x000046f0       0x20 c:/tools/gcc-arm-none-eabi-10.3-2021.07/bin/../lib/gcc/arm-none-eabi/10.3.1/../../../../arm-none-eabi/lib/thumb/v7-m/nofp\libg.a(lib_a-strlen-stub.o)
 .debug_frame   0x00004710       0x2c c:/tools/gcc-arm-none-eabi-10.3-2021.07/bin/../lib/gcc/arm-none-eabi/10.3.1/../../../../arm-none-eabi/lib/thumb/v7-m/nofp\libg.a(lib_a-strncpy.o)
 .debug_frame   0x0000473c       0xdc c:/tools/gcc-arm-none-eabi-10.3-2021.07/bin/../lib/gcc/arm-none-eabi/10.3.1/../../../../arm-none-eabi/lib/thumb/v7-m/nofp\libg.a(lib_a-vfiprintf.o)
 .debug_frame   0x00004818       0x2c c:/tools/gcc-arm-none-eabi-10.3-2021.07/bin/../lib/gcc/arm-none-eabi/10.3.1/../../../../arm-none-eabi/lib/thumb/v7-m/nofp\libg.a(lib_a-writer.o)
 .debug_frame   0x00004844       0x34 c:/tools/gcc-arm-none-eabi-10.3-2021.07/bin/../lib/gcc/arm-none-eabi/10.3.1/../../../../arm-none-eabi/lib/thumb/v7-m/nofp\libg.a(lib_a-__atexit.o)
 .debug_frame   0x00004878       0x40 c:/tools/gcc-arm-none-eabi-10.3-2021.07/bin/../lib/gcc/arm-none-eabi/10.3.1/../../../../arm-none-eabi/lib/thumb/v7-m/nofp\libg.a(lib_a-assert.o)
 .debug_frame   0x000048b8       0x2c c:/tools/gcc-arm-none-eabi-10.3-2021.07/bin/../lib/gcc/arm-none-eabi/10.3.1/../../../../arm-none-eabi/lib/thumb/v7-m/nofp\libg.a(lib_a-callocr.o)
 .debug_frame   0x000048e4       0x2c c:/tools/gcc-arm-none-eabi-10.3-2021.07/bin/../lib/gcc/arm-none-eabi/10.3.1/../../../../arm-none-eabi/lib/thumb/v7-m/nofp\libg.a(lib_a-closer.o)
 .debug_frame   0x00004910       0x3c c:/tools/gcc-arm-none-eabi-10.3-2021.07/bin/../lib/gcc/arm-none-eabi/10.3.1/../../../../arm-none-eabi/lib/thumb/v7-m/nofp\libg.a(lib_a-fclose.o)
 .debug_frame   0x0000494c       0x6c c:/tools/gcc-arm-none-eabi-10.3-2021.07/bin/../lib/gcc/arm-none-eabi/10.3.1/../../../../arm-none-eabi/lib/thumb/v7-m/nofp\libg.a(lib_a-fiprintf.o)
 .debug_frame   0x000049b8       0x88 c:/tools/gcc-arm-none-eabi-10.3-2021.07/bin/../lib/gcc/arm-none-eabi/10.3.1/../../../../arm-none-eabi/lib/thumb/v7-m/nofp\libg.a(lib_a-fputwc.o)
 .debug_frame   0x00004a40       0x2c c:/tools/gcc-arm-none-eabi-10.3-2021.07/bin/../lib/gcc/arm-none-eabi/10.3.1/../../../../arm-none-eabi/lib/thumb/v7-m/nofp\libg.a(lib_a-fstatr.o)
 .debug_frame   0x00004a6c       0x64 c:/tools/gcc-arm-none-eabi-10.3-2021.07/bin/../lib/gcc/arm-none-eabi/10.3.1/../../../../arm-none-eabi/lib/thumb/v7-m/nofp\libg.a(lib_a-fvwrite.o)
 .debug_frame   0x00004ad0       0x2c c:/tools/gcc-arm-none-eabi-10.3-2021.07/bin/../lib/gcc/arm-none-eabi/10.3.1/../../../../arm-none-eabi/lib/thumb/v7-m/nofp\libg.a(lib_a-isattyr.o)
 .debug_frame   0x00004afc       0x68 c:/tools/gcc-arm-none-eabi-10.3-2021.07/bin/../lib/gcc/arm-none-eabi/10.3.1/../../../../arm-none-eabi/lib/thumb/v7-m/nofp\libg.a(lib_a-locale.o)
 .debug_frame   0x00004b64       0x2c c:/tools/gcc-arm-none-eabi-10.3-2021.07/bin/../lib/gcc/arm-none-eabi/10.3.1/../../../../arm-none-eabi/lib/thumb/v7-m/nofp\libg.a(lib_a-lseekr.o)
 .debug_frame   0x00004b90       0x4c c:/tools/gcc-arm-none-eabi-10.3-2021.07/bin/../lib/gcc/arm-none-eabi/10.3.1/../../../../arm-none-eabi/lib/thumb/v7-m/nofp\libg.a(lib_a-mbtowc_r.o)
 .debug_frame   0x00004bdc       0x40 c:/tools/gcc-arm-none-eabi-10.3-2021.07/bin/../lib/gcc/arm-none-eabi/10.3.1/../../../../arm-none-eabi/lib/thumb/v7-m/nofp\libg.a(lib_a-memmove.o)
 .debug_frame   0x00004c1c       0x2c c:/tools/gcc-arm-none-eabi-10.3-2021.07/bin/../lib/gcc/arm-none-eabi/10.3.1/../../../../arm-none-eabi/lib/thumb/v7-m/nofp\libg.a(lib_a-readr.o)
 .debug_frame   0x00004c48       0x48 c:/tools/gcc-arm-none-eabi-10.3-2021.07/bin/../lib/gcc/arm-none-eabi/10.3.1/../../../../arm-none-eabi/lib/thumb/v7-m/nofp\libg.a(lib_a-reallocr.o)
 .debug_frame   0x00004c90       0x40 c:/tools/gcc-arm-none-eabi-10.3-2021.07/bin/../lib/gcc/arm-none-eabi/10.3.1/../../../../arm-none-eabi/lib/thumb/v7-m/nofp\libg.a(lib_a-wbuf.o)
 .debug_frame   0x00004cd0       0x60 c:/tools/gcc-arm-none-eabi-10.3-2021.07/bin/../lib/gcc/arm-none-eabi/10.3.1/../../../../arm-none-eabi/lib/thumb/v7-m/nofp\libg.a(lib_a-wcrtomb.o)
 .debug_frame   0x00004d30       0x3c c:/tools/gcc-arm-none-eabi-10.3-2021.07/bin/../lib/gcc/arm-none-eabi/10.3.1/../../../../arm-none-eabi/lib/thumb/v7-m/nofp\libg.a(lib_a-wctomb_r.o)
 .debug_frame   0x00004d6c       0x28 c:/tools/gcc-arm-none-eabi-10.3-2021.07/bin/../lib/gcc/arm-none-eabi/10.3.1/../../../../arm-none-eabi/lib/thumb/v7-m/nofp\libg.a(lib_a-abort.o)
 .debug_frame   0x00004d94      0x114 c:/tools/gcc-arm-none-eabi-10.3-2021.07/bin/../lib/gcc/arm-none-eabi/10.3.1/../../../../arm-none-eabi/lib/thumb/v7-m/nofp\libg.a(lib_a-signal.o)
 .debug_frame   0x00004ea8       0x3c c:/tools/gcc-arm-none-eabi-10.3-2021.07/bin/../lib/gcc/arm-none-eabi/10.3.1/../../../../arm-none-eabi/lib/thumb/v7-m/nofp\libg.a(lib_a-signalr.o)
 .debug_frame   0x00004ee4       0x50 c:/tools/gcc-arm-none-eabi-10.3-2021.07/bin/../lib/gcc/arm-none-eabi/10.3.1/thumb/v7-m/nofp\libgcc.a(_arm_muldivdf3.o)
 .debug_frame   0x00004f34       0xc4 c:/tools/gcc-arm-none-eabi-10.3-2021.07/bin/../lib/gcc/arm-none-eabi/10.3.1/thumb/v7-m/nofp\libgcc.a(_arm_cmpdf2.o)
 .debug_frame   0x00004ff8       0x20 c:/tools/gcc-arm-none-eabi-10.3-2021.07/bin/../lib/gcc/arm-none-eabi/10.3.1/thumb/v7-m/nofp\libgcc.a(_arm_unorddf2.o)
 .debug_frame   0x00005018       0x2c c:/tools/gcc-arm-none-eabi-10.3-2021.07/bin/../lib/gcc/arm-none-eabi/10.3.1/thumb/v7-m/nofp\libgcc.a(_aeabi_uldivmod.o)
 .debug_frame   0x00005044       0x34 c:/tools/gcc-arm-none-eabi-10.3-2021.07/bin/../lib/gcc/arm-none-eabi/10.3.1/thumb/v7-m/nofp\libgcc.a(_udivmoddi4.o)
